{
	"data": {
		"bytecode": {
			"linkReferences": {},
			"object": "608060405234801561001057600080fd5b5060405161844838038061844883398101604081905261002f9161008d565b600480546001600160a01b039283166001600160a01b0319918216179091556003805493831693821693909317909255600280549190931691161790556100d0565b80516001600160a01b038116811461008857600080fd5b919050565b6000806000606084860312156100a257600080fd5b6100ab84610071565b92506100b960208501610071565b91506100c760408501610071565b90509250925092565b618369806100df6000396000f3fe60806040523480156200001157600080fd5b5060043610620000825760003560e01c8063064220f61462000087578063203d39ff14620000a0578063316cc2dd14620000ec578063472c667014620000ff57806379502c55146200011657806383dd41c6146200012a578063ad5c46481462000134578063e14f870d1462000148575b600080fd5b6200009e62000098366004620005f8565b6200015c565b005b620000d4620000b1366004620005f8565b60006020818152928152604080822090935290815220546001600160a01b031681565b604051620000e3919062000636565b60405180910390f35b6001545b604051908152602001620000e3565b620000d4620001103660046200064a565b62000564565b600454620000d4906001600160a01b031681565b620000f06200058f565b600354620000d4906001600160a01b031681565b600254620000d4906001600160a01b031681565b806001600160a01b0316826001600160a01b031603620001bd5760405162461bcd60e51b81526020600482015260176024820152764f463a204944454e544943414c5f41444452455353455360481b60448201526064015b60405180910390fd5b600080826001600160a01b0316846001600160a01b031610620001e2578284620001e5565b83835b90925090506001600160a01b038216620002355760405162461bcd60e51b815260206004820152601060248201526f4f463a205a45524f5f4144445245535360801b6044820152606401620001b4565b6001600160a01b0382811660009081526020818152604080832085851684529091529020541615620002a25760405162461bcd60e51b81526020600482015260156024820152744f463a204f524445525f424f4f4b5f45584953545360581b6044820152606401620001b4565b60025460405163e6a4390560e01b81526001600160a01b0384811660048301528381166024830152600092169063e6a4390590604401602060405180830381865afa158015620002f6573d6000803e3d6000fd5b505050506040513d601f19601f820116820180604052508101906200031c919062000664565b90506001600160a01b038116620003725760405162461bcd60e51b81526020600482015260196024820152784f463a20544f4b454e5f504149525f4e4f545f45584953545360381b6044820152606401620001b4565b6000604051806020016200038690620005c3565b601f1982820381018352601f9091011660408190526001600160601b0319606087811b8216602084015286901b1660348201529091506000906048016040516020818303038152906040528051906020012090506000818351602085016000f59050600081604051620003f990620005d1565b62000405919062000636565b604051809103906000f08015801562000422573d6000803e3d6000fd5b50604051637c643b2f60e11b81529091506001600160a01b0383169063f8c8765e906200045a9088908d908d9087906004016200068b565b600060405180830381600087803b1580156200047557600080fd5b505af11580156200048a573d6000803e3d6000fd5b5050506001600160a01b038089166000818152602081815260408083208c8616845282528083208383528184209484529390915280822080549488166001600160a01b0319958616811790915583548516811790935560018054808201825592527fb10e2d527612073b26eecdfd717e6a320cf44b4afac2b0732d9fcbe2b7fa0cf69091018054909316909117909155517f267321d338ea43666c6df03413112ca765618ba630a099f14954f6d04e6d79cc9150620005519087908c908c9087906200068b565b60405180910390a1505050505050505050565b600181815481106200057557600080fd5b6000918252602090912001546001600160a01b0316905081565b600060405180602001620005a390620005c3565b6020820181038252601f19601f8201166040525080519060200120905090565b614f5580620006b783390190565b612d28806200560c83390190565b6001600160a01b0381168114620005f557600080fd5b50565b600080604083850312156200060c57600080fd5b82356200061981620005df565b915060208301356200062b81620005df565b809150509250929050565b6001600160a01b0391909116815260200190565b6000602082840312156200065d57600080fd5b5035919050565b6000602082840312156200067757600080fd5b81516200068481620005df565b9392505050565b6001600160a01b0394851681529284166020840152908316604083015290911660608201526080019056fe60806040526001600d5534801561001557600080fd5b50600580546001600160a01b03191633179055614f1e806100376000396000f3fe6080604052600436106101095760003560e01c8063053b4b9d1461011557806306fdde031461014d5780630902f1ac14610197578063217a4b70146101cc57806338bde791146101f95780637de81d8b1461021d57806392399c041461024b578063950f59b21461026257806398d5fdca14610282578063a8aa1b3114610297578063bc9113f0146102b7578063c2ffea8f146102cc578063c45a015514610307578063c55dae6314610327578063cb16086614610347578063d4d728da14610367578063db7b373e14610387578063e52fa98b1461039d578063e68cc597146103bd578063f12dbb9f146103dd578063f1a2e849146103fd578063f8c8765e1461041357600080fd5b3661011057005b600080fd5b34801561012157600080fd5b50610135610130366004614838565b610433565b604051610144939291906148b5565b60405180910390f35b34801561015957600080fd5b5061018a6040518060400160405280601181526020017048796272696458204f72646572426f6f6b60781b81525081565b6040516101449190614977565b3480156101a357600080fd5b506101ac6106c9565b604080516001600160701b03938416815292909116602083015201610144565b3480156101d857600080fd5b50600a546101ec906001600160a01b031681565b604051610144919061498a565b34801561020557600080fd5b5061020f600b5481565b604051908152602001610144565b34801561022957600080fd5b5061023d61023836600461499e565b6106fa565b6040516101449291906149c0565b34801561025757600080fd5b5061026061089f565b005b34801561026e57600080fd5b5061020f61027d366004614838565b61098e565b34801561028e57600080fd5b5061020f610abd565b3480156102a357600080fd5b506006546101ec906001600160a01b031681565b3480156102c357600080fd5b5061020f610b39565b3480156102d857600080fd5b506102ec6102e73660046149e5565b610baf565b60408051938452602084019290925290820152606001610144565b34801561031357600080fd5b506005546101ec906001600160a01b031681565b34801561033357600080fd5b506009546101ec906001600160a01b031681565b34801561035357600080fd5b50610260610362366004614a11565b610ef8565b34801561037357600080fd5b506007546101ec906001600160a01b031681565b34801561039357600080fd5b5061020f60085481565b3480156103a957600080fd5b5061023d6103b8366004614a5c565b6110e9565b3480156103c957600080fd5b506102ec6103d83660046149e5565b61123a565b3480156103e957600080fd5b5061020f6103f8366004614838565b611572565b34801561040957600080fd5b5061020f600c5481565b34801561041f57600080fd5b5061026061042e366004614a81565b611687565b6000606080600d546001146104635760405162461bcd60e51b815260040161045a90614add565b60405180910390fd5b6000600d556006546001600160a01b031633146104b35760405162461bcd60e51b815260206004820152600e60248201526d34b73b30b634b21039b2b73232b960911b604482015260640161045a565b6040805160028082526060820183526000926020830190803683375050600654600954600a549394506104f7936001600160a01b03928316935090821691166118fc565b816001600160701b03169150806001600160701b031690508260008151811061052257610522614b13565b602002602001018360018151811061053c5761053c614b13565b60209081029190910101919091525260008061055789611a5c565b91509150600080610569836000611aa9565b915091505b811561061a5760006105ba858c8860008151811061058e5761058e614b13565b6020026020010151896001815181106105a9576105a9614b13565b602002602001015187600854611acb565b505050509050806000036105ce575061061a565b60006105df8b878487878e8e611c23565b909b5099509091506105f390508c82611cae565b9b5081810361060357505061061a565b61060d8585611d0a565b909450925061056e915050565b610622611d17565b89156106b357600184146106745761066f8a8660008151811061064757610647614b13565b60200260200101518760018151811061066257610662614b13565b6020026020010151611e01565b6106a6565b6106a68a8660018151811061068b5761068b614b13565b60200260200101518760008151811061066257610662614b13565b6106b09089614b3f565b97505b50505050506001600d8190555093509350939050565b600654600954600a5460009283926106f1926001600160a01b039283169291821691166118fc565b90939092509050565b606080600061070a856000611ec7565b905060006001860361074e575b81158015906107265750848210155b15610749576107358683611ec7565b91508061074181614b57565b915050610717565b610789565b60028603610789575b81158015906107665750848211155b15610789576107758683611ec7565b91508061078181614b57565b915050610757565b801561089657806001600160401b038111156107a7576107a7614afd565b6040519080825280602002602001820160405280156107d0578160200160208202803683370190505b509350806001600160401b038111156107eb576107eb614afd565b604051908082528060200260200182016040528015610814578160200160208202803683370190505b509250610822866000611ec7565b915060005b81811015610894578285828151811061084257610842614b13565b6020026020010181815250506108588784611ee4565b84828151811061086a5761086a614b13565b6020026020010181815250506108808784611ec7565b92508061088c81614b57565b915050610827565b505b50509250929050565b6108a96001611fda565b1580156108bd57506108bb6002611fda565b155b6108f75760405162461bcd60e51b815260206004820152600b60248201526a13dc99195c88115e1a5cdd60aa1b604482015260640161045a565b600a8054600980546001600160a01b03198084166001600160a01b0383811691909117909555169290911691821790556040805163313ce56760e01b8152905163313ce567916004808201926020929091908290030181865afa158015610962573d6000803e3d6000fd5b505050506040513d601f19601f820116820180604052508101906109869190614b81565b60ff16600855565b6000600d546001146109b25760405162461bcd60e51b815260040161045a90614add565b6000600d556005546001600160a01b03166109cc81611fec565b6001600160a01b0316146109f25760405162461bcd60e51b815260040161045a90614b9c565b60006109fc6120b1565b90506000600c548211610a10576000610a1d565b600c54610a1d9083614bcb565b60065460405163bc25cf7760e01b81529192506001600160a01b03169063bc25cf7790610a4e90899060040161498a565b600060405180830381600087803b158015610a6857600080fd5b505af1158015610a7c573d6000803e3d6000fd5b505050506000610a8d828787612128565b90508015610aa657610aa38583838960016125f3565b93505b610aae611d17565b50506001600d55509392505050565b600654600954600a5460009283928392610ae6926001600160a01b0390811692811691166118fc565b91509150816001600160701b0316600014610b3457816001600160701b0316610b27600854600a610b179190614cc6565b6001600160701b038416906126d8565b610b319190614cd2565b92505b505090565b600a546040805163313ce56760e01b815290516000926001600160a01b03169163313ce5679160048083019260209291908290030181865afa158015610b83573d6000803e3d6000fd5b505050506040513d601f19601f82011682018060405250810190610ba79190614b81565b60ff16905090565b60408051600680825260e08201909252600091829182918291906020820160c0803683375050600654600954600a54939450610bfc936001600160a01b03928316935090821691166118fc565b816001600160701b03169150806001600160701b0316905082600081518110610c2757610c27614b13565b6020026020010183600181518110610c4157610c41614b13565b602090810291909101019190915252610c5861273f565b82600281518110610c6b57610c6b614b13565b6020026020010183600381518110610c8557610c85614b13565b602090810291909101019190915252610c9d86611a5c565b82600481518110610cb057610cb0614b13565b6020026020010183600581518110610cca57610cca614b13565b6020026020010182815250828152505050600085905060009450600080610d0c84600581518110610cfd57610cfd614b13565b60200260200101516000611aa9565b915091505b8115610e4f576000610d6685600481518110610d2f57610d2f614b13565b60200260200101518587600081518110610d4b57610d4b614b13565b6020026020010151886001815181106105a9576105a9614b13565b909a50985091925050506000819003610d7f5750610e4f565b6000806000610de388600481518110610d9a57610d9a614b13565b602002602001015185886008548c600281518110610dba57610dba614b13565b60200260200101518d600381518110610dd557610dd5614b13565b60200260200101518b6128a1565b91945092509050610df48282611cae565b610dfe908c614b3f565b9a50610e0a8784611cae565b9650838303610e1c5750505050610e4f565b610e4088600581518110610e3257610e32614b13565b602002602001015187611aa9565b9096509450610d119350505050565b8215610eed57600184600481518110610e6a57610e6a614b13565b602002602001015114610eae57610ea98385600081518110610e8e57610e8e614b13565b60200260200101518660018151811061066257610662614b13565b610ee0565b610ee08385600181518110610ec557610ec5614b13565b60200260200101518660008151811061066257610662614b13565b610eea9088614b3f565b96505b505050509250925092565b600d54600114610f1a5760405162461bcd60e51b815260040161045a90614add565b6000600d55600554610f34906001600160a01b0316612a0e565b6001600160a01b0316336001600160a01b031614610f805760405162461bcd60e51b81526020600482015260096024820152682337b93134b23232b760b91b604482015260640161045a565b6001600160a01b038216610fd357478015610fcd576040516001600160a01b0383169082156108fc029083906000818181858888f19350505050158015610fcb573d6000803e3d6000fd5b505b506110e0565b6040516370a0823160e01b81526000906001600160a01b038416906370a082319061100290309060040161498a565b602060405180830381865afa15801561101f573d6000803e3d6000fd5b505050506040513d601f19601f820116820180604052508101906110439190614cf4565b60095490915081906001600160a01b039081169085160361108c57600061106a6002612aaf565b905080831161107a576000611084565b6110848184614bcb565b9150506110cc565b600a546001600160a01b03908116908516036110cc5760006110ae6001612aaf565b90508083116110be5760006110c8565b6110c88184614bcb565b9150505b80156110dd576110dd848483612af3565b50505b50506001600d55565b60608060006110f785611fda565b90508363ffffffff16811161110c5780611114565b8363ffffffff165b9050806001600160401b0381111561112e5761112e614afd565b604051908082528060200260200182016040528015611157578160200160208202803683370190505b509250806001600160401b0381111561117257611172614afd565b60405190808252806020026020018201604052801561119b578160200160208202803683370190505b50915060006111ab866000611ec7565b905060005b81158015906111c45750828163ffffffff16105b156108945781858263ffffffff16815181106111e2576111e2614b13565b6020026020010181815250506111f88783611ee4565b848263ffffffff168151811061121057611210614b13565b6020026020010181815250506112268783611ec7565b91508061123281614d0d565b9150506111b0565b60408051600680825260e08201909252600091829182918291906020820160c0803683375050600654600954600a54939450611287936001600160a01b03928316935090821691166118fc565b816001600160701b03169150806001600160701b03169050826000815181106112b2576112b2614b13565b60200260200101836001815181106112cc576112cc614b13565b6020908102919091010191909152526112e361273f565b826002815181106112f6576112f6614b13565b602002602001018360038151811061131057611310614b13565b60209081029190910101919091525261132886611a5c565b8260058151811061133b5761133b614b13565b602002602001018360048151811061135557611355614b13565b602002602001018281525082815250505060008590506000945060008061138884600581518110610cfd57610cfd614b13565b915091505b81156114d95760006113f3856004815181106113ab576113ab614b13565b602002602001015185876000815181106113c7576113c7614b13565b6020026020010151886001815181106113e2576113e2614b13565b602002602001015187600854612c2c565b909a5098509192505050600081900361140c57506114d9565b60008060006114708860048151811061142757611427614b13565b602002602001015185886008548c60028151811061144757611447614b13565b60200260200101518d60038151811061146257611462614b13565b60200260200101518b612d40565b91945092509050611482836001612e5a565b61148c908c614b3f565b9a506114a261149b8383611cae565b8890611cae565b96508382036114b457505050506114d9565b6114ca88600581518110610e3257610e32614b13565b909650945061138d9350505050565b8215610eed576001846004815181106114f4576114f4614b13565b60200260200101511461154057610ea9838560008151811061151857611518614b13565b60200260200101518660018151811061153357611533614b13565b6020026020010151612eaf565b610ee0838560018151811061155757611557614b13565b60200260200101518660008151811061153357611533614b13565b6000600d546001146115965760405162461bcd60e51b815260040161045a90614add565b6000600d556005546001600160a01b03166115b081611fec565b6001600160a01b0316146115d65760405162461bcd60e51b815260040161045a90614b9c565b60006115e0612f6a565b90506000600b5482116115f4576000611601565b600b546116019083614bcb565b60065460405163bc25cf7760e01b81529192506001600160a01b03169063bc25cf779061163290899060040161498a565b600060405180830381600087803b15801561164c57600080fd5b505af1158015611660573d6000803e3d6000fd5b505050506000611671828787612f9b565b90508015610aa657610aa38583838960026125f3565b6005546001600160a01b031633146116cd5760405162461bcd60e51b81526020600482015260096024820152682327a92124a22222a760b91b604482015260640161045a565b600080856001600160a01b0316630dfe16816040518163ffffffff1660e01b8152600401602060405180830381865afa15801561170e573d6000803e3d6000fd5b505050506040513d601f19601f820116820180604052508101906117329190614d30565b866001600160a01b031663d21220a76040518163ffffffff1660e01b8152600401602060405180830381865afa158015611770573d6000803e3d6000fd5b505050506040513d601f19601f820116820180604052508101906117949190614d30565b91509150846001600160a01b0316826001600160a01b03161480156117ca5750836001600160a01b0316816001600160a01b0316145b806118025750846001600160a01b0316816001600160a01b03161480156118025750836001600160a01b0316826001600160a01b0316145b6118435760405162461bcd60e51b8152602060048201526012602482015271151bdad95b8814185a5c88125b9d985b1a5960721b604482015260640161045a565b600680546001600160a01b038089166001600160a01b03199283161790925560078054868416908316179055600980548884169083168117909155600a8054938816939092169290921790556040805163313ce56760e01b8152905163313ce567916004808201926020929091908290030181865afa1580156118ca573d6000803e3d6000fd5b505050506040513d601f19601f820116820180604052508101906118ee9190614b81565b60ff16600855505050505050565b600080826001600160a01b0316846001600160a01b0316036119565760405162461bcd60e51b81526020600482015260136024820152724944454e544943414c5f41444452455353455360681b604482015260640161045a565b6000836001600160a01b0316856001600160a01b0316106119775783611979565b845b90506001600160a01b0381166119c05760405162461bcd60e51b815260206004820152600c60248201526b5a45524f5f4144445245535360a01b604482015260640161045a565b600080876001600160a01b0316630902f1ac6040518163ffffffff1660e01b8152600401606060405180830381865afa158015611a01573d6000803e3d6000fd5b505050506040513d601f19601f82011682018060405250810190611a259190614d64565b5091509150826001600160a01b0316876001600160a01b031614611a4a578082611a4d565b81815b90999098509650505050505050565b600a5460009081906001600160a01b03848116911614611a7d576002611a80565b60015b600a549092506001600160a01b03848116911614611a9f576001611aa2565b60025b9150915091565b600080611ab68484611ec7565b9150611ac28483611ee4565b90509250929050565b600080600080600060018b03611b7a576000611ae98a8a8a8a613403565b90506000611af98a6107cd6126d8565b9050808211611b09576000611b1f565b611b1f6107ca611b198385614bcb565b90613449565b94508b8511611b2e5784611b30565b8b5b94508415611b4857611b43858b8d611e01565b611b4b565b60005b9550611b57858d614bcb565b611b61878d614bcb565b611b6b878d614b3f565b91985094509250611c15915050565b60028b03611c0c576000611b908a8a8a8a61345c565b90506000611ba08b6107cd6126d8565b9050808211611bb0576000611bc0565b611bc06107ca611b198385614bcb565b95508b8611611bcf5785611bd1565b8b5b95508515611be957611be4868c8c611e01565b611bec565b60005b9450611bf8868d614bcb565b611c02878d614b3f565b611b6b878d614bcb565b50889350879050865b965096509650965096915050565b600080606080600080611c388c8c8c8c613494565b939950965091945092509050611c4e83886134ec565b9250611c5a84896135fd565b9350611c668282611cae565b9450600060018d14611c8357600a546001600160a01b0316611c90565b6009546001600160a01b03165b9050611c9d818f88612af3565b505050975097509750979350505050565b600082611cbb8382614bcb565b9150811115611d045760405162461bcd60e51b815260206004820152601560248201527464732d6d6174682d7375622d756e646572666c6f7760581b604482015260640161045a565b92915050565b600080611ab68484613721565b6009546040516370a0823160e01b81526001600160a01b03909116906370a0823190611d4790309060040161498a565b602060405180830381865afa158015611d64573d6000803e3d6000fd5b505050506040513d601f19601f82011682018060405250810190611d889190614cf4565b600b55600a546040516370a0823160e01b81526001600160a01b03909116906370a0823190611dbb90309060040161498a565b602060405180830381865afa158015611dd8573d6000803e3d6000fd5b505050506040513d601f19601f82011682018060405250810190611dfc9190614cf4565b600c55565b6000808411611e4e5760405162461bcd60e51b8152602060048201526019602482015278125394d551919250d251539517d25394155517d05353d55395603a1b604482015260640161045a565b600083118015611e5e5750600082115b611e7a5760405162461bcd60e51b815260040161045a90614da0565b6000611e88856103e56126d8565b90506000611e9682856126d8565b90506000611eb083611eaa886103e86126d8565b90612e5a565b9050611ebc8183614cd2565b979650505050505050565b600091825260036020908152604080842092845291905290205490565b600082815260016020908152604080832084845282528083205485845260028352818420858552909252822054815b81811015611fd157600754600087815260208181526040808320898452825280832085845290915290819020549051634a83e9cd60e11b81526001600160a01b0390921691639507d39a91611f6e9160040190815260200190565b608060405180830381865afa158015611f8b573d6000803e3d6000fd5b505050506040513d601f19601f82011682018060405250810190611faf9190614dd0565b60400151611fbd9085614b3f565b935080611fc981614b57565b915050611f13565b50505092915050565b60009081526004602052604090205490565b6000816001600160a01b031663e14f870d6040518163ffffffff1660e01b8152600401602060405180830381865afa15801561202c573d6000803e3d6000fd5b505050506040513d601f19601f820116820180604052508101906120509190614d30565b6001600160a01b031663def0d2cb6040518163ffffffff1660e01b8152600401602060405180830381865afa15801561208d573d6000803e3d6000fd5b505050506040513d601f19601f82011682018060405250810190611d049190614d30565b600a546040516370a0823160e01b81526000916001600160a01b0316906370a08231906120e290309060040161498a565b602060405180830381865afa1580156120ff573d6000803e3d6000fd5b505050506040513d601f19601f820116820180604052508101906121239190614cf4565b905090565b60408051600480825260a08201909252600091829190602082016080803683375050600654600954600a54939450612171936001600160a01b03928316935090821691166118fc565b816001600160701b03169150806001600160701b031690508260008151811061219c5761219c614b13565b60200260200101836001815181106121b6576121b6614b13565b6020026020010182815250828152505050806000815181106121da576121da614b13565b6020026020010151816001815181106121f5576121f5614b13565b60200260200101518260028151811061221057612210614b13565b602002602001018360038151811061222a5761222a614b13565b60200260200101828152508281525050506000808260008151811061225157612251614b13565b6020026020010151118015612280575060008260018151811061227657612276614b13565b6020026020010151115b90506000806000889550600061229860026000611ec7565b90505b80158015906122aa5750888111155b156123eb57868515612351576122fb600189896000815181106122cf576122cf614b13565b60200260200101518a6001815181106122ea576122ea614b13565b602002602001015186600854611acb565b8b60028151811061230e5761230e614b13565b602002602001018c60038151811061232857612328614b13565b6020908102919091010191909152529096509450905060008190036123515760009750506123eb565b600061235e600284611ee4565b905060008060008060006123756001888a89613494565b93985091965094509250905061238b8484611cae565b612395908a614b3f565b600a549099506123af906001600160a01b03168383613766565b8685036123c65760009d50505050505050506123eb565b6123d08e86611cae565b9d506123dd600289613721565b97505050505050505061229b565b811561247357600554604080516315ab88c960e31b81529051612473926001600160a01b03169163ad5c46489160048083019260209291908290030181865afa15801561243c573d6000803e3d6000fd5b505050506040513d601f19601f820116820180604052508101906124609190614d30565b6009546001600160a01b03168a85613832565b8480156124805750600087115b801561248c5750888114155b1561251a576124d6600188886000815181106124aa576124aa614b13565b6020026020010151896001815181106124c5576124c5614b13565b60200260200101518d600854611acb565b8a6002815181106124e9576124e9614b13565b602002602001018b60038151811061250357612503614b13565b602090810291909101019190915252919850945092505b82156125e65786156125715761256a87848860028151811061253e5761253e614b13565b60200260200101518960038151811061255957612559614b13565b60200260200101518d6008546138c5565b5090975092505b600a54600954612591918a916001600160a01b03918216911686886139a5565b8615806125a55750886125a2610abd565b10155b6125e65760405162461bcd60e51b8152602060048201526012602482015271084eaf240e0e4d2c6ca40dad2e6dac2e8c6d60731b604482015260640161045a565b5050505050509392505050565b604080516080810182528381526020810186815281830186815260ff8581166060850190815260075495516376555b6360e11b815285516004820152935160248501529151604484015290511660648201526001600160a01b038881166084830152600093169063ecaab6c69060a4016020604051808303816000875af1158015612682573d6000803e3d6000fd5b505050506040513d601f19601f820116820180604052508101906126a69190614cf4565b91506126b28385613cf3565b6000036126c3576126c38385613d2a565b6126ce838584613dc2565b5095945050505050565b60008115806126fc575082826126ee8183614e47565b92506126fa9083614cd2565b145b611d045760405162461bcd60e51b815260206004820152601460248201527364732d6d6174682d6d756c2d6f766572666c6f7760601b604482015260640161045a565b6000806000600560009054906101000a90046001600160a01b03166001600160a01b03166379502c556040518163ffffffff1660e01b8152600401602060405180830381865afa158015612797573d6000803e3d6000fd5b505050506040513d601f19601f820116820180604052508101906127bb9190614d30565b6040516304ebf0f960e21b81529091506001600160a01b038216906313afc3e4906127ea90309060040161498a565b602060405180830381865afa158015612807573d6000803e3d6000fd5b505050506040513d601f19601f8201168201806040525081019061282b9190614cf4565b604051633549d13d60e21b81526001600160a01b0383169063d52744f49061285790309060040161498a565b602060405180830381865afa158015612874573d6000803e3d6000fd5b505050506040513d601f19601f820116820180604052508101906128989190614cf4565b92509250509091565b60008060008060018b0361294a5760006128bc8b8b8b613e1a565b90506128d46128cd89612710614bcb565b87906126d8565b6128e0826127106126d8565b1161290b578a94506128f8612710611b19838b6126d8565b91506129048282614b3f565b9350612944565b612925612710611b1961291e8b83614bcb565b89906126d8565b9050612932818b8b613e36565b94508593506129418482611cae565b91505b506129db565b60028b036129db57600061295f8b8b8b613e36565b90506129706128cd89612710614bcb565b61297c826127106126d8565b116129a7578a9450612994612710611b19838b6126d8565b91506129a08282614b3f565b93506129d9565b6129ba612710611b1961291e8b83614bcb565b90506129c7818b8b613e1a565b94508593506129d68185614bcb565b91505b505b6129fe6064611b196129ed848a6126d8565b6129f88560646126d8565b90611cae565b9150509750975097945050505050565b6000816001600160a01b031663e14f870d6040518163ffffffff1660e01b8152600401602060405180830381865afa158015612a4e573d6000803e3d6000fd5b505050506040513d601f19601f82011682018060405250810190612a729190614d30565b6001600160a01b031663f851a4406040518163ffffffff1660e01b8152600401602060405180830381865afa15801561208d573d6000803e3d6000fd5b600080612abd836000611ec7565b90505b8015612aed57612ad08382611ee4565b612ada9083614b3f565b9150612ae68382611ec7565b9050612ac0565b50919050565b60408051808201825260198152787472616e7366657228616464726573732c75696e743235362960381b60209182015281516001600160a01b0385811660248301526044808301869052845180840390910181526064909201845291810180516001600160e01b031663a9059cbb60e01b17905291516000928392871691612b7b9190614e66565b6000604051808303816000865af19150503d8060008114612bb8576040519150601f19603f3d011682016040523d82523d6000602084013e612bbd565b606091505b5091509150818015612be7575080511580612be7575080806020019051810190612be79190614e82565b612c255760405162461bcd60e51b815260206004820152600f60248201526e1514905394d1915497d19052531151608a1b604482015260640161045a565b5050505050565b600080600080600060018b03612cba576000612c4a8a8a8a8a613403565b90506000612c5a8a6107cd6126d8565b9050808211612c6a576000612c7a565b612c7a6107ca611b198385614bcb565b94508415612c9257612c8d858b8d611e01565b612c95565b60005b95508b861115612cb0578b9550612cad868b8d612eaf565b94505b611b57868d614bcb565b60028b03611c0c576000612cd08a8a8a8a61345c565b90506000612ce08b6107cd6126d8565b9050808211612cf0576000612d00565b612d006107ca611b198385614bcb565b95508515612d1857612d13868c8c611e01565b612d1b565b60005b94508b851115612d36578b9450612d33858c8c612eaf565b95505b611bf8858d614bcb565b6000808080612d55612710611b19878a6126d8565b90506000612d686064611b19848a6126d8565b90506000612d7961149b8484611cae565b905060008c8211612da457879550612d918683611cae565b9450612d9d8284611cae565b9050612e19565b8c9150612dce612db48a8c614e47565b612dc190620f4240614bcb565b611b1984620f42406126d8565b9550612e0a612ddd8a8c614e47565b612dea90620f4240614bcb565b611b19612df98d612710614bcb565b612e048660646126d8565b906126d8565b9050612e168683611cae565b94505b60018e03612e3357612e2c818d8d613e36565b9650612e49565b60028e03612e4957612e46818d8d613e1a565b96505b505050509750975097945050505050565b600082612e678382614b3f565b9150811015611d045760405162461bcd60e51b815260206004820152601460248201527364732d6d6174682d6164642d6f766572666c6f7760601b604482015260640161045a565b6000808411612efd5760405162461bcd60e51b815260206004820152601a602482015279125394d551919250d251539517d3d55514155517d05353d5539560321b604482015260640161045a565b600083118015612f0d5750600082115b612f295760405162461bcd60e51b815260040161045a90614da0565b6000612f3b6103e8612e0486886126d8565b90506000612f4f6103e5612e048689611cae565b9050612f606001611eaa8385614cd2565b9695505050505050565b6009546040516370a0823160e01b81526000916001600160a01b0316906370a08231906120e290309060040161498a565b60408051600480825260a08201909252600091829190602082016080803683375050600654600954600a54939450612fe4936001600160a01b03928316935090821691166118fc565b816001600160701b03169150806001600160701b031690508260008151811061300f5761300f614b13565b602002602001018360018151811061302957613029614b13565b60200260200101828152508281525050508060008151811061304d5761304d614b13565b60200260200101518160018151811061306857613068614b13565b60200260200101518260028151811061308357613083614b13565b602002602001018360038151811061309d5761309d614b13565b6020026020010182815250828152505050849150600080826000815181106130c7576130c7614b13565b60200260200101511180156130f657506000826001815181106130ec576130ec614b13565b6020026020010151115b905060008060008061310a60016000611ec7565b90505b801580159061311c5750888110155b156132315786851561319757613141600289896000815181106122cf576122cf614b13565b8b60028151811061315457613154614b13565b602002602001018c60038151811061316e5761316e614b13565b602090810291909101019190915252909650945090506000819003613197576000975050613231565b60006131a4600184611ee4565b905060008060008060006131bb6002888a89613494565b9398509196509450925090506131d18484611cae565b6131db908a614b3f565b6009549099506131f5906001600160a01b03168383613766565b86850361320c5760009d5050505050505050613231565b6132168e86611cae565b9d50613223600189613721565b97505050505050505061310d565b81156132b957600554604080516315ab88c960e31b815290516132b9926001600160a01b03169163ad5c46489160048083019260209291908290030181865afa158015613282573d6000803e3d6000fd5b505050506040513d601f19601f820116820180604052508101906132a69190614d30565b600a546001600160a01b03168a85613832565b8480156132c65750600087115b80156132d25750888114155b15613334576132f0600288886000815181106124aa576124aa614b13565b8a60028151811061330357613303614b13565b602002602001018b60038151811061331d5761331d614b13565b602090810291909101019190915252919850945092505b83156125e657861561338b5761338487858860028151811061335857613358614b13565b60200260200101518960038151811061337357613373614b13565b60200260200101518d600854613e50565b5090975093505b600954600a546133ab918a916001600160a01b03918216911687876139a5565b8615806133bf5750886133bc610abd565b11155b6125e65760405162461bcd60e51b81526020600482015260156024820152741cd95b1b081d1bc81d185c99d95d0819985a5b1959605a1b604482015260640161045a565b600061344061343b61342c61341985600a614cc6565b611b1987612e04623cda20818d8d6126d8565b611eaa6009612e0489806126d8565b613eff565b95945050505050565b60006134558284614cd2565b9392505050565b600061344061343b61348585611b1961347687600a614cc6565b612e04623cda20818d8d6126d8565b611eaa6009612e048a806126d8565b60008060006060806000806134a761273f565b915091506134bc8b8b8b60085486868e6128a1565b919850965094506134d76134cf8c613f69565b88888c613f8b565b80945081955050505050945094509450945094565b6060815183516134fc9190614b3f565b6001600160401b0381111561351357613513614afd565b60405190808252806020026020018201604052801561353c578160200160208202803683370190505b50905060005b83518110156135945783818151811061355d5761355d614b13565b602002602001015182828151811061357757613577614b13565b60209081029190910101528061358c81614b57565b915050613542565b5060005b82518110156135f6578281815181106135b3576135b3614b13565b6020026020010151828286516135c99190614b3f565b815181106135d9576135d9614b13565b6020908102919091010152806135ee81614b57565b915050613598565b5092915050565b60608151835161360d9190614b3f565b6001600160401b0381111561362457613624614afd565b60405190808252806020026020018201604052801561364d578160200160208202803683370190505b50905060005b83518110156136b25783818151811061366e5761366e614b13565b602002602001015182828151811061368857613688614b13565b6001600160a01b0390921660209283029190910190910152806136aa81614b57565b915050613653565b5060005b82518110156135f6578281815181106136d1576136d1614b13565b6020026020010151828286516136e79190614b3f565b815181106136f7576136f7614b13565b6001600160a01b03909216602092830291909101909101528061371981614b57565b9150506136b6565b600082815260036020908152604080832084845290915290205480156137475780613455565b5050600090815260036020908152604080832083805290915290205490565b600554604080516315ab88c960e31b815290516000926001600160a01b03169163ad5c46489160048083019260209291908290030181865afa1580156137b0573d6000803e3d6000fd5b505050506040513d601f19601f820116820180604052508101906137d49190614d30565b905060005b8351811015612c255761382082868684815181106137f9576137f9614b13565b602002602001015186858151811061381357613813614b13565b6020026020010151613832565b8061382a81614b57565b9150506137d9565b836001600160a01b0316836001600160a01b0316036138b457604051632e1a7d4d60e01b8152600481018290526001600160a01b03851690632e1a7d4d90602401600060405180830381600087803b15801561388d57600080fd5b505af11580156138a1573d6000803e3d6000fd5b505050506138af8282614365565b6138bf565b6138bf838383612af3565b50505050565b6000806000806138d6888887614444565b905085811015613991576139136138fb6138f187600a614cc6565b611b198b856126d8565b6129f861390988600a614cc6565b611b198c8b6126d8565b915060008211613924576001613926565b815b9150818a10156139735760405162461bcd60e51b8152602060048201526018602482015277139bdd08115b9bdd59da0813dd5d1c1d5d08105b5bdd5b9d60421b604482015260640161045a565b61397d8a83611cae565b613987838b614b3f565b9094509250613998565b8993508892505b5096509650969350505050565b6006546139bd9085906001600160a01b031684612af3565b600080600660009054906101000a90046001600160a01b03166001600160a01b031663d21220a76040518163ffffffff1660e01b8152600401602060405180830381865afa158015613a13573d6000803e3d6000fd5b505050506040513d601f19601f82011682018060405250810190613a379190614d30565b6001600160a01b0316856001600160a01b031614613a5757826000613a5b565b6000835b915091506000600560009054906101000a90046001600160a01b03166001600160a01b031663ad5c46486040518163ffffffff1660e01b8152600401602060405180830381865afa158015613ab4573d6000803e3d6000fd5b505050506040513d601f19601f82011682018060405250810190613ad89190614d30565b9050856001600160a01b0316816001600160a01b031603613bee576006546001600160a01b0316637eb13dec84843060006040519080825280601f01601f191660200182016040528015613b33576020820181803683370190505b506040518563ffffffff1660e01b8152600401613b539493929190614ea4565b600060405180830381600087803b158015613b6d57600080fd5b505af1158015613b81573d6000803e3d6000fd5b5050604051632e1a7d4d60e01b8152600481018790526001600160a01b0384169250632e1a7d4d9150602401600060405180830381600087803b158015613bc757600080fd5b505af1158015613bdb573d6000803e3d6000fd5b50505050613be98885614365565b613c81565b6006546001600160a01b0316637eb13dec84848b60006040519080825280601f01601f191660200182016040528015613c2e576020820181803683370190505b506040518563ffffffff1660e01b8152600401613c4e9493929190614ea4565b600060405180830381600087803b158015613c6857600080fd5b505af1158015613c7c573d6000803e3d6000fd5b505050505b600660009054906101000a90046001600160a01b03166001600160a01b031663fff6cae96040518163ffffffff1660e01b8152600401600060405180830381600087803b158015613cd157600080fd5b505af1158015613ce5573d6000803e3d6000fd5b505050505050505050505050565b6000828152600160209081526040808320848452825280832054858452600283528184208585529092528220546134559190614bcb565b60008281526004602052604081205490819003613d69576000838152600360209081526040808320838052909152808220849055838252812055613d9e565b600080613d76858561446c565b6000878152600360209081526040808320948352939052828120879055868152919091205550505b6000838152600460205260408120805491613db883614b57565b9190505550505050565b6000838152600260209081526040808320858452808352818420805488865285855283862088875285528386208187528552928520869055868552925281549092909190613e0f83614b57565b919050555050505050565b6000613e2e83611b196128cd85600a614cc6565b949350505050565b6000613e2e613e4683600a614cc6565b611b1986866126d8565b600080600080613e61888887614444565b90508581111561399157613ea0613e8782611b19613e8089600a614cc6565b8b906126d8565b6129f888611b19613e998a600a614cc6565b8c906126d8565b915060008211613eb1576001613eb3565b815b9150818a10156139735760405162461bcd60e51b8152602060048201526017602482015276139bdd08115b9bdd59da08125b9c1d5d08105b5bdd5b9d604a1b604482015260640161045a565b60006003821115613f5a5750806000613f19600283614cd2565b613f24906001614b3f565b90505b81811015612aed57905080600281613f3f8186614cd2565b613f499190614b3f565b613f539190614cd2565b9050613f27565b8115613f64575060015b919050565b600081600103613f7b57506002919050565b81600203613f6457506001919050565b60608083600080613f9c8987613cf3565b90506000816001600160401b03811115613fb857613fb8614afd565b604051908082528060200260200182016040528015613fe1578160200160208202803683370190505b5090506000826001600160401b03811115613ffe57613ffe614afd565b604051908082528060200260200182016040528015614027578160200160208202803683370190505b5090505b828410801561403a5750600085115b1561425357600061404b8c8a614500565b90508060000361405b5750614253565b600754604051634a83e9cd60e11b8152600481018390526000916001600160a01b031690639507d39a90602401608060405180830381865afa1580156140a5573d6000803e3d6000fd5b505050506040513d601f19601f820116820180604052508101906140c99190614dd0565b6007546040516331a9108f60e11b8152600481018590529192506001600160a01b031690636352211e90602401602060405180830381865afa158015614113573d6000803e3d6000fd5b505050506040513d601f19601f820116820180604052508101906141379190614d30565b84878151811061414957614149614b13565b60200260200101906001600160a01b031690816001600160a01b03168152505060008160400151881161417c5787614182565b81604001515b90508084888151811061419757614197614b13565b60209081029190910101526141ac8189614bcb565b9750808260400151036142345760075460405163b390c0ab60e01b815260048101859052602481018390526001600160a01b039091169063b390c0ab90604401600060405180830381600087803b15801561420657600080fd5b505af115801561421a573d6000803e3d6000fd5b50505050868061422990614b57565b975050505050614253565b61423e838361455f565b8661424881614b57565b97505050505061402b565b8315614357576142638285614615565b9650836001600160401b0381111561427d5761427d614afd565b6040519080825280602002602001820160405280156142a6578160200160208202803683370190505b5095508051865111156142eb5760405162461bcd60e51b815260206004820152600d60248201526c125b99195e08125b9d985b1a59609a1b604482015260640161045a565b60005b84811015614355576143268a611b1984848151811061430f5761430f614b13565b60200260200101518e6126d890919063ffffffff16565b87828151811061433857614338614b13565b60209081029190910101528061434d81614b57565b9150506142ee565b505b505050505094509492505050565b604080516000808252602082019092526001600160a01b03841690839060405161438f9190614e66565b60006040518083038185875af1925050503d80600081146143cc576040519150601f19603f3d011682016040523d82523d6000602084013e6143d1565b606091505b505090508061443f5760405162461bcd60e51b815260206004820152603460248201527f5472616e7366657248656c7065723a3a736166655472616e736665724554483a60448201527308115512081d1c985b9cd9995c8819985a5b195960621b606482015260840161045a565b505050565b60008315613455578361446261445b84600a614cc6565b85906126d8565b613e2e9190614cd2565b600082815260036020908152604080832083805290915281205460001984016144c5575b828111156144c057600084815260036020908152604080832084845290915290205490915080156144f957614490565b6144f9565b600284036144f9575b828110156144f9576000848152600360209081526040808320848452909152902054909150806144ce575b9250929050565b60008281526001602090815260408083208484528252808320548584526002835281842085855290925282205480821461455757600085815260208181526040808320878452825280832085845290915290205492505b505092915050565b614574816060015160ff16826000015161470d565b50600754604082810151905163b390c0ab60e01b81526004810185905260248101919091526001600160a01b039091169063b390c0ab90604401600060405180830381600087803b1580156145c857600080fd5b505af11580156145dc573d6000803e3d6000fd5b505050506145f5816060015160ff168260000151613cf3565b60000361461157614611816060015160ff168260000151614795565b5050565b606082518211156146595760405162461bcd60e51b815260206004820152600e60248201526d092dcecc2d8d2c840d8cadccee8d60931b604482015260640161045a565b82518203614668575081611d04565b816001600160401b0381111561468057614680614afd565b6040519080825280602002602001820160405280156146a9578160200160208202803683370190505b50905060005b828110156135f6578381815181106146c9576146c9614b13565b60200260200101518282815181106146e3576146e3614b13565b6001600160a01b03909216602092830291909101909101528061470581614b57565b9150506146af565b60008281526001602090815260408083208484528252808320548584526002835281842085855290925282205480821461455757600085815260208181526040808320878452825280832085845282528083208054908490558884526001835281842088855290925282208054919550909161478883614b57565b9190505550505092915050565b6000806147a2848461446c565b915091508083146147e55760405162461bcd60e51b815260206004820152600d60248201526c496e76616c696420707269636560981b604482015260640161045a565b6000848152600360209081526040808320848452825280832080548685528285205583905586835260049091528120805491613e0f83614ed1565b6001600160a01b038116811461483557600080fd5b50565b60008060006060848603121561484d57600080fd5b833561485881614820565b925060208401359150604084013561486f81614820565b809150509250925092565b600081518084526020808501945080840160005b838110156148aa5781518752958201959082019060010161488e565b509495945050505050565b6000606082018583526020606081850152818651808452608086019150828801935060005b818110156148ff5784516001600160a01b0316835293830193918301916001016148da565b50508481036040860152614913818761487a565b98975050505050505050565b60005b8381101561493a578181015183820152602001614922565b838111156138bf5750506000910152565b6000815180845261496381602086016020860161491f565b601f01601f19169290920160200192915050565b602081526000613455602083018461494b565b6001600160a01b0391909116815260200190565b600080604083850312156149b157600080fd5b50508035926020909101359150565b6040815260006149d3604083018561487a565b8281036020840152613440818561487a565b600080604083850312156149f857600080fd5b8235614a0381614820565b946020939093013593505050565b60008060408385031215614a2457600080fd5b8235614a2f81614820565b91506020830135614a3f81614820565b809150509250929050565b63ffffffff8116811461483557600080fd5b60008060408385031215614a6f57600080fd5b823591506020830135614a3f81614a4a565b60008060008060808587031215614a9757600080fd5b8435614aa281614820565b93506020850135614ab281614820565b92506040850135614ac281614820565b91506060850135614ad281614820565b939692955090935050565b6020808252600690820152651313d0d2d15160d21b604082015260600190565b634e487b7160e01b600052604160045260246000fd5b634e487b7160e01b600052603260045260246000fd5b634e487b7160e01b600052601160045260246000fd5b60008219821115614b5257614b52614b29565b500190565b600060018201614b6957614b69614b29565b5060010190565b805160ff81168114613f6457600080fd5b600060208284031215614b9357600080fd5b61345582614b70565b60208082526015908201527413dc99195c909bdbdac81d5b98dbdb9b9958dd1959605a1b604082015260600190565b600082821015614bdd57614bdd614b29565b500390565b600181815b80851115614c1d578160001904821115614c0357614c03614b29565b80851615614c1057918102915b93841c9390800290614be7565b509250929050565b600082614c3457506001611d04565b81614c4157506000611d04565b8160018114614c575760028114614c6157614c7d565b6001915050611d04565b60ff841115614c7257614c72614b29565b50506001821b611d04565b5060208310610133831016604e8410600b8410161715614ca0575081810a611d04565b614caa8383614be2565b8060001904821115614cbe57614cbe614b29565b029392505050565b60006134558383614c25565b600082614cef57634e487b7160e01b600052601260045260246000fd5b500490565b600060208284031215614d0657600080fd5b5051919050565b600063ffffffff808316818103614d2657614d26614b29565b6001019392505050565b600060208284031215614d4257600080fd5b815161345581614820565b80516001600160701b0381168114613f6457600080fd5b600080600060608486031215614d7957600080fd5b614d8284614d4d565b9250614d9060208501614d4d565b9150604084015161486f81614a4a565b602080825260169082015275494e53554646494349454e545f4c495155494449545960501b604082015260600190565b600060808284031215614de257600080fd5b604051608081016001600160401b0381118282101715614e1257634e487b7160e01b600052604160045260246000fd5b8060405250825181526020830151602082015260408301516040820152614e3b60608401614b70565b60608201529392505050565b6000816000190483118215151615614e6157614e61614b29565b500290565b60008251614e7881846020870161491f565b9190910192915050565b600060208284031215614e9457600080fd5b8151801515811461345557600080fd5b84815283602082015260018060a01b0383166040820152608060608201526000612f60608083018461494b565b600081614ee057614ee0614b29565b50600019019056fea2646970667358221220b26500a323886a2121e5b24a33358bc2078c98b5ce174a649173b1811b70400364736f6c634300080d003360a06040819052600060808190526200001b91600e916200030e565b503480156200002957600080fd5b5060405162002d2838038062002d288339810160408190526200004c91620003b4565b604080518082018252600d81526c243cb13934b22c1027b93232b960991b60208083019182528351808501909452600584526427a92222a960d91b9084015281519192916200009e916002916200030e565b508051620000b49060039060208401906200030e565b505050620000d1620000cb6200014a60201b60201c565b6200014e565b600f80546001600160a01b0319166001600160a01b038316179055620001006000620000fa3390565b620001a0565b6200012c7f9f2df0fed2c77648de5860a4cc508cd0818c85b8b8a1ab4ceeef8d981c8956a682620001a0565b62000143600d620001b060201b6200101d1760201c565b5062000422565b3390565b600c80546001600160a01b038381166001600160a01b0319831681179093556040519116919082907f8be0079c531659141344cd1fd0a4f28419497f9722a3daafe3b4186f6b6457e090600090a35050565b620001ac8282620001b9565b5050565b80546001019055565b620001d08282620001fc60201b620010261760201c565b6000828152600160209081526040909120620001f7918390620010aa6200029c821b17901c565b505050565b6000828152602081815260408083206001600160a01b038516845290915290205460ff16620001ac576000828152602081815260408083206001600160a01b03851684529091529020805460ff19166001179055620002583390565b6001600160a01b0316816001600160a01b0316837f2f8788117e7eff1d82e926ec794901d17c78024a50270940304540a733656f0d60405160405180910390a45050565b6000620002b3836001600160a01b038416620002bc565b90505b92915050565b60008181526001830160205260408120546200030557508154600181810184556000848152602080822090930184905584548482528286019093526040902091909155620002b6565b506000620002b6565b8280546200031c90620003e6565b90600052602060002090601f0160209004810192826200034057600085556200038b565b82601f106200035b57805160ff19168380011785556200038b565b828001600101855582156200038b579182015b828111156200038b5782518255916020019190600101906200036e565b50620003999291506200039d565b5090565b5b808211156200039957600081556001016200039e565b600060208284031215620003c757600080fd5b81516001600160a01b0381168114620003df57600080fd5b9392505050565b600181811c90821680620003fb57607f821691505b6020821081036200041c57634e487b7160e01b600052602260045260246000fd5b50919050565b6128f680620004326000396000f3fe608060405234801561001057600080fd5b506004361061018b5760003560e01c806301ffc9a71461019057806306fdde03146101b8578063081812fc146101cd578063095ea7b3146101f857806318160ddd1461020d57806323b872dd1461021f578063248a9ca3146102325780632f2ff15d146102455780632f745c591461025857806336568abe1461026b57806342842e0e1461027e57806342966c68146102915780634f6ccce7146102a45780636352211e146102b757806370a08231146102ca578063715018a6146102dd5780638da5cb5b146102e55780639010d07c146102ed57806391d14854146103005780639507d39a1461031357806395d89b411461035c578063a217fddf14610364578063a22cb4651461036c578063b390c0ab1461037f578063b88d4fde14610392578063c18b1d5e146103a5578063c87b56dd146103b8578063ca15c873146103cb578063d5391393146103de578063d547741f146103f3578063e985e9c514610406578063ecaab6c614610419578063f2fde38b1461042c575b600080fd5b6101a361019e36600461219d565b61043f565b60405190151581526020015b60405180910390f35b6101c0610450565b6040516101af9190612212565b6101e06101db366004612225565b6104e2565b6040516001600160a01b0390911681526020016101af565b61020b61020636600461225a565b61056f565b005b600a545b6040519081526020016101af565b61020b61022d366004612284565b61067f565b610211610240366004612225565b6106b1565b61020b6102533660046122c0565b6106c6565b61021161026636600461225a565b6106e2565b61020b6102793660046122c0565b610778565b61020b61028c366004612284565b6107f6565b61020b61029f366004612225565b610811565b6102116102b2366004612225565b61088b565b6101e06102c5366004612225565b61091e565b6102116102d83660046122ec565b610995565b61020b610a1b565b6101e0610a56565b6101e06102fb366004612307565b610a65565b6101a361030e3660046122c0565b610a84565b610326610321366004612225565b610aad565b6040516101af919081518152602080830151908201526040808301519082015260609182015160ff169181019190915260800190565b6101c0610b23565b610211600081565b61020b61037a366004612329565b610b32565b61020b61038d366004612307565b610b3d565b61020b6103a03660046123ab565b610cfb565b600f546101e0906001600160a01b031681565b6101c06103c6366004612225565b610d33565b6102116103d9366004612225565b610dfd565b61021160008051602061288183398151915281565b61020b6104013660046122c0565b610e14565b6101a361041436600461246a565b610e30565b610211610427366004612494565b610e5e565b61020b61043a3660046122ec565b610f80565b600061044a826110bf565b92915050565b60606002805461045f9061251d565b80601f016020809104026020016040519081016040528092919081815260200182805461048b9061251d565b80156104d85780601f106104ad576101008083540402835291602001916104d8565b820191906000526020600020905b8154815290600101906020018083116104bb57829003601f168201915b5050505050905090565b60006104ed826110e4565b6105535760405162461bcd60e51b815260206004820152602c60248201527f4552433732313a20617070726f76656420717565727920666f72206e6f6e657860448201526b34b9ba32b73a103a37b5b2b760a11b60648201526084015b60405180910390fd5b506000908152600660205260409020546001600160a01b031690565b600061057a8261091e565b9050806001600160a01b0316836001600160a01b0316036105e75760405162461bcd60e51b815260206004820152602160248201527f4552433732313a20617070726f76616c20746f2063757272656e74206f776e656044820152603960f91b606482015260840161054a565b336001600160a01b038216148061060357506106038133610e30565b6106705760405162461bcd60e51b815260206004820152603860248201527f4552433732313a20617070726f76652063616c6c6572206973206e6f74206f776044820152771b995c881b9bdc88185c1c1c9bdd995908199bdc88185b1b60421b606482015260840161054a565b61067a8383611101565b505050565b61068a335b8261116f565b6106a65760405162461bcd60e51b815260040161054a90612557565b61067a838383611239565b60009081526020819052604090206001015490565b6106cf826106b1565b6106d8816113ce565b61067a83836113d8565b60006106ed83610995565b821061074f5760405162461bcd60e51b815260206004820152602b60248201527f455243373231456e756d657261626c653a206f776e657220696e646578206f7560448201526a74206f6620626f756e647360a81b606482015260840161054a565b506001600160a01b03919091166000908152600860209081526040808320938352929052205490565b6001600160a01b03811633146107e85760405162461bcd60e51b815260206004820152602f60248201527f416363657373436f6e74726f6c3a2063616e206f6e6c792072656e6f756e636560448201526e103937b632b9903337b91039b2b63360891b606482015260840161054a565b6107f282826113fa565b5050565b61067a83838360405180602001604052806000815250610cfb565b61081a33610684565b61087f5760405162461bcd60e51b815260206004820152603060248201527f4552433732314275726e61626c653a2063616c6c6572206973206e6f74206f7760448201526f1b995c881b9bdc88185c1c1c9bdd995960821b606482015260840161054a565b6108888161141c565b50565b6000610896600a5490565b82106108f95760405162461bcd60e51b815260206004820152602c60248201527f455243373231456e756d657261626c653a20676c6f62616c20696e646578206f60448201526b7574206f6620626f756e647360a01b606482015260840161054a565b600a828154811061090c5761090c6125a8565b90600052602060002001549050919050565b6000818152600460205260408120546001600160a01b03168061044a5760405162461bcd60e51b815260206004820152602960248201527f4552433732313a206f776e657220717565727920666f72206e6f6e657869737460448201526832b73a103a37b5b2b760b91b606482015260840161054a565b60006001600160a01b0382166109ff5760405162461bcd60e51b815260206004820152602960248201527f4552433732313a2061646472657373207a65726f206973206e6f7420612076616044820152683634b21037bbb732b960b91b606482015260840161054a565b506001600160a01b031660009081526005602052604090205490565b33610a24610a56565b6001600160a01b031614610a4a5760405162461bcd60e51b815260040161054a906125be565b610a5460006114b1565b565b600c546001600160a01b031690565b6000828152600160205260408120610a7d9083611503565b9392505050565b6000918252602082815260408084206001600160a01b0393909316845291905290205460ff1690565b610adb6040518060800160405280600081526020016000815260200160008152602001600060ff1681525090565b5060009081526010602090815260409182902082516080810184528154815260018201549281019290925260028101549282019290925260039091015460ff16606082015290565b60606003805461045f9061251d565b6107f233838361150f565b610b5560008051602061288183398151915233610a84565b610b9b5760405162461bcd60e51b815260206004820152602480820152600080516020612841833981519152604482015263313ab93760e11b606482015260840161054a565b60008281526010602090815260408083208151608081018352815481526001820154938101939093526002810154918301919091526003015460ff16606082015290610be68461091e565b8251909150600003610c375760405162461bcd60e51b815260206004820152601a60248201527913d49111548e881bdc99195c881b5d5cdd08189948195e1a5cdd60321b604482015260640161054a565b6040820151600090610c4990856115d9565b905080600003610cab5760008581526010602090815260408083208381556001810184905560028101849055600301805460ff191690556001600160a01b03851683526011825280832086518452909152812055610ca68561141c565b610cf4565b60208301516040808501519051879260008051602061286183398151915292610cd792829087906125f3565b60405180910390a260008581526010602052604090206002018190555b5050505050565b610d05338361116f565b610d215760405162461bcd60e51b815260040161054a90612557565b610d2d8484848461162f565b50505050565b6060610d3e826110e4565b610da25760405162461bcd60e51b815260206004820152602f60248201527f4552433732314d657461646174613a2055524920717565727920666f72206e6f60448201526e3732bc34b9ba32b73a103a37b5b2b760891b606482015260840161054a565b6000610dac611662565b90506000815111610dcc5760405180602001604052806000815250610a7d565b80610dd684611671565b604051602001610de792919061260e565b6040516020818303038152906040529392505050565b600081815260016020526040812061044a90611771565b610e1d826106b1565b610e26816113ce565b61067a83836113fa565b6001600160a01b03918216600090815260076020908152604080832093909416825291909152205460ff1690565b6000610e7860008051602061288183398151915233610a84565b610ebe5760405162461bcd60e51b8152602060048201526024808201526000805160206128418339815191526044820152631b5a5b9d60e21b606482015260840161054a565b506001600160a01b0381166000908152601160209081526040808320855184529091529020548015610f0257610efd818460200151856040015161177b565b61044a565b600d5460008181526010602090815260408083208751815587830151600182015587820151600282015560608801516003909101805460ff191660ff9092169190911790556001600160a01b0386168352601182528083208751845290915290208190559050610f728282611833565b61044a600d80546001019055565b33610f89610a56565b6001600160a01b031614610faf5760405162461bcd60e51b815260040161054a906125be565b6001600160a01b0381166110145760405162461bcd60e51b815260206004820152602660248201527f4f776e61626c653a206e6577206f776e657220697320746865207a65726f206160448201526564647265737360d01b606482015260840161054a565b610888816114b1565b80546001019055565b6110308282610a84565b6107f2576000828152602081815260408083206001600160a01b03851684529091529020805460ff191660011790556110663390565b6001600160a01b0316816001600160a01b0316837f2f8788117e7eff1d82e926ec794901d17c78024a50270940304540a733656f0d60405160405180910390a45050565b6000610a7d836001600160a01b03841661195f565b60006001600160e01b0319821663780e9d6360e01b148061044a575061044a826119ae565b6000908152600460205260409020546001600160a01b0316151590565b600081815260066020526040902080546001600160a01b0319166001600160a01b03841690811790915581906111368261091e565b6001600160a01b03167f8c5be1e5ebec7d5bd14f71427d1e84f3dd0314c0f7b2291e5b200ac8c7c3b92560405160405180910390a45050565b600061117a826110e4565b6111db5760405162461bcd60e51b815260206004820152602c60248201527f4552433732313a206f70657261746f7220717565727920666f72206e6f6e657860448201526b34b9ba32b73a103a37b5b2b760a11b606482015260840161054a565b60006111e68361091e565b9050806001600160a01b0316846001600160a01b0316148061120d575061120d8185610e30565b806112315750836001600160a01b0316611226846104e2565b6001600160a01b0316145b949350505050565b826001600160a01b031661124c8261091e565b6001600160a01b0316146112b05760405162461bcd60e51b815260206004820152602560248201527f4552433732313a207472616e736665722066726f6d20696e636f72726563742060448201526437bbb732b960d91b606482015260840161054a565b6001600160a01b0382166113125760405162461bcd60e51b8152602060048201526024808201527f4552433732313a207472616e7366657220746f20746865207a65726f206164646044820152637265737360e01b606482015260840161054a565b61131d8383836119ee565b611328600082611101565b6001600160a01b0383166000908152600560205260408120805460019290611351908490612653565b90915550506001600160a01b038216600090815260056020526040812080546001929061137f90849061266a565b909155505060008181526004602052604080822080546001600160a01b0319166001600160a01b0386811691821790925591518493918716916000805160206128a183398151915291a4505050565b61088881336119f9565b6113e28282611026565b600082815260016020526040902061067a90826110aa565b6114048282611a5d565b600082815260016020526040902061067a9082611ac2565b60006114278261091e565b9050611435816000846119ee565b611440600083611101565b6001600160a01b0381166000908152600560205260408120805460019290611469908490612653565b909155505060008281526004602052604080822080546001600160a01b0319169055518391906001600160a01b038416906000805160206128a1833981519152908390a45050565b600c80546001600160a01b038381166001600160a01b0319831681179093556040519116919082907f8be0079c531659141344cd1fd0a4f28419497f9722a3daafe3b4186f6b6457e090600090a35050565b6000610a7d8383611ad7565b816001600160a01b0316836001600160a01b03160361156c5760405162461bcd60e51b815260206004820152601960248201527822a9219b99189d1030b8383937bb32903a379031b0b63632b960391b604482015260640161054a565b6001600160a01b03838116600081815260076020908152604080832094871680845294825291829020805460ff191686151590811790915591519182527f17307eab39ab6107e8899845ad3d59bd9653f200f220920489ca2b5937696c31910160405180910390a3505050565b6000826115e68382612653565b915081111561044a5760405162461bcd60e51b815260206004820152601560248201527464732d6d6174682d7375622d756e646572666c6f7760581b604482015260640161054a565b61163a848484611239565b61164684848484611b01565b610d2d5760405162461bcd60e51b815260040161054a90612682565b6060600e805461045f9061251d565b6060816000036116985750506040805180820190915260018152600360fc1b602082015290565b8160005b81156116c257806116ac816126d4565b91506116bb9050600a83612703565b915061169c565b6000816001600160401b038111156116dc576116dc612365565b6040519080825280601f01601f191660200182016040528015611706576020820181803683370190505b5090505b84156112315761171b600183612653565b9150611728600a86612717565b61173390603061266a565b60f81b818381518110611748576117486125a8565b60200101906001600160f81b031916908160001a90535061176a600a86612703565b945061170a565b600061044a825490565b600083815260106020908152604080832081516080810183528154815260018201549381018490526002820154928101929092526003015460ff166060820152919081906117c99086611c02565b60408401516117d89086611c02565b915091508560008051602061286183398151915284602001518560400151858560405161180894939291906125f3565b60405180910390a2600095865260106020526040909520600181019190915560020193909355505050565b6001600160a01b0382166118895760405162461bcd60e51b815260206004820181905260248201527f4552433732313a206d696e7420746f20746865207a65726f2061646472657373604482015260640161054a565b611892816110e4565b156118de5760405162461bcd60e51b815260206004820152601c60248201527b115490cdcc8c4e881d1bdad95b88185b1c9958591e481b5a5b9d195960221b604482015260640161054a565b6118ea600083836119ee565b6001600160a01b038216600090815260056020526040812080546001929061191390849061266a565b909155505060008181526004602052604080822080546001600160a01b0319166001600160a01b03861690811790915590518392906000805160206128a1833981519152908290a45050565b60008181526001830160205260408120546119a65750815460018181018455600084815260208082209093018490558454848252828601909352604090209190915561044a565b50600061044a565b60006001600160e01b031982166380ac58cd60e01b14806119df57506001600160e01b03198216635b5e139f60e01b145b8061044a575061044a82611c57565b61067a838383611c7c565b611a038282610a84565b6107f257611a1b816001600160a01b03166014611d34565b611a26836020611d34565b604051602001611a3792919061272b565b60408051601f198184030181529082905262461bcd60e51b825261054a91600401612212565b611a678282610a84565b156107f2576000828152602081815260408083206001600160a01b0385168085529252808320805460ff1916905551339285917ff6391f5c32d9c69d2a47ea670b442974b53935d1edc7fd64eb21e047a839171b9190a45050565b6000610a7d836001600160a01b038416611ecf565b6000826000018281548110611aee57611aee6125a8565b9060005260206000200154905092915050565b60006001600160a01b0384163b15611bf757604051630a85bd0160e11b81526001600160a01b0385169063150b7a0290611b4590339089908890889060040161279a565b6020604051808303816000875af1925050508015611b80575060408051601f3d908101601f19168201909252611b7d918101906127d7565b60015b611bdd573d808015611bae576040519150601f19603f3d011682016040523d82523d6000602084013e611bb3565b606091505b508051600003611bd55760405162461bcd60e51b815260040161054a90612682565b805181602001fd5b6001600160e01b031916630a85bd0160e11b149050611231565b506001949350505050565b600082611c0f838261266a565b915081101561044a5760405162461bcd60e51b815260206004820152601460248201527364732d6d6174682d6164642d6f766572666c6f7760601b604482015260640161054a565b60006001600160e01b03198216635a05180f60e01b148061044a575061044a82611fc2565b6001600160a01b038316611cd757611cd281600a80546000838152600b60205260408120829055600182018355919091527fc65a7bb8d6351c1cf70c95a316cc6a92839c986682d98bc35f958f4883f9d2a80155565b611cfa565b816001600160a01b0316836001600160a01b031614611cfa57611cfa8382611ff7565b6001600160a01b038216611d115761067a81612094565b826001600160a01b0316826001600160a01b03161461067a5761067a8282612143565b60606000611d438360026127f4565b611d4e90600261266a565b6001600160401b03811115611d6557611d65612365565b6040519080825280601f01601f191660200182016040528015611d8f576020820181803683370190505b509050600360fc1b81600081518110611daa57611daa6125a8565b60200101906001600160f81b031916908160001a905350600f60fb1b81600181518110611dd957611dd96125a8565b60200101906001600160f81b031916908160001a9053506000611dfd8460026127f4565b611e0890600161266a565b90505b6001811115611e80576f181899199a1a9b1b9c1cb0b131b232b360811b85600f1660108110611e3c57611e3c6125a8565b1a60f81b828281518110611e5257611e526125a8565b60200101906001600160f81b031916908160001a90535060049490941c93611e7981612813565b9050611e0b565b508315610a7d5760405162461bcd60e51b815260206004820181905260248201527f537472696e67733a20686578206c656e67746820696e73756666696369656e74604482015260640161054a565b60008181526001830160205260408120548015611fb8576000611ef3600183612653565b8554909150600090611f0790600190612653565b9050818114611f6c576000866000018281548110611f2757611f276125a8565b9060005260206000200154905080876000018481548110611f4a57611f4a6125a8565b6000918252602080832090910192909255918252600188019052604090208390555b8554869080611f7d57611f7d61282a565b60019003818190600052602060002001600090559055856001016000868152602001908152602001600020600090556001935050505061044a565b600091505061044a565b60006001600160e01b03198216637965db0b60e01b148061044a57506301ffc9a760e01b6001600160e01b031983161461044a565b6000600161200484610995565b61200e9190612653565b600083815260096020526040902054909150808214612061576001600160a01b03841660009081526008602090815260408083208584528252808320548484528184208190558352600990915290208190555b5060009182526009602090815260408084208490556001600160a01b039094168352600881528383209183525290812055565b600a546000906120a690600190612653565b6000838152600b6020526040812054600a80549394509092849081106120ce576120ce6125a8565b9060005260206000200154905080600a83815481106120ef576120ef6125a8565b6000918252602080832090910192909255828152600b9091526040808220849055858252812055600a8054806121275761212761282a565b6001900381819060005260206000200160009055905550505050565b600061214e83610995565b6001600160a01b039093166000908152600860209081526040808320868452825280832085905593825260099052919091209190915550565b6001600160e01b03198116811461088857600080fd5b6000602082840312156121af57600080fd5b8135610a7d81612187565b60005b838110156121d55781810151838201526020016121bd565b83811115610d2d5750506000910152565b600081518084526121fe8160208601602086016121ba565b601f01601f19169290920160200192915050565b602081526000610a7d60208301846121e6565b60006020828403121561223757600080fd5b5035919050565b80356001600160a01b038116811461225557600080fd5b919050565b6000806040838503121561226d57600080fd5b6122768361223e565b946020939093013593505050565b60008060006060848603121561229957600080fd5b6122a28461223e565b92506122b06020850161223e565b9150604084013590509250925092565b600080604083850312156122d357600080fd5b823591506122e36020840161223e565b90509250929050565b6000602082840312156122fe57600080fd5b610a7d8261223e565b6000806040838503121561231a57600080fd5b50508035926020909101359150565b6000806040838503121561233c57600080fd5b6123458361223e565b91506020830135801515811461235a57600080fd5b809150509250929050565b634e487b7160e01b600052604160045260246000fd5b604051601f8201601f191681016001600160401b03811182821017156123a3576123a3612365565b604052919050565b600080600080608085870312156123c157600080fd5b6123ca8561223e565b935060206123d981870161223e565b93506040860135925060608601356001600160401b03808211156123fc57600080fd5b818801915088601f83011261241057600080fd5b81358181111561242257612422612365565b612434601f8201601f1916850161237b565b9150808252898482850101111561244a57600080fd5b808484018584013760008482840101525080935050505092959194509250565b6000806040838503121561247d57600080fd5b6124868361223e565b91506122e36020840161223e565b60008082840360a08112156124a857600080fd5b60808112156124b657600080fd5b50604051608081016001600160401b03811182821017156124d9576124d9612365565b8060405250833581526020840135602082015260408401356040820152606084013560ff8116811461250a57600080fd5b606082015291506122e36080840161223e565b600181811c9082168061253157607f821691505b60208210810361255157634e487b7160e01b600052602260045260246000fd5b50919050565b60208082526031908201527f4552433732313a207472616e736665722063616c6c6572206973206e6f74206f6040820152701ddb995c881b9bdc88185c1c1c9bdd9959607a1b606082015260800190565b634e487b7160e01b600052603260045260246000fd5b6020808252818101527f4f776e61626c653a2063616c6c6572206973206e6f7420746865206f776e6572604082015260600190565b93845260208401929092526040830152606082015260800190565b600083516126208184602088016121ba565b8351908301906126348183602088016121ba565b01949350505050565b634e487b7160e01b600052601160045260246000fd5b6000828210156126655761266561263d565b500390565b6000821982111561267d5761267d61263d565b500190565b60208082526032908201527f4552433732313a207472616e7366657220746f206e6f6e20455243373231526560408201527131b2b4bb32b91034b6b83632b6b2b73a32b960711b606082015260800190565b6000600182016126e6576126e661263d565b5060010190565b634e487b7160e01b600052601260045260246000fd5b600082612712576127126126ed565b500490565b600082612726576127266126ed565b500690565b76020b1b1b2b9b9a1b7b73a3937b61d1030b1b1b7bab73a1604d1b81526000835161275d8160178501602088016121ba565b7001034b99036b4b9b9b4b733903937b6329607d1b601791840191820152835161278e8160288401602088016121ba565b01602801949350505050565b6001600160a01b03858116825284166020820152604081018390526080606082018190526000906127cd908301846121e6565b9695505050505050565b6000602082840312156127e957600080fd5b8151610a7d81612187565b600081600019048311821515161561280e5761280e61263d565b500290565b6000816128225761282261263d565b506000190190565b634e487b7160e01b600052603160045260246000fdfe4f524445523a206d7573742068617665206d696e74657220726f6c6520746f20d7e47ee0030dc14f409cd574609ad568521a19bb09d8c27a721b44b4244eb7199f2df0fed2c77648de5860a4cc508cd0818c85b8b8a1ab4ceeef8d981c8956a6ddf252ad1be2c89b69c2b068fc378daa952ba7f163c4a11628f55a4df523b3efa26469706673582212203ea510265539bc6dfc975ea44764bfda629ded147e4f24dab12fe8fdf7dcedf464736f6c634300080d0033a2646970667358221220e901233e403ac62f2035c7b15f8ab07a1c54273e07a24945091a59bb6769ea5f64736f6c634300080d0033",
			"opcodes": "PUSH1 0x80 PUSH1 0x40 MSTORE CALLVALUE DUP1 ISZERO PUSH2 0x10 JUMPI PUSH1 0x0 DUP1 REVERT JUMPDEST POP PUSH1 0x40 MLOAD PUSH2 0x8448 CODESIZE SUB DUP1 PUSH2 0x8448 DUP4 CODECOPY DUP2 ADD PUSH1 0x40 DUP2 SWAP1 MSTORE PUSH2 0x2F SWAP2 PUSH2 0x8D JUMP JUMPDEST PUSH1 0x4 DUP1 SLOAD PUSH1 0x1 PUSH1 0x1 PUSH1 0xA0 SHL SUB SWAP3 DUP4 AND PUSH1 0x1 PUSH1 0x1 PUSH1 0xA0 SHL SUB NOT SWAP2 DUP3 AND OR SWAP1 SWAP2 SSTORE PUSH1 0x3 DUP1 SLOAD SWAP4 DUP4 AND SWAP4 DUP3 AND SWAP4 SWAP1 SWAP4 OR SWAP1 SWAP3 SSTORE PUSH1 0x2 DUP1 SLOAD SWAP2 SWAP1 SWAP4 AND SWAP2 AND OR SWAP1 SSTORE PUSH2 0xD0 JUMP JUMPDEST DUP1 MLOAD PUSH1 0x1 PUSH1 0x1 PUSH1 0xA0 SHL SUB DUP2 AND DUP2 EQ PUSH2 0x88 JUMPI PUSH1 0x0 DUP1 REVERT JUMPDEST SWAP2 SWAP1 POP JUMP JUMPDEST PUSH1 0x0 DUP1 PUSH1 0x0 PUSH1 0x60 DUP5 DUP7 SUB SLT ISZERO PUSH2 0xA2 JUMPI PUSH1 0x0 DUP1 REVERT JUMPDEST PUSH2 0xAB DUP5 PUSH2 0x71 JUMP JUMPDEST SWAP3 POP PUSH2 0xB9 PUSH1 0x20 DUP6 ADD PUSH2 0x71 JUMP JUMPDEST SWAP2 POP PUSH2 0xC7 PUSH1 0x40 DUP6 ADD PUSH2 0x71 JUMP JUMPDEST SWAP1 POP SWAP3 POP SWAP3 POP SWAP3 JUMP JUMPDEST PUSH2 0x8369 DUP1 PUSH2 0xDF PUSH1 0x0 CODECOPY PUSH1 0x0 RETURN INVALID PUSH1 0x80 PUSH1 0x40 MSTORE CALLVALUE DUP1 ISZERO PUSH3 0x11 JUMPI PUSH1 0x0 DUP1 REVERT JUMPDEST POP PUSH1 0x4 CALLDATASIZE LT PUSH3 0x82 JUMPI PUSH1 0x0 CALLDATALOAD PUSH1 0xE0 SHR DUP1 PUSH4 0x64220F6 EQ PUSH3 0x87 JUMPI DUP1 PUSH4 0x203D39FF EQ PUSH3 0xA0 JUMPI DUP1 PUSH4 0x316CC2DD EQ PUSH3 0xEC JUMPI DUP1 PUSH4 0x472C6670 EQ PUSH3 0xFF JUMPI DUP1 PUSH4 0x79502C55 EQ PUSH3 0x116 JUMPI DUP1 PUSH4 0x83DD41C6 EQ PUSH3 0x12A JUMPI DUP1 PUSH4 0xAD5C4648 EQ PUSH3 0x134 JUMPI DUP1 PUSH4 0xE14F870D EQ PUSH3 0x148 JUMPI JUMPDEST PUSH1 0x0 DUP1 REVERT JUMPDEST PUSH3 0x9E PUSH3 0x98 CALLDATASIZE PUSH1 0x4 PUSH3 0x5F8 JUMP JUMPDEST PUSH3 0x15C JUMP JUMPDEST STOP JUMPDEST PUSH3 0xD4 PUSH3 0xB1 CALLDATASIZE PUSH1 0x4 PUSH3 0x5F8 JUMP JUMPDEST PUSH1 0x0 PUSH1 0x20 DUP2 DUP2 MSTORE SWAP3 DUP2 MSTORE PUSH1 0x40 DUP1 DUP3 KECCAK256 SWAP1 SWAP4 MSTORE SWAP1 DUP2 MSTORE KECCAK256 SLOAD PUSH1 0x1 PUSH1 0x1 PUSH1 0xA0 SHL SUB AND DUP2 JUMP JUMPDEST PUSH1 0x40 MLOAD PUSH3 0xE3 SWAP2 SWAP1 PUSH3 0x636 JUMP JUMPDEST PUSH1 0x40 MLOAD DUP1 SWAP2 SUB SWAP1 RETURN JUMPDEST PUSH1 0x1 SLOAD JUMPDEST PUSH1 0x40 MLOAD SWAP1 DUP2 MSTORE PUSH1 0x20 ADD PUSH3 0xE3 JUMP JUMPDEST PUSH3 0xD4 PUSH3 0x110 CALLDATASIZE PUSH1 0x4 PUSH3 0x64A JUMP JUMPDEST PUSH3 0x564 JUMP JUMPDEST PUSH1 0x4 SLOAD PUSH3 0xD4 SWAP1 PUSH1 0x1 PUSH1 0x1 PUSH1 0xA0 SHL SUB AND DUP2 JUMP JUMPDEST PUSH3 0xF0 PUSH3 0x58F JUMP JUMPDEST PUSH1 0x3 SLOAD PUSH3 0xD4 SWAP1 PUSH1 0x1 PUSH1 0x1 PUSH1 0xA0 SHL SUB AND DUP2 JUMP JUMPDEST PUSH1 0x2 SLOAD PUSH3 0xD4 SWAP1 PUSH1 0x1 PUSH1 0x1 PUSH1 0xA0 SHL SUB AND DUP2 JUMP JUMPDEST DUP1 PUSH1 0x1 PUSH1 0x1 PUSH1 0xA0 SHL SUB AND DUP3 PUSH1 0x1 PUSH1 0x1 PUSH1 0xA0 SHL SUB AND SUB PUSH3 0x1BD JUMPI PUSH1 0x40 MLOAD PUSH3 0x461BCD PUSH1 0xE5 SHL DUP2 MSTORE PUSH1 0x20 PUSH1 0x4 DUP3 ADD MSTORE PUSH1 0x17 PUSH1 0x24 DUP3 ADD MSTORE PUSH23 0x4F463A204944454E544943414C5F414444524553534553 PUSH1 0x48 SHL PUSH1 0x44 DUP3 ADD MSTORE PUSH1 0x64 ADD JUMPDEST PUSH1 0x40 MLOAD DUP1 SWAP2 SUB SWAP1 REVERT JUMPDEST PUSH1 0x0 DUP1 DUP3 PUSH1 0x1 PUSH1 0x1 PUSH1 0xA0 SHL SUB AND DUP5 PUSH1 0x1 PUSH1 0x1 PUSH1 0xA0 SHL SUB AND LT PUSH3 0x1E2 JUMPI DUP3 DUP5 PUSH3 0x1E5 JUMP JUMPDEST DUP4 DUP4 JUMPDEST SWAP1 SWAP3 POP SWAP1 POP PUSH1 0x1 PUSH1 0x1 PUSH1 0xA0 SHL SUB DUP3 AND PUSH3 0x235 JUMPI PUSH1 0x40 MLOAD PUSH3 0x461BCD PUSH1 0xE5 SHL DUP2 MSTORE PUSH1 0x20 PUSH1 0x4 DUP3 ADD MSTORE PUSH1 0x10 PUSH1 0x24 DUP3 ADD MSTORE PUSH16 0x4F463A205A45524F5F41444452455353 PUSH1 0x80 SHL PUSH1 0x44 DUP3 ADD MSTORE PUSH1 0x64 ADD PUSH3 0x1B4 JUMP JUMPDEST PUSH1 0x1 PUSH1 0x1 PUSH1 0xA0 SHL SUB DUP3 DUP2 AND PUSH1 0x0 SWAP1 DUP2 MSTORE PUSH1 0x20 DUP2 DUP2 MSTORE PUSH1 0x40 DUP1 DUP4 KECCAK256 DUP6 DUP6 AND DUP5 MSTORE SWAP1 SWAP2 MSTORE SWAP1 KECCAK256 SLOAD AND ISZERO PUSH3 0x2A2 JUMPI PUSH1 0x40 MLOAD PUSH3 0x461BCD PUSH1 0xE5 SHL DUP2 MSTORE PUSH1 0x20 PUSH1 0x4 DUP3 ADD MSTORE PUSH1 0x15 PUSH1 0x24 DUP3 ADD MSTORE PUSH21 0x4F463A204F524445525F424F4F4B5F455849535453 PUSH1 0x58 SHL PUSH1 0x44 DUP3 ADD MSTORE PUSH1 0x64 ADD PUSH3 0x1B4 JUMP JUMPDEST PUSH1 0x2 SLOAD PUSH1 0x40 MLOAD PUSH4 0xE6A43905 PUSH1 0xE0 SHL DUP2 MSTORE PUSH1 0x1 PUSH1 0x1 PUSH1 0xA0 SHL SUB DUP5 DUP2 AND PUSH1 0x4 DUP4 ADD MSTORE DUP4 DUP2 AND PUSH1 0x24 DUP4 ADD MSTORE PUSH1 0x0 SWAP3 AND SWAP1 PUSH4 0xE6A43905 SWAP1 PUSH1 0x44 ADD PUSH1 0x20 PUSH1 0x40 MLOAD DUP1 DUP4 SUB DUP2 DUP7 GAS STATICCALL ISZERO DUP1 ISZERO PUSH3 0x2F6 JUMPI RETURNDATASIZE PUSH1 0x0 DUP1 RETURNDATACOPY RETURNDATASIZE PUSH1 0x0 REVERT JUMPDEST POP POP POP POP PUSH1 0x40 MLOAD RETURNDATASIZE PUSH1 0x1F NOT PUSH1 0x1F DUP3 ADD AND DUP3 ADD DUP1 PUSH1 0x40 MSTORE POP DUP2 ADD SWAP1 PUSH3 0x31C SWAP2 SWAP1 PUSH3 0x664 JUMP JUMPDEST SWAP1 POP PUSH1 0x1 PUSH1 0x1 PUSH1 0xA0 SHL SUB DUP2 AND PUSH3 0x372 JUMPI PUSH1 0x40 MLOAD PUSH3 0x461BCD PUSH1 0xE5 SHL DUP2 MSTORE PUSH1 0x20 PUSH1 0x4 DUP3 ADD MSTORE PUSH1 0x19 PUSH1 0x24 DUP3 ADD MSTORE PUSH25 0x4F463A20544F4B454E5F504149525F4E4F545F455849535453 PUSH1 0x38 SHL PUSH1 0x44 DUP3 ADD MSTORE PUSH1 0x64 ADD PUSH3 0x1B4 JUMP JUMPDEST PUSH1 0x0 PUSH1 0x40 MLOAD DUP1 PUSH1 0x20 ADD PUSH3 0x386 SWAP1 PUSH3 0x5C3 JUMP JUMPDEST PUSH1 0x1F NOT DUP3 DUP3 SUB DUP2 ADD DUP4 MSTORE PUSH1 0x1F SWAP1 SWAP2 ADD AND PUSH1 0x40 DUP2 SWAP1 MSTORE PUSH1 0x1 PUSH1 0x1 PUSH1 0x60 SHL SUB NOT PUSH1 0x60 DUP8 DUP2 SHL DUP3 AND PUSH1 0x20 DUP5 ADD MSTORE DUP7 SWAP1 SHL AND PUSH1 0x34 DUP3 ADD MSTORE SWAP1 SWAP2 POP PUSH1 0x0 SWAP1 PUSH1 0x48 ADD PUSH1 0x40 MLOAD PUSH1 0x20 DUP2 DUP4 SUB SUB DUP2 MSTORE SWAP1 PUSH1 0x40 MSTORE DUP1 MLOAD SWAP1 PUSH1 0x20 ADD KECCAK256 SWAP1 POP PUSH1 0x0 DUP2 DUP4 MLOAD PUSH1 0x20 DUP6 ADD PUSH1 0x0 CREATE2 SWAP1 POP PUSH1 0x0 DUP2 PUSH1 0x40 MLOAD PUSH3 0x3F9 SWAP1 PUSH3 0x5D1 JUMP JUMPDEST PUSH3 0x405 SWAP2 SWAP1 PUSH3 0x636 JUMP JUMPDEST PUSH1 0x40 MLOAD DUP1 SWAP2 SUB SWAP1 PUSH1 0x0 CREATE DUP1 ISZERO DUP1 ISZERO PUSH3 0x422 JUMPI RETURNDATASIZE PUSH1 0x0 DUP1 RETURNDATACOPY RETURNDATASIZE PUSH1 0x0 REVERT JUMPDEST POP PUSH1 0x40 MLOAD PUSH4 0x7C643B2F PUSH1 0xE1 SHL DUP2 MSTORE SWAP1 SWAP2 POP PUSH1 0x1 PUSH1 0x1 PUSH1 0xA0 SHL SUB DUP4 AND SWAP1 PUSH4 0xF8C8765E SWAP1 PUSH3 0x45A SWAP1 DUP9 SWAP1 DUP14 SWAP1 DUP14 SWAP1 DUP8 SWAP1 PUSH1 0x4 ADD PUSH3 0x68B JUMP JUMPDEST PUSH1 0x0 PUSH1 0x40 MLOAD DUP1 DUP4 SUB DUP2 PUSH1 0x0 DUP8 DUP1 EXTCODESIZE ISZERO DUP1 ISZERO PUSH3 0x475 JUMPI PUSH1 0x0 DUP1 REVERT JUMPDEST POP GAS CALL ISZERO DUP1 ISZERO PUSH3 0x48A JUMPI RETURNDATASIZE PUSH1 0x0 DUP1 RETURNDATACOPY RETURNDATASIZE PUSH1 0x0 REVERT JUMPDEST POP POP POP PUSH1 0x1 PUSH1 0x1 PUSH1 0xA0 SHL SUB DUP1 DUP10 AND PUSH1 0x0 DUP2 DUP2 MSTORE PUSH1 0x20 DUP2 DUP2 MSTORE PUSH1 0x40 DUP1 DUP4 KECCAK256 DUP13 DUP7 AND DUP5 MSTORE DUP3 MSTORE DUP1 DUP4 KECCAK256 DUP4 DUP4 MSTORE DUP2 DUP5 KECCAK256 SWAP5 DUP5 MSTORE SWAP4 SWAP1 SWAP2 MSTORE DUP1 DUP3 KECCAK256 DUP1 SLOAD SWAP5 DUP9 AND PUSH1 0x1 PUSH1 0x1 PUSH1 0xA0 SHL SUB NOT SWAP6 DUP7 AND DUP2 OR SWAP1 SWAP2 SSTORE DUP4 SLOAD DUP6 AND DUP2 OR SWAP1 SWAP4 SSTORE PUSH1 0x1 DUP1 SLOAD DUP1 DUP3 ADD DUP3 SSTORE SWAP3 MSTORE PUSH32 0xB10E2D527612073B26EECDFD717E6A320CF44B4AFAC2B0732D9FCBE2B7FA0CF6 SWAP1 SWAP2 ADD DUP1 SLOAD SWAP1 SWAP4 AND SWAP1 SWAP2 OR SWAP1 SWAP2 SSTORE MLOAD PUSH32 0x267321D338EA43666C6DF03413112CA765618BA630A099F14954F6D04E6D79CC SWAP2 POP PUSH3 0x551 SWAP1 DUP8 SWAP1 DUP13 SWAP1 DUP13 SWAP1 DUP8 SWAP1 PUSH3 0x68B JUMP JUMPDEST PUSH1 0x40 MLOAD DUP1 SWAP2 SUB SWAP1 LOG1 POP POP POP POP POP POP POP POP POP JUMP JUMPDEST PUSH1 0x1 DUP2 DUP2 SLOAD DUP2 LT PUSH3 0x575 JUMPI PUSH1 0x0 DUP1 REVERT JUMPDEST PUSH1 0x0 SWAP2 DUP3 MSTORE PUSH1 0x20 SWAP1 SWAP2 KECCAK256 ADD SLOAD PUSH1 0x1 PUSH1 0x1 PUSH1 0xA0 SHL SUB AND SWAP1 POP DUP2 JUMP JUMPDEST PUSH1 0x0 PUSH1 0x40 MLOAD DUP1 PUSH1 0x20 ADD PUSH3 0x5A3 SWAP1 PUSH3 0x5C3 JUMP JUMPDEST PUSH1 0x20 DUP3 ADD DUP2 SUB DUP3 MSTORE PUSH1 0x1F NOT PUSH1 0x1F DUP3 ADD AND PUSH1 0x40 MSTORE POP DUP1 MLOAD SWAP1 PUSH1 0x20 ADD KECCAK256 SWAP1 POP SWAP1 JUMP JUMPDEST PUSH2 0x4F55 DUP1 PUSH3 0x6B7 DUP4 CODECOPY ADD SWAP1 JUMP JUMPDEST PUSH2 0x2D28 DUP1 PUSH3 0x560C DUP4 CODECOPY ADD SWAP1 JUMP JUMPDEST PUSH1 0x1 PUSH1 0x1 PUSH1 0xA0 SHL SUB DUP2 AND DUP2 EQ PUSH3 0x5F5 JUMPI PUSH1 0x0 DUP1 REVERT JUMPDEST POP JUMP JUMPDEST PUSH1 0x0 DUP1 PUSH1 0x40 DUP4 DUP6 SUB SLT ISZERO PUSH3 0x60C JUMPI PUSH1 0x0 DUP1 REVERT JUMPDEST DUP3 CALLDATALOAD PUSH3 0x619 DUP2 PUSH3 0x5DF JUMP JUMPDEST SWAP2 POP PUSH1 0x20 DUP4 ADD CALLDATALOAD PUSH3 0x62B DUP2 PUSH3 0x5DF JUMP JUMPDEST DUP1 SWAP2 POP POP SWAP3 POP SWAP3 SWAP1 POP JUMP JUMPDEST PUSH1 0x1 PUSH1 0x1 PUSH1 0xA0 SHL SUB SWAP2 SWAP1 SWAP2 AND DUP2 MSTORE PUSH1 0x20 ADD SWAP1 JUMP JUMPDEST PUSH1 0x0 PUSH1 0x20 DUP3 DUP5 SUB SLT ISZERO PUSH3 0x65D JUMPI PUSH1 0x0 DUP1 REVERT JUMPDEST POP CALLDATALOAD SWAP2 SWAP1 POP JUMP JUMPDEST PUSH1 0x0 PUSH1 0x20 DUP3 DUP5 SUB SLT ISZERO PUSH3 0x677 JUMPI PUSH1 0x0 DUP1 REVERT JUMPDEST DUP2 MLOAD PUSH3 0x684 DUP2 PUSH3 0x5DF JUMP JUMPDEST SWAP4 SWAP3 POP POP POP JUMP JUMPDEST PUSH1 0x1 PUSH1 0x1 PUSH1 0xA0 SHL SUB SWAP5 DUP6 AND DUP2 MSTORE SWAP3 DUP5 AND PUSH1 0x20 DUP5 ADD MSTORE SWAP1 DUP4 AND PUSH1 0x40 DUP4 ADD MSTORE SWAP1 SWAP2 AND PUSH1 0x60 DUP3 ADD MSTORE PUSH1 0x80 ADD SWAP1 JUMP INVALID PUSH1 0x80 PUSH1 0x40 MSTORE PUSH1 0x1 PUSH1 0xD SSTORE CALLVALUE DUP1 ISZERO PUSH2 0x15 JUMPI PUSH1 0x0 DUP1 REVERT JUMPDEST POP PUSH1 0x5 DUP1 SLOAD PUSH1 0x1 PUSH1 0x1 PUSH1 0xA0 SHL SUB NOT AND CALLER OR SWAP1 SSTORE PUSH2 0x4F1E DUP1 PUSH2 0x37 PUSH1 0x0 CODECOPY PUSH1 0x0 RETURN INVALID PUSH1 0x80 PUSH1 0x40 MSTORE PUSH1 0x4 CALLDATASIZE LT PUSH2 0x109 JUMPI PUSH1 0x0 CALLDATALOAD PUSH1 0xE0 SHR DUP1 PUSH4 0x53B4B9D EQ PUSH2 0x115 JUMPI DUP1 PUSH4 0x6FDDE03 EQ PUSH2 0x14D JUMPI DUP1 PUSH4 0x902F1AC EQ PUSH2 0x197 JUMPI DUP1 PUSH4 0x217A4B70 EQ PUSH2 0x1CC JUMPI DUP1 PUSH4 0x38BDE791 EQ PUSH2 0x1F9 JUMPI DUP1 PUSH4 0x7DE81D8B EQ PUSH2 0x21D JUMPI DUP1 PUSH4 0x92399C04 EQ PUSH2 0x24B JUMPI DUP1 PUSH4 0x950F59B2 EQ PUSH2 0x262 JUMPI DUP1 PUSH4 0x98D5FDCA EQ PUSH2 0x282 JUMPI DUP1 PUSH4 0xA8AA1B31 EQ PUSH2 0x297 JUMPI DUP1 PUSH4 0xBC9113F0 EQ PUSH2 0x2B7 JUMPI DUP1 PUSH4 0xC2FFEA8F EQ PUSH2 0x2CC JUMPI DUP1 PUSH4 0xC45A0155 EQ PUSH2 0x307 JUMPI DUP1 PUSH4 0xC55DAE63 EQ PUSH2 0x327 JUMPI DUP1 PUSH4 0xCB160866 EQ PUSH2 0x347 JUMPI DUP1 PUSH4 0xD4D728DA EQ PUSH2 0x367 JUMPI DUP1 PUSH4 0xDB7B373E EQ PUSH2 0x387 JUMPI DUP1 PUSH4 0xE52FA98B EQ PUSH2 0x39D JUMPI DUP1 PUSH4 0xE68CC597 EQ PUSH2 0x3BD JUMPI DUP1 PUSH4 0xF12DBB9F EQ PUSH2 0x3DD JUMPI DUP1 PUSH4 0xF1A2E849 EQ PUSH2 0x3FD JUMPI DUP1 PUSH4 0xF8C8765E EQ PUSH2 0x413 JUMPI PUSH1 0x0 DUP1 REVERT JUMPDEST CALLDATASIZE PUSH2 0x110 JUMPI STOP JUMPDEST PUSH1 0x0 DUP1 REVERT JUMPDEST CALLVALUE DUP1 ISZERO PUSH2 0x121 JUMPI PUSH1 0x0 DUP1 REVERT JUMPDEST POP PUSH2 0x135 PUSH2 0x130 CALLDATASIZE PUSH1 0x4 PUSH2 0x4838 JUMP JUMPDEST PUSH2 0x433 JUMP JUMPDEST PUSH1 0x40 MLOAD PUSH2 0x144 SWAP4 SWAP3 SWAP2 SWAP1 PUSH2 0x48B5 JUMP JUMPDEST PUSH1 0x40 MLOAD DUP1 SWAP2 SUB SWAP1 RETURN JUMPDEST CALLVALUE DUP1 ISZERO PUSH2 0x159 JUMPI PUSH1 0x0 DUP1 REVERT JUMPDEST POP PUSH2 0x18A PUSH1 0x40 MLOAD DUP1 PUSH1 0x40 ADD PUSH1 0x40 MSTORE DUP1 PUSH1 0x11 DUP2 MSTORE PUSH1 0x20 ADD PUSH17 0x48796272696458204F72646572426F6F6B PUSH1 0x78 SHL DUP2 MSTORE POP DUP2 JUMP JUMPDEST PUSH1 0x40 MLOAD PUSH2 0x144 SWAP2 SWAP1 PUSH2 0x4977 JUMP JUMPDEST CALLVALUE DUP1 ISZERO PUSH2 0x1A3 JUMPI PUSH1 0x0 DUP1 REVERT JUMPDEST POP PUSH2 0x1AC PUSH2 0x6C9 JUMP JUMPDEST PUSH1 0x40 DUP1 MLOAD PUSH1 0x1 PUSH1 0x1 PUSH1 0x70 SHL SUB SWAP4 DUP5 AND DUP2 MSTORE SWAP3 SWAP1 SWAP2 AND PUSH1 0x20 DUP4 ADD MSTORE ADD PUSH2 0x144 JUMP JUMPDEST CALLVALUE DUP1 ISZERO PUSH2 0x1D8 JUMPI PUSH1 0x0 DUP1 REVERT JUMPDEST POP PUSH1 0xA SLOAD PUSH2 0x1EC SWAP1 PUSH1 0x1 PUSH1 0x1 PUSH1 0xA0 SHL SUB AND DUP2 JUMP JUMPDEST PUSH1 0x40 MLOAD PUSH2 0x144 SWAP2 SWAP1 PUSH2 0x498A JUMP JUMPDEST CALLVALUE DUP1 ISZERO PUSH2 0x205 JUMPI PUSH1 0x0 DUP1 REVERT JUMPDEST POP PUSH2 0x20F PUSH1 0xB SLOAD DUP2 JUMP JUMPDEST PUSH1 0x40 MLOAD SWAP1 DUP2 MSTORE PUSH1 0x20 ADD PUSH2 0x144 JUMP JUMPDEST CALLVALUE DUP1 ISZERO PUSH2 0x229 JUMPI PUSH1 0x0 DUP1 REVERT JUMPDEST POP PUSH2 0x23D PUSH2 0x238 CALLDATASIZE PUSH1 0x4 PUSH2 0x499E JUMP JUMPDEST PUSH2 0x6FA JUMP JUMPDEST PUSH1 0x40 MLOAD PUSH2 0x144 SWAP3 SWAP2 SWAP1 PUSH2 0x49C0 JUMP JUMPDEST CALLVALUE DUP1 ISZERO PUSH2 0x257 JUMPI PUSH1 0x0 DUP1 REVERT JUMPDEST POP PUSH2 0x260 PUSH2 0x89F JUMP JUMPDEST STOP JUMPDEST CALLVALUE DUP1 ISZERO PUSH2 0x26E JUMPI PUSH1 0x0 DUP1 REVERT JUMPDEST POP PUSH2 0x20F PUSH2 0x27D CALLDATASIZE PUSH1 0x4 PUSH2 0x4838 JUMP JUMPDEST PUSH2 0x98E JUMP JUMPDEST CALLVALUE DUP1 ISZERO PUSH2 0x28E JUMPI PUSH1 0x0 DUP1 REVERT JUMPDEST POP PUSH2 0x20F PUSH2 0xABD JUMP JUMPDEST CALLVALUE DUP1 ISZERO PUSH2 0x2A3 JUMPI PUSH1 0x0 DUP1 REVERT JUMPDEST POP PUSH1 0x6 SLOAD PUSH2 0x1EC SWAP1 PUSH1 0x1 PUSH1 0x1 PUSH1 0xA0 SHL SUB AND DUP2 JUMP JUMPDEST CALLVALUE DUP1 ISZERO PUSH2 0x2C3 JUMPI PUSH1 0x0 DUP1 REVERT JUMPDEST POP PUSH2 0x20F PUSH2 0xB39 JUMP JUMPDEST CALLVALUE DUP1 ISZERO PUSH2 0x2D8 JUMPI PUSH1 0x0 DUP1 REVERT JUMPDEST POP PUSH2 0x2EC PUSH2 0x2E7 CALLDATASIZE PUSH1 0x4 PUSH2 0x49E5 JUMP JUMPDEST PUSH2 0xBAF JUMP JUMPDEST PUSH1 0x40 DUP1 MLOAD SWAP4 DUP5 MSTORE PUSH1 0x20 DUP5 ADD SWAP3 SWAP1 SWAP3 MSTORE SWAP1 DUP3 ADD MSTORE PUSH1 0x60 ADD PUSH2 0x144 JUMP JUMPDEST CALLVALUE DUP1 ISZERO PUSH2 0x313 JUMPI PUSH1 0x0 DUP1 REVERT JUMPDEST POP PUSH1 0x5 SLOAD PUSH2 0x1EC SWAP1 PUSH1 0x1 PUSH1 0x1 PUSH1 0xA0 SHL SUB AND DUP2 JUMP JUMPDEST CALLVALUE DUP1 ISZERO PUSH2 0x333 JUMPI PUSH1 0x0 DUP1 REVERT JUMPDEST POP PUSH1 0x9 SLOAD PUSH2 0x1EC SWAP1 PUSH1 0x1 PUSH1 0x1 PUSH1 0xA0 SHL SUB AND DUP2 JUMP JUMPDEST CALLVALUE DUP1 ISZERO PUSH2 0x353 JUMPI PUSH1 0x0 DUP1 REVERT JUMPDEST POP PUSH2 0x260 PUSH2 0x362 CALLDATASIZE PUSH1 0x4 PUSH2 0x4A11 JUMP JUMPDEST PUSH2 0xEF8 JUMP JUMPDEST CALLVALUE DUP1 ISZERO PUSH2 0x373 JUMPI PUSH1 0x0 DUP1 REVERT JUMPDEST POP PUSH1 0x7 SLOAD PUSH2 0x1EC SWAP1 PUSH1 0x1 PUSH1 0x1 PUSH1 0xA0 SHL SUB AND DUP2 JUMP JUMPDEST CALLVALUE DUP1 ISZERO PUSH2 0x393 JUMPI PUSH1 0x0 DUP1 REVERT JUMPDEST POP PUSH2 0x20F PUSH1 0x8 SLOAD DUP2 JUMP JUMPDEST CALLVALUE DUP1 ISZERO PUSH2 0x3A9 JUMPI PUSH1 0x0 DUP1 REVERT JUMPDEST POP PUSH2 0x23D PUSH2 0x3B8 CALLDATASIZE PUSH1 0x4 PUSH2 0x4A5C JUMP JUMPDEST PUSH2 0x10E9 JUMP JUMPDEST CALLVALUE DUP1 ISZERO PUSH2 0x3C9 JUMPI PUSH1 0x0 DUP1 REVERT JUMPDEST POP PUSH2 0x2EC PUSH2 0x3D8 CALLDATASIZE PUSH1 0x4 PUSH2 0x49E5 JUMP JUMPDEST PUSH2 0x123A JUMP JUMPDEST CALLVALUE DUP1 ISZERO PUSH2 0x3E9 JUMPI PUSH1 0x0 DUP1 REVERT JUMPDEST POP PUSH2 0x20F PUSH2 0x3F8 CALLDATASIZE PUSH1 0x4 PUSH2 0x4838 JUMP JUMPDEST PUSH2 0x1572 JUMP JUMPDEST CALLVALUE DUP1 ISZERO PUSH2 0x409 JUMPI PUSH1 0x0 DUP1 REVERT JUMPDEST POP PUSH2 0x20F PUSH1 0xC SLOAD DUP2 JUMP JUMPDEST CALLVALUE DUP1 ISZERO PUSH2 0x41F JUMPI PUSH1 0x0 DUP1 REVERT JUMPDEST POP PUSH2 0x260 PUSH2 0x42E CALLDATASIZE PUSH1 0x4 PUSH2 0x4A81 JUMP JUMPDEST PUSH2 0x1687 JUMP JUMPDEST PUSH1 0x0 PUSH1 0x60 DUP1 PUSH1 0xD SLOAD PUSH1 0x1 EQ PUSH2 0x463 JUMPI PUSH1 0x40 MLOAD PUSH3 0x461BCD PUSH1 0xE5 SHL DUP2 MSTORE PUSH1 0x4 ADD PUSH2 0x45A SWAP1 PUSH2 0x4ADD JUMP JUMPDEST PUSH1 0x40 MLOAD DUP1 SWAP2 SUB SWAP1 REVERT JUMPDEST PUSH1 0x0 PUSH1 0xD SSTORE PUSH1 0x6 SLOAD PUSH1 0x1 PUSH1 0x1 PUSH1 0xA0 SHL SUB AND CALLER EQ PUSH2 0x4B3 JUMPI PUSH1 0x40 MLOAD PUSH3 0x461BCD PUSH1 0xE5 SHL DUP2 MSTORE PUSH1 0x20 PUSH1 0x4 DUP3 ADD MSTORE PUSH1 0xE PUSH1 0x24 DUP3 ADD MSTORE PUSH14 0x34B73B30B634B21039B2B73232B9 PUSH1 0x91 SHL PUSH1 0x44 DUP3 ADD MSTORE PUSH1 0x64 ADD PUSH2 0x45A JUMP JUMPDEST PUSH1 0x40 DUP1 MLOAD PUSH1 0x2 DUP1 DUP3 MSTORE PUSH1 0x60 DUP3 ADD DUP4 MSTORE PUSH1 0x0 SWAP3 PUSH1 0x20 DUP4 ADD SWAP1 DUP1 CALLDATASIZE DUP4 CALLDATACOPY POP POP PUSH1 0x6 SLOAD PUSH1 0x9 SLOAD PUSH1 0xA SLOAD SWAP4 SWAP5 POP PUSH2 0x4F7 SWAP4 PUSH1 0x1 PUSH1 0x1 PUSH1 0xA0 SHL SUB SWAP3 DUP4 AND SWAP4 POP SWAP1 DUP3 AND SWAP2 AND PUSH2 0x18FC JUMP JUMPDEST DUP2 PUSH1 0x1 PUSH1 0x1 PUSH1 0x70 SHL SUB AND SWAP2 POP DUP1 PUSH1 0x1 PUSH1 0x1 PUSH1 0x70 SHL SUB AND SWAP1 POP DUP3 PUSH1 0x0 DUP2 MLOAD DUP2 LT PUSH2 0x522 JUMPI PUSH2 0x522 PUSH2 0x4B13 JUMP JUMPDEST PUSH1 0x20 MUL PUSH1 0x20 ADD ADD DUP4 PUSH1 0x1 DUP2 MLOAD DUP2 LT PUSH2 0x53C JUMPI PUSH2 0x53C PUSH2 0x4B13 JUMP JUMPDEST PUSH1 0x20 SWAP1 DUP2 MUL SWAP2 SWAP1 SWAP2 ADD ADD SWAP2 SWAP1 SWAP2 MSTORE MSTORE PUSH1 0x0 DUP1 PUSH2 0x557 DUP10 PUSH2 0x1A5C JUMP JUMPDEST SWAP2 POP SWAP2 POP PUSH1 0x0 DUP1 PUSH2 0x569 DUP4 PUSH1 0x0 PUSH2 0x1AA9 JUMP JUMPDEST SWAP2 POP SWAP2 POP JUMPDEST DUP2 ISZERO PUSH2 0x61A JUMPI PUSH1 0x0 PUSH2 0x5BA DUP6 DUP13 DUP9 PUSH1 0x0 DUP2 MLOAD DUP2 LT PUSH2 0x58E JUMPI PUSH2 0x58E PUSH2 0x4B13 JUMP JUMPDEST PUSH1 0x20 MUL PUSH1 0x20 ADD ADD MLOAD DUP10 PUSH1 0x1 DUP2 MLOAD DUP2 LT PUSH2 0x5A9 JUMPI PUSH2 0x5A9 PUSH2 0x4B13 JUMP JUMPDEST PUSH1 0x20 MUL PUSH1 0x20 ADD ADD MLOAD DUP8 PUSH1 0x8 SLOAD PUSH2 0x1ACB JUMP JUMPDEST POP POP POP POP SWAP1 POP DUP1 PUSH1 0x0 SUB PUSH2 0x5CE JUMPI POP PUSH2 0x61A JUMP JUMPDEST PUSH1 0x0 PUSH2 0x5DF DUP12 DUP8 DUP5 DUP8 DUP8 DUP15 DUP15 PUSH2 0x1C23 JUMP JUMPDEST SWAP1 SWAP12 POP SWAP10 POP SWAP1 SWAP2 POP PUSH2 0x5F3 SWAP1 POP DUP13 DUP3 PUSH2 0x1CAE JUMP JUMPDEST SWAP12 POP DUP2 DUP2 SUB PUSH2 0x603 JUMPI POP POP PUSH2 0x61A JUMP JUMPDEST PUSH2 0x60D DUP6 DUP6 PUSH2 0x1D0A JUMP JUMPDEST SWAP1 SWAP5 POP SWAP3 POP PUSH2 0x56E SWAP2 POP POP JUMP JUMPDEST PUSH2 0x622 PUSH2 0x1D17 JUMP JUMPDEST DUP10 ISZERO PUSH2 0x6B3 JUMPI PUSH1 0x1 DUP5 EQ PUSH2 0x674 JUMPI PUSH2 0x66F DUP11 DUP7 PUSH1 0x0 DUP2 MLOAD DUP2 LT PUSH2 0x647 JUMPI PUSH2 0x647 PUSH2 0x4B13 JUMP JUMPDEST PUSH1 0x20 MUL PUSH1 0x20 ADD ADD MLOAD DUP8 PUSH1 0x1 DUP2 MLOAD DUP2 LT PUSH2 0x662 JUMPI PUSH2 0x662 PUSH2 0x4B13 JUMP JUMPDEST PUSH1 0x20 MUL PUSH1 0x20 ADD ADD MLOAD PUSH2 0x1E01 JUMP JUMPDEST PUSH2 0x6A6 JUMP JUMPDEST PUSH2 0x6A6 DUP11 DUP7 PUSH1 0x1 DUP2 MLOAD DUP2 LT PUSH2 0x68B JUMPI PUSH2 0x68B PUSH2 0x4B13 JUMP JUMPDEST PUSH1 0x20 MUL PUSH1 0x20 ADD ADD MLOAD DUP8 PUSH1 0x0 DUP2 MLOAD DUP2 LT PUSH2 0x662 JUMPI PUSH2 0x662 PUSH2 0x4B13 JUMP JUMPDEST PUSH2 0x6B0 SWAP1 DUP10 PUSH2 0x4B3F JUMP JUMPDEST SWAP8 POP JUMPDEST POP POP POP POP POP PUSH1 0x1 PUSH1 0xD DUP2 SWAP1 SSTORE POP SWAP4 POP SWAP4 POP SWAP4 SWAP1 POP JUMP JUMPDEST PUSH1 0x6 SLOAD PUSH1 0x9 SLOAD PUSH1 0xA SLOAD PUSH1 0x0 SWAP3 DUP4 SWAP3 PUSH2 0x6F1 SWAP3 PUSH1 0x1 PUSH1 0x1 PUSH1 0xA0 SHL SUB SWAP3 DUP4 AND SWAP3 SWAP2 DUP3 AND SWAP2 AND PUSH2 0x18FC JUMP JUMPDEST SWAP1 SWAP4 SWAP1 SWAP3 POP SWAP1 POP JUMP JUMPDEST PUSH1 0x60 DUP1 PUSH1 0x0 PUSH2 0x70A DUP6 PUSH1 0x0 PUSH2 0x1EC7 JUMP JUMPDEST SWAP1 POP PUSH1 0x0 PUSH1 0x1 DUP7 SUB PUSH2 0x74E JUMPI JUMPDEST DUP2 ISZERO DUP1 ISZERO SWAP1 PUSH2 0x726 JUMPI POP DUP5 DUP3 LT ISZERO JUMPDEST ISZERO PUSH2 0x749 JUMPI PUSH2 0x735 DUP7 DUP4 PUSH2 0x1EC7 JUMP JUMPDEST SWAP2 POP DUP1 PUSH2 0x741 DUP2 PUSH2 0x4B57 JUMP JUMPDEST SWAP2 POP POP PUSH2 0x717 JUMP JUMPDEST PUSH2 0x789 JUMP JUMPDEST PUSH1 0x2 DUP7 SUB PUSH2 0x789 JUMPI JUMPDEST DUP2 ISZERO DUP1 ISZERO SWAP1 PUSH2 0x766 JUMPI POP DUP5 DUP3 GT ISZERO JUMPDEST ISZERO PUSH2 0x789 JUMPI PUSH2 0x775 DUP7 DUP4 PUSH2 0x1EC7 JUMP JUMPDEST SWAP2 POP DUP1 PUSH2 0x781 DUP2 PUSH2 0x4B57 JUMP JUMPDEST SWAP2 POP POP PUSH2 0x757 JUMP JUMPDEST DUP1 ISZERO PUSH2 0x896 JUMPI DUP1 PUSH1 0x1 PUSH1 0x1 PUSH1 0x40 SHL SUB DUP2 GT ISZERO PUSH2 0x7A7 JUMPI PUSH2 0x7A7 PUSH2 0x4AFD JUMP JUMPDEST PUSH1 0x40 MLOAD SWAP1 DUP1 DUP3 MSTORE DUP1 PUSH1 0x20 MUL PUSH1 0x20 ADD DUP3 ADD PUSH1 0x40 MSTORE DUP1 ISZERO PUSH2 0x7D0 JUMPI DUP2 PUSH1 0x20 ADD PUSH1 0x20 DUP3 MUL DUP1 CALLDATASIZE DUP4 CALLDATACOPY ADD SWAP1 POP JUMPDEST POP SWAP4 POP DUP1 PUSH1 0x1 PUSH1 0x1 PUSH1 0x40 SHL SUB DUP2 GT ISZERO PUSH2 0x7EB JUMPI PUSH2 0x7EB PUSH2 0x4AFD JUMP JUMPDEST PUSH1 0x40 MLOAD SWAP1 DUP1 DUP3 MSTORE DUP1 PUSH1 0x20 MUL PUSH1 0x20 ADD DUP3 ADD PUSH1 0x40 MSTORE DUP1 ISZERO PUSH2 0x814 JUMPI DUP2 PUSH1 0x20 ADD PUSH1 0x20 DUP3 MUL DUP1 CALLDATASIZE DUP4 CALLDATACOPY ADD SWAP1 POP JUMPDEST POP SWAP3 POP PUSH2 0x822 DUP7 PUSH1 0x0 PUSH2 0x1EC7 JUMP JUMPDEST SWAP2 POP PUSH1 0x0 JUMPDEST DUP2 DUP2 LT ISZERO PUSH2 0x894 JUMPI DUP3 DUP6 DUP3 DUP2 MLOAD DUP2 LT PUSH2 0x842 JUMPI PUSH2 0x842 PUSH2 0x4B13 JUMP JUMPDEST PUSH1 0x20 MUL PUSH1 0x20 ADD ADD DUP2 DUP2 MSTORE POP POP PUSH2 0x858 DUP8 DUP5 PUSH2 0x1EE4 JUMP JUMPDEST DUP5 DUP3 DUP2 MLOAD DUP2 LT PUSH2 0x86A JUMPI PUSH2 0x86A PUSH2 0x4B13 JUMP JUMPDEST PUSH1 0x20 MUL PUSH1 0x20 ADD ADD DUP2 DUP2 MSTORE POP POP PUSH2 0x880 DUP8 DUP5 PUSH2 0x1EC7 JUMP JUMPDEST SWAP3 POP DUP1 PUSH2 0x88C DUP2 PUSH2 0x4B57 JUMP JUMPDEST SWAP2 POP POP PUSH2 0x827 JUMP JUMPDEST POP JUMPDEST POP POP SWAP3 POP SWAP3 SWAP1 POP JUMP JUMPDEST PUSH2 0x8A9 PUSH1 0x1 PUSH2 0x1FDA JUMP JUMPDEST ISZERO DUP1 ISZERO PUSH2 0x8BD JUMPI POP PUSH2 0x8BB PUSH1 0x2 PUSH2 0x1FDA JUMP JUMPDEST ISZERO JUMPDEST PUSH2 0x8F7 JUMPI PUSH1 0x40 MLOAD PUSH3 0x461BCD PUSH1 0xE5 SHL DUP2 MSTORE PUSH1 0x20 PUSH1 0x4 DUP3 ADD MSTORE PUSH1 0xB PUSH1 0x24 DUP3 ADD MSTORE PUSH11 0x13DC99195C88115E1A5CDD PUSH1 0xAA SHL PUSH1 0x44 DUP3 ADD MSTORE PUSH1 0x64 ADD PUSH2 0x45A JUMP JUMPDEST PUSH1 0xA DUP1 SLOAD PUSH1 0x9 DUP1 SLOAD PUSH1 0x1 PUSH1 0x1 PUSH1 0xA0 SHL SUB NOT DUP1 DUP5 AND PUSH1 0x1 PUSH1 0x1 PUSH1 0xA0 SHL SUB DUP4 DUP2 AND SWAP2 SWAP1 SWAP2 OR SWAP1 SWAP6 SSTORE AND SWAP3 SWAP1 SWAP2 AND SWAP2 DUP3 OR SWAP1 SSTORE PUSH1 0x40 DUP1 MLOAD PUSH4 0x313CE567 PUSH1 0xE0 SHL DUP2 MSTORE SWAP1 MLOAD PUSH4 0x313CE567 SWAP2 PUSH1 0x4 DUP1 DUP3 ADD SWAP3 PUSH1 0x20 SWAP3 SWAP1 SWAP2 SWAP1 DUP3 SWAP1 SUB ADD DUP2 DUP7 GAS STATICCALL ISZERO DUP1 ISZERO PUSH2 0x962 JUMPI RETURNDATASIZE PUSH1 0x0 DUP1 RETURNDATACOPY RETURNDATASIZE PUSH1 0x0 REVERT JUMPDEST POP POP POP POP PUSH1 0x40 MLOAD RETURNDATASIZE PUSH1 0x1F NOT PUSH1 0x1F DUP3 ADD AND DUP3 ADD DUP1 PUSH1 0x40 MSTORE POP DUP2 ADD SWAP1 PUSH2 0x986 SWAP2 SWAP1 PUSH2 0x4B81 JUMP JUMPDEST PUSH1 0xFF AND PUSH1 0x8 SSTORE JUMP JUMPDEST PUSH1 0x0 PUSH1 0xD SLOAD PUSH1 0x1 EQ PUSH2 0x9B2 JUMPI PUSH1 0x40 MLOAD PUSH3 0x461BCD PUSH1 0xE5 SHL DUP2 MSTORE PUSH1 0x4 ADD PUSH2 0x45A SWAP1 PUSH2 0x4ADD JUMP JUMPDEST PUSH1 0x0 PUSH1 0xD SSTORE PUSH1 0x5 SLOAD PUSH1 0x1 PUSH1 0x1 PUSH1 0xA0 SHL SUB AND PUSH2 0x9CC DUP2 PUSH2 0x1FEC JUMP JUMPDEST PUSH1 0x1 PUSH1 0x1 PUSH1 0xA0 SHL SUB AND EQ PUSH2 0x9F2 JUMPI PUSH1 0x40 MLOAD PUSH3 0x461BCD PUSH1 0xE5 SHL DUP2 MSTORE PUSH1 0x4 ADD PUSH2 0x45A SWAP1 PUSH2 0x4B9C JUMP JUMPDEST PUSH1 0x0 PUSH2 0x9FC PUSH2 0x20B1 JUMP JUMPDEST SWAP1 POP PUSH1 0x0 PUSH1 0xC SLOAD DUP3 GT PUSH2 0xA10 JUMPI PUSH1 0x0 PUSH2 0xA1D JUMP JUMPDEST PUSH1 0xC SLOAD PUSH2 0xA1D SWAP1 DUP4 PUSH2 0x4BCB JUMP JUMPDEST PUSH1 0x6 SLOAD PUSH1 0x40 MLOAD PUSH4 0xBC25CF77 PUSH1 0xE0 SHL DUP2 MSTORE SWAP2 SWAP3 POP PUSH1 0x1 PUSH1 0x1 PUSH1 0xA0 SHL SUB AND SWAP1 PUSH4 0xBC25CF77 SWAP1 PUSH2 0xA4E SWAP1 DUP10 SWAP1 PUSH1 0x4 ADD PUSH2 0x498A JUMP JUMPDEST PUSH1 0x0 PUSH1 0x40 MLOAD DUP1 DUP4 SUB DUP2 PUSH1 0x0 DUP8 DUP1 EXTCODESIZE ISZERO DUP1 ISZERO PUSH2 0xA68 JUMPI PUSH1 0x0 DUP1 REVERT JUMPDEST POP GAS CALL ISZERO DUP1 ISZERO PUSH2 0xA7C JUMPI RETURNDATASIZE PUSH1 0x0 DUP1 RETURNDATACOPY RETURNDATASIZE PUSH1 0x0 REVERT JUMPDEST POP POP POP POP PUSH1 0x0 PUSH2 0xA8D DUP3 DUP8 DUP8 PUSH2 0x2128 JUMP JUMPDEST SWAP1 POP DUP1 ISZERO PUSH2 0xAA6 JUMPI PUSH2 0xAA3 DUP6 DUP4 DUP4 DUP10 PUSH1 0x1 PUSH2 0x25F3 JUMP JUMPDEST SWAP4 POP JUMPDEST PUSH2 0xAAE PUSH2 0x1D17 JUMP JUMPDEST POP POP PUSH1 0x1 PUSH1 0xD SSTORE POP SWAP4 SWAP3 POP POP POP JUMP JUMPDEST PUSH1 0x6 SLOAD PUSH1 0x9 SLOAD PUSH1 0xA SLOAD PUSH1 0x0 SWAP3 DUP4 SWAP3 DUP4 SWAP3 PUSH2 0xAE6 SWAP3 PUSH1 0x1 PUSH1 0x1 PUSH1 0xA0 SHL SUB SWAP1 DUP2 AND SWAP3 DUP2 AND SWAP2 AND PUSH2 0x18FC JUMP JUMPDEST SWAP2 POP SWAP2 POP DUP2 PUSH1 0x1 PUSH1 0x1 PUSH1 0x70 SHL SUB AND PUSH1 0x0 EQ PUSH2 0xB34 JUMPI DUP2 PUSH1 0x1 PUSH1 0x1 PUSH1 0x70 SHL SUB AND PUSH2 0xB27 PUSH1 0x8 SLOAD PUSH1 0xA PUSH2 0xB17 SWAP2 SWAP1 PUSH2 0x4CC6 JUMP JUMPDEST PUSH1 0x1 PUSH1 0x1 PUSH1 0x70 SHL SUB DUP5 AND SWAP1 PUSH2 0x26D8 JUMP JUMPDEST PUSH2 0xB31 SWAP2 SWAP1 PUSH2 0x4CD2 JUMP JUMPDEST SWAP3 POP JUMPDEST POP POP SWAP1 JUMP JUMPDEST PUSH1 0xA SLOAD PUSH1 0x40 DUP1 MLOAD PUSH4 0x313CE567 PUSH1 0xE0 SHL DUP2 MSTORE SWAP1 MLOAD PUSH1 0x0 SWAP3 PUSH1 0x1 PUSH1 0x1 PUSH1 0xA0 SHL SUB AND SWAP2 PUSH4 0x313CE567 SWAP2 PUSH1 0x4 DUP1 DUP4 ADD SWAP3 PUSH1 0x20 SWAP3 SWAP2 SWAP1 DUP3 SWAP1 SUB ADD DUP2 DUP7 GAS STATICCALL ISZERO DUP1 ISZERO PUSH2 0xB83 JUMPI RETURNDATASIZE PUSH1 0x0 DUP1 RETURNDATACOPY RETURNDATASIZE PUSH1 0x0 REVERT JUMPDEST POP POP POP POP PUSH1 0x40 MLOAD RETURNDATASIZE PUSH1 0x1F NOT PUSH1 0x1F DUP3 ADD AND DUP3 ADD DUP1 PUSH1 0x40 MSTORE POP DUP2 ADD SWAP1 PUSH2 0xBA7 SWAP2 SWAP1 PUSH2 0x4B81 JUMP JUMPDEST PUSH1 0xFF AND SWAP1 POP SWAP1 JUMP JUMPDEST PUSH1 0x40 DUP1 MLOAD PUSH1 0x6 DUP1 DUP3 MSTORE PUSH1 0xE0 DUP3 ADD SWAP1 SWAP3 MSTORE PUSH1 0x0 SWAP2 DUP3 SWAP2 DUP3 SWAP2 DUP3 SWAP2 SWAP1 PUSH1 0x20 DUP3 ADD PUSH1 0xC0 DUP1 CALLDATASIZE DUP4 CALLDATACOPY POP POP PUSH1 0x6 SLOAD PUSH1 0x9 SLOAD PUSH1 0xA SLOAD SWAP4 SWAP5 POP PUSH2 0xBFC SWAP4 PUSH1 0x1 PUSH1 0x1 PUSH1 0xA0 SHL SUB SWAP3 DUP4 AND SWAP4 POP SWAP1 DUP3 AND SWAP2 AND PUSH2 0x18FC JUMP JUMPDEST DUP2 PUSH1 0x1 PUSH1 0x1 PUSH1 0x70 SHL SUB AND SWAP2 POP DUP1 PUSH1 0x1 PUSH1 0x1 PUSH1 0x70 SHL SUB AND SWAP1 POP DUP3 PUSH1 0x0 DUP2 MLOAD DUP2 LT PUSH2 0xC27 JUMPI PUSH2 0xC27 PUSH2 0x4B13 JUMP JUMPDEST PUSH1 0x20 MUL PUSH1 0x20 ADD ADD DUP4 PUSH1 0x1 DUP2 MLOAD DUP2 LT PUSH2 0xC41 JUMPI PUSH2 0xC41 PUSH2 0x4B13 JUMP JUMPDEST PUSH1 0x20 SWAP1 DUP2 MUL SWAP2 SWAP1 SWAP2 ADD ADD SWAP2 SWAP1 SWAP2 MSTORE MSTORE PUSH2 0xC58 PUSH2 0x273F JUMP JUMPDEST DUP3 PUSH1 0x2 DUP2 MLOAD DUP2 LT PUSH2 0xC6B JUMPI PUSH2 0xC6B PUSH2 0x4B13 JUMP JUMPDEST PUSH1 0x20 MUL PUSH1 0x20 ADD ADD DUP4 PUSH1 0x3 DUP2 MLOAD DUP2 LT PUSH2 0xC85 JUMPI PUSH2 0xC85 PUSH2 0x4B13 JUMP JUMPDEST PUSH1 0x20 SWAP1 DUP2 MUL SWAP2 SWAP1 SWAP2 ADD ADD SWAP2 SWAP1 SWAP2 MSTORE MSTORE PUSH2 0xC9D DUP7 PUSH2 0x1A5C JUMP JUMPDEST DUP3 PUSH1 0x4 DUP2 MLOAD DUP2 LT PUSH2 0xCB0 JUMPI PUSH2 0xCB0 PUSH2 0x4B13 JUMP JUMPDEST PUSH1 0x20 MUL PUSH1 0x20 ADD ADD DUP4 PUSH1 0x5 DUP2 MLOAD DUP2 LT PUSH2 0xCCA JUMPI PUSH2 0xCCA PUSH2 0x4B13 JUMP JUMPDEST PUSH1 0x20 MUL PUSH1 0x20 ADD ADD DUP3 DUP2 MSTORE POP DUP3 DUP2 MSTORE POP POP POP PUSH1 0x0 DUP6 SWAP1 POP PUSH1 0x0 SWAP5 POP PUSH1 0x0 DUP1 PUSH2 0xD0C DUP5 PUSH1 0x5 DUP2 MLOAD DUP2 LT PUSH2 0xCFD JUMPI PUSH2 0xCFD PUSH2 0x4B13 JUMP JUMPDEST PUSH1 0x20 MUL PUSH1 0x20 ADD ADD MLOAD PUSH1 0x0 PUSH2 0x1AA9 JUMP JUMPDEST SWAP2 POP SWAP2 POP JUMPDEST DUP2 ISZERO PUSH2 0xE4F JUMPI PUSH1 0x0 PUSH2 0xD66 DUP6 PUSH1 0x4 DUP2 MLOAD DUP2 LT PUSH2 0xD2F JUMPI PUSH2 0xD2F PUSH2 0x4B13 JUMP JUMPDEST PUSH1 0x20 MUL PUSH1 0x20 ADD ADD MLOAD DUP6 DUP8 PUSH1 0x0 DUP2 MLOAD DUP2 LT PUSH2 0xD4B JUMPI PUSH2 0xD4B PUSH2 0x4B13 JUMP JUMPDEST PUSH1 0x20 MUL PUSH1 0x20 ADD ADD MLOAD DUP9 PUSH1 0x1 DUP2 MLOAD DUP2 LT PUSH2 0x5A9 JUMPI PUSH2 0x5A9 PUSH2 0x4B13 JUMP JUMPDEST SWAP1 SWAP11 POP SWAP9 POP SWAP2 SWAP3 POP POP POP PUSH1 0x0 DUP2 SWAP1 SUB PUSH2 0xD7F JUMPI POP PUSH2 0xE4F JUMP JUMPDEST PUSH1 0x0 DUP1 PUSH1 0x0 PUSH2 0xDE3 DUP9 PUSH1 0x4 DUP2 MLOAD DUP2 LT PUSH2 0xD9A JUMPI PUSH2 0xD9A PUSH2 0x4B13 JUMP JUMPDEST PUSH1 0x20 MUL PUSH1 0x20 ADD ADD MLOAD DUP6 DUP9 PUSH1 0x8 SLOAD DUP13 PUSH1 0x2 DUP2 MLOAD DUP2 LT PUSH2 0xDBA JUMPI PUSH2 0xDBA PUSH2 0x4B13 JUMP JUMPDEST PUSH1 0x20 MUL PUSH1 0x20 ADD ADD MLOAD DUP14 PUSH1 0x3 DUP2 MLOAD DUP2 LT PUSH2 0xDD5 JUMPI PUSH2 0xDD5 PUSH2 0x4B13 JUMP JUMPDEST PUSH1 0x20 MUL PUSH1 0x20 ADD ADD MLOAD DUP12 PUSH2 0x28A1 JUMP JUMPDEST SWAP2 SWAP5 POP SWAP3 POP SWAP1 POP PUSH2 0xDF4 DUP3 DUP3 PUSH2 0x1CAE JUMP JUMPDEST PUSH2 0xDFE SWAP1 DUP13 PUSH2 0x4B3F JUMP JUMPDEST SWAP11 POP PUSH2 0xE0A DUP8 DUP5 PUSH2 0x1CAE JUMP JUMPDEST SWAP7 POP DUP4 DUP4 SUB PUSH2 0xE1C JUMPI POP POP POP POP PUSH2 0xE4F JUMP JUMPDEST PUSH2 0xE40 DUP9 PUSH1 0x5 DUP2 MLOAD DUP2 LT PUSH2 0xE32 JUMPI PUSH2 0xE32 PUSH2 0x4B13 JUMP JUMPDEST PUSH1 0x20 MUL PUSH1 0x20 ADD ADD MLOAD DUP8 PUSH2 0x1AA9 JUMP JUMPDEST SWAP1 SWAP7 POP SWAP5 POP PUSH2 0xD11 SWAP4 POP POP POP POP JUMP JUMPDEST DUP3 ISZERO PUSH2 0xEED JUMPI PUSH1 0x1 DUP5 PUSH1 0x4 DUP2 MLOAD DUP2 LT PUSH2 0xE6A JUMPI PUSH2 0xE6A PUSH2 0x4B13 JUMP JUMPDEST PUSH1 0x20 MUL PUSH1 0x20 ADD ADD MLOAD EQ PUSH2 0xEAE JUMPI PUSH2 0xEA9 DUP4 DUP6 PUSH1 0x0 DUP2 MLOAD DUP2 LT PUSH2 0xE8E JUMPI PUSH2 0xE8E PUSH2 0x4B13 JUMP JUMPDEST PUSH1 0x20 MUL PUSH1 0x20 ADD ADD MLOAD DUP7 PUSH1 0x1 DUP2 MLOAD DUP2 LT PUSH2 0x662 JUMPI PUSH2 0x662 PUSH2 0x4B13 JUMP JUMPDEST PUSH2 0xEE0 JUMP JUMPDEST PUSH2 0xEE0 DUP4 DUP6 PUSH1 0x1 DUP2 MLOAD DUP2 LT PUSH2 0xEC5 JUMPI PUSH2 0xEC5 PUSH2 0x4B13 JUMP JUMPDEST PUSH1 0x20 MUL PUSH1 0x20 ADD ADD MLOAD DUP7 PUSH1 0x0 DUP2 MLOAD DUP2 LT PUSH2 0x662 JUMPI PUSH2 0x662 PUSH2 0x4B13 JUMP JUMPDEST PUSH2 0xEEA SWAP1 DUP9 PUSH2 0x4B3F JUMP JUMPDEST SWAP7 POP JUMPDEST POP POP POP POP SWAP3 POP SWAP3 POP SWAP3 JUMP JUMPDEST PUSH1 0xD SLOAD PUSH1 0x1 EQ PUSH2 0xF1A JUMPI PUSH1 0x40 MLOAD PUSH3 0x461BCD PUSH1 0xE5 SHL DUP2 MSTORE PUSH1 0x4 ADD PUSH2 0x45A SWAP1 PUSH2 0x4ADD JUMP JUMPDEST PUSH1 0x0 PUSH1 0xD SSTORE PUSH1 0x5 SLOAD PUSH2 0xF34 SWAP1 PUSH1 0x1 PUSH1 0x1 PUSH1 0xA0 SHL SUB AND PUSH2 0x2A0E JUMP JUMPDEST PUSH1 0x1 PUSH1 0x1 PUSH1 0xA0 SHL SUB AND CALLER PUSH1 0x1 PUSH1 0x1 PUSH1 0xA0 SHL SUB AND EQ PUSH2 0xF80 JUMPI PUSH1 0x40 MLOAD PUSH3 0x461BCD PUSH1 0xE5 SHL DUP2 MSTORE PUSH1 0x20 PUSH1 0x4 DUP3 ADD MSTORE PUSH1 0x9 PUSH1 0x24 DUP3 ADD MSTORE PUSH9 0x2337B93134B23232B7 PUSH1 0xB9 SHL PUSH1 0x44 DUP3 ADD MSTORE PUSH1 0x64 ADD PUSH2 0x45A JUMP JUMPDEST PUSH1 0x1 PUSH1 0x1 PUSH1 0xA0 SHL SUB DUP3 AND PUSH2 0xFD3 JUMPI SELFBALANCE DUP1 ISZERO PUSH2 0xFCD JUMPI PUSH1 0x40 MLOAD PUSH1 0x1 PUSH1 0x1 PUSH1 0xA0 SHL SUB DUP4 AND SWAP1 DUP3 ISZERO PUSH2 0x8FC MUL SWAP1 DUP4 SWAP1 PUSH1 0x0 DUP2 DUP2 DUP2 DUP6 DUP9 DUP9 CALL SWAP4 POP POP POP POP ISZERO DUP1 ISZERO PUSH2 0xFCB JUMPI RETURNDATASIZE PUSH1 0x0 DUP1 RETURNDATACOPY RETURNDATASIZE PUSH1 0x0 REVERT JUMPDEST POP JUMPDEST POP PUSH2 0x10E0 JUMP JUMPDEST PUSH1 0x40 MLOAD PUSH4 0x70A08231 PUSH1 0xE0 SHL DUP2 MSTORE PUSH1 0x0 SWAP1 PUSH1 0x1 PUSH1 0x1 PUSH1 0xA0 SHL SUB DUP5 AND SWAP1 PUSH4 0x70A08231 SWAP1 PUSH2 0x1002 SWAP1 ADDRESS SWAP1 PUSH1 0x4 ADD PUSH2 0x498A JUMP JUMPDEST PUSH1 0x20 PUSH1 0x40 MLOAD DUP1 DUP4 SUB DUP2 DUP7 GAS STATICCALL ISZERO DUP1 ISZERO PUSH2 0x101F JUMPI RETURNDATASIZE PUSH1 0x0 DUP1 RETURNDATACOPY RETURNDATASIZE PUSH1 0x0 REVERT JUMPDEST POP POP POP POP PUSH1 0x40 MLOAD RETURNDATASIZE PUSH1 0x1F NOT PUSH1 0x1F DUP3 ADD AND DUP3 ADD DUP1 PUSH1 0x40 MSTORE POP DUP2 ADD SWAP1 PUSH2 0x1043 SWAP2 SWAP1 PUSH2 0x4CF4 JUMP JUMPDEST PUSH1 0x9 SLOAD SWAP1 SWAP2 POP DUP2 SWAP1 PUSH1 0x1 PUSH1 0x1 PUSH1 0xA0 SHL SUB SWAP1 DUP2 AND SWAP1 DUP6 AND SUB PUSH2 0x108C JUMPI PUSH1 0x0 PUSH2 0x106A PUSH1 0x2 PUSH2 0x2AAF JUMP JUMPDEST SWAP1 POP DUP1 DUP4 GT PUSH2 0x107A JUMPI PUSH1 0x0 PUSH2 0x1084 JUMP JUMPDEST PUSH2 0x1084 DUP2 DUP5 PUSH2 0x4BCB JUMP JUMPDEST SWAP2 POP POP PUSH2 0x10CC JUMP JUMPDEST PUSH1 0xA SLOAD PUSH1 0x1 PUSH1 0x1 PUSH1 0xA0 SHL SUB SWAP1 DUP2 AND SWAP1 DUP6 AND SUB PUSH2 0x10CC JUMPI PUSH1 0x0 PUSH2 0x10AE PUSH1 0x1 PUSH2 0x2AAF JUMP JUMPDEST SWAP1 POP DUP1 DUP4 GT PUSH2 0x10BE JUMPI PUSH1 0x0 PUSH2 0x10C8 JUMP JUMPDEST PUSH2 0x10C8 DUP2 DUP5 PUSH2 0x4BCB JUMP JUMPDEST SWAP2 POP POP JUMPDEST DUP1 ISZERO PUSH2 0x10DD JUMPI PUSH2 0x10DD DUP5 DUP5 DUP4 PUSH2 0x2AF3 JUMP JUMPDEST POP POP JUMPDEST POP POP PUSH1 0x1 PUSH1 0xD SSTORE JUMP JUMPDEST PUSH1 0x60 DUP1 PUSH1 0x0 PUSH2 0x10F7 DUP6 PUSH2 0x1FDA JUMP JUMPDEST SWAP1 POP DUP4 PUSH4 0xFFFFFFFF AND DUP2 GT PUSH2 0x110C JUMPI DUP1 PUSH2 0x1114 JUMP JUMPDEST DUP4 PUSH4 0xFFFFFFFF AND JUMPDEST SWAP1 POP DUP1 PUSH1 0x1 PUSH1 0x1 PUSH1 0x40 SHL SUB DUP2 GT ISZERO PUSH2 0x112E JUMPI PUSH2 0x112E PUSH2 0x4AFD JUMP JUMPDEST PUSH1 0x40 MLOAD SWAP1 DUP1 DUP3 MSTORE DUP1 PUSH1 0x20 MUL PUSH1 0x20 ADD DUP3 ADD PUSH1 0x40 MSTORE DUP1 ISZERO PUSH2 0x1157 JUMPI DUP2 PUSH1 0x20 ADD PUSH1 0x20 DUP3 MUL DUP1 CALLDATASIZE DUP4 CALLDATACOPY ADD SWAP1 POP JUMPDEST POP SWAP3 POP DUP1 PUSH1 0x1 PUSH1 0x1 PUSH1 0x40 SHL SUB DUP2 GT ISZERO PUSH2 0x1172 JUMPI PUSH2 0x1172 PUSH2 0x4AFD JUMP JUMPDEST PUSH1 0x40 MLOAD SWAP1 DUP1 DUP3 MSTORE DUP1 PUSH1 0x20 MUL PUSH1 0x20 ADD DUP3 ADD PUSH1 0x40 MSTORE DUP1 ISZERO PUSH2 0x119B JUMPI DUP2 PUSH1 0x20 ADD PUSH1 0x20 DUP3 MUL DUP1 CALLDATASIZE DUP4 CALLDATACOPY ADD SWAP1 POP JUMPDEST POP SWAP2 POP PUSH1 0x0 PUSH2 0x11AB DUP7 PUSH1 0x0 PUSH2 0x1EC7 JUMP JUMPDEST SWAP1 POP PUSH1 0x0 JUMPDEST DUP2 ISZERO DUP1 ISZERO SWAP1 PUSH2 0x11C4 JUMPI POP DUP3 DUP2 PUSH4 0xFFFFFFFF AND LT JUMPDEST ISZERO PUSH2 0x894 JUMPI DUP2 DUP6 DUP3 PUSH4 0xFFFFFFFF AND DUP2 MLOAD DUP2 LT PUSH2 0x11E2 JUMPI PUSH2 0x11E2 PUSH2 0x4B13 JUMP JUMPDEST PUSH1 0x20 MUL PUSH1 0x20 ADD ADD DUP2 DUP2 MSTORE POP POP PUSH2 0x11F8 DUP8 DUP4 PUSH2 0x1EE4 JUMP JUMPDEST DUP5 DUP3 PUSH4 0xFFFFFFFF AND DUP2 MLOAD DUP2 LT PUSH2 0x1210 JUMPI PUSH2 0x1210 PUSH2 0x4B13 JUMP JUMPDEST PUSH1 0x20 MUL PUSH1 0x20 ADD ADD DUP2 DUP2 MSTORE POP POP PUSH2 0x1226 DUP8 DUP4 PUSH2 0x1EC7 JUMP JUMPDEST SWAP2 POP DUP1 PUSH2 0x1232 DUP2 PUSH2 0x4D0D JUMP JUMPDEST SWAP2 POP POP PUSH2 0x11B0 JUMP JUMPDEST PUSH1 0x40 DUP1 MLOAD PUSH1 0x6 DUP1 DUP3 MSTORE PUSH1 0xE0 DUP3 ADD SWAP1 SWAP3 MSTORE PUSH1 0x0 SWAP2 DUP3 SWAP2 DUP3 SWAP2 DUP3 SWAP2 SWAP1 PUSH1 0x20 DUP3 ADD PUSH1 0xC0 DUP1 CALLDATASIZE DUP4 CALLDATACOPY POP POP PUSH1 0x6 SLOAD PUSH1 0x9 SLOAD PUSH1 0xA SLOAD SWAP4 SWAP5 POP PUSH2 0x1287 SWAP4 PUSH1 0x1 PUSH1 0x1 PUSH1 0xA0 SHL SUB SWAP3 DUP4 AND SWAP4 POP SWAP1 DUP3 AND SWAP2 AND PUSH2 0x18FC JUMP JUMPDEST DUP2 PUSH1 0x1 PUSH1 0x1 PUSH1 0x70 SHL SUB AND SWAP2 POP DUP1 PUSH1 0x1 PUSH1 0x1 PUSH1 0x70 SHL SUB AND SWAP1 POP DUP3 PUSH1 0x0 DUP2 MLOAD DUP2 LT PUSH2 0x12B2 JUMPI PUSH2 0x12B2 PUSH2 0x4B13 JUMP JUMPDEST PUSH1 0x20 MUL PUSH1 0x20 ADD ADD DUP4 PUSH1 0x1 DUP2 MLOAD DUP2 LT PUSH2 0x12CC JUMPI PUSH2 0x12CC PUSH2 0x4B13 JUMP JUMPDEST PUSH1 0x20 SWAP1 DUP2 MUL SWAP2 SWAP1 SWAP2 ADD ADD SWAP2 SWAP1 SWAP2 MSTORE MSTORE PUSH2 0x12E3 PUSH2 0x273F JUMP JUMPDEST DUP3 PUSH1 0x2 DUP2 MLOAD DUP2 LT PUSH2 0x12F6 JUMPI PUSH2 0x12F6 PUSH2 0x4B13 JUMP JUMPDEST PUSH1 0x20 MUL PUSH1 0x20 ADD ADD DUP4 PUSH1 0x3 DUP2 MLOAD DUP2 LT PUSH2 0x1310 JUMPI PUSH2 0x1310 PUSH2 0x4B13 JUMP JUMPDEST PUSH1 0x20 SWAP1 DUP2 MUL SWAP2 SWAP1 SWAP2 ADD ADD SWAP2 SWAP1 SWAP2 MSTORE MSTORE PUSH2 0x1328 DUP7 PUSH2 0x1A5C JUMP JUMPDEST DUP3 PUSH1 0x5 DUP2 MLOAD DUP2 LT PUSH2 0x133B JUMPI PUSH2 0x133B PUSH2 0x4B13 JUMP JUMPDEST PUSH1 0x20 MUL PUSH1 0x20 ADD ADD DUP4 PUSH1 0x4 DUP2 MLOAD DUP2 LT PUSH2 0x1355 JUMPI PUSH2 0x1355 PUSH2 0x4B13 JUMP JUMPDEST PUSH1 0x20 MUL PUSH1 0x20 ADD ADD DUP3 DUP2 MSTORE POP DUP3 DUP2 MSTORE POP POP POP PUSH1 0x0 DUP6 SWAP1 POP PUSH1 0x0 SWAP5 POP PUSH1 0x0 DUP1 PUSH2 0x1388 DUP5 PUSH1 0x5 DUP2 MLOAD DUP2 LT PUSH2 0xCFD JUMPI PUSH2 0xCFD PUSH2 0x4B13 JUMP JUMPDEST SWAP2 POP SWAP2 POP JUMPDEST DUP2 ISZERO PUSH2 0x14D9 JUMPI PUSH1 0x0 PUSH2 0x13F3 DUP6 PUSH1 0x4 DUP2 MLOAD DUP2 LT PUSH2 0x13AB JUMPI PUSH2 0x13AB PUSH2 0x4B13 JUMP JUMPDEST PUSH1 0x20 MUL PUSH1 0x20 ADD ADD MLOAD DUP6 DUP8 PUSH1 0x0 DUP2 MLOAD DUP2 LT PUSH2 0x13C7 JUMPI PUSH2 0x13C7 PUSH2 0x4B13 JUMP JUMPDEST PUSH1 0x20 MUL PUSH1 0x20 ADD ADD MLOAD DUP9 PUSH1 0x1 DUP2 MLOAD DUP2 LT PUSH2 0x13E2 JUMPI PUSH2 0x13E2 PUSH2 0x4B13 JUMP JUMPDEST PUSH1 0x20 MUL PUSH1 0x20 ADD ADD MLOAD DUP8 PUSH1 0x8 SLOAD PUSH2 0x2C2C JUMP JUMPDEST SWAP1 SWAP11 POP SWAP9 POP SWAP2 SWAP3 POP POP POP PUSH1 0x0 DUP2 SWAP1 SUB PUSH2 0x140C JUMPI POP PUSH2 0x14D9 JUMP JUMPDEST PUSH1 0x0 DUP1 PUSH1 0x0 PUSH2 0x1470 DUP9 PUSH1 0x4 DUP2 MLOAD DUP2 LT PUSH2 0x1427 JUMPI PUSH2 0x1427 PUSH2 0x4B13 JUMP JUMPDEST PUSH1 0x20 MUL PUSH1 0x20 ADD ADD MLOAD DUP6 DUP9 PUSH1 0x8 SLOAD DUP13 PUSH1 0x2 DUP2 MLOAD DUP2 LT PUSH2 0x1447 JUMPI PUSH2 0x1447 PUSH2 0x4B13 JUMP JUMPDEST PUSH1 0x20 MUL PUSH1 0x20 ADD ADD MLOAD DUP14 PUSH1 0x3 DUP2 MLOAD DUP2 LT PUSH2 0x1462 JUMPI PUSH2 0x1462 PUSH2 0x4B13 JUMP JUMPDEST PUSH1 0x20 MUL PUSH1 0x20 ADD ADD MLOAD DUP12 PUSH2 0x2D40 JUMP JUMPDEST SWAP2 SWAP5 POP SWAP3 POP SWAP1 POP PUSH2 0x1482 DUP4 PUSH1 0x1 PUSH2 0x2E5A JUMP JUMPDEST PUSH2 0x148C SWAP1 DUP13 PUSH2 0x4B3F JUMP JUMPDEST SWAP11 POP PUSH2 0x14A2 PUSH2 0x149B DUP4 DUP4 PUSH2 0x1CAE JUMP JUMPDEST DUP9 SWAP1 PUSH2 0x1CAE JUMP JUMPDEST SWAP7 POP DUP4 DUP3 SUB PUSH2 0x14B4 JUMPI POP POP POP POP PUSH2 0x14D9 JUMP JUMPDEST PUSH2 0x14CA DUP9 PUSH1 0x5 DUP2 MLOAD DUP2 LT PUSH2 0xE32 JUMPI PUSH2 0xE32 PUSH2 0x4B13 JUMP JUMPDEST SWAP1 SWAP7 POP SWAP5 POP PUSH2 0x138D SWAP4 POP POP POP POP JUMP JUMPDEST DUP3 ISZERO PUSH2 0xEED JUMPI PUSH1 0x1 DUP5 PUSH1 0x4 DUP2 MLOAD DUP2 LT PUSH2 0x14F4 JUMPI PUSH2 0x14F4 PUSH2 0x4B13 JUMP JUMPDEST PUSH1 0x20 MUL PUSH1 0x20 ADD ADD MLOAD EQ PUSH2 0x1540 JUMPI PUSH2 0xEA9 DUP4 DUP6 PUSH1 0x0 DUP2 MLOAD DUP2 LT PUSH2 0x1518 JUMPI PUSH2 0x1518 PUSH2 0x4B13 JUMP JUMPDEST PUSH1 0x20 MUL PUSH1 0x20 ADD ADD MLOAD DUP7 PUSH1 0x1 DUP2 MLOAD DUP2 LT PUSH2 0x1533 JUMPI PUSH2 0x1533 PUSH2 0x4B13 JUMP JUMPDEST PUSH1 0x20 MUL PUSH1 0x20 ADD ADD MLOAD PUSH2 0x2EAF JUMP JUMPDEST PUSH2 0xEE0 DUP4 DUP6 PUSH1 0x1 DUP2 MLOAD DUP2 LT PUSH2 0x1557 JUMPI PUSH2 0x1557 PUSH2 0x4B13 JUMP JUMPDEST PUSH1 0x20 MUL PUSH1 0x20 ADD ADD MLOAD DUP7 PUSH1 0x0 DUP2 MLOAD DUP2 LT PUSH2 0x1533 JUMPI PUSH2 0x1533 PUSH2 0x4B13 JUMP JUMPDEST PUSH1 0x0 PUSH1 0xD SLOAD PUSH1 0x1 EQ PUSH2 0x1596 JUMPI PUSH1 0x40 MLOAD PUSH3 0x461BCD PUSH1 0xE5 SHL DUP2 MSTORE PUSH1 0x4 ADD PUSH2 0x45A SWAP1 PUSH2 0x4ADD JUMP JUMPDEST PUSH1 0x0 PUSH1 0xD SSTORE PUSH1 0x5 SLOAD PUSH1 0x1 PUSH1 0x1 PUSH1 0xA0 SHL SUB AND PUSH2 0x15B0 DUP2 PUSH2 0x1FEC JUMP JUMPDEST PUSH1 0x1 PUSH1 0x1 PUSH1 0xA0 SHL SUB AND EQ PUSH2 0x15D6 JUMPI PUSH1 0x40 MLOAD PUSH3 0x461BCD PUSH1 0xE5 SHL DUP2 MSTORE PUSH1 0x4 ADD PUSH2 0x45A SWAP1 PUSH2 0x4B9C JUMP JUMPDEST PUSH1 0x0 PUSH2 0x15E0 PUSH2 0x2F6A JUMP JUMPDEST SWAP1 POP PUSH1 0x0 PUSH1 0xB SLOAD DUP3 GT PUSH2 0x15F4 JUMPI PUSH1 0x0 PUSH2 0x1601 JUMP JUMPDEST PUSH1 0xB SLOAD PUSH2 0x1601 SWAP1 DUP4 PUSH2 0x4BCB JUMP JUMPDEST PUSH1 0x6 SLOAD PUSH1 0x40 MLOAD PUSH4 0xBC25CF77 PUSH1 0xE0 SHL DUP2 MSTORE SWAP2 SWAP3 POP PUSH1 0x1 PUSH1 0x1 PUSH1 0xA0 SHL SUB AND SWAP1 PUSH4 0xBC25CF77 SWAP1 PUSH2 0x1632 SWAP1 DUP10 SWAP1 PUSH1 0x4 ADD PUSH2 0x498A JUMP JUMPDEST PUSH1 0x0 PUSH1 0x40 MLOAD DUP1 DUP4 SUB DUP2 PUSH1 0x0 DUP8 DUP1 EXTCODESIZE ISZERO DUP1 ISZERO PUSH2 0x164C JUMPI PUSH1 0x0 DUP1 REVERT JUMPDEST POP GAS CALL ISZERO DUP1 ISZERO PUSH2 0x1660 JUMPI RETURNDATASIZE PUSH1 0x0 DUP1 RETURNDATACOPY RETURNDATASIZE PUSH1 0x0 REVERT JUMPDEST POP POP POP POP PUSH1 0x0 PUSH2 0x1671 DUP3 DUP8 DUP8 PUSH2 0x2F9B JUMP JUMPDEST SWAP1 POP DUP1 ISZERO PUSH2 0xAA6 JUMPI PUSH2 0xAA3 DUP6 DUP4 DUP4 DUP10 PUSH1 0x2 PUSH2 0x25F3 JUMP JUMPDEST PUSH1 0x5 SLOAD PUSH1 0x1 PUSH1 0x1 PUSH1 0xA0 SHL SUB AND CALLER EQ PUSH2 0x16CD JUMPI PUSH1 0x40 MLOAD PUSH3 0x461BCD PUSH1 0xE5 SHL DUP2 MSTORE PUSH1 0x20 PUSH1 0x4 DUP3 ADD MSTORE PUSH1 0x9 PUSH1 0x24 DUP3 ADD MSTORE PUSH9 0x2327A92124A22222A7 PUSH1 0xB9 SHL PUSH1 0x44 DUP3 ADD MSTORE PUSH1 0x64 ADD PUSH2 0x45A JUMP JUMPDEST PUSH1 0x0 DUP1 DUP6 PUSH1 0x1 PUSH1 0x1 PUSH1 0xA0 SHL SUB AND PUSH4 0xDFE1681 PUSH1 0x40 MLOAD DUP2 PUSH4 0xFFFFFFFF AND PUSH1 0xE0 SHL DUP2 MSTORE PUSH1 0x4 ADD PUSH1 0x20 PUSH1 0x40 MLOAD DUP1 DUP4 SUB DUP2 DUP7 GAS STATICCALL ISZERO DUP1 ISZERO PUSH2 0x170E JUMPI RETURNDATASIZE PUSH1 0x0 DUP1 RETURNDATACOPY RETURNDATASIZE PUSH1 0x0 REVERT JUMPDEST POP POP POP POP PUSH1 0x40 MLOAD RETURNDATASIZE PUSH1 0x1F NOT PUSH1 0x1F DUP3 ADD AND DUP3 ADD DUP1 PUSH1 0x40 MSTORE POP DUP2 ADD SWAP1 PUSH2 0x1732 SWAP2 SWAP1 PUSH2 0x4D30 JUMP JUMPDEST DUP7 PUSH1 0x1 PUSH1 0x1 PUSH1 0xA0 SHL SUB AND PUSH4 0xD21220A7 PUSH1 0x40 MLOAD DUP2 PUSH4 0xFFFFFFFF AND PUSH1 0xE0 SHL DUP2 MSTORE PUSH1 0x4 ADD PUSH1 0x20 PUSH1 0x40 MLOAD DUP1 DUP4 SUB DUP2 DUP7 GAS STATICCALL ISZERO DUP1 ISZERO PUSH2 0x1770 JUMPI RETURNDATASIZE PUSH1 0x0 DUP1 RETURNDATACOPY RETURNDATASIZE PUSH1 0x0 REVERT JUMPDEST POP POP POP POP PUSH1 0x40 MLOAD RETURNDATASIZE PUSH1 0x1F NOT PUSH1 0x1F DUP3 ADD AND DUP3 ADD DUP1 PUSH1 0x40 MSTORE POP DUP2 ADD SWAP1 PUSH2 0x1794 SWAP2 SWAP1 PUSH2 0x4D30 JUMP JUMPDEST SWAP2 POP SWAP2 POP DUP5 PUSH1 0x1 PUSH1 0x1 PUSH1 0xA0 SHL SUB AND DUP3 PUSH1 0x1 PUSH1 0x1 PUSH1 0xA0 SHL SUB AND EQ DUP1 ISZERO PUSH2 0x17CA JUMPI POP DUP4 PUSH1 0x1 PUSH1 0x1 PUSH1 0xA0 SHL SUB AND DUP2 PUSH1 0x1 PUSH1 0x1 PUSH1 0xA0 SHL SUB AND EQ JUMPDEST DUP1 PUSH2 0x1802 JUMPI POP DUP5 PUSH1 0x1 PUSH1 0x1 PUSH1 0xA0 SHL SUB AND DUP2 PUSH1 0x1 PUSH1 0x1 PUSH1 0xA0 SHL SUB AND EQ DUP1 ISZERO PUSH2 0x1802 JUMPI POP DUP4 PUSH1 0x1 PUSH1 0x1 PUSH1 0xA0 SHL SUB AND DUP3 PUSH1 0x1 PUSH1 0x1 PUSH1 0xA0 SHL SUB AND EQ JUMPDEST PUSH2 0x1843 JUMPI PUSH1 0x40 MLOAD PUSH3 0x461BCD PUSH1 0xE5 SHL DUP2 MSTORE PUSH1 0x20 PUSH1 0x4 DUP3 ADD MSTORE PUSH1 0x12 PUSH1 0x24 DUP3 ADD MSTORE PUSH18 0x151BDAD95B8814185A5C88125B9D985B1A59 PUSH1 0x72 SHL PUSH1 0x44 DUP3 ADD MSTORE PUSH1 0x64 ADD PUSH2 0x45A JUMP JUMPDEST PUSH1 0x6 DUP1 SLOAD PUSH1 0x1 PUSH1 0x1 PUSH1 0xA0 SHL SUB DUP1 DUP10 AND PUSH1 0x1 PUSH1 0x1 PUSH1 0xA0 SHL SUB NOT SWAP3 DUP4 AND OR SWAP1 SWAP3 SSTORE PUSH1 0x7 DUP1 SLOAD DUP7 DUP5 AND SWAP1 DUP4 AND OR SWAP1 SSTORE PUSH1 0x9 DUP1 SLOAD DUP9 DUP5 AND SWAP1 DUP4 AND DUP2 OR SWAP1 SWAP2 SSTORE PUSH1 0xA DUP1 SLOAD SWAP4 DUP9 AND SWAP4 SWAP1 SWAP3 AND SWAP3 SWAP1 SWAP3 OR SWAP1 SSTORE PUSH1 0x40 DUP1 MLOAD PUSH4 0x313CE567 PUSH1 0xE0 SHL DUP2 MSTORE SWAP1 MLOAD PUSH4 0x313CE567 SWAP2 PUSH1 0x4 DUP1 DUP3 ADD SWAP3 PUSH1 0x20 SWAP3 SWAP1 SWAP2 SWAP1 DUP3 SWAP1 SUB ADD DUP2 DUP7 GAS STATICCALL ISZERO DUP1 ISZERO PUSH2 0x18CA JUMPI RETURNDATASIZE PUSH1 0x0 DUP1 RETURNDATACOPY RETURNDATASIZE PUSH1 0x0 REVERT JUMPDEST POP POP POP POP PUSH1 0x40 MLOAD RETURNDATASIZE PUSH1 0x1F NOT PUSH1 0x1F DUP3 ADD AND DUP3 ADD DUP1 PUSH1 0x40 MSTORE POP DUP2 ADD SWAP1 PUSH2 0x18EE SWAP2 SWAP1 PUSH2 0x4B81 JUMP JUMPDEST PUSH1 0xFF AND PUSH1 0x8 SSTORE POP POP POP POP POP POP JUMP JUMPDEST PUSH1 0x0 DUP1 DUP3 PUSH1 0x1 PUSH1 0x1 PUSH1 0xA0 SHL SUB AND DUP5 PUSH1 0x1 PUSH1 0x1 PUSH1 0xA0 SHL SUB AND SUB PUSH2 0x1956 JUMPI PUSH1 0x40 MLOAD PUSH3 0x461BCD PUSH1 0xE5 SHL DUP2 MSTORE PUSH1 0x20 PUSH1 0x4 DUP3 ADD MSTORE PUSH1 0x13 PUSH1 0x24 DUP3 ADD MSTORE PUSH19 0x4944454E544943414C5F414444524553534553 PUSH1 0x68 SHL PUSH1 0x44 DUP3 ADD MSTORE PUSH1 0x64 ADD PUSH2 0x45A JUMP JUMPDEST PUSH1 0x0 DUP4 PUSH1 0x1 PUSH1 0x1 PUSH1 0xA0 SHL SUB AND DUP6 PUSH1 0x1 PUSH1 0x1 PUSH1 0xA0 SHL SUB AND LT PUSH2 0x1977 JUMPI DUP4 PUSH2 0x1979 JUMP JUMPDEST DUP5 JUMPDEST SWAP1 POP PUSH1 0x1 PUSH1 0x1 PUSH1 0xA0 SHL SUB DUP2 AND PUSH2 0x19C0 JUMPI PUSH1 0x40 MLOAD PUSH3 0x461BCD PUSH1 0xE5 SHL DUP2 MSTORE PUSH1 0x20 PUSH1 0x4 DUP3 ADD MSTORE PUSH1 0xC PUSH1 0x24 DUP3 ADD MSTORE PUSH12 0x5A45524F5F41444452455353 PUSH1 0xA0 SHL PUSH1 0x44 DUP3 ADD MSTORE PUSH1 0x64 ADD PUSH2 0x45A JUMP JUMPDEST PUSH1 0x0 DUP1 DUP8 PUSH1 0x1 PUSH1 0x1 PUSH1 0xA0 SHL SUB AND PUSH4 0x902F1AC PUSH1 0x40 MLOAD DUP2 PUSH4 0xFFFFFFFF AND PUSH1 0xE0 SHL DUP2 MSTORE PUSH1 0x4 ADD PUSH1 0x60 PUSH1 0x40 MLOAD DUP1 DUP4 SUB DUP2 DUP7 GAS STATICCALL ISZERO DUP1 ISZERO PUSH2 0x1A01 JUMPI RETURNDATASIZE PUSH1 0x0 DUP1 RETURNDATACOPY RETURNDATASIZE PUSH1 0x0 REVERT JUMPDEST POP POP POP POP PUSH1 0x40 MLOAD RETURNDATASIZE PUSH1 0x1F NOT PUSH1 0x1F DUP3 ADD AND DUP3 ADD DUP1 PUSH1 0x40 MSTORE POP DUP2 ADD SWAP1 PUSH2 0x1A25 SWAP2 SWAP1 PUSH2 0x4D64 JUMP JUMPDEST POP SWAP2 POP SWAP2 POP DUP3 PUSH1 0x1 PUSH1 0x1 PUSH1 0xA0 SHL SUB AND DUP8 PUSH1 0x1 PUSH1 0x1 PUSH1 0xA0 SHL SUB AND EQ PUSH2 0x1A4A JUMPI DUP1 DUP3 PUSH2 0x1A4D JUMP JUMPDEST DUP2 DUP2 JUMPDEST SWAP1 SWAP10 SWAP1 SWAP9 POP SWAP7 POP POP POP POP POP POP POP JUMP JUMPDEST PUSH1 0xA SLOAD PUSH1 0x0 SWAP1 DUP2 SWAP1 PUSH1 0x1 PUSH1 0x1 PUSH1 0xA0 SHL SUB DUP5 DUP2 AND SWAP2 AND EQ PUSH2 0x1A7D JUMPI PUSH1 0x2 PUSH2 0x1A80 JUMP JUMPDEST PUSH1 0x1 JUMPDEST PUSH1 0xA SLOAD SWAP1 SWAP3 POP PUSH1 0x1 PUSH1 0x1 PUSH1 0xA0 SHL SUB DUP5 DUP2 AND SWAP2 AND EQ PUSH2 0x1A9F JUMPI PUSH1 0x1 PUSH2 0x1AA2 JUMP JUMPDEST PUSH1 0x2 JUMPDEST SWAP2 POP SWAP2 POP SWAP2 JUMP JUMPDEST PUSH1 0x0 DUP1 PUSH2 0x1AB6 DUP5 DUP5 PUSH2 0x1EC7 JUMP JUMPDEST SWAP2 POP PUSH2 0x1AC2 DUP5 DUP4 PUSH2 0x1EE4 JUMP JUMPDEST SWAP1 POP SWAP3 POP SWAP3 SWAP1 POP JUMP JUMPDEST PUSH1 0x0 DUP1 PUSH1 0x0 DUP1 PUSH1 0x0 PUSH1 0x1 DUP12 SUB PUSH2 0x1B7A JUMPI PUSH1 0x0 PUSH2 0x1AE9 DUP11 DUP11 DUP11 DUP11 PUSH2 0x3403 JUMP JUMPDEST SWAP1 POP PUSH1 0x0 PUSH2 0x1AF9 DUP11 PUSH2 0x7CD PUSH2 0x26D8 JUMP JUMPDEST SWAP1 POP DUP1 DUP3 GT PUSH2 0x1B09 JUMPI PUSH1 0x0 PUSH2 0x1B1F JUMP JUMPDEST PUSH2 0x1B1F PUSH2 0x7CA PUSH2 0x1B19 DUP4 DUP6 PUSH2 0x4BCB JUMP JUMPDEST SWAP1 PUSH2 0x3449 JUMP JUMPDEST SWAP5 POP DUP12 DUP6 GT PUSH2 0x1B2E JUMPI DUP5 PUSH2 0x1B30 JUMP JUMPDEST DUP12 JUMPDEST SWAP5 POP DUP5 ISZERO PUSH2 0x1B48 JUMPI PUSH2 0x1B43 DUP6 DUP12 DUP14 PUSH2 0x1E01 JUMP JUMPDEST PUSH2 0x1B4B JUMP JUMPDEST PUSH1 0x0 JUMPDEST SWAP6 POP PUSH2 0x1B57 DUP6 DUP14 PUSH2 0x4BCB JUMP JUMPDEST PUSH2 0x1B61 DUP8 DUP14 PUSH2 0x4BCB JUMP JUMPDEST PUSH2 0x1B6B DUP8 DUP14 PUSH2 0x4B3F JUMP JUMPDEST SWAP2 SWAP9 POP SWAP5 POP SWAP3 POP PUSH2 0x1C15 SWAP2 POP POP JUMP JUMPDEST PUSH1 0x2 DUP12 SUB PUSH2 0x1C0C JUMPI PUSH1 0x0 PUSH2 0x1B90 DUP11 DUP11 DUP11 DUP11 PUSH2 0x345C JUMP JUMPDEST SWAP1 POP PUSH1 0x0 PUSH2 0x1BA0 DUP12 PUSH2 0x7CD PUSH2 0x26D8 JUMP JUMPDEST SWAP1 POP DUP1 DUP3 GT PUSH2 0x1BB0 JUMPI PUSH1 0x0 PUSH2 0x1BC0 JUMP JUMPDEST PUSH2 0x1BC0 PUSH2 0x7CA PUSH2 0x1B19 DUP4 DUP6 PUSH2 0x4BCB JUMP JUMPDEST SWAP6 POP DUP12 DUP7 GT PUSH2 0x1BCF JUMPI DUP6 PUSH2 0x1BD1 JUMP JUMPDEST DUP12 JUMPDEST SWAP6 POP DUP6 ISZERO PUSH2 0x1BE9 JUMPI PUSH2 0x1BE4 DUP7 DUP13 DUP13 PUSH2 0x1E01 JUMP JUMPDEST PUSH2 0x1BEC JUMP JUMPDEST PUSH1 0x0 JUMPDEST SWAP5 POP PUSH2 0x1BF8 DUP7 DUP14 PUSH2 0x4BCB JUMP JUMPDEST PUSH2 0x1C02 DUP8 DUP14 PUSH2 0x4B3F JUMP JUMPDEST PUSH2 0x1B6B DUP8 DUP14 PUSH2 0x4BCB JUMP JUMPDEST POP DUP9 SWAP4 POP DUP8 SWAP1 POP DUP7 JUMPDEST SWAP7 POP SWAP7 POP SWAP7 POP SWAP7 POP SWAP7 SWAP2 POP POP JUMP JUMPDEST PUSH1 0x0 DUP1 PUSH1 0x60 DUP1 PUSH1 0x0 DUP1 PUSH2 0x1C38 DUP13 DUP13 DUP13 DUP13 PUSH2 0x3494 JUMP JUMPDEST SWAP4 SWAP10 POP SWAP7 POP SWAP2 SWAP5 POP SWAP3 POP SWAP1 POP PUSH2 0x1C4E DUP4 DUP9 PUSH2 0x34EC JUMP JUMPDEST SWAP3 POP PUSH2 0x1C5A DUP5 DUP10 PUSH2 0x35FD JUMP JUMPDEST SWAP4 POP PUSH2 0x1C66 DUP3 DUP3 PUSH2 0x1CAE JUMP JUMPDEST SWAP5 POP PUSH1 0x0 PUSH1 0x1 DUP14 EQ PUSH2 0x1C83 JUMPI PUSH1 0xA SLOAD PUSH1 0x1 PUSH1 0x1 PUSH1 0xA0 SHL SUB AND PUSH2 0x1C90 JUMP JUMPDEST PUSH1 0x9 SLOAD PUSH1 0x1 PUSH1 0x1 PUSH1 0xA0 SHL SUB AND JUMPDEST SWAP1 POP PUSH2 0x1C9D DUP2 DUP16 DUP9 PUSH2 0x2AF3 JUMP JUMPDEST POP POP POP SWAP8 POP SWAP8 POP SWAP8 POP SWAP8 SWAP4 POP POP POP POP JUMP JUMPDEST PUSH1 0x0 DUP3 PUSH2 0x1CBB DUP4 DUP3 PUSH2 0x4BCB JUMP JUMPDEST SWAP2 POP DUP2 GT ISZERO PUSH2 0x1D04 JUMPI PUSH1 0x40 MLOAD PUSH3 0x461BCD PUSH1 0xE5 SHL DUP2 MSTORE PUSH1 0x20 PUSH1 0x4 DUP3 ADD MSTORE PUSH1 0x15 PUSH1 0x24 DUP3 ADD MSTORE PUSH21 0x64732D6D6174682D7375622D756E646572666C6F77 PUSH1 0x58 SHL PUSH1 0x44 DUP3 ADD MSTORE PUSH1 0x64 ADD PUSH2 0x45A JUMP JUMPDEST SWAP3 SWAP2 POP POP JUMP JUMPDEST PUSH1 0x0 DUP1 PUSH2 0x1AB6 DUP5 DUP5 PUSH2 0x3721 JUMP JUMPDEST PUSH1 0x9 SLOAD PUSH1 0x40 MLOAD PUSH4 0x70A08231 PUSH1 0xE0 SHL DUP2 MSTORE PUSH1 0x1 PUSH1 0x1 PUSH1 0xA0 SHL SUB SWAP1 SWAP2 AND SWAP1 PUSH4 0x70A08231 SWAP1 PUSH2 0x1D47 SWAP1 ADDRESS SWAP1 PUSH1 0x4 ADD PUSH2 0x498A JUMP JUMPDEST PUSH1 0x20 PUSH1 0x40 MLOAD DUP1 DUP4 SUB DUP2 DUP7 GAS STATICCALL ISZERO DUP1 ISZERO PUSH2 0x1D64 JUMPI RETURNDATASIZE PUSH1 0x0 DUP1 RETURNDATACOPY RETURNDATASIZE PUSH1 0x0 REVERT JUMPDEST POP POP POP POP PUSH1 0x40 MLOAD RETURNDATASIZE PUSH1 0x1F NOT PUSH1 0x1F DUP3 ADD AND DUP3 ADD DUP1 PUSH1 0x40 MSTORE POP DUP2 ADD SWAP1 PUSH2 0x1D88 SWAP2 SWAP1 PUSH2 0x4CF4 JUMP JUMPDEST PUSH1 0xB SSTORE PUSH1 0xA SLOAD PUSH1 0x40 MLOAD PUSH4 0x70A08231 PUSH1 0xE0 SHL DUP2 MSTORE PUSH1 0x1 PUSH1 0x1 PUSH1 0xA0 SHL SUB SWAP1 SWAP2 AND SWAP1 PUSH4 0x70A08231 SWAP1 PUSH2 0x1DBB SWAP1 ADDRESS SWAP1 PUSH1 0x4 ADD PUSH2 0x498A JUMP JUMPDEST PUSH1 0x20 PUSH1 0x40 MLOAD DUP1 DUP4 SUB DUP2 DUP7 GAS STATICCALL ISZERO DUP1 ISZERO PUSH2 0x1DD8 JUMPI RETURNDATASIZE PUSH1 0x0 DUP1 RETURNDATACOPY RETURNDATASIZE PUSH1 0x0 REVERT JUMPDEST POP POP POP POP PUSH1 0x40 MLOAD RETURNDATASIZE PUSH1 0x1F NOT PUSH1 0x1F DUP3 ADD AND DUP3 ADD DUP1 PUSH1 0x40 MSTORE POP DUP2 ADD SWAP1 PUSH2 0x1DFC SWAP2 SWAP1 PUSH2 0x4CF4 JUMP JUMPDEST PUSH1 0xC SSTORE JUMP JUMPDEST PUSH1 0x0 DUP1 DUP5 GT PUSH2 0x1E4E JUMPI PUSH1 0x40 MLOAD PUSH3 0x461BCD PUSH1 0xE5 SHL DUP2 MSTORE PUSH1 0x20 PUSH1 0x4 DUP3 ADD MSTORE PUSH1 0x19 PUSH1 0x24 DUP3 ADD MSTORE PUSH25 0x125394D551919250D251539517D25394155517D05353D55395 PUSH1 0x3A SHL PUSH1 0x44 DUP3 ADD MSTORE PUSH1 0x64 ADD PUSH2 0x45A JUMP JUMPDEST PUSH1 0x0 DUP4 GT DUP1 ISZERO PUSH2 0x1E5E JUMPI POP PUSH1 0x0 DUP3 GT JUMPDEST PUSH2 0x1E7A JUMPI PUSH1 0x40 MLOAD PUSH3 0x461BCD PUSH1 0xE5 SHL DUP2 MSTORE PUSH1 0x4 ADD PUSH2 0x45A SWAP1 PUSH2 0x4DA0 JUMP JUMPDEST PUSH1 0x0 PUSH2 0x1E88 DUP6 PUSH2 0x3E5 PUSH2 0x26D8 JUMP JUMPDEST SWAP1 POP PUSH1 0x0 PUSH2 0x1E96 DUP3 DUP6 PUSH2 0x26D8 JUMP JUMPDEST SWAP1 POP PUSH1 0x0 PUSH2 0x1EB0 DUP4 PUSH2 0x1EAA DUP9 PUSH2 0x3E8 PUSH2 0x26D8 JUMP JUMPDEST SWAP1 PUSH2 0x2E5A JUMP JUMPDEST SWAP1 POP PUSH2 0x1EBC DUP2 DUP4 PUSH2 0x4CD2 JUMP JUMPDEST SWAP8 SWAP7 POP POP POP POP POP POP POP JUMP JUMPDEST PUSH1 0x0 SWAP2 DUP3 MSTORE PUSH1 0x3 PUSH1 0x20 SWAP1 DUP2 MSTORE PUSH1 0x40 DUP1 DUP5 KECCAK256 SWAP3 DUP5 MSTORE SWAP2 SWAP1 MSTORE SWAP1 KECCAK256 SLOAD SWAP1 JUMP JUMPDEST PUSH1 0x0 DUP3 DUP2 MSTORE PUSH1 0x1 PUSH1 0x20 SWAP1 DUP2 MSTORE PUSH1 0x40 DUP1 DUP4 KECCAK256 DUP5 DUP5 MSTORE DUP3 MSTORE DUP1 DUP4 KECCAK256 SLOAD DUP6 DUP5 MSTORE PUSH1 0x2 DUP4 MSTORE DUP2 DUP5 KECCAK256 DUP6 DUP6 MSTORE SWAP1 SWAP3 MSTORE DUP3 KECCAK256 SLOAD DUP2 JUMPDEST DUP2 DUP2 LT ISZERO PUSH2 0x1FD1 JUMPI PUSH1 0x7 SLOAD PUSH1 0x0 DUP8 DUP2 MSTORE PUSH1 0x20 DUP2 DUP2 MSTORE PUSH1 0x40 DUP1 DUP4 KECCAK256 DUP10 DUP5 MSTORE DUP3 MSTORE DUP1 DUP4 KECCAK256 DUP6 DUP5 MSTORE SWAP1 SWAP2 MSTORE SWAP1 DUP2 SWAP1 KECCAK256 SLOAD SWAP1 MLOAD PUSH4 0x4A83E9CD PUSH1 0xE1 SHL DUP2 MSTORE PUSH1 0x1 PUSH1 0x1 PUSH1 0xA0 SHL SUB SWAP1 SWAP3 AND SWAP2 PUSH4 0x9507D39A SWAP2 PUSH2 0x1F6E SWAP2 PUSH1 0x4 ADD SWAP1 DUP2 MSTORE PUSH1 0x20 ADD SWAP1 JUMP JUMPDEST PUSH1 0x80 PUSH1 0x40 MLOAD DUP1 DUP4 SUB DUP2 DUP7 GAS STATICCALL ISZERO DUP1 ISZERO PUSH2 0x1F8B JUMPI RETURNDATASIZE PUSH1 0x0 DUP1 RETURNDATACOPY RETURNDATASIZE PUSH1 0x0 REVERT JUMPDEST POP POP POP POP PUSH1 0x40 MLOAD RETURNDATASIZE PUSH1 0x1F NOT PUSH1 0x1F DUP3 ADD AND DUP3 ADD DUP1 PUSH1 0x40 MSTORE POP DUP2 ADD SWAP1 PUSH2 0x1FAF SWAP2 SWAP1 PUSH2 0x4DD0 JUMP JUMPDEST PUSH1 0x40 ADD MLOAD PUSH2 0x1FBD SWAP1 DUP6 PUSH2 0x4B3F JUMP JUMPDEST SWAP4 POP DUP1 PUSH2 0x1FC9 DUP2 PUSH2 0x4B57 JUMP JUMPDEST SWAP2 POP POP PUSH2 0x1F13 JUMP JUMPDEST POP POP POP SWAP3 SWAP2 POP POP JUMP JUMPDEST PUSH1 0x0 SWAP1 DUP2 MSTORE PUSH1 0x4 PUSH1 0x20 MSTORE PUSH1 0x40 SWAP1 KECCAK256 SLOAD SWAP1 JUMP JUMPDEST PUSH1 0x0 DUP2 PUSH1 0x1 PUSH1 0x1 PUSH1 0xA0 SHL SUB AND PUSH4 0xE14F870D PUSH1 0x40 MLOAD DUP2 PUSH4 0xFFFFFFFF AND PUSH1 0xE0 SHL DUP2 MSTORE PUSH1 0x4 ADD PUSH1 0x20 PUSH1 0x40 MLOAD DUP1 DUP4 SUB DUP2 DUP7 GAS STATICCALL ISZERO DUP1 ISZERO PUSH2 0x202C JUMPI RETURNDATASIZE PUSH1 0x0 DUP1 RETURNDATACOPY RETURNDATASIZE PUSH1 0x0 REVERT JUMPDEST POP POP POP POP PUSH1 0x40 MLOAD RETURNDATASIZE PUSH1 0x1F NOT PUSH1 0x1F DUP3 ADD AND DUP3 ADD DUP1 PUSH1 0x40 MSTORE POP DUP2 ADD SWAP1 PUSH2 0x2050 SWAP2 SWAP1 PUSH2 0x4D30 JUMP JUMPDEST PUSH1 0x1 PUSH1 0x1 PUSH1 0xA0 SHL SUB AND PUSH4 0xDEF0D2CB PUSH1 0x40 MLOAD DUP2 PUSH4 0xFFFFFFFF AND PUSH1 0xE0 SHL DUP2 MSTORE PUSH1 0x4 ADD PUSH1 0x20 PUSH1 0x40 MLOAD DUP1 DUP4 SUB DUP2 DUP7 GAS STATICCALL ISZERO DUP1 ISZERO PUSH2 0x208D JUMPI RETURNDATASIZE PUSH1 0x0 DUP1 RETURNDATACOPY RETURNDATASIZE PUSH1 0x0 REVERT JUMPDEST POP POP POP POP PUSH1 0x40 MLOAD RETURNDATASIZE PUSH1 0x1F NOT PUSH1 0x1F DUP3 ADD AND DUP3 ADD DUP1 PUSH1 0x40 MSTORE POP DUP2 ADD SWAP1 PUSH2 0x1D04 SWAP2 SWAP1 PUSH2 0x4D30 JUMP JUMPDEST PUSH1 0xA SLOAD PUSH1 0x40 MLOAD PUSH4 0x70A08231 PUSH1 0xE0 SHL DUP2 MSTORE PUSH1 0x0 SWAP2 PUSH1 0x1 PUSH1 0x1 PUSH1 0xA0 SHL SUB AND SWAP1 PUSH4 0x70A08231 SWAP1 PUSH2 0x20E2 SWAP1 ADDRESS SWAP1 PUSH1 0x4 ADD PUSH2 0x498A JUMP JUMPDEST PUSH1 0x20 PUSH1 0x40 MLOAD DUP1 DUP4 SUB DUP2 DUP7 GAS STATICCALL ISZERO DUP1 ISZERO PUSH2 0x20FF JUMPI RETURNDATASIZE PUSH1 0x0 DUP1 RETURNDATACOPY RETURNDATASIZE PUSH1 0x0 REVERT JUMPDEST POP POP POP POP PUSH1 0x40 MLOAD RETURNDATASIZE PUSH1 0x1F NOT PUSH1 0x1F DUP3 ADD AND DUP3 ADD DUP1 PUSH1 0x40 MSTORE POP DUP2 ADD SWAP1 PUSH2 0x2123 SWAP2 SWAP1 PUSH2 0x4CF4 JUMP JUMPDEST SWAP1 POP SWAP1 JUMP JUMPDEST PUSH1 0x40 DUP1 MLOAD PUSH1 0x4 DUP1 DUP3 MSTORE PUSH1 0xA0 DUP3 ADD SWAP1 SWAP3 MSTORE PUSH1 0x0 SWAP2 DUP3 SWAP2 SWAP1 PUSH1 0x20 DUP3 ADD PUSH1 0x80 DUP1 CALLDATASIZE DUP4 CALLDATACOPY POP POP PUSH1 0x6 SLOAD PUSH1 0x9 SLOAD PUSH1 0xA SLOAD SWAP4 SWAP5 POP PUSH2 0x2171 SWAP4 PUSH1 0x1 PUSH1 0x1 PUSH1 0xA0 SHL SUB SWAP3 DUP4 AND SWAP4 POP SWAP1 DUP3 AND SWAP2 AND PUSH2 0x18FC JUMP JUMPDEST DUP2 PUSH1 0x1 PUSH1 0x1 PUSH1 0x70 SHL SUB AND SWAP2 POP DUP1 PUSH1 0x1 PUSH1 0x1 PUSH1 0x70 SHL SUB AND SWAP1 POP DUP3 PUSH1 0x0 DUP2 MLOAD DUP2 LT PUSH2 0x219C JUMPI PUSH2 0x219C PUSH2 0x4B13 JUMP JUMPDEST PUSH1 0x20 MUL PUSH1 0x20 ADD ADD DUP4 PUSH1 0x1 DUP2 MLOAD DUP2 LT PUSH2 0x21B6 JUMPI PUSH2 0x21B6 PUSH2 0x4B13 JUMP JUMPDEST PUSH1 0x20 MUL PUSH1 0x20 ADD ADD DUP3 DUP2 MSTORE POP DUP3 DUP2 MSTORE POP POP POP DUP1 PUSH1 0x0 DUP2 MLOAD DUP2 LT PUSH2 0x21DA JUMPI PUSH2 0x21DA PUSH2 0x4B13 JUMP JUMPDEST PUSH1 0x20 MUL PUSH1 0x20 ADD ADD MLOAD DUP2 PUSH1 0x1 DUP2 MLOAD DUP2 LT PUSH2 0x21F5 JUMPI PUSH2 0x21F5 PUSH2 0x4B13 JUMP JUMPDEST PUSH1 0x20 MUL PUSH1 0x20 ADD ADD MLOAD DUP3 PUSH1 0x2 DUP2 MLOAD DUP2 LT PUSH2 0x2210 JUMPI PUSH2 0x2210 PUSH2 0x4B13 JUMP JUMPDEST PUSH1 0x20 MUL PUSH1 0x20 ADD ADD DUP4 PUSH1 0x3 DUP2 MLOAD DUP2 LT PUSH2 0x222A JUMPI PUSH2 0x222A PUSH2 0x4B13 JUMP JUMPDEST PUSH1 0x20 MUL PUSH1 0x20 ADD ADD DUP3 DUP2 MSTORE POP DUP3 DUP2 MSTORE POP POP POP PUSH1 0x0 DUP1 DUP3 PUSH1 0x0 DUP2 MLOAD DUP2 LT PUSH2 0x2251 JUMPI PUSH2 0x2251 PUSH2 0x4B13 JUMP JUMPDEST PUSH1 0x20 MUL PUSH1 0x20 ADD ADD MLOAD GT DUP1 ISZERO PUSH2 0x2280 JUMPI POP PUSH1 0x0 DUP3 PUSH1 0x1 DUP2 MLOAD DUP2 LT PUSH2 0x2276 JUMPI PUSH2 0x2276 PUSH2 0x4B13 JUMP JUMPDEST PUSH1 0x20 MUL PUSH1 0x20 ADD ADD MLOAD GT JUMPDEST SWAP1 POP PUSH1 0x0 DUP1 PUSH1 0x0 DUP9 SWAP6 POP PUSH1 0x0 PUSH2 0x2298 PUSH1 0x2 PUSH1 0x0 PUSH2 0x1EC7 JUMP JUMPDEST SWAP1 POP JUMPDEST DUP1 ISZERO DUP1 ISZERO SWAP1 PUSH2 0x22AA JUMPI POP DUP9 DUP2 GT ISZERO JUMPDEST ISZERO PUSH2 0x23EB JUMPI DUP7 DUP6 ISZERO PUSH2 0x2351 JUMPI PUSH2 0x22FB PUSH1 0x1 DUP10 DUP10 PUSH1 0x0 DUP2 MLOAD DUP2 LT PUSH2 0x22CF JUMPI PUSH2 0x22CF PUSH2 0x4B13 JUMP JUMPDEST PUSH1 0x20 MUL PUSH1 0x20 ADD ADD MLOAD DUP11 PUSH1 0x1 DUP2 MLOAD DUP2 LT PUSH2 0x22EA JUMPI PUSH2 0x22EA PUSH2 0x4B13 JUMP JUMPDEST PUSH1 0x20 MUL PUSH1 0x20 ADD ADD MLOAD DUP7 PUSH1 0x8 SLOAD PUSH2 0x1ACB JUMP JUMPDEST DUP12 PUSH1 0x2 DUP2 MLOAD DUP2 LT PUSH2 0x230E JUMPI PUSH2 0x230E PUSH2 0x4B13 JUMP JUMPDEST PUSH1 0x20 MUL PUSH1 0x20 ADD ADD DUP13 PUSH1 0x3 DUP2 MLOAD DUP2 LT PUSH2 0x2328 JUMPI PUSH2 0x2328 PUSH2 0x4B13 JUMP JUMPDEST PUSH1 0x20 SWAP1 DUP2 MUL SWAP2 SWAP1 SWAP2 ADD ADD SWAP2 SWAP1 SWAP2 MSTORE MSTORE SWAP1 SWAP7 POP SWAP5 POP SWAP1 POP PUSH1 0x0 DUP2 SWAP1 SUB PUSH2 0x2351 JUMPI PUSH1 0x0 SWAP8 POP POP PUSH2 0x23EB JUMP JUMPDEST PUSH1 0x0 PUSH2 0x235E PUSH1 0x2 DUP5 PUSH2 0x1EE4 JUMP JUMPDEST SWAP1 POP PUSH1 0x0 DUP1 PUSH1 0x0 DUP1 PUSH1 0x0 PUSH2 0x2375 PUSH1 0x1 DUP9 DUP11 DUP10 PUSH2 0x3494 JUMP JUMPDEST SWAP4 SWAP9 POP SWAP2 SWAP7 POP SWAP5 POP SWAP3 POP SWAP1 POP PUSH2 0x238B DUP5 DUP5 PUSH2 0x1CAE JUMP JUMPDEST PUSH2 0x2395 SWAP1 DUP11 PUSH2 0x4B3F JUMP JUMPDEST PUSH1 0xA SLOAD SWAP1 SWAP10 POP PUSH2 0x23AF SWAP1 PUSH1 0x1 PUSH1 0x1 PUSH1 0xA0 SHL SUB AND DUP4 DUP4 PUSH2 0x3766 JUMP JUMPDEST DUP7 DUP6 SUB PUSH2 0x23C6 JUMPI PUSH1 0x0 SWAP14 POP POP POP POP POP POP POP POP PUSH2 0x23EB JUMP JUMPDEST PUSH2 0x23D0 DUP15 DUP7 PUSH2 0x1CAE JUMP JUMPDEST SWAP14 POP PUSH2 0x23DD PUSH1 0x2 DUP10 PUSH2 0x3721 JUMP JUMPDEST SWAP8 POP POP POP POP POP POP POP POP PUSH2 0x229B JUMP JUMPDEST DUP2 ISZERO PUSH2 0x2473 JUMPI PUSH1 0x5 SLOAD PUSH1 0x40 DUP1 MLOAD PUSH4 0x15AB88C9 PUSH1 0xE3 SHL DUP2 MSTORE SWAP1 MLOAD PUSH2 0x2473 SWAP3 PUSH1 0x1 PUSH1 0x1 PUSH1 0xA0 SHL SUB AND SWAP2 PUSH4 0xAD5C4648 SWAP2 PUSH1 0x4 DUP1 DUP4 ADD SWAP3 PUSH1 0x20 SWAP3 SWAP2 SWAP1 DUP3 SWAP1 SUB ADD DUP2 DUP7 GAS STATICCALL ISZERO DUP1 ISZERO PUSH2 0x243C JUMPI RETURNDATASIZE PUSH1 0x0 DUP1 RETURNDATACOPY RETURNDATASIZE PUSH1 0x0 REVERT JUMPDEST POP POP POP POP PUSH1 0x40 MLOAD RETURNDATASIZE PUSH1 0x1F NOT PUSH1 0x1F DUP3 ADD AND DUP3 ADD DUP1 PUSH1 0x40 MSTORE POP DUP2 ADD SWAP1 PUSH2 0x2460 SWAP2 SWAP1 PUSH2 0x4D30 JUMP JUMPDEST PUSH1 0x9 SLOAD PUSH1 0x1 PUSH1 0x1 PUSH1 0xA0 SHL SUB AND DUP11 DUP6 PUSH2 0x3832 JUMP JUMPDEST DUP5 DUP1 ISZERO PUSH2 0x2480 JUMPI POP PUSH1 0x0 DUP8 GT JUMPDEST DUP1 ISZERO PUSH2 0x248C JUMPI POP DUP9 DUP2 EQ ISZERO JUMPDEST ISZERO PUSH2 0x251A JUMPI PUSH2 0x24D6 PUSH1 0x1 DUP9 DUP9 PUSH1 0x0 DUP2 MLOAD DUP2 LT PUSH2 0x24AA JUMPI PUSH2 0x24AA PUSH2 0x4B13 JUMP JUMPDEST PUSH1 0x20 MUL PUSH1 0x20 ADD ADD MLOAD DUP10 PUSH1 0x1 DUP2 MLOAD DUP2 LT PUSH2 0x24C5 JUMPI PUSH2 0x24C5 PUSH2 0x4B13 JUMP JUMPDEST PUSH1 0x20 MUL PUSH1 0x20 ADD ADD MLOAD DUP14 PUSH1 0x8 SLOAD PUSH2 0x1ACB JUMP JUMPDEST DUP11 PUSH1 0x2 DUP2 MLOAD DUP2 LT PUSH2 0x24E9 JUMPI PUSH2 0x24E9 PUSH2 0x4B13 JUMP JUMPDEST PUSH1 0x20 MUL PUSH1 0x20 ADD ADD DUP12 PUSH1 0x3 DUP2 MLOAD DUP2 LT PUSH2 0x2503 JUMPI PUSH2 0x2503 PUSH2 0x4B13 JUMP JUMPDEST PUSH1 0x20 SWAP1 DUP2 MUL SWAP2 SWAP1 SWAP2 ADD ADD SWAP2 SWAP1 SWAP2 MSTORE MSTORE SWAP2 SWAP9 POP SWAP5 POP SWAP3 POP JUMPDEST DUP3 ISZERO PUSH2 0x25E6 JUMPI DUP7 ISZERO PUSH2 0x2571 JUMPI PUSH2 0x256A DUP8 DUP5 DUP9 PUSH1 0x2 DUP2 MLOAD DUP2 LT PUSH2 0x253E JUMPI PUSH2 0x253E PUSH2 0x4B13 JUMP JUMPDEST PUSH1 0x20 MUL PUSH1 0x20 ADD ADD MLOAD DUP10 PUSH1 0x3 DUP2 MLOAD DUP2 LT PUSH2 0x2559 JUMPI PUSH2 0x2559 PUSH2 0x4B13 JUMP JUMPDEST PUSH1 0x20 MUL PUSH1 0x20 ADD ADD MLOAD DUP14 PUSH1 0x8 SLOAD PUSH2 0x38C5 JUMP JUMPDEST POP SWAP1 SWAP8 POP SWAP3 POP JUMPDEST PUSH1 0xA SLOAD PUSH1 0x9 SLOAD PUSH2 0x2591 SWAP2 DUP11 SWAP2 PUSH1 0x1 PUSH1 0x1 PUSH1 0xA0 SHL SUB SWAP2 DUP3 AND SWAP2 AND DUP7 DUP9 PUSH2 0x39A5 JUMP JUMPDEST DUP7 ISZERO DUP1 PUSH2 0x25A5 JUMPI POP DUP9 PUSH2 0x25A2 PUSH2 0xABD JUMP JUMPDEST LT ISZERO JUMPDEST PUSH2 0x25E6 JUMPI PUSH1 0x40 MLOAD PUSH3 0x461BCD PUSH1 0xE5 SHL DUP2 MSTORE PUSH1 0x20 PUSH1 0x4 DUP3 ADD MSTORE PUSH1 0x12 PUSH1 0x24 DUP3 ADD MSTORE PUSH18 0x84EAF240E0E4D2C6CA40DAD2E6DAC2E8C6D PUSH1 0x73 SHL PUSH1 0x44 DUP3 ADD MSTORE PUSH1 0x64 ADD PUSH2 0x45A JUMP JUMPDEST POP POP POP POP POP POP SWAP4 SWAP3 POP POP POP JUMP JUMPDEST PUSH1 0x40 DUP1 MLOAD PUSH1 0x80 DUP2 ADD DUP3 MSTORE DUP4 DUP2 MSTORE PUSH1 0x20 DUP2 ADD DUP7 DUP2 MSTORE DUP2 DUP4 ADD DUP7 DUP2 MSTORE PUSH1 0xFF DUP6 DUP2 AND PUSH1 0x60 DUP6 ADD SWAP1 DUP2 MSTORE PUSH1 0x7 SLOAD SWAP6 MLOAD PUSH4 0x76555B63 PUSH1 0xE1 SHL DUP2 MSTORE DUP6 MLOAD PUSH1 0x4 DUP3 ADD MSTORE SWAP4 MLOAD PUSH1 0x24 DUP6 ADD MSTORE SWAP2 MLOAD PUSH1 0x44 DUP5 ADD MSTORE SWAP1 MLOAD AND PUSH1 0x64 DUP3 ADD MSTORE PUSH1 0x1 PUSH1 0x1 PUSH1 0xA0 SHL SUB DUP9 DUP2 AND PUSH1 0x84 DUP4 ADD MSTORE PUSH1 0x0 SWAP4 AND SWAP1 PUSH4 0xECAAB6C6 SWAP1 PUSH1 0xA4 ADD PUSH1 0x20 PUSH1 0x40 MLOAD DUP1 DUP4 SUB DUP2 PUSH1 0x0 DUP8 GAS CALL ISZERO DUP1 ISZERO PUSH2 0x2682 JUMPI RETURNDATASIZE PUSH1 0x0 DUP1 RETURNDATACOPY RETURNDATASIZE PUSH1 0x0 REVERT JUMPDEST POP POP POP POP PUSH1 0x40 MLOAD RETURNDATASIZE PUSH1 0x1F NOT PUSH1 0x1F DUP3 ADD AND DUP3 ADD DUP1 PUSH1 0x40 MSTORE POP DUP2 ADD SWAP1 PUSH2 0x26A6 SWAP2 SWAP1 PUSH2 0x4CF4 JUMP JUMPDEST SWAP2 POP PUSH2 0x26B2 DUP4 DUP6 PUSH2 0x3CF3 JUMP JUMPDEST PUSH1 0x0 SUB PUSH2 0x26C3 JUMPI PUSH2 0x26C3 DUP4 DUP6 PUSH2 0x3D2A JUMP JUMPDEST PUSH2 0x26CE DUP4 DUP6 DUP5 PUSH2 0x3DC2 JUMP JUMPDEST POP SWAP6 SWAP5 POP POP POP POP POP JUMP JUMPDEST PUSH1 0x0 DUP2 ISZERO DUP1 PUSH2 0x26FC JUMPI POP DUP3 DUP3 PUSH2 0x26EE DUP2 DUP4 PUSH2 0x4E47 JUMP JUMPDEST SWAP3 POP PUSH2 0x26FA SWAP1 DUP4 PUSH2 0x4CD2 JUMP JUMPDEST EQ JUMPDEST PUSH2 0x1D04 JUMPI PUSH1 0x40 MLOAD PUSH3 0x461BCD PUSH1 0xE5 SHL DUP2 MSTORE PUSH1 0x20 PUSH1 0x4 DUP3 ADD MSTORE PUSH1 0x14 PUSH1 0x24 DUP3 ADD MSTORE PUSH20 0x64732D6D6174682D6D756C2D6F766572666C6F77 PUSH1 0x60 SHL PUSH1 0x44 DUP3 ADD MSTORE PUSH1 0x64 ADD PUSH2 0x45A JUMP JUMPDEST PUSH1 0x0 DUP1 PUSH1 0x0 PUSH1 0x5 PUSH1 0x0 SWAP1 SLOAD SWAP1 PUSH2 0x100 EXP SWAP1 DIV PUSH1 0x1 PUSH1 0x1 PUSH1 0xA0 SHL SUB AND PUSH1 0x1 PUSH1 0x1 PUSH1 0xA0 SHL SUB AND PUSH4 0x79502C55 PUSH1 0x40 MLOAD DUP2 PUSH4 0xFFFFFFFF AND PUSH1 0xE0 SHL DUP2 MSTORE PUSH1 0x4 ADD PUSH1 0x20 PUSH1 0x40 MLOAD DUP1 DUP4 SUB DUP2 DUP7 GAS STATICCALL ISZERO DUP1 ISZERO PUSH2 0x2797 JUMPI RETURNDATASIZE PUSH1 0x0 DUP1 RETURNDATACOPY RETURNDATASIZE PUSH1 0x0 REVERT JUMPDEST POP POP POP POP PUSH1 0x40 MLOAD RETURNDATASIZE PUSH1 0x1F NOT PUSH1 0x1F DUP3 ADD AND DUP3 ADD DUP1 PUSH1 0x40 MSTORE POP DUP2 ADD SWAP1 PUSH2 0x27BB SWAP2 SWAP1 PUSH2 0x4D30 JUMP JUMPDEST PUSH1 0x40 MLOAD PUSH4 0x4EBF0F9 PUSH1 0xE2 SHL DUP2 MSTORE SWAP1 SWAP2 POP PUSH1 0x1 PUSH1 0x1 PUSH1 0xA0 SHL SUB DUP3 AND SWAP1 PUSH4 0x13AFC3E4 SWAP1 PUSH2 0x27EA SWAP1 ADDRESS SWAP1 PUSH1 0x4 ADD PUSH2 0x498A JUMP JUMPDEST PUSH1 0x20 PUSH1 0x40 MLOAD DUP1 DUP4 SUB DUP2 DUP7 GAS STATICCALL ISZERO DUP1 ISZERO PUSH2 0x2807 JUMPI RETURNDATASIZE PUSH1 0x0 DUP1 RETURNDATACOPY RETURNDATASIZE PUSH1 0x0 REVERT JUMPDEST POP POP POP POP PUSH1 0x40 MLOAD RETURNDATASIZE PUSH1 0x1F NOT PUSH1 0x1F DUP3 ADD AND DUP3 ADD DUP1 PUSH1 0x40 MSTORE POP DUP2 ADD SWAP1 PUSH2 0x282B SWAP2 SWAP1 PUSH2 0x4CF4 JUMP JUMPDEST PUSH1 0x40 MLOAD PUSH4 0x3549D13D PUSH1 0xE2 SHL DUP2 MSTORE PUSH1 0x1 PUSH1 0x1 PUSH1 0xA0 SHL SUB DUP4 AND SWAP1 PUSH4 0xD52744F4 SWAP1 PUSH2 0x2857 SWAP1 ADDRESS SWAP1 PUSH1 0x4 ADD PUSH2 0x498A JUMP JUMPDEST PUSH1 0x20 PUSH1 0x40 MLOAD DUP1 DUP4 SUB DUP2 DUP7 GAS STATICCALL ISZERO DUP1 ISZERO PUSH2 0x2874 JUMPI RETURNDATASIZE PUSH1 0x0 DUP1 RETURNDATACOPY RETURNDATASIZE PUSH1 0x0 REVERT JUMPDEST POP POP POP POP PUSH1 0x40 MLOAD RETURNDATASIZE PUSH1 0x1F NOT PUSH1 0x1F DUP3 ADD AND DUP3 ADD DUP1 PUSH1 0x40 MSTORE POP DUP2 ADD SWAP1 PUSH2 0x2898 SWAP2 SWAP1 PUSH2 0x4CF4 JUMP JUMPDEST SWAP3 POP SWAP3 POP POP SWAP1 SWAP2 JUMP JUMPDEST PUSH1 0x0 DUP1 PUSH1 0x0 DUP1 PUSH1 0x1 DUP12 SUB PUSH2 0x294A JUMPI PUSH1 0x0 PUSH2 0x28BC DUP12 DUP12 DUP12 PUSH2 0x3E1A JUMP JUMPDEST SWAP1 POP PUSH2 0x28D4 PUSH2 0x28CD DUP10 PUSH2 0x2710 PUSH2 0x4BCB JUMP JUMPDEST DUP8 SWAP1 PUSH2 0x26D8 JUMP JUMPDEST PUSH2 0x28E0 DUP3 PUSH2 0x2710 PUSH2 0x26D8 JUMP JUMPDEST GT PUSH2 0x290B JUMPI DUP11 SWAP5 POP PUSH2 0x28F8 PUSH2 0x2710 PUSH2 0x1B19 DUP4 DUP12 PUSH2 0x26D8 JUMP JUMPDEST SWAP2 POP PUSH2 0x2904 DUP3 DUP3 PUSH2 0x4B3F JUMP JUMPDEST SWAP4 POP PUSH2 0x2944 JUMP JUMPDEST PUSH2 0x2925 PUSH2 0x2710 PUSH2 0x1B19 PUSH2 0x291E DUP12 DUP4 PUSH2 0x4BCB JUMP JUMPDEST DUP10 SWAP1 PUSH2 0x26D8 JUMP JUMPDEST SWAP1 POP PUSH2 0x2932 DUP2 DUP12 DUP12 PUSH2 0x3E36 JUMP JUMPDEST SWAP5 POP DUP6 SWAP4 POP PUSH2 0x2941 DUP5 DUP3 PUSH2 0x1CAE JUMP JUMPDEST SWAP2 POP JUMPDEST POP PUSH2 0x29DB JUMP JUMPDEST PUSH1 0x2 DUP12 SUB PUSH2 0x29DB JUMPI PUSH1 0x0 PUSH2 0x295F DUP12 DUP12 DUP12 PUSH2 0x3E36 JUMP JUMPDEST SWAP1 POP PUSH2 0x2970 PUSH2 0x28CD DUP10 PUSH2 0x2710 PUSH2 0x4BCB JUMP JUMPDEST PUSH2 0x297C DUP3 PUSH2 0x2710 PUSH2 0x26D8 JUMP JUMPDEST GT PUSH2 0x29A7 JUMPI DUP11 SWAP5 POP PUSH2 0x2994 PUSH2 0x2710 PUSH2 0x1B19 DUP4 DUP12 PUSH2 0x26D8 JUMP JUMPDEST SWAP2 POP PUSH2 0x29A0 DUP3 DUP3 PUSH2 0x4B3F JUMP JUMPDEST SWAP4 POP PUSH2 0x29D9 JUMP JUMPDEST PUSH2 0x29BA PUSH2 0x2710 PUSH2 0x1B19 PUSH2 0x291E DUP12 DUP4 PUSH2 0x4BCB JUMP JUMPDEST SWAP1 POP PUSH2 0x29C7 DUP2 DUP12 DUP12 PUSH2 0x3E1A JUMP JUMPDEST SWAP5 POP DUP6 SWAP4 POP PUSH2 0x29D6 DUP2 DUP6 PUSH2 0x4BCB JUMP JUMPDEST SWAP2 POP JUMPDEST POP JUMPDEST PUSH2 0x29FE PUSH1 0x64 PUSH2 0x1B19 PUSH2 0x29ED DUP5 DUP11 PUSH2 0x26D8 JUMP JUMPDEST PUSH2 0x29F8 DUP6 PUSH1 0x64 PUSH2 0x26D8 JUMP JUMPDEST SWAP1 PUSH2 0x1CAE JUMP JUMPDEST SWAP2 POP POP SWAP8 POP SWAP8 POP SWAP8 SWAP5 POP POP POP POP POP JUMP JUMPDEST PUSH1 0x0 DUP2 PUSH1 0x1 PUSH1 0x1 PUSH1 0xA0 SHL SUB AND PUSH4 0xE14F870D PUSH1 0x40 MLOAD DUP2 PUSH4 0xFFFFFFFF AND PUSH1 0xE0 SHL DUP2 MSTORE PUSH1 0x4 ADD PUSH1 0x20 PUSH1 0x40 MLOAD DUP1 DUP4 SUB DUP2 DUP7 GAS STATICCALL ISZERO DUP1 ISZERO PUSH2 0x2A4E JUMPI RETURNDATASIZE PUSH1 0x0 DUP1 RETURNDATACOPY RETURNDATASIZE PUSH1 0x0 REVERT JUMPDEST POP POP POP POP PUSH1 0x40 MLOAD RETURNDATASIZE PUSH1 0x1F NOT PUSH1 0x1F DUP3 ADD AND DUP3 ADD DUP1 PUSH1 0x40 MSTORE POP DUP2 ADD SWAP1 PUSH2 0x2A72 SWAP2 SWAP1 PUSH2 0x4D30 JUMP JUMPDEST PUSH1 0x1 PUSH1 0x1 PUSH1 0xA0 SHL SUB AND PUSH4 0xF851A440 PUSH1 0x40 MLOAD DUP2 PUSH4 0xFFFFFFFF AND PUSH1 0xE0 SHL DUP2 MSTORE PUSH1 0x4 ADD PUSH1 0x20 PUSH1 0x40 MLOAD DUP1 DUP4 SUB DUP2 DUP7 GAS STATICCALL ISZERO DUP1 ISZERO PUSH2 0x208D JUMPI RETURNDATASIZE PUSH1 0x0 DUP1 RETURNDATACOPY RETURNDATASIZE PUSH1 0x0 REVERT JUMPDEST PUSH1 0x0 DUP1 PUSH2 0x2ABD DUP4 PUSH1 0x0 PUSH2 0x1EC7 JUMP JUMPDEST SWAP1 POP JUMPDEST DUP1 ISZERO PUSH2 0x2AED JUMPI PUSH2 0x2AD0 DUP4 DUP3 PUSH2 0x1EE4 JUMP JUMPDEST PUSH2 0x2ADA SWAP1 DUP4 PUSH2 0x4B3F JUMP JUMPDEST SWAP2 POP PUSH2 0x2AE6 DUP4 DUP3 PUSH2 0x1EC7 JUMP JUMPDEST SWAP1 POP PUSH2 0x2AC0 JUMP JUMPDEST POP SWAP2 SWAP1 POP JUMP JUMPDEST PUSH1 0x40 DUP1 MLOAD DUP1 DUP3 ADD DUP3 MSTORE PUSH1 0x19 DUP2 MSTORE PUSH25 0x7472616E7366657228616464726573732C75696E7432353629 PUSH1 0x38 SHL PUSH1 0x20 SWAP2 DUP3 ADD MSTORE DUP2 MLOAD PUSH1 0x1 PUSH1 0x1 PUSH1 0xA0 SHL SUB DUP6 DUP2 AND PUSH1 0x24 DUP4 ADD MSTORE PUSH1 0x44 DUP1 DUP4 ADD DUP7 SWAP1 MSTORE DUP5 MLOAD DUP1 DUP5 SUB SWAP1 SWAP2 ADD DUP2 MSTORE PUSH1 0x64 SWAP1 SWAP3 ADD DUP5 MSTORE SWAP2 DUP2 ADD DUP1 MLOAD PUSH1 0x1 PUSH1 0x1 PUSH1 0xE0 SHL SUB AND PUSH4 0xA9059CBB PUSH1 0xE0 SHL OR SWAP1 MSTORE SWAP2 MLOAD PUSH1 0x0 SWAP3 DUP4 SWAP3 DUP8 AND SWAP2 PUSH2 0x2B7B SWAP2 SWAP1 PUSH2 0x4E66 JUMP JUMPDEST PUSH1 0x0 PUSH1 0x40 MLOAD DUP1 DUP4 SUB DUP2 PUSH1 0x0 DUP7 GAS CALL SWAP2 POP POP RETURNDATASIZE DUP1 PUSH1 0x0 DUP2 EQ PUSH2 0x2BB8 JUMPI PUSH1 0x40 MLOAD SWAP2 POP PUSH1 0x1F NOT PUSH1 0x3F RETURNDATASIZE ADD AND DUP3 ADD PUSH1 0x40 MSTORE RETURNDATASIZE DUP3 MSTORE RETURNDATASIZE PUSH1 0x0 PUSH1 0x20 DUP5 ADD RETURNDATACOPY PUSH2 0x2BBD JUMP JUMPDEST PUSH1 0x60 SWAP2 POP JUMPDEST POP SWAP2 POP SWAP2 POP DUP2 DUP1 ISZERO PUSH2 0x2BE7 JUMPI POP DUP1 MLOAD ISZERO DUP1 PUSH2 0x2BE7 JUMPI POP DUP1 DUP1 PUSH1 0x20 ADD SWAP1 MLOAD DUP2 ADD SWAP1 PUSH2 0x2BE7 SWAP2 SWAP1 PUSH2 0x4E82 JUMP JUMPDEST PUSH2 0x2C25 JUMPI PUSH1 0x40 MLOAD PUSH3 0x461BCD PUSH1 0xE5 SHL DUP2 MSTORE PUSH1 0x20 PUSH1 0x4 DUP3 ADD MSTORE PUSH1 0xF PUSH1 0x24 DUP3 ADD MSTORE PUSH15 0x1514905394D1915497D19052531151 PUSH1 0x8A SHL PUSH1 0x44 DUP3 ADD MSTORE PUSH1 0x64 ADD PUSH2 0x45A JUMP JUMPDEST POP POP POP POP POP JUMP JUMPDEST PUSH1 0x0 DUP1 PUSH1 0x0 DUP1 PUSH1 0x0 PUSH1 0x1 DUP12 SUB PUSH2 0x2CBA JUMPI PUSH1 0x0 PUSH2 0x2C4A DUP11 DUP11 DUP11 DUP11 PUSH2 0x3403 JUMP JUMPDEST SWAP1 POP PUSH1 0x0 PUSH2 0x2C5A DUP11 PUSH2 0x7CD PUSH2 0x26D8 JUMP JUMPDEST SWAP1 POP DUP1 DUP3 GT PUSH2 0x2C6A JUMPI PUSH1 0x0 PUSH2 0x2C7A JUMP JUMPDEST PUSH2 0x2C7A PUSH2 0x7CA PUSH2 0x1B19 DUP4 DUP6 PUSH2 0x4BCB JUMP JUMPDEST SWAP5 POP DUP5 ISZERO PUSH2 0x2C92 JUMPI PUSH2 0x2C8D DUP6 DUP12 DUP14 PUSH2 0x1E01 JUMP JUMPDEST PUSH2 0x2C95 JUMP JUMPDEST PUSH1 0x0 JUMPDEST SWAP6 POP DUP12 DUP7 GT ISZERO PUSH2 0x2CB0 JUMPI DUP12 SWAP6 POP PUSH2 0x2CAD DUP7 DUP12 DUP14 PUSH2 0x2EAF JUMP JUMPDEST SWAP5 POP JUMPDEST PUSH2 0x1B57 DUP7 DUP14 PUSH2 0x4BCB JUMP JUMPDEST PUSH1 0x2 DUP12 SUB PUSH2 0x1C0C JUMPI PUSH1 0x0 PUSH2 0x2CD0 DUP11 DUP11 DUP11 DUP11 PUSH2 0x345C JUMP JUMPDEST SWAP1 POP PUSH1 0x0 PUSH2 0x2CE0 DUP12 PUSH2 0x7CD PUSH2 0x26D8 JUMP JUMPDEST SWAP1 POP DUP1 DUP3 GT PUSH2 0x2CF0 JUMPI PUSH1 0x0 PUSH2 0x2D00 JUMP JUMPDEST PUSH2 0x2D00 PUSH2 0x7CA PUSH2 0x1B19 DUP4 DUP6 PUSH2 0x4BCB JUMP JUMPDEST SWAP6 POP DUP6 ISZERO PUSH2 0x2D18 JUMPI PUSH2 0x2D13 DUP7 DUP13 DUP13 PUSH2 0x1E01 JUMP JUMPDEST PUSH2 0x2D1B JUMP JUMPDEST PUSH1 0x0 JUMPDEST SWAP5 POP DUP12 DUP6 GT ISZERO PUSH2 0x2D36 JUMPI DUP12 SWAP5 POP PUSH2 0x2D33 DUP6 DUP13 DUP13 PUSH2 0x2EAF JUMP JUMPDEST SWAP6 POP JUMPDEST PUSH2 0x1BF8 DUP6 DUP14 PUSH2 0x4BCB JUMP JUMPDEST PUSH1 0x0 DUP1 DUP1 DUP1 PUSH2 0x2D55 PUSH2 0x2710 PUSH2 0x1B19 DUP8 DUP11 PUSH2 0x26D8 JUMP JUMPDEST SWAP1 POP PUSH1 0x0 PUSH2 0x2D68 PUSH1 0x64 PUSH2 0x1B19 DUP5 DUP11 PUSH2 0x26D8 JUMP JUMPDEST SWAP1 POP PUSH1 0x0 PUSH2 0x2D79 PUSH2 0x149B DUP5 DUP5 PUSH2 0x1CAE JUMP JUMPDEST SWAP1 POP PUSH1 0x0 DUP13 DUP3 GT PUSH2 0x2DA4 JUMPI DUP8 SWAP6 POP PUSH2 0x2D91 DUP7 DUP4 PUSH2 0x1CAE JUMP JUMPDEST SWAP5 POP PUSH2 0x2D9D DUP3 DUP5 PUSH2 0x1CAE JUMP JUMPDEST SWAP1 POP PUSH2 0x2E19 JUMP JUMPDEST DUP13 SWAP2 POP PUSH2 0x2DCE PUSH2 0x2DB4 DUP11 DUP13 PUSH2 0x4E47 JUMP JUMPDEST PUSH2 0x2DC1 SWAP1 PUSH3 0xF4240 PUSH2 0x4BCB JUMP JUMPDEST PUSH2 0x1B19 DUP5 PUSH3 0xF4240 PUSH2 0x26D8 JUMP JUMPDEST SWAP6 POP PUSH2 0x2E0A PUSH2 0x2DDD DUP11 DUP13 PUSH2 0x4E47 JUMP JUMPDEST PUSH2 0x2DEA SWAP1 PUSH3 0xF4240 PUSH2 0x4BCB JUMP JUMPDEST PUSH2 0x1B19 PUSH2 0x2DF9 DUP14 PUSH2 0x2710 PUSH2 0x4BCB JUMP JUMPDEST PUSH2 0x2E04 DUP7 PUSH1 0x64 PUSH2 0x26D8 JUMP JUMPDEST SWAP1 PUSH2 0x26D8 JUMP JUMPDEST SWAP1 POP PUSH2 0x2E16 DUP7 DUP4 PUSH2 0x1CAE JUMP JUMPDEST SWAP5 POP JUMPDEST PUSH1 0x1 DUP15 SUB PUSH2 0x2E33 JUMPI PUSH2 0x2E2C DUP2 DUP14 DUP14 PUSH2 0x3E36 JUMP JUMPDEST SWAP7 POP PUSH2 0x2E49 JUMP JUMPDEST PUSH1 0x2 DUP15 SUB PUSH2 0x2E49 JUMPI PUSH2 0x2E46 DUP2 DUP14 DUP14 PUSH2 0x3E1A JUMP JUMPDEST SWAP7 POP JUMPDEST POP POP POP POP SWAP8 POP SWAP8 POP SWAP8 SWAP5 POP POP POP POP POP JUMP JUMPDEST PUSH1 0x0 DUP3 PUSH2 0x2E67 DUP4 DUP3 PUSH2 0x4B3F JUMP JUMPDEST SWAP2 POP DUP2 LT ISZERO PUSH2 0x1D04 JUMPI PUSH1 0x40 MLOAD PUSH3 0x461BCD PUSH1 0xE5 SHL DUP2 MSTORE PUSH1 0x20 PUSH1 0x4 DUP3 ADD MSTORE PUSH1 0x14 PUSH1 0x24 DUP3 ADD MSTORE PUSH20 0x64732D6D6174682D6164642D6F766572666C6F77 PUSH1 0x60 SHL PUSH1 0x44 DUP3 ADD MSTORE PUSH1 0x64 ADD PUSH2 0x45A JUMP JUMPDEST PUSH1 0x0 DUP1 DUP5 GT PUSH2 0x2EFD JUMPI PUSH1 0x40 MLOAD PUSH3 0x461BCD PUSH1 0xE5 SHL DUP2 MSTORE PUSH1 0x20 PUSH1 0x4 DUP3 ADD MSTORE PUSH1 0x1A PUSH1 0x24 DUP3 ADD MSTORE PUSH26 0x125394D551919250D251539517D3D55514155517D05353D55395 PUSH1 0x32 SHL PUSH1 0x44 DUP3 ADD MSTORE PUSH1 0x64 ADD PUSH2 0x45A JUMP JUMPDEST PUSH1 0x0 DUP4 GT DUP1 ISZERO PUSH2 0x2F0D JUMPI POP PUSH1 0x0 DUP3 GT JUMPDEST PUSH2 0x2F29 JUMPI PUSH1 0x40 MLOAD PUSH3 0x461BCD PUSH1 0xE5 SHL DUP2 MSTORE PUSH1 0x4 ADD PUSH2 0x45A SWAP1 PUSH2 0x4DA0 JUMP JUMPDEST PUSH1 0x0 PUSH2 0x2F3B PUSH2 0x3E8 PUSH2 0x2E04 DUP7 DUP9 PUSH2 0x26D8 JUMP JUMPDEST SWAP1 POP PUSH1 0x0 PUSH2 0x2F4F PUSH2 0x3E5 PUSH2 0x2E04 DUP7 DUP10 PUSH2 0x1CAE JUMP JUMPDEST SWAP1 POP PUSH2 0x2F60 PUSH1 0x1 PUSH2 0x1EAA DUP4 DUP6 PUSH2 0x4CD2 JUMP JUMPDEST SWAP7 SWAP6 POP POP POP POP POP POP JUMP JUMPDEST PUSH1 0x9 SLOAD PUSH1 0x40 MLOAD PUSH4 0x70A08231 PUSH1 0xE0 SHL DUP2 MSTORE PUSH1 0x0 SWAP2 PUSH1 0x1 PUSH1 0x1 PUSH1 0xA0 SHL SUB AND SWAP1 PUSH4 0x70A08231 SWAP1 PUSH2 0x20E2 SWAP1 ADDRESS SWAP1 PUSH1 0x4 ADD PUSH2 0x498A JUMP JUMPDEST PUSH1 0x40 DUP1 MLOAD PUSH1 0x4 DUP1 DUP3 MSTORE PUSH1 0xA0 DUP3 ADD SWAP1 SWAP3 MSTORE PUSH1 0x0 SWAP2 DUP3 SWAP2 SWAP1 PUSH1 0x20 DUP3 ADD PUSH1 0x80 DUP1 CALLDATASIZE DUP4 CALLDATACOPY POP POP PUSH1 0x6 SLOAD PUSH1 0x9 SLOAD PUSH1 0xA SLOAD SWAP4 SWAP5 POP PUSH2 0x2FE4 SWAP4 PUSH1 0x1 PUSH1 0x1 PUSH1 0xA0 SHL SUB SWAP3 DUP4 AND SWAP4 POP SWAP1 DUP3 AND SWAP2 AND PUSH2 0x18FC JUMP JUMPDEST DUP2 PUSH1 0x1 PUSH1 0x1 PUSH1 0x70 SHL SUB AND SWAP2 POP DUP1 PUSH1 0x1 PUSH1 0x1 PUSH1 0x70 SHL SUB AND SWAP1 POP DUP3 PUSH1 0x0 DUP2 MLOAD DUP2 LT PUSH2 0x300F JUMPI PUSH2 0x300F PUSH2 0x4B13 JUMP JUMPDEST PUSH1 0x20 MUL PUSH1 0x20 ADD ADD DUP4 PUSH1 0x1 DUP2 MLOAD DUP2 LT PUSH2 0x3029 JUMPI PUSH2 0x3029 PUSH2 0x4B13 JUMP JUMPDEST PUSH1 0x20 MUL PUSH1 0x20 ADD ADD DUP3 DUP2 MSTORE POP DUP3 DUP2 MSTORE POP POP POP DUP1 PUSH1 0x0 DUP2 MLOAD DUP2 LT PUSH2 0x304D JUMPI PUSH2 0x304D PUSH2 0x4B13 JUMP JUMPDEST PUSH1 0x20 MUL PUSH1 0x20 ADD ADD MLOAD DUP2 PUSH1 0x1 DUP2 MLOAD DUP2 LT PUSH2 0x3068 JUMPI PUSH2 0x3068 PUSH2 0x4B13 JUMP JUMPDEST PUSH1 0x20 MUL PUSH1 0x20 ADD ADD MLOAD DUP3 PUSH1 0x2 DUP2 MLOAD DUP2 LT PUSH2 0x3083 JUMPI PUSH2 0x3083 PUSH2 0x4B13 JUMP JUMPDEST PUSH1 0x20 MUL PUSH1 0x20 ADD ADD DUP4 PUSH1 0x3 DUP2 MLOAD DUP2 LT PUSH2 0x309D JUMPI PUSH2 0x309D PUSH2 0x4B13 JUMP JUMPDEST PUSH1 0x20 MUL PUSH1 0x20 ADD ADD DUP3 DUP2 MSTORE POP DUP3 DUP2 MSTORE POP POP POP DUP5 SWAP2 POP PUSH1 0x0 DUP1 DUP3 PUSH1 0x0 DUP2 MLOAD DUP2 LT PUSH2 0x30C7 JUMPI PUSH2 0x30C7 PUSH2 0x4B13 JUMP JUMPDEST PUSH1 0x20 MUL PUSH1 0x20 ADD ADD MLOAD GT DUP1 ISZERO PUSH2 0x30F6 JUMPI POP PUSH1 0x0 DUP3 PUSH1 0x1 DUP2 MLOAD DUP2 LT PUSH2 0x30EC JUMPI PUSH2 0x30EC PUSH2 0x4B13 JUMP JUMPDEST PUSH1 0x20 MUL PUSH1 0x20 ADD ADD MLOAD GT JUMPDEST SWAP1 POP PUSH1 0x0 DUP1 PUSH1 0x0 DUP1 PUSH2 0x310A PUSH1 0x1 PUSH1 0x0 PUSH2 0x1EC7 JUMP JUMPDEST SWAP1 POP JUMPDEST DUP1 ISZERO DUP1 ISZERO SWAP1 PUSH2 0x311C JUMPI POP DUP9 DUP2 LT ISZERO JUMPDEST ISZERO PUSH2 0x3231 JUMPI DUP7 DUP6 ISZERO PUSH2 0x3197 JUMPI PUSH2 0x3141 PUSH1 0x2 DUP10 DUP10 PUSH1 0x0 DUP2 MLOAD DUP2 LT PUSH2 0x22CF JUMPI PUSH2 0x22CF PUSH2 0x4B13 JUMP JUMPDEST DUP12 PUSH1 0x2 DUP2 MLOAD DUP2 LT PUSH2 0x3154 JUMPI PUSH2 0x3154 PUSH2 0x4B13 JUMP JUMPDEST PUSH1 0x20 MUL PUSH1 0x20 ADD ADD DUP13 PUSH1 0x3 DUP2 MLOAD DUP2 LT PUSH2 0x316E JUMPI PUSH2 0x316E PUSH2 0x4B13 JUMP JUMPDEST PUSH1 0x20 SWAP1 DUP2 MUL SWAP2 SWAP1 SWAP2 ADD ADD SWAP2 SWAP1 SWAP2 MSTORE MSTORE SWAP1 SWAP7 POP SWAP5 POP SWAP1 POP PUSH1 0x0 DUP2 SWAP1 SUB PUSH2 0x3197 JUMPI PUSH1 0x0 SWAP8 POP POP PUSH2 0x3231 JUMP JUMPDEST PUSH1 0x0 PUSH2 0x31A4 PUSH1 0x1 DUP5 PUSH2 0x1EE4 JUMP JUMPDEST SWAP1 POP PUSH1 0x0 DUP1 PUSH1 0x0 DUP1 PUSH1 0x0 PUSH2 0x31BB PUSH1 0x2 DUP9 DUP11 DUP10 PUSH2 0x3494 JUMP JUMPDEST SWAP4 SWAP9 POP SWAP2 SWAP7 POP SWAP5 POP SWAP3 POP SWAP1 POP PUSH2 0x31D1 DUP5 DUP5 PUSH2 0x1CAE JUMP JUMPDEST PUSH2 0x31DB SWAP1 DUP11 PUSH2 0x4B3F JUMP JUMPDEST PUSH1 0x9 SLOAD SWAP1 SWAP10 POP PUSH2 0x31F5 SWAP1 PUSH1 0x1 PUSH1 0x1 PUSH1 0xA0 SHL SUB AND DUP4 DUP4 PUSH2 0x3766 JUMP JUMPDEST DUP7 DUP6 SUB PUSH2 0x320C JUMPI PUSH1 0x0 SWAP14 POP POP POP POP POP POP POP POP PUSH2 0x3231 JUMP JUMPDEST PUSH2 0x3216 DUP15 DUP7 PUSH2 0x1CAE JUMP JUMPDEST SWAP14 POP PUSH2 0x3223 PUSH1 0x1 DUP10 PUSH2 0x3721 JUMP JUMPDEST SWAP8 POP POP POP POP POP POP POP POP PUSH2 0x310D JUMP JUMPDEST DUP2 ISZERO PUSH2 0x32B9 JUMPI PUSH1 0x5 SLOAD PUSH1 0x40 DUP1 MLOAD PUSH4 0x15AB88C9 PUSH1 0xE3 SHL DUP2 MSTORE SWAP1 MLOAD PUSH2 0x32B9 SWAP3 PUSH1 0x1 PUSH1 0x1 PUSH1 0xA0 SHL SUB AND SWAP2 PUSH4 0xAD5C4648 SWAP2 PUSH1 0x4 DUP1 DUP4 ADD SWAP3 PUSH1 0x20 SWAP3 SWAP2 SWAP1 DUP3 SWAP1 SUB ADD DUP2 DUP7 GAS STATICCALL ISZERO DUP1 ISZERO PUSH2 0x3282 JUMPI RETURNDATASIZE PUSH1 0x0 DUP1 RETURNDATACOPY RETURNDATASIZE PUSH1 0x0 REVERT JUMPDEST POP POP POP POP PUSH1 0x40 MLOAD RETURNDATASIZE PUSH1 0x1F NOT PUSH1 0x1F DUP3 ADD AND DUP3 ADD DUP1 PUSH1 0x40 MSTORE POP DUP2 ADD SWAP1 PUSH2 0x32A6 SWAP2 SWAP1 PUSH2 0x4D30 JUMP JUMPDEST PUSH1 0xA SLOAD PUSH1 0x1 PUSH1 0x1 PUSH1 0xA0 SHL SUB AND DUP11 DUP6 PUSH2 0x3832 JUMP JUMPDEST DUP5 DUP1 ISZERO PUSH2 0x32C6 JUMPI POP PUSH1 0x0 DUP8 GT JUMPDEST DUP1 ISZERO PUSH2 0x32D2 JUMPI POP DUP9 DUP2 EQ ISZERO JUMPDEST ISZERO PUSH2 0x3334 JUMPI PUSH2 0x32F0 PUSH1 0x2 DUP9 DUP9 PUSH1 0x0 DUP2 MLOAD DUP2 LT PUSH2 0x24AA JUMPI PUSH2 0x24AA PUSH2 0x4B13 JUMP JUMPDEST DUP11 PUSH1 0x2 DUP2 MLOAD DUP2 LT PUSH2 0x3303 JUMPI PUSH2 0x3303 PUSH2 0x4B13 JUMP JUMPDEST PUSH1 0x20 MUL PUSH1 0x20 ADD ADD DUP12 PUSH1 0x3 DUP2 MLOAD DUP2 LT PUSH2 0x331D JUMPI PUSH2 0x331D PUSH2 0x4B13 JUMP JUMPDEST PUSH1 0x20 SWAP1 DUP2 MUL SWAP2 SWAP1 SWAP2 ADD ADD SWAP2 SWAP1 SWAP2 MSTORE MSTORE SWAP2 SWAP9 POP SWAP5 POP SWAP3 POP JUMPDEST DUP4 ISZERO PUSH2 0x25E6 JUMPI DUP7 ISZERO PUSH2 0x338B JUMPI PUSH2 0x3384 DUP8 DUP6 DUP9 PUSH1 0x2 DUP2 MLOAD DUP2 LT PUSH2 0x3358 JUMPI PUSH2 0x3358 PUSH2 0x4B13 JUMP JUMPDEST PUSH1 0x20 MUL PUSH1 0x20 ADD ADD MLOAD DUP10 PUSH1 0x3 DUP2 MLOAD DUP2 LT PUSH2 0x3373 JUMPI PUSH2 0x3373 PUSH2 0x4B13 JUMP JUMPDEST PUSH1 0x20 MUL PUSH1 0x20 ADD ADD MLOAD DUP14 PUSH1 0x8 SLOAD PUSH2 0x3E50 JUMP JUMPDEST POP SWAP1 SWAP8 POP SWAP4 POP JUMPDEST PUSH1 0x9 SLOAD PUSH1 0xA SLOAD PUSH2 0x33AB SWAP2 DUP11 SWAP2 PUSH1 0x1 PUSH1 0x1 PUSH1 0xA0 SHL SUB SWAP2 DUP3 AND SWAP2 AND DUP8 DUP8 PUSH2 0x39A5 JUMP JUMPDEST DUP7 ISZERO DUP1 PUSH2 0x33BF JUMPI POP DUP9 PUSH2 0x33BC PUSH2 0xABD JUMP JUMPDEST GT ISZERO JUMPDEST PUSH2 0x25E6 JUMPI PUSH1 0x40 MLOAD PUSH3 0x461BCD PUSH1 0xE5 SHL DUP2 MSTORE PUSH1 0x20 PUSH1 0x4 DUP3 ADD MSTORE PUSH1 0x15 PUSH1 0x24 DUP3 ADD MSTORE PUSH21 0x1CD95B1B081D1BC81D185C99D95D0819985A5B1959 PUSH1 0x5A SHL PUSH1 0x44 DUP3 ADD MSTORE PUSH1 0x64 ADD PUSH2 0x45A JUMP JUMPDEST PUSH1 0x0 PUSH2 0x3440 PUSH2 0x343B PUSH2 0x342C PUSH2 0x3419 DUP6 PUSH1 0xA PUSH2 0x4CC6 JUMP JUMPDEST PUSH2 0x1B19 DUP8 PUSH2 0x2E04 PUSH3 0x3CDA20 DUP2 DUP14 DUP14 PUSH2 0x26D8 JUMP JUMPDEST PUSH2 0x1EAA PUSH1 0x9 PUSH2 0x2E04 DUP10 DUP1 PUSH2 0x26D8 JUMP JUMPDEST PUSH2 0x3EFF JUMP JUMPDEST SWAP6 SWAP5 POP POP POP POP POP JUMP JUMPDEST PUSH1 0x0 PUSH2 0x3455 DUP3 DUP5 PUSH2 0x4CD2 JUMP JUMPDEST SWAP4 SWAP3 POP POP POP JUMP JUMPDEST PUSH1 0x0 PUSH2 0x3440 PUSH2 0x343B PUSH2 0x3485 DUP6 PUSH2 0x1B19 PUSH2 0x3476 DUP8 PUSH1 0xA PUSH2 0x4CC6 JUMP JUMPDEST PUSH2 0x2E04 PUSH3 0x3CDA20 DUP2 DUP14 DUP14 PUSH2 0x26D8 JUMP JUMPDEST PUSH2 0x1EAA PUSH1 0x9 PUSH2 0x2E04 DUP11 DUP1 PUSH2 0x26D8 JUMP JUMPDEST PUSH1 0x0 DUP1 PUSH1 0x0 PUSH1 0x60 DUP1 PUSH1 0x0 DUP1 PUSH2 0x34A7 PUSH2 0x273F JUMP JUMPDEST SWAP2 POP SWAP2 POP PUSH2 0x34BC DUP12 DUP12 DUP12 PUSH1 0x8 SLOAD DUP7 DUP7 DUP15 PUSH2 0x28A1 JUMP JUMPDEST SWAP2 SWAP9 POP SWAP7 POP SWAP5 POP PUSH2 0x34D7 PUSH2 0x34CF DUP13 PUSH2 0x3F69 JUMP JUMPDEST DUP9 DUP9 DUP13 PUSH2 0x3F8B JUMP JUMPDEST DUP1 SWAP5 POP DUP2 SWAP6 POP POP POP POP POP SWAP5 POP SWAP5 POP SWAP5 POP SWAP5 POP SWAP5 JUMP JUMPDEST PUSH1 0x60 DUP2 MLOAD DUP4 MLOAD PUSH2 0x34FC SWAP2 SWAP1 PUSH2 0x4B3F JUMP JUMPDEST PUSH1 0x1 PUSH1 0x1 PUSH1 0x40 SHL SUB DUP2 GT ISZERO PUSH2 0x3513 JUMPI PUSH2 0x3513 PUSH2 0x4AFD JUMP JUMPDEST PUSH1 0x40 MLOAD SWAP1 DUP1 DUP3 MSTORE DUP1 PUSH1 0x20 MUL PUSH1 0x20 ADD DUP3 ADD PUSH1 0x40 MSTORE DUP1 ISZERO PUSH2 0x353C JUMPI DUP2 PUSH1 0x20 ADD PUSH1 0x20 DUP3 MUL DUP1 CALLDATASIZE DUP4 CALLDATACOPY ADD SWAP1 POP JUMPDEST POP SWAP1 POP PUSH1 0x0 JUMPDEST DUP4 MLOAD DUP2 LT ISZERO PUSH2 0x3594 JUMPI DUP4 DUP2 DUP2 MLOAD DUP2 LT PUSH2 0x355D JUMPI PUSH2 0x355D PUSH2 0x4B13 JUMP JUMPDEST PUSH1 0x20 MUL PUSH1 0x20 ADD ADD MLOAD DUP3 DUP3 DUP2 MLOAD DUP2 LT PUSH2 0x3577 JUMPI PUSH2 0x3577 PUSH2 0x4B13 JUMP JUMPDEST PUSH1 0x20 SWAP1 DUP2 MUL SWAP2 SWAP1 SWAP2 ADD ADD MSTORE DUP1 PUSH2 0x358C DUP2 PUSH2 0x4B57 JUMP JUMPDEST SWAP2 POP POP PUSH2 0x3542 JUMP JUMPDEST POP PUSH1 0x0 JUMPDEST DUP3 MLOAD DUP2 LT ISZERO PUSH2 0x35F6 JUMPI DUP3 DUP2 DUP2 MLOAD DUP2 LT PUSH2 0x35B3 JUMPI PUSH2 0x35B3 PUSH2 0x4B13 JUMP JUMPDEST PUSH1 0x20 MUL PUSH1 0x20 ADD ADD MLOAD DUP3 DUP3 DUP7 MLOAD PUSH2 0x35C9 SWAP2 SWAP1 PUSH2 0x4B3F JUMP JUMPDEST DUP2 MLOAD DUP2 LT PUSH2 0x35D9 JUMPI PUSH2 0x35D9 PUSH2 0x4B13 JUMP JUMPDEST PUSH1 0x20 SWAP1 DUP2 MUL SWAP2 SWAP1 SWAP2 ADD ADD MSTORE DUP1 PUSH2 0x35EE DUP2 PUSH2 0x4B57 JUMP JUMPDEST SWAP2 POP POP PUSH2 0x3598 JUMP JUMPDEST POP SWAP3 SWAP2 POP POP JUMP JUMPDEST PUSH1 0x60 DUP2 MLOAD DUP4 MLOAD PUSH2 0x360D SWAP2 SWAP1 PUSH2 0x4B3F JUMP JUMPDEST PUSH1 0x1 PUSH1 0x1 PUSH1 0x40 SHL SUB DUP2 GT ISZERO PUSH2 0x3624 JUMPI PUSH2 0x3624 PUSH2 0x4AFD JUMP JUMPDEST PUSH1 0x40 MLOAD SWAP1 DUP1 DUP3 MSTORE DUP1 PUSH1 0x20 MUL PUSH1 0x20 ADD DUP3 ADD PUSH1 0x40 MSTORE DUP1 ISZERO PUSH2 0x364D JUMPI DUP2 PUSH1 0x20 ADD PUSH1 0x20 DUP3 MUL DUP1 CALLDATASIZE DUP4 CALLDATACOPY ADD SWAP1 POP JUMPDEST POP SWAP1 POP PUSH1 0x0 JUMPDEST DUP4 MLOAD DUP2 LT ISZERO PUSH2 0x36B2 JUMPI DUP4 DUP2 DUP2 MLOAD DUP2 LT PUSH2 0x366E JUMPI PUSH2 0x366E PUSH2 0x4B13 JUMP JUMPDEST PUSH1 0x20 MUL PUSH1 0x20 ADD ADD MLOAD DUP3 DUP3 DUP2 MLOAD DUP2 LT PUSH2 0x3688 JUMPI PUSH2 0x3688 PUSH2 0x4B13 JUMP JUMPDEST PUSH1 0x1 PUSH1 0x1 PUSH1 0xA0 SHL SUB SWAP1 SWAP3 AND PUSH1 0x20 SWAP3 DUP4 MUL SWAP2 SWAP1 SWAP2 ADD SWAP1 SWAP2 ADD MSTORE DUP1 PUSH2 0x36AA DUP2 PUSH2 0x4B57 JUMP JUMPDEST SWAP2 POP POP PUSH2 0x3653 JUMP JUMPDEST POP PUSH1 0x0 JUMPDEST DUP3 MLOAD DUP2 LT ISZERO PUSH2 0x35F6 JUMPI DUP3 DUP2 DUP2 MLOAD DUP2 LT PUSH2 0x36D1 JUMPI PUSH2 0x36D1 PUSH2 0x4B13 JUMP JUMPDEST PUSH1 0x20 MUL PUSH1 0x20 ADD ADD MLOAD DUP3 DUP3 DUP7 MLOAD PUSH2 0x36E7 SWAP2 SWAP1 PUSH2 0x4B3F JUMP JUMPDEST DUP2 MLOAD DUP2 LT PUSH2 0x36F7 JUMPI PUSH2 0x36F7 PUSH2 0x4B13 JUMP JUMPDEST PUSH1 0x1 PUSH1 0x1 PUSH1 0xA0 SHL SUB SWAP1 SWAP3 AND PUSH1 0x20 SWAP3 DUP4 MUL SWAP2 SWAP1 SWAP2 ADD SWAP1 SWAP2 ADD MSTORE DUP1 PUSH2 0x3719 DUP2 PUSH2 0x4B57 JUMP JUMPDEST SWAP2 POP POP PUSH2 0x36B6 JUMP JUMPDEST PUSH1 0x0 DUP3 DUP2 MSTORE PUSH1 0x3 PUSH1 0x20 SWAP1 DUP2 MSTORE PUSH1 0x40 DUP1 DUP4 KECCAK256 DUP5 DUP5 MSTORE SWAP1 SWAP2 MSTORE SWAP1 KECCAK256 SLOAD DUP1 ISZERO PUSH2 0x3747 JUMPI DUP1 PUSH2 0x3455 JUMP JUMPDEST POP POP PUSH1 0x0 SWAP1 DUP2 MSTORE PUSH1 0x3 PUSH1 0x20 SWAP1 DUP2 MSTORE PUSH1 0x40 DUP1 DUP4 KECCAK256 DUP4 DUP1 MSTORE SWAP1 SWAP2 MSTORE SWAP1 KECCAK256 SLOAD SWAP1 JUMP JUMPDEST PUSH1 0x5 SLOAD PUSH1 0x40 DUP1 MLOAD PUSH4 0x15AB88C9 PUSH1 0xE3 SHL DUP2 MSTORE SWAP1 MLOAD PUSH1 0x0 SWAP3 PUSH1 0x1 PUSH1 0x1 PUSH1 0xA0 SHL SUB AND SWAP2 PUSH4 0xAD5C4648 SWAP2 PUSH1 0x4 DUP1 DUP4 ADD SWAP3 PUSH1 0x20 SWAP3 SWAP2 SWAP1 DUP3 SWAP1 SUB ADD DUP2 DUP7 GAS STATICCALL ISZERO DUP1 ISZERO PUSH2 0x37B0 JUMPI RETURNDATASIZE PUSH1 0x0 DUP1 RETURNDATACOPY RETURNDATASIZE PUSH1 0x0 REVERT JUMPDEST POP POP POP POP PUSH1 0x40 MLOAD RETURNDATASIZE PUSH1 0x1F NOT PUSH1 0x1F DUP3 ADD AND DUP3 ADD DUP1 PUSH1 0x40 MSTORE POP DUP2 ADD SWAP1 PUSH2 0x37D4 SWAP2 SWAP1 PUSH2 0x4D30 JUMP JUMPDEST SWAP1 POP PUSH1 0x0 JUMPDEST DUP4 MLOAD DUP2 LT ISZERO PUSH2 0x2C25 JUMPI PUSH2 0x3820 DUP3 DUP7 DUP7 DUP5 DUP2 MLOAD DUP2 LT PUSH2 0x37F9 JUMPI PUSH2 0x37F9 PUSH2 0x4B13 JUMP JUMPDEST PUSH1 0x20 MUL PUSH1 0x20 ADD ADD MLOAD DUP7 DUP6 DUP2 MLOAD DUP2 LT PUSH2 0x3813 JUMPI PUSH2 0x3813 PUSH2 0x4B13 JUMP JUMPDEST PUSH1 0x20 MUL PUSH1 0x20 ADD ADD MLOAD PUSH2 0x3832 JUMP JUMPDEST DUP1 PUSH2 0x382A DUP2 PUSH2 0x4B57 JUMP JUMPDEST SWAP2 POP POP PUSH2 0x37D9 JUMP JUMPDEST DUP4 PUSH1 0x1 PUSH1 0x1 PUSH1 0xA0 SHL SUB AND DUP4 PUSH1 0x1 PUSH1 0x1 PUSH1 0xA0 SHL SUB AND SUB PUSH2 0x38B4 JUMPI PUSH1 0x40 MLOAD PUSH4 0x2E1A7D4D PUSH1 0xE0 SHL DUP2 MSTORE PUSH1 0x4 DUP2 ADD DUP3 SWAP1 MSTORE PUSH1 0x1 PUSH1 0x1 PUSH1 0xA0 SHL SUB DUP6 AND SWAP1 PUSH4 0x2E1A7D4D SWAP1 PUSH1 0x24 ADD PUSH1 0x0 PUSH1 0x40 MLOAD DUP1 DUP4 SUB DUP2 PUSH1 0x0 DUP8 DUP1 EXTCODESIZE ISZERO DUP1 ISZERO PUSH2 0x388D JUMPI PUSH1 0x0 DUP1 REVERT JUMPDEST POP GAS CALL ISZERO DUP1 ISZERO PUSH2 0x38A1 JUMPI RETURNDATASIZE PUSH1 0x0 DUP1 RETURNDATACOPY RETURNDATASIZE PUSH1 0x0 REVERT JUMPDEST POP POP POP POP PUSH2 0x38AF DUP3 DUP3 PUSH2 0x4365 JUMP JUMPDEST PUSH2 0x38BF JUMP JUMPDEST PUSH2 0x38BF DUP4 DUP4 DUP4 PUSH2 0x2AF3 JUMP JUMPDEST POP POP POP POP JUMP JUMPDEST PUSH1 0x0 DUP1 PUSH1 0x0 DUP1 PUSH2 0x38D6 DUP9 DUP9 DUP8 PUSH2 0x4444 JUMP JUMPDEST SWAP1 POP DUP6 DUP2 LT ISZERO PUSH2 0x3991 JUMPI PUSH2 0x3913 PUSH2 0x38FB PUSH2 0x38F1 DUP8 PUSH1 0xA PUSH2 0x4CC6 JUMP JUMPDEST PUSH2 0x1B19 DUP12 DUP6 PUSH2 0x26D8 JUMP JUMPDEST PUSH2 0x29F8 PUSH2 0x3909 DUP9 PUSH1 0xA PUSH2 0x4CC6 JUMP JUMPDEST PUSH2 0x1B19 DUP13 DUP12 PUSH2 0x26D8 JUMP JUMPDEST SWAP2 POP PUSH1 0x0 DUP3 GT PUSH2 0x3924 JUMPI PUSH1 0x1 PUSH2 0x3926 JUMP JUMPDEST DUP2 JUMPDEST SWAP2 POP DUP2 DUP11 LT ISZERO PUSH2 0x3973 JUMPI PUSH1 0x40 MLOAD PUSH3 0x461BCD PUSH1 0xE5 SHL DUP2 MSTORE PUSH1 0x20 PUSH1 0x4 DUP3 ADD MSTORE PUSH1 0x18 PUSH1 0x24 DUP3 ADD MSTORE PUSH24 0x139BDD08115B9BDD59DA0813DD5D1C1D5D08105B5BDD5B9D PUSH1 0x42 SHL PUSH1 0x44 DUP3 ADD MSTORE PUSH1 0x64 ADD PUSH2 0x45A JUMP JUMPDEST PUSH2 0x397D DUP11 DUP4 PUSH2 0x1CAE JUMP JUMPDEST PUSH2 0x3987 DUP4 DUP12 PUSH2 0x4B3F JUMP JUMPDEST SWAP1 SWAP5 POP SWAP3 POP PUSH2 0x3998 JUMP JUMPDEST DUP10 SWAP4 POP DUP9 SWAP3 POP JUMPDEST POP SWAP7 POP SWAP7 POP SWAP7 SWAP4 POP POP POP POP JUMP JUMPDEST PUSH1 0x6 SLOAD PUSH2 0x39BD SWAP1 DUP6 SWAP1 PUSH1 0x1 PUSH1 0x1 PUSH1 0xA0 SHL SUB AND DUP5 PUSH2 0x2AF3 JUMP JUMPDEST PUSH1 0x0 DUP1 PUSH1 0x6 PUSH1 0x0 SWAP1 SLOAD SWAP1 PUSH2 0x100 EXP SWAP1 DIV PUSH1 0x1 PUSH1 0x1 PUSH1 0xA0 SHL SUB AND PUSH1 0x1 PUSH1 0x1 PUSH1 0xA0 SHL SUB AND PUSH4 0xD21220A7 PUSH1 0x40 MLOAD DUP2 PUSH4 0xFFFFFFFF AND PUSH1 0xE0 SHL DUP2 MSTORE PUSH1 0x4 ADD PUSH1 0x20 PUSH1 0x40 MLOAD DUP1 DUP4 SUB DUP2 DUP7 GAS STATICCALL ISZERO DUP1 ISZERO PUSH2 0x3A13 JUMPI RETURNDATASIZE PUSH1 0x0 DUP1 RETURNDATACOPY RETURNDATASIZE PUSH1 0x0 REVERT JUMPDEST POP POP POP POP PUSH1 0x40 MLOAD RETURNDATASIZE PUSH1 0x1F NOT PUSH1 0x1F DUP3 ADD AND DUP3 ADD DUP1 PUSH1 0x40 MSTORE POP DUP2 ADD SWAP1 PUSH2 0x3A37 SWAP2 SWAP1 PUSH2 0x4D30 JUMP JUMPDEST PUSH1 0x1 PUSH1 0x1 PUSH1 0xA0 SHL SUB AND DUP6 PUSH1 0x1 PUSH1 0x1 PUSH1 0xA0 SHL SUB AND EQ PUSH2 0x3A57 JUMPI DUP3 PUSH1 0x0 PUSH2 0x3A5B JUMP JUMPDEST PUSH1 0x0 DUP4 JUMPDEST SWAP2 POP SWAP2 POP PUSH1 0x0 PUSH1 0x5 PUSH1 0x0 SWAP1 SLOAD SWAP1 PUSH2 0x100 EXP SWAP1 DIV PUSH1 0x1 PUSH1 0x1 PUSH1 0xA0 SHL SUB AND PUSH1 0x1 PUSH1 0x1 PUSH1 0xA0 SHL SUB AND PUSH4 0xAD5C4648 PUSH1 0x40 MLOAD DUP2 PUSH4 0xFFFFFFFF AND PUSH1 0xE0 SHL DUP2 MSTORE PUSH1 0x4 ADD PUSH1 0x20 PUSH1 0x40 MLOAD DUP1 DUP4 SUB DUP2 DUP7 GAS STATICCALL ISZERO DUP1 ISZERO PUSH2 0x3AB4 JUMPI RETURNDATASIZE PUSH1 0x0 DUP1 RETURNDATACOPY RETURNDATASIZE PUSH1 0x0 REVERT JUMPDEST POP POP POP POP PUSH1 0x40 MLOAD RETURNDATASIZE PUSH1 0x1F NOT PUSH1 0x1F DUP3 ADD AND DUP3 ADD DUP1 PUSH1 0x40 MSTORE POP DUP2 ADD SWAP1 PUSH2 0x3AD8 SWAP2 SWAP1 PUSH2 0x4D30 JUMP JUMPDEST SWAP1 POP DUP6 PUSH1 0x1 PUSH1 0x1 PUSH1 0xA0 SHL SUB AND DUP2 PUSH1 0x1 PUSH1 0x1 PUSH1 0xA0 SHL SUB AND SUB PUSH2 0x3BEE JUMPI PUSH1 0x6 SLOAD PUSH1 0x1 PUSH1 0x1 PUSH1 0xA0 SHL SUB AND PUSH4 0x7EB13DEC DUP5 DUP5 ADDRESS PUSH1 0x0 PUSH1 0x40 MLOAD SWAP1 DUP1 DUP3 MSTORE DUP1 PUSH1 0x1F ADD PUSH1 0x1F NOT AND PUSH1 0x20 ADD DUP3 ADD PUSH1 0x40 MSTORE DUP1 ISZERO PUSH2 0x3B33 JUMPI PUSH1 0x20 DUP3 ADD DUP2 DUP1 CALLDATASIZE DUP4 CALLDATACOPY ADD SWAP1 POP JUMPDEST POP PUSH1 0x40 MLOAD DUP6 PUSH4 0xFFFFFFFF AND PUSH1 0xE0 SHL DUP2 MSTORE PUSH1 0x4 ADD PUSH2 0x3B53 SWAP5 SWAP4 SWAP3 SWAP2 SWAP1 PUSH2 0x4EA4 JUMP JUMPDEST PUSH1 0x0 PUSH1 0x40 MLOAD DUP1 DUP4 SUB DUP2 PUSH1 0x0 DUP8 DUP1 EXTCODESIZE ISZERO DUP1 ISZERO PUSH2 0x3B6D JUMPI PUSH1 0x0 DUP1 REVERT JUMPDEST POP GAS CALL ISZERO DUP1 ISZERO PUSH2 0x3B81 JUMPI RETURNDATASIZE PUSH1 0x0 DUP1 RETURNDATACOPY RETURNDATASIZE PUSH1 0x0 REVERT JUMPDEST POP POP PUSH1 0x40 MLOAD PUSH4 0x2E1A7D4D PUSH1 0xE0 SHL DUP2 MSTORE PUSH1 0x4 DUP2 ADD DUP8 SWAP1 MSTORE PUSH1 0x1 PUSH1 0x1 PUSH1 0xA0 SHL SUB DUP5 AND SWAP3 POP PUSH4 0x2E1A7D4D SWAP2 POP PUSH1 0x24 ADD PUSH1 0x0 PUSH1 0x40 MLOAD DUP1 DUP4 SUB DUP2 PUSH1 0x0 DUP8 DUP1 EXTCODESIZE ISZERO DUP1 ISZERO PUSH2 0x3BC7 JUMPI PUSH1 0x0 DUP1 REVERT JUMPDEST POP GAS CALL ISZERO DUP1 ISZERO PUSH2 0x3BDB JUMPI RETURNDATASIZE PUSH1 0x0 DUP1 RETURNDATACOPY RETURNDATASIZE PUSH1 0x0 REVERT JUMPDEST POP POP POP POP PUSH2 0x3BE9 DUP9 DUP6 PUSH2 0x4365 JUMP JUMPDEST PUSH2 0x3C81 JUMP JUMPDEST PUSH1 0x6 SLOAD PUSH1 0x1 PUSH1 0x1 PUSH1 0xA0 SHL SUB AND PUSH4 0x7EB13DEC DUP5 DUP5 DUP12 PUSH1 0x0 PUSH1 0x40 MLOAD SWAP1 DUP1 DUP3 MSTORE DUP1 PUSH1 0x1F ADD PUSH1 0x1F NOT AND PUSH1 0x20 ADD DUP3 ADD PUSH1 0x40 MSTORE DUP1 ISZERO PUSH2 0x3C2E JUMPI PUSH1 0x20 DUP3 ADD DUP2 DUP1 CALLDATASIZE DUP4 CALLDATACOPY ADD SWAP1 POP JUMPDEST POP PUSH1 0x40 MLOAD DUP6 PUSH4 0xFFFFFFFF AND PUSH1 0xE0 SHL DUP2 MSTORE PUSH1 0x4 ADD PUSH2 0x3C4E SWAP5 SWAP4 SWAP3 SWAP2 SWAP1 PUSH2 0x4EA4 JUMP JUMPDEST PUSH1 0x0 PUSH1 0x40 MLOAD DUP1 DUP4 SUB DUP2 PUSH1 0x0 DUP8 DUP1 EXTCODESIZE ISZERO DUP1 ISZERO PUSH2 0x3C68 JUMPI PUSH1 0x0 DUP1 REVERT JUMPDEST POP GAS CALL ISZERO DUP1 ISZERO PUSH2 0x3C7C JUMPI RETURNDATASIZE PUSH1 0x0 DUP1 RETURNDATACOPY RETURNDATASIZE PUSH1 0x0 REVERT JUMPDEST POP POP POP POP JUMPDEST PUSH1 0x6 PUSH1 0x0 SWAP1 SLOAD SWAP1 PUSH2 0x100 EXP SWAP1 DIV PUSH1 0x1 PUSH1 0x1 PUSH1 0xA0 SHL SUB AND PUSH1 0x1 PUSH1 0x1 PUSH1 0xA0 SHL SUB AND PUSH4 0xFFF6CAE9 PUSH1 0x40 MLOAD DUP2 PUSH4 0xFFFFFFFF AND PUSH1 0xE0 SHL DUP2 MSTORE PUSH1 0x4 ADD PUSH1 0x0 PUSH1 0x40 MLOAD DUP1 DUP4 SUB DUP2 PUSH1 0x0 DUP8 DUP1 EXTCODESIZE ISZERO DUP1 ISZERO PUSH2 0x3CD1 JUMPI PUSH1 0x0 DUP1 REVERT JUMPDEST POP GAS CALL ISZERO DUP1 ISZERO PUSH2 0x3CE5 JUMPI RETURNDATASIZE PUSH1 0x0 DUP1 RETURNDATACOPY RETURNDATASIZE PUSH1 0x0 REVERT JUMPDEST POP POP POP POP POP POP POP POP POP POP POP POP JUMP JUMPDEST PUSH1 0x0 DUP3 DUP2 MSTORE PUSH1 0x1 PUSH1 0x20 SWAP1 DUP2 MSTORE PUSH1 0x40 DUP1 DUP4 KECCAK256 DUP5 DUP5 MSTORE DUP3 MSTORE DUP1 DUP4 KECCAK256 SLOAD DUP6 DUP5 MSTORE PUSH1 0x2 DUP4 MSTORE DUP2 DUP5 KECCAK256 DUP6 DUP6 MSTORE SWAP1 SWAP3 MSTORE DUP3 KECCAK256 SLOAD PUSH2 0x3455 SWAP2 SWAP1 PUSH2 0x4BCB JUMP JUMPDEST PUSH1 0x0 DUP3 DUP2 MSTORE PUSH1 0x4 PUSH1 0x20 MSTORE PUSH1 0x40 DUP2 KECCAK256 SLOAD SWAP1 DUP2 SWAP1 SUB PUSH2 0x3D69 JUMPI PUSH1 0x0 DUP4 DUP2 MSTORE PUSH1 0x3 PUSH1 0x20 SWAP1 DUP2 MSTORE PUSH1 0x40 DUP1 DUP4 KECCAK256 DUP4 DUP1 MSTORE SWAP1 SWAP2 MSTORE DUP1 DUP3 KECCAK256 DUP5 SWAP1 SSTORE DUP4 DUP3 MSTORE DUP2 KECCAK256 SSTORE PUSH2 0x3D9E JUMP JUMPDEST PUSH1 0x0 DUP1 PUSH2 0x3D76 DUP6 DUP6 PUSH2 0x446C JUMP JUMPDEST PUSH1 0x0 DUP8 DUP2 MSTORE PUSH1 0x3 PUSH1 0x20 SWAP1 DUP2 MSTORE PUSH1 0x40 DUP1 DUP4 KECCAK256 SWAP5 DUP4 MSTORE SWAP4 SWAP1 MSTORE DUP3 DUP2 KECCAK256 DUP8 SWAP1 SSTORE DUP7 DUP2 MSTORE SWAP2 SWAP1 SWAP2 KECCAK256 SSTORE POP POP JUMPDEST PUSH1 0x0 DUP4 DUP2 MSTORE PUSH1 0x4 PUSH1 0x20 MSTORE PUSH1 0x40 DUP2 KECCAK256 DUP1 SLOAD SWAP2 PUSH2 0x3DB8 DUP4 PUSH2 0x4B57 JUMP JUMPDEST SWAP2 SWAP1 POP SSTORE POP POP POP POP JUMP JUMPDEST PUSH1 0x0 DUP4 DUP2 MSTORE PUSH1 0x2 PUSH1 0x20 SWAP1 DUP2 MSTORE PUSH1 0x40 DUP1 DUP4 KECCAK256 DUP6 DUP5 MSTORE DUP1 DUP4 MSTORE DUP2 DUP5 KECCAK256 DUP1 SLOAD DUP9 DUP7 MSTORE DUP6 DUP6 MSTORE DUP4 DUP7 KECCAK256 DUP9 DUP8 MSTORE DUP6 MSTORE DUP4 DUP7 KECCAK256 DUP2 DUP8 MSTORE DUP6 MSTORE SWAP3 DUP6 KECCAK256 DUP7 SWAP1 SSTORE DUP7 DUP6 MSTORE SWAP3 MSTORE DUP2 SLOAD SWAP1 SWAP3 SWAP1 SWAP2 SWAP1 PUSH2 0x3E0F DUP4 PUSH2 0x4B57 JUMP JUMPDEST SWAP2 SWAP1 POP SSTORE POP POP POP POP POP JUMP JUMPDEST PUSH1 0x0 PUSH2 0x3E2E DUP4 PUSH2 0x1B19 PUSH2 0x28CD DUP6 PUSH1 0xA PUSH2 0x4CC6 JUMP JUMPDEST SWAP5 SWAP4 POP POP POP POP JUMP JUMPDEST PUSH1 0x0 PUSH2 0x3E2E PUSH2 0x3E46 DUP4 PUSH1 0xA PUSH2 0x4CC6 JUMP JUMPDEST PUSH2 0x1B19 DUP7 DUP7 PUSH2 0x26D8 JUMP JUMPDEST PUSH1 0x0 DUP1 PUSH1 0x0 DUP1 PUSH2 0x3E61 DUP9 DUP9 DUP8 PUSH2 0x4444 JUMP JUMPDEST SWAP1 POP DUP6 DUP2 GT ISZERO PUSH2 0x3991 JUMPI PUSH2 0x3EA0 PUSH2 0x3E87 DUP3 PUSH2 0x1B19 PUSH2 0x3E80 DUP10 PUSH1 0xA PUSH2 0x4CC6 JUMP JUMPDEST DUP12 SWAP1 PUSH2 0x26D8 JUMP JUMPDEST PUSH2 0x29F8 DUP9 PUSH2 0x1B19 PUSH2 0x3E99 DUP11 PUSH1 0xA PUSH2 0x4CC6 JUMP JUMPDEST DUP13 SWAP1 PUSH2 0x26D8 JUMP JUMPDEST SWAP2 POP PUSH1 0x0 DUP3 GT PUSH2 0x3EB1 JUMPI PUSH1 0x1 PUSH2 0x3EB3 JUMP JUMPDEST DUP2 JUMPDEST SWAP2 POP DUP2 DUP11 LT ISZERO PUSH2 0x3973 JUMPI PUSH1 0x40 MLOAD PUSH3 0x461BCD PUSH1 0xE5 SHL DUP2 MSTORE PUSH1 0x20 PUSH1 0x4 DUP3 ADD MSTORE PUSH1 0x17 PUSH1 0x24 DUP3 ADD MSTORE PUSH23 0x139BDD08115B9BDD59DA08125B9C1D5D08105B5BDD5B9D PUSH1 0x4A SHL PUSH1 0x44 DUP3 ADD MSTORE PUSH1 0x64 ADD PUSH2 0x45A JUMP JUMPDEST PUSH1 0x0 PUSH1 0x3 DUP3 GT ISZERO PUSH2 0x3F5A JUMPI POP DUP1 PUSH1 0x0 PUSH2 0x3F19 PUSH1 0x2 DUP4 PUSH2 0x4CD2 JUMP JUMPDEST PUSH2 0x3F24 SWAP1 PUSH1 0x1 PUSH2 0x4B3F JUMP JUMPDEST SWAP1 POP JUMPDEST DUP2 DUP2 LT ISZERO PUSH2 0x2AED JUMPI SWAP1 POP DUP1 PUSH1 0x2 DUP2 PUSH2 0x3F3F DUP2 DUP7 PUSH2 0x4CD2 JUMP JUMPDEST PUSH2 0x3F49 SWAP2 SWAP1 PUSH2 0x4B3F JUMP JUMPDEST PUSH2 0x3F53 SWAP2 SWAP1 PUSH2 0x4CD2 JUMP JUMPDEST SWAP1 POP PUSH2 0x3F27 JUMP JUMPDEST DUP2 ISZERO PUSH2 0x3F64 JUMPI POP PUSH1 0x1 JUMPDEST SWAP2 SWAP1 POP JUMP JUMPDEST PUSH1 0x0 DUP2 PUSH1 0x1 SUB PUSH2 0x3F7B JUMPI POP PUSH1 0x2 SWAP2 SWAP1 POP JUMP JUMPDEST DUP2 PUSH1 0x2 SUB PUSH2 0x3F64 JUMPI POP PUSH1 0x1 SWAP2 SWAP1 POP JUMP JUMPDEST PUSH1 0x60 DUP1 DUP4 PUSH1 0x0 DUP1 PUSH2 0x3F9C DUP10 DUP8 PUSH2 0x3CF3 JUMP JUMPDEST SWAP1 POP PUSH1 0x0 DUP2 PUSH1 0x1 PUSH1 0x1 PUSH1 0x40 SHL SUB DUP2 GT ISZERO PUSH2 0x3FB8 JUMPI PUSH2 0x3FB8 PUSH2 0x4AFD JUMP JUMPDEST PUSH1 0x40 MLOAD SWAP1 DUP1 DUP3 MSTORE DUP1 PUSH1 0x20 MUL PUSH1 0x20 ADD DUP3 ADD PUSH1 0x40 MSTORE DUP1 ISZERO PUSH2 0x3FE1 JUMPI DUP2 PUSH1 0x20 ADD PUSH1 0x20 DUP3 MUL DUP1 CALLDATASIZE DUP4 CALLDATACOPY ADD SWAP1 POP JUMPDEST POP SWAP1 POP PUSH1 0x0 DUP3 PUSH1 0x1 PUSH1 0x1 PUSH1 0x40 SHL SUB DUP2 GT ISZERO PUSH2 0x3FFE JUMPI PUSH2 0x3FFE PUSH2 0x4AFD JUMP JUMPDEST PUSH1 0x40 MLOAD SWAP1 DUP1 DUP3 MSTORE DUP1 PUSH1 0x20 MUL PUSH1 0x20 ADD DUP3 ADD PUSH1 0x40 MSTORE DUP1 ISZERO PUSH2 0x4027 JUMPI DUP2 PUSH1 0x20 ADD PUSH1 0x20 DUP3 MUL DUP1 CALLDATASIZE DUP4 CALLDATACOPY ADD SWAP1 POP JUMPDEST POP SWAP1 POP JUMPDEST DUP3 DUP5 LT DUP1 ISZERO PUSH2 0x403A JUMPI POP PUSH1 0x0 DUP6 GT JUMPDEST ISZERO PUSH2 0x4253 JUMPI PUSH1 0x0 PUSH2 0x404B DUP13 DUP11 PUSH2 0x4500 JUMP JUMPDEST SWAP1 POP DUP1 PUSH1 0x0 SUB PUSH2 0x405B JUMPI POP PUSH2 0x4253 JUMP JUMPDEST PUSH1 0x7 SLOAD PUSH1 0x40 MLOAD PUSH4 0x4A83E9CD PUSH1 0xE1 SHL DUP2 MSTORE PUSH1 0x4 DUP2 ADD DUP4 SWAP1 MSTORE PUSH1 0x0 SWAP2 PUSH1 0x1 PUSH1 0x1 PUSH1 0xA0 SHL SUB AND SWAP1 PUSH4 0x9507D39A SWAP1 PUSH1 0x24 ADD PUSH1 0x80 PUSH1 0x40 MLOAD DUP1 DUP4 SUB DUP2 DUP7 GAS STATICCALL ISZERO DUP1 ISZERO PUSH2 0x40A5 JUMPI RETURNDATASIZE PUSH1 0x0 DUP1 RETURNDATACOPY RETURNDATASIZE PUSH1 0x0 REVERT JUMPDEST POP POP POP POP PUSH1 0x40 MLOAD RETURNDATASIZE PUSH1 0x1F NOT PUSH1 0x1F DUP3 ADD AND DUP3 ADD DUP1 PUSH1 0x40 MSTORE POP DUP2 ADD SWAP1 PUSH2 0x40C9 SWAP2 SWAP1 PUSH2 0x4DD0 JUMP JUMPDEST PUSH1 0x7 SLOAD PUSH1 0x40 MLOAD PUSH4 0x31A9108F PUSH1 0xE1 SHL DUP2 MSTORE PUSH1 0x4 DUP2 ADD DUP6 SWAP1 MSTORE SWAP2 SWAP3 POP PUSH1 0x1 PUSH1 0x1 PUSH1 0xA0 SHL SUB AND SWAP1 PUSH4 0x6352211E SWAP1 PUSH1 0x24 ADD PUSH1 0x20 PUSH1 0x40 MLOAD DUP1 DUP4 SUB DUP2 DUP7 GAS STATICCALL ISZERO DUP1 ISZERO PUSH2 0x4113 JUMPI RETURNDATASIZE PUSH1 0x0 DUP1 RETURNDATACOPY RETURNDATASIZE PUSH1 0x0 REVERT JUMPDEST POP POP POP POP PUSH1 0x40 MLOAD RETURNDATASIZE PUSH1 0x1F NOT PUSH1 0x1F DUP3 ADD AND DUP3 ADD DUP1 PUSH1 0x40 MSTORE POP DUP2 ADD SWAP1 PUSH2 0x4137 SWAP2 SWAP1 PUSH2 0x4D30 JUMP JUMPDEST DUP5 DUP8 DUP2 MLOAD DUP2 LT PUSH2 0x4149 JUMPI PUSH2 0x4149 PUSH2 0x4B13 JUMP JUMPDEST PUSH1 0x20 MUL PUSH1 0x20 ADD ADD SWAP1 PUSH1 0x1 PUSH1 0x1 PUSH1 0xA0 SHL SUB AND SWAP1 DUP2 PUSH1 0x1 PUSH1 0x1 PUSH1 0xA0 SHL SUB AND DUP2 MSTORE POP POP PUSH1 0x0 DUP2 PUSH1 0x40 ADD MLOAD DUP9 GT PUSH2 0x417C JUMPI DUP8 PUSH2 0x4182 JUMP JUMPDEST DUP2 PUSH1 0x40 ADD MLOAD JUMPDEST SWAP1 POP DUP1 DUP5 DUP9 DUP2 MLOAD DUP2 LT PUSH2 0x4197 JUMPI PUSH2 0x4197 PUSH2 0x4B13 JUMP JUMPDEST PUSH1 0x20 SWAP1 DUP2 MUL SWAP2 SWAP1 SWAP2 ADD ADD MSTORE PUSH2 0x41AC DUP2 DUP10 PUSH2 0x4BCB JUMP JUMPDEST SWAP8 POP DUP1 DUP3 PUSH1 0x40 ADD MLOAD SUB PUSH2 0x4234 JUMPI PUSH1 0x7 SLOAD PUSH1 0x40 MLOAD PUSH4 0xB390C0AB PUSH1 0xE0 SHL DUP2 MSTORE PUSH1 0x4 DUP2 ADD DUP6 SWAP1 MSTORE PUSH1 0x24 DUP2 ADD DUP4 SWAP1 MSTORE PUSH1 0x1 PUSH1 0x1 PUSH1 0xA0 SHL SUB SWAP1 SWAP2 AND SWAP1 PUSH4 0xB390C0AB SWAP1 PUSH1 0x44 ADD PUSH1 0x0 PUSH1 0x40 MLOAD DUP1 DUP4 SUB DUP2 PUSH1 0x0 DUP8 DUP1 EXTCODESIZE ISZERO DUP1 ISZERO PUSH2 0x4206 JUMPI PUSH1 0x0 DUP1 REVERT JUMPDEST POP GAS CALL ISZERO DUP1 ISZERO PUSH2 0x421A JUMPI RETURNDATASIZE PUSH1 0x0 DUP1 RETURNDATACOPY RETURNDATASIZE PUSH1 0x0 REVERT JUMPDEST POP POP POP POP DUP7 DUP1 PUSH2 0x4229 SWAP1 PUSH2 0x4B57 JUMP JUMPDEST SWAP8 POP POP POP POP POP PUSH2 0x4253 JUMP JUMPDEST PUSH2 0x423E DUP4 DUP4 PUSH2 0x455F JUMP JUMPDEST DUP7 PUSH2 0x4248 DUP2 PUSH2 0x4B57 JUMP JUMPDEST SWAP8 POP POP POP POP POP PUSH2 0x402B JUMP JUMPDEST DUP4 ISZERO PUSH2 0x4357 JUMPI PUSH2 0x4263 DUP3 DUP6 PUSH2 0x4615 JUMP JUMPDEST SWAP7 POP DUP4 PUSH1 0x1 PUSH1 0x1 PUSH1 0x40 SHL SUB DUP2 GT ISZERO PUSH2 0x427D JUMPI PUSH2 0x427D PUSH2 0x4AFD JUMP JUMPDEST PUSH1 0x40 MLOAD SWAP1 DUP1 DUP3 MSTORE DUP1 PUSH1 0x20 MUL PUSH1 0x20 ADD DUP3 ADD PUSH1 0x40 MSTORE DUP1 ISZERO PUSH2 0x42A6 JUMPI DUP2 PUSH1 0x20 ADD PUSH1 0x20 DUP3 MUL DUP1 CALLDATASIZE DUP4 CALLDATACOPY ADD SWAP1 POP JUMPDEST POP SWAP6 POP DUP1 MLOAD DUP7 MLOAD GT ISZERO PUSH2 0x42EB JUMPI PUSH1 0x40 MLOAD PUSH3 0x461BCD PUSH1 0xE5 SHL DUP2 MSTORE PUSH1 0x20 PUSH1 0x4 DUP3 ADD MSTORE PUSH1 0xD PUSH1 0x24 DUP3 ADD MSTORE PUSH13 0x125B99195E08125B9D985B1A59 PUSH1 0x9A SHL PUSH1 0x44 DUP3 ADD MSTORE PUSH1 0x64 ADD PUSH2 0x45A JUMP JUMPDEST PUSH1 0x0 JUMPDEST DUP5 DUP2 LT ISZERO PUSH2 0x4355 JUMPI PUSH2 0x4326 DUP11 PUSH2 0x1B19 DUP5 DUP5 DUP2 MLOAD DUP2 LT PUSH2 0x430F JUMPI PUSH2 0x430F PUSH2 0x4B13 JUMP JUMPDEST PUSH1 0x20 MUL PUSH1 0x20 ADD ADD MLOAD DUP15 PUSH2 0x26D8 SWAP1 SWAP2 SWAP1 PUSH4 0xFFFFFFFF AND JUMP JUMPDEST DUP8 DUP3 DUP2 MLOAD DUP2 LT PUSH2 0x4338 JUMPI PUSH2 0x4338 PUSH2 0x4B13 JUMP JUMPDEST PUSH1 0x20 SWAP1 DUP2 MUL SWAP2 SWAP1 SWAP2 ADD ADD MSTORE DUP1 PUSH2 0x434D DUP2 PUSH2 0x4B57 JUMP JUMPDEST SWAP2 POP POP PUSH2 0x42EE JUMP JUMPDEST POP JUMPDEST POP POP POP POP POP SWAP5 POP SWAP5 SWAP3 POP POP POP JUMP JUMPDEST PUSH1 0x40 DUP1 MLOAD PUSH1 0x0 DUP1 DUP3 MSTORE PUSH1 0x20 DUP3 ADD SWAP1 SWAP3 MSTORE PUSH1 0x1 PUSH1 0x1 PUSH1 0xA0 SHL SUB DUP5 AND SWAP1 DUP4 SWAP1 PUSH1 0x40 MLOAD PUSH2 0x438F SWAP2 SWAP1 PUSH2 0x4E66 JUMP JUMPDEST PUSH1 0x0 PUSH1 0x40 MLOAD DUP1 DUP4 SUB DUP2 DUP6 DUP8 GAS CALL SWAP3 POP POP POP RETURNDATASIZE DUP1 PUSH1 0x0 DUP2 EQ PUSH2 0x43CC JUMPI PUSH1 0x40 MLOAD SWAP2 POP PUSH1 0x1F NOT PUSH1 0x3F RETURNDATASIZE ADD AND DUP3 ADD PUSH1 0x40 MSTORE RETURNDATASIZE DUP3 MSTORE RETURNDATASIZE PUSH1 0x0 PUSH1 0x20 DUP5 ADD RETURNDATACOPY PUSH2 0x43D1 JUMP JUMPDEST PUSH1 0x60 SWAP2 POP JUMPDEST POP POP SWAP1 POP DUP1 PUSH2 0x443F JUMPI PUSH1 0x40 MLOAD PUSH3 0x461BCD PUSH1 0xE5 SHL DUP2 MSTORE PUSH1 0x20 PUSH1 0x4 DUP3 ADD MSTORE PUSH1 0x34 PUSH1 0x24 DUP3 ADD MSTORE PUSH32 0x5472616E7366657248656C7065723A3A736166655472616E736665724554483A PUSH1 0x44 DUP3 ADD MSTORE PUSH20 0x8115512081D1C985B9CD9995C8819985A5B1959 PUSH1 0x62 SHL PUSH1 0x64 DUP3 ADD MSTORE PUSH1 0x84 ADD PUSH2 0x45A JUMP JUMPDEST POP POP POP JUMP JUMPDEST PUSH1 0x0 DUP4 ISZERO PUSH2 0x3455 JUMPI DUP4 PUSH2 0x4462 PUSH2 0x445B DUP5 PUSH1 0xA PUSH2 0x4CC6 JUMP JUMPDEST DUP6 SWAP1 PUSH2 0x26D8 JUMP JUMPDEST PUSH2 0x3E2E SWAP2 SWAP1 PUSH2 0x4CD2 JUMP JUMPDEST PUSH1 0x0 DUP3 DUP2 MSTORE PUSH1 0x3 PUSH1 0x20 SWAP1 DUP2 MSTORE PUSH1 0x40 DUP1 DUP4 KECCAK256 DUP4 DUP1 MSTORE SWAP1 SWAP2 MSTORE DUP2 KECCAK256 SLOAD PUSH1 0x0 NOT DUP5 ADD PUSH2 0x44C5 JUMPI JUMPDEST DUP3 DUP2 GT ISZERO PUSH2 0x44C0 JUMPI PUSH1 0x0 DUP5 DUP2 MSTORE PUSH1 0x3 PUSH1 0x20 SWAP1 DUP2 MSTORE PUSH1 0x40 DUP1 DUP4 KECCAK256 DUP5 DUP5 MSTORE SWAP1 SWAP2 MSTORE SWAP1 KECCAK256 SLOAD SWAP1 SWAP2 POP DUP1 ISZERO PUSH2 0x44F9 JUMPI PUSH2 0x4490 JUMP JUMPDEST PUSH2 0x44F9 JUMP JUMPDEST PUSH1 0x2 DUP5 SUB PUSH2 0x44F9 JUMPI JUMPDEST DUP3 DUP2 LT ISZERO PUSH2 0x44F9 JUMPI PUSH1 0x0 DUP5 DUP2 MSTORE PUSH1 0x3 PUSH1 0x20 SWAP1 DUP2 MSTORE PUSH1 0x40 DUP1 DUP4 KECCAK256 DUP5 DUP5 MSTORE SWAP1 SWAP2 MSTORE SWAP1 KECCAK256 SLOAD SWAP1 SWAP2 POP DUP1 PUSH2 0x44CE JUMPI JUMPDEST SWAP3 POP SWAP3 SWAP1 POP JUMP JUMPDEST PUSH1 0x0 DUP3 DUP2 MSTORE PUSH1 0x1 PUSH1 0x20 SWAP1 DUP2 MSTORE PUSH1 0x40 DUP1 DUP4 KECCAK256 DUP5 DUP5 MSTORE DUP3 MSTORE DUP1 DUP4 KECCAK256 SLOAD DUP6 DUP5 MSTORE PUSH1 0x2 DUP4 MSTORE DUP2 DUP5 KECCAK256 DUP6 DUP6 MSTORE SWAP1 SWAP3 MSTORE DUP3 KECCAK256 SLOAD DUP1 DUP3 EQ PUSH2 0x4557 JUMPI PUSH1 0x0 DUP6 DUP2 MSTORE PUSH1 0x20 DUP2 DUP2 MSTORE PUSH1 0x40 DUP1 DUP4 KECCAK256 DUP8 DUP5 MSTORE DUP3 MSTORE DUP1 DUP4 KECCAK256 DUP6 DUP5 MSTORE SWAP1 SWAP2 MSTORE SWAP1 KECCAK256 SLOAD SWAP3 POP JUMPDEST POP POP SWAP3 SWAP2 POP POP JUMP JUMPDEST PUSH2 0x4574 DUP2 PUSH1 0x60 ADD MLOAD PUSH1 0xFF AND DUP3 PUSH1 0x0 ADD MLOAD PUSH2 0x470D JUMP JUMPDEST POP PUSH1 0x7 SLOAD PUSH1 0x40 DUP3 DUP2 ADD MLOAD SWAP1 MLOAD PUSH4 0xB390C0AB PUSH1 0xE0 SHL DUP2 MSTORE PUSH1 0x4 DUP2 ADD DUP6 SWAP1 MSTORE PUSH1 0x24 DUP2 ADD SWAP2 SWAP1 SWAP2 MSTORE PUSH1 0x1 PUSH1 0x1 PUSH1 0xA0 SHL SUB SWAP1 SWAP2 AND SWAP1 PUSH4 0xB390C0AB SWAP1 PUSH1 0x44 ADD PUSH1 0x0 PUSH1 0x40 MLOAD DUP1 DUP4 SUB DUP2 PUSH1 0x0 DUP8 DUP1 EXTCODESIZE ISZERO DUP1 ISZERO PUSH2 0x45C8 JUMPI PUSH1 0x0 DUP1 REVERT JUMPDEST POP GAS CALL ISZERO DUP1 ISZERO PUSH2 0x45DC JUMPI RETURNDATASIZE PUSH1 0x0 DUP1 RETURNDATACOPY RETURNDATASIZE PUSH1 0x0 REVERT JUMPDEST POP POP POP POP PUSH2 0x45F5 DUP2 PUSH1 0x60 ADD MLOAD PUSH1 0xFF AND DUP3 PUSH1 0x0 ADD MLOAD PUSH2 0x3CF3 JUMP JUMPDEST PUSH1 0x0 SUB PUSH2 0x4611 JUMPI PUSH2 0x4611 DUP2 PUSH1 0x60 ADD MLOAD PUSH1 0xFF AND DUP3 PUSH1 0x0 ADD MLOAD PUSH2 0x4795 JUMP JUMPDEST POP POP JUMP JUMPDEST PUSH1 0x60 DUP3 MLOAD DUP3 GT ISZERO PUSH2 0x4659 JUMPI PUSH1 0x40 MLOAD PUSH3 0x461BCD PUSH1 0xE5 SHL DUP2 MSTORE PUSH1 0x20 PUSH1 0x4 DUP3 ADD MSTORE PUSH1 0xE PUSH1 0x24 DUP3 ADD MSTORE PUSH14 0x92DCECC2D8D2C840D8CADCCEE8D PUSH1 0x93 SHL PUSH1 0x44 DUP3 ADD MSTORE PUSH1 0x64 ADD PUSH2 0x45A JUMP JUMPDEST DUP3 MLOAD DUP3 SUB PUSH2 0x4668 JUMPI POP DUP2 PUSH2 0x1D04 JUMP JUMPDEST DUP2 PUSH1 0x1 PUSH1 0x1 PUSH1 0x40 SHL SUB DUP2 GT ISZERO PUSH2 0x4680 JUMPI PUSH2 0x4680 PUSH2 0x4AFD JUMP JUMPDEST PUSH1 0x40 MLOAD SWAP1 DUP1 DUP3 MSTORE DUP1 PUSH1 0x20 MUL PUSH1 0x20 ADD DUP3 ADD PUSH1 0x40 MSTORE DUP1 ISZERO PUSH2 0x46A9 JUMPI DUP2 PUSH1 0x20 ADD PUSH1 0x20 DUP3 MUL DUP1 CALLDATASIZE DUP4 CALLDATACOPY ADD SWAP1 POP JUMPDEST POP SWAP1 POP PUSH1 0x0 JUMPDEST DUP3 DUP2 LT ISZERO PUSH2 0x35F6 JUMPI DUP4 DUP2 DUP2 MLOAD DUP2 LT PUSH2 0x46C9 JUMPI PUSH2 0x46C9 PUSH2 0x4B13 JUMP JUMPDEST PUSH1 0x20 MUL PUSH1 0x20 ADD ADD MLOAD DUP3 DUP3 DUP2 MLOAD DUP2 LT PUSH2 0x46E3 JUMPI PUSH2 0x46E3 PUSH2 0x4B13 JUMP JUMPDEST PUSH1 0x1 PUSH1 0x1 PUSH1 0xA0 SHL SUB SWAP1 SWAP3 AND PUSH1 0x20 SWAP3 DUP4 MUL SWAP2 SWAP1 SWAP2 ADD SWAP1 SWAP2 ADD MSTORE DUP1 PUSH2 0x4705 DUP2 PUSH2 0x4B57 JUMP JUMPDEST SWAP2 POP POP PUSH2 0x46AF JUMP JUMPDEST PUSH1 0x0 DUP3 DUP2 MSTORE PUSH1 0x1 PUSH1 0x20 SWAP1 DUP2 MSTORE PUSH1 0x40 DUP1 DUP4 KECCAK256 DUP5 DUP5 MSTORE DUP3 MSTORE DUP1 DUP4 KECCAK256 SLOAD DUP6 DUP5 MSTORE PUSH1 0x2 DUP4 MSTORE DUP2 DUP5 KECCAK256 DUP6 DUP6 MSTORE SWAP1 SWAP3 MSTORE DUP3 KECCAK256 SLOAD DUP1 DUP3 EQ PUSH2 0x4557 JUMPI PUSH1 0x0 DUP6 DUP2 MSTORE PUSH1 0x20 DUP2 DUP2 MSTORE PUSH1 0x40 DUP1 DUP4 KECCAK256 DUP8 DUP5 MSTORE DUP3 MSTORE DUP1 DUP4 KECCAK256 DUP6 DUP5 MSTORE DUP3 MSTORE DUP1 DUP4 KECCAK256 DUP1 SLOAD SWAP1 DUP5 SWAP1 SSTORE DUP9 DUP5 MSTORE PUSH1 0x1 DUP4 MSTORE DUP2 DUP5 KECCAK256 DUP9 DUP6 MSTORE SWAP1 SWAP3 MSTORE DUP3 KECCAK256 DUP1 SLOAD SWAP2 SWAP6 POP SWAP1 SWAP2 PUSH2 0x4788 DUP4 PUSH2 0x4B57 JUMP JUMPDEST SWAP2 SWAP1 POP SSTORE POP POP POP SWAP3 SWAP2 POP POP JUMP JUMPDEST PUSH1 0x0 DUP1 PUSH2 0x47A2 DUP5 DUP5 PUSH2 0x446C JUMP JUMPDEST SWAP2 POP SWAP2 POP DUP1 DUP4 EQ PUSH2 0x47E5 JUMPI PUSH1 0x40 MLOAD PUSH3 0x461BCD PUSH1 0xE5 SHL DUP2 MSTORE PUSH1 0x20 PUSH1 0x4 DUP3 ADD MSTORE PUSH1 0xD PUSH1 0x24 DUP3 ADD MSTORE PUSH13 0x496E76616C6964207072696365 PUSH1 0x98 SHL PUSH1 0x44 DUP3 ADD MSTORE PUSH1 0x64 ADD PUSH2 0x45A JUMP JUMPDEST PUSH1 0x0 DUP5 DUP2 MSTORE PUSH1 0x3 PUSH1 0x20 SWAP1 DUP2 MSTORE PUSH1 0x40 DUP1 DUP4 KECCAK256 DUP5 DUP5 MSTORE DUP3 MSTORE DUP1 DUP4 KECCAK256 DUP1 SLOAD DUP7 DUP6 MSTORE DUP3 DUP6 KECCAK256 SSTORE DUP4 SWAP1 SSTORE DUP7 DUP4 MSTORE PUSH1 0x4 SWAP1 SWAP2 MSTORE DUP2 KECCAK256 DUP1 SLOAD SWAP2 PUSH2 0x3E0F DUP4 PUSH2 0x4ED1 JUMP JUMPDEST PUSH1 0x1 PUSH1 0x1 PUSH1 0xA0 SHL SUB DUP2 AND DUP2 EQ PUSH2 0x4835 JUMPI PUSH1 0x0 DUP1 REVERT JUMPDEST POP JUMP JUMPDEST PUSH1 0x0 DUP1 PUSH1 0x0 PUSH1 0x60 DUP5 DUP7 SUB SLT ISZERO PUSH2 0x484D JUMPI PUSH1 0x0 DUP1 REVERT JUMPDEST DUP4 CALLDATALOAD PUSH2 0x4858 DUP2 PUSH2 0x4820 JUMP JUMPDEST SWAP3 POP PUSH1 0x20 DUP5 ADD CALLDATALOAD SWAP2 POP PUSH1 0x40 DUP5 ADD CALLDATALOAD PUSH2 0x486F DUP2 PUSH2 0x4820 JUMP JUMPDEST DUP1 SWAP2 POP POP SWAP3 POP SWAP3 POP SWAP3 JUMP JUMPDEST PUSH1 0x0 DUP2 MLOAD DUP1 DUP5 MSTORE PUSH1 0x20 DUP1 DUP6 ADD SWAP5 POP DUP1 DUP5 ADD PUSH1 0x0 JUMPDEST DUP4 DUP2 LT ISZERO PUSH2 0x48AA JUMPI DUP2 MLOAD DUP8 MSTORE SWAP6 DUP3 ADD SWAP6 SWAP1 DUP3 ADD SWAP1 PUSH1 0x1 ADD PUSH2 0x488E JUMP JUMPDEST POP SWAP5 SWAP6 SWAP5 POP POP POP POP POP JUMP JUMPDEST PUSH1 0x0 PUSH1 0x60 DUP3 ADD DUP6 DUP4 MSTORE PUSH1 0x20 PUSH1 0x60 DUP2 DUP6 ADD MSTORE DUP2 DUP7 MLOAD DUP1 DUP5 MSTORE PUSH1 0x80 DUP7 ADD SWAP2 POP DUP3 DUP9 ADD SWAP4 POP PUSH1 0x0 JUMPDEST DUP2 DUP2 LT ISZERO PUSH2 0x48FF JUMPI DUP5 MLOAD PUSH1 0x1 PUSH1 0x1 PUSH1 0xA0 SHL SUB AND DUP4 MSTORE SWAP4 DUP4 ADD SWAP4 SWAP2 DUP4 ADD SWAP2 PUSH1 0x1 ADD PUSH2 0x48DA JUMP JUMPDEST POP POP DUP5 DUP2 SUB PUSH1 0x40 DUP7 ADD MSTORE PUSH2 0x4913 DUP2 DUP8 PUSH2 0x487A JUMP JUMPDEST SWAP9 SWAP8 POP POP POP POP POP POP POP POP JUMP JUMPDEST PUSH1 0x0 JUMPDEST DUP4 DUP2 LT ISZERO PUSH2 0x493A JUMPI DUP2 DUP2 ADD MLOAD DUP4 DUP3 ADD MSTORE PUSH1 0x20 ADD PUSH2 0x4922 JUMP JUMPDEST DUP4 DUP2 GT ISZERO PUSH2 0x38BF JUMPI POP POP PUSH1 0x0 SWAP2 ADD MSTORE JUMP JUMPDEST PUSH1 0x0 DUP2 MLOAD DUP1 DUP5 MSTORE PUSH2 0x4963 DUP2 PUSH1 0x20 DUP7 ADD PUSH1 0x20 DUP7 ADD PUSH2 0x491F JUMP JUMPDEST PUSH1 0x1F ADD PUSH1 0x1F NOT AND SWAP3 SWAP1 SWAP3 ADD PUSH1 0x20 ADD SWAP3 SWAP2 POP POP JUMP JUMPDEST PUSH1 0x20 DUP2 MSTORE PUSH1 0x0 PUSH2 0x3455 PUSH1 0x20 DUP4 ADD DUP5 PUSH2 0x494B JUMP JUMPDEST PUSH1 0x1 PUSH1 0x1 PUSH1 0xA0 SHL SUB SWAP2 SWAP1 SWAP2 AND DUP2 MSTORE PUSH1 0x20 ADD SWAP1 JUMP JUMPDEST PUSH1 0x0 DUP1 PUSH1 0x40 DUP4 DUP6 SUB SLT ISZERO PUSH2 0x49B1 JUMPI PUSH1 0x0 DUP1 REVERT JUMPDEST POP POP DUP1 CALLDATALOAD SWAP3 PUSH1 0x20 SWAP1 SWAP2 ADD CALLDATALOAD SWAP2 POP JUMP JUMPDEST PUSH1 0x40 DUP2 MSTORE PUSH1 0x0 PUSH2 0x49D3 PUSH1 0x40 DUP4 ADD DUP6 PUSH2 0x487A JUMP JUMPDEST DUP3 DUP2 SUB PUSH1 0x20 DUP5 ADD MSTORE PUSH2 0x3440 DUP2 DUP6 PUSH2 0x487A JUMP JUMPDEST PUSH1 0x0 DUP1 PUSH1 0x40 DUP4 DUP6 SUB SLT ISZERO PUSH2 0x49F8 JUMPI PUSH1 0x0 DUP1 REVERT JUMPDEST DUP3 CALLDATALOAD PUSH2 0x4A03 DUP2 PUSH2 0x4820 JUMP JUMPDEST SWAP5 PUSH1 0x20 SWAP4 SWAP1 SWAP4 ADD CALLDATALOAD SWAP4 POP POP POP JUMP JUMPDEST PUSH1 0x0 DUP1 PUSH1 0x40 DUP4 DUP6 SUB SLT ISZERO PUSH2 0x4A24 JUMPI PUSH1 0x0 DUP1 REVERT JUMPDEST DUP3 CALLDATALOAD PUSH2 0x4A2F DUP2 PUSH2 0x4820 JUMP JUMPDEST SWAP2 POP PUSH1 0x20 DUP4 ADD CALLDATALOAD PUSH2 0x4A3F DUP2 PUSH2 0x4820 JUMP JUMPDEST DUP1 SWAP2 POP POP SWAP3 POP SWAP3 SWAP1 POP JUMP JUMPDEST PUSH4 0xFFFFFFFF DUP2 AND DUP2 EQ PUSH2 0x4835 JUMPI PUSH1 0x0 DUP1 REVERT JUMPDEST PUSH1 0x0 DUP1 PUSH1 0x40 DUP4 DUP6 SUB SLT ISZERO PUSH2 0x4A6F JUMPI PUSH1 0x0 DUP1 REVERT JUMPDEST DUP3 CALLDATALOAD SWAP2 POP PUSH1 0x20 DUP4 ADD CALLDATALOAD PUSH2 0x4A3F DUP2 PUSH2 0x4A4A JUMP JUMPDEST PUSH1 0x0 DUP1 PUSH1 0x0 DUP1 PUSH1 0x80 DUP6 DUP8 SUB SLT ISZERO PUSH2 0x4A97 JUMPI PUSH1 0x0 DUP1 REVERT JUMPDEST DUP5 CALLDATALOAD PUSH2 0x4AA2 DUP2 PUSH2 0x4820 JUMP JUMPDEST SWAP4 POP PUSH1 0x20 DUP6 ADD CALLDATALOAD PUSH2 0x4AB2 DUP2 PUSH2 0x4820 JUMP JUMPDEST SWAP3 POP PUSH1 0x40 DUP6 ADD CALLDATALOAD PUSH2 0x4AC2 DUP2 PUSH2 0x4820 JUMP JUMPDEST SWAP2 POP PUSH1 0x60 DUP6 ADD CALLDATALOAD PUSH2 0x4AD2 DUP2 PUSH2 0x4820 JUMP JUMPDEST SWAP4 SWAP7 SWAP3 SWAP6 POP SWAP1 SWAP4 POP POP JUMP JUMPDEST PUSH1 0x20 DUP1 DUP3 MSTORE PUSH1 0x6 SWAP1 DUP3 ADD MSTORE PUSH6 0x1313D0D2D151 PUSH1 0xD2 SHL PUSH1 0x40 DUP3 ADD MSTORE PUSH1 0x60 ADD SWAP1 JUMP JUMPDEST PUSH4 0x4E487B71 PUSH1 0xE0 SHL PUSH1 0x0 MSTORE PUSH1 0x41 PUSH1 0x4 MSTORE PUSH1 0x24 PUSH1 0x0 REVERT JUMPDEST PUSH4 0x4E487B71 PUSH1 0xE0 SHL PUSH1 0x0 MSTORE PUSH1 0x32 PUSH1 0x4 MSTORE PUSH1 0x24 PUSH1 0x0 REVERT JUMPDEST PUSH4 0x4E487B71 PUSH1 0xE0 SHL PUSH1 0x0 MSTORE PUSH1 0x11 PUSH1 0x4 MSTORE PUSH1 0x24 PUSH1 0x0 REVERT JUMPDEST PUSH1 0x0 DUP3 NOT DUP3 GT ISZERO PUSH2 0x4B52 JUMPI PUSH2 0x4B52 PUSH2 0x4B29 JUMP JUMPDEST POP ADD SWAP1 JUMP JUMPDEST PUSH1 0x0 PUSH1 0x1 DUP3 ADD PUSH2 0x4B69 JUMPI PUSH2 0x4B69 PUSH2 0x4B29 JUMP JUMPDEST POP PUSH1 0x1 ADD SWAP1 JUMP JUMPDEST DUP1 MLOAD PUSH1 0xFF DUP2 AND DUP2 EQ PUSH2 0x3F64 JUMPI PUSH1 0x0 DUP1 REVERT JUMPDEST PUSH1 0x0 PUSH1 0x20 DUP3 DUP5 SUB SLT ISZERO PUSH2 0x4B93 JUMPI PUSH1 0x0 DUP1 REVERT JUMPDEST PUSH2 0x3455 DUP3 PUSH2 0x4B70 JUMP JUMPDEST PUSH1 0x20 DUP1 DUP3 MSTORE PUSH1 0x15 SWAP1 DUP3 ADD MSTORE PUSH21 0x13DC99195C909BDBDAC81D5B98DBDB9B9958DD1959 PUSH1 0x5A SHL PUSH1 0x40 DUP3 ADD MSTORE PUSH1 0x60 ADD SWAP1 JUMP JUMPDEST PUSH1 0x0 DUP3 DUP3 LT ISZERO PUSH2 0x4BDD JUMPI PUSH2 0x4BDD PUSH2 0x4B29 JUMP JUMPDEST POP SUB SWAP1 JUMP JUMPDEST PUSH1 0x1 DUP2 DUP2 JUMPDEST DUP1 DUP6 GT ISZERO PUSH2 0x4C1D JUMPI DUP2 PUSH1 0x0 NOT DIV DUP3 GT ISZERO PUSH2 0x4C03 JUMPI PUSH2 0x4C03 PUSH2 0x4B29 JUMP JUMPDEST DUP1 DUP6 AND ISZERO PUSH2 0x4C10 JUMPI SWAP2 DUP2 MUL SWAP2 JUMPDEST SWAP4 DUP5 SHR SWAP4 SWAP1 DUP1 MUL SWAP1 PUSH2 0x4BE7 JUMP JUMPDEST POP SWAP3 POP SWAP3 SWAP1 POP JUMP JUMPDEST PUSH1 0x0 DUP3 PUSH2 0x4C34 JUMPI POP PUSH1 0x1 PUSH2 0x1D04 JUMP JUMPDEST DUP2 PUSH2 0x4C41 JUMPI POP PUSH1 0x0 PUSH2 0x1D04 JUMP JUMPDEST DUP2 PUSH1 0x1 DUP2 EQ PUSH2 0x4C57 JUMPI PUSH1 0x2 DUP2 EQ PUSH2 0x4C61 JUMPI PUSH2 0x4C7D JUMP JUMPDEST PUSH1 0x1 SWAP2 POP POP PUSH2 0x1D04 JUMP JUMPDEST PUSH1 0xFF DUP5 GT ISZERO PUSH2 0x4C72 JUMPI PUSH2 0x4C72 PUSH2 0x4B29 JUMP JUMPDEST POP POP PUSH1 0x1 DUP3 SHL PUSH2 0x1D04 JUMP JUMPDEST POP PUSH1 0x20 DUP4 LT PUSH2 0x133 DUP4 LT AND PUSH1 0x4E DUP5 LT PUSH1 0xB DUP5 LT AND OR ISZERO PUSH2 0x4CA0 JUMPI POP DUP2 DUP2 EXP PUSH2 0x1D04 JUMP JUMPDEST PUSH2 0x4CAA DUP4 DUP4 PUSH2 0x4BE2 JUMP JUMPDEST DUP1 PUSH1 0x0 NOT DIV DUP3 GT ISZERO PUSH2 0x4CBE JUMPI PUSH2 0x4CBE PUSH2 0x4B29 JUMP JUMPDEST MUL SWAP4 SWAP3 POP POP POP JUMP JUMPDEST PUSH1 0x0 PUSH2 0x3455 DUP4 DUP4 PUSH2 0x4C25 JUMP JUMPDEST PUSH1 0x0 DUP3 PUSH2 0x4CEF JUMPI PUSH4 0x4E487B71 PUSH1 0xE0 SHL PUSH1 0x0 MSTORE PUSH1 0x12 PUSH1 0x4 MSTORE PUSH1 0x24 PUSH1 0x0 REVERT JUMPDEST POP DIV SWAP1 JUMP JUMPDEST PUSH1 0x0 PUSH1 0x20 DUP3 DUP5 SUB SLT ISZERO PUSH2 0x4D06 JUMPI PUSH1 0x0 DUP1 REVERT JUMPDEST POP MLOAD SWAP2 SWAP1 POP JUMP JUMPDEST PUSH1 0x0 PUSH4 0xFFFFFFFF DUP1 DUP4 AND DUP2 DUP2 SUB PUSH2 0x4D26 JUMPI PUSH2 0x4D26 PUSH2 0x4B29 JUMP JUMPDEST PUSH1 0x1 ADD SWAP4 SWAP3 POP POP POP JUMP JUMPDEST PUSH1 0x0 PUSH1 0x20 DUP3 DUP5 SUB SLT ISZERO PUSH2 0x4D42 JUMPI PUSH1 0x0 DUP1 REVERT JUMPDEST DUP2 MLOAD PUSH2 0x3455 DUP2 PUSH2 0x4820 JUMP JUMPDEST DUP1 MLOAD PUSH1 0x1 PUSH1 0x1 PUSH1 0x70 SHL SUB DUP2 AND DUP2 EQ PUSH2 0x3F64 JUMPI PUSH1 0x0 DUP1 REVERT JUMPDEST PUSH1 0x0 DUP1 PUSH1 0x0 PUSH1 0x60 DUP5 DUP7 SUB SLT ISZERO PUSH2 0x4D79 JUMPI PUSH1 0x0 DUP1 REVERT JUMPDEST PUSH2 0x4D82 DUP5 PUSH2 0x4D4D JUMP JUMPDEST SWAP3 POP PUSH2 0x4D90 PUSH1 0x20 DUP6 ADD PUSH2 0x4D4D JUMP JUMPDEST SWAP2 POP PUSH1 0x40 DUP5 ADD MLOAD PUSH2 0x486F DUP2 PUSH2 0x4A4A JUMP JUMPDEST PUSH1 0x20 DUP1 DUP3 MSTORE PUSH1 0x16 SWAP1 DUP3 ADD MSTORE PUSH22 0x494E53554646494349454E545F4C4951554944495459 PUSH1 0x50 SHL PUSH1 0x40 DUP3 ADD MSTORE PUSH1 0x60 ADD SWAP1 JUMP JUMPDEST PUSH1 0x0 PUSH1 0x80 DUP3 DUP5 SUB SLT ISZERO PUSH2 0x4DE2 JUMPI PUSH1 0x0 DUP1 REVERT JUMPDEST PUSH1 0x40 MLOAD PUSH1 0x80 DUP2 ADD PUSH1 0x1 PUSH1 0x1 PUSH1 0x40 SHL SUB DUP2 GT DUP3 DUP3 LT OR ISZERO PUSH2 0x4E12 JUMPI PUSH4 0x4E487B71 PUSH1 0xE0 SHL PUSH1 0x0 MSTORE PUSH1 0x41 PUSH1 0x4 MSTORE PUSH1 0x24 PUSH1 0x0 REVERT JUMPDEST DUP1 PUSH1 0x40 MSTORE POP DUP3 MLOAD DUP2 MSTORE PUSH1 0x20 DUP4 ADD MLOAD PUSH1 0x20 DUP3 ADD MSTORE PUSH1 0x40 DUP4 ADD MLOAD PUSH1 0x40 DUP3 ADD MSTORE PUSH2 0x4E3B PUSH1 0x60 DUP5 ADD PUSH2 0x4B70 JUMP JUMPDEST PUSH1 0x60 DUP3 ADD MSTORE SWAP4 SWAP3 POP POP POP JUMP JUMPDEST PUSH1 0x0 DUP2 PUSH1 0x0 NOT DIV DUP4 GT DUP3 ISZERO ISZERO AND ISZERO PUSH2 0x4E61 JUMPI PUSH2 0x4E61 PUSH2 0x4B29 JUMP JUMPDEST POP MUL SWAP1 JUMP JUMPDEST PUSH1 0x0 DUP3 MLOAD PUSH2 0x4E78 DUP2 DUP5 PUSH1 0x20 DUP8 ADD PUSH2 0x491F JUMP JUMPDEST SWAP2 SWAP1 SWAP2 ADD SWAP3 SWAP2 POP POP JUMP JUMPDEST PUSH1 0x0 PUSH1 0x20 DUP3 DUP5 SUB SLT ISZERO PUSH2 0x4E94 JUMPI PUSH1 0x0 DUP1 REVERT JUMPDEST DUP2 MLOAD DUP1 ISZERO ISZERO DUP2 EQ PUSH2 0x3455 JUMPI PUSH1 0x0 DUP1 REVERT JUMPDEST DUP5 DUP2 MSTORE DUP4 PUSH1 0x20 DUP3 ADD MSTORE PUSH1 0x1 DUP1 PUSH1 0xA0 SHL SUB DUP4 AND PUSH1 0x40 DUP3 ADD MSTORE PUSH1 0x80 PUSH1 0x60 DUP3 ADD MSTORE PUSH1 0x0 PUSH2 0x2F60 PUSH1 0x80 DUP4 ADD DUP5 PUSH2 0x494B JUMP JUMPDEST PUSH1 0x0 DUP2 PUSH2 0x4EE0 JUMPI PUSH2 0x4EE0 PUSH2 0x4B29 JUMP JUMPDEST POP PUSH1 0x0 NOT ADD SWAP1 JUMP INVALID LOG2 PUSH5 0x6970667358 0x22 SLT KECCAK256 0xB2 PUSH6 0xA323886A21 0x21 0xE5 0xB2 0x4A CALLER CALLDATALOAD DUP12 0xC2 SMOD DUP13 SWAP9 0xB5 0xCE OR 0x4A PUSH5 0x9173B1811B PUSH17 0x400364736F6C634300080D003360A06040 DUP2 SWAP1 MSTORE PUSH1 0x0 PUSH1 0x80 DUP2 SWAP1 MSTORE PUSH3 0x1B SWAP2 PUSH1 0xE SWAP2 PUSH3 0x30E JUMP JUMPDEST POP CALLVALUE DUP1 ISZERO PUSH3 0x29 JUMPI PUSH1 0x0 DUP1 REVERT JUMPDEST POP PUSH1 0x40 MLOAD PUSH3 0x2D28 CODESIZE SUB DUP1 PUSH3 0x2D28 DUP4 CODECOPY DUP2 ADD PUSH1 0x40 DUP2 SWAP1 MSTORE PUSH3 0x4C SWAP2 PUSH3 0x3B4 JUMP JUMPDEST PUSH1 0x40 DUP1 MLOAD DUP1 DUP3 ADD DUP3 MSTORE PUSH1 0xD DUP2 MSTORE PUSH13 0x243CB13934B22C1027B93232B9 PUSH1 0x99 SHL PUSH1 0x20 DUP1 DUP4 ADD SWAP2 DUP3 MSTORE DUP4 MLOAD DUP1 DUP6 ADD SWAP1 SWAP5 MSTORE PUSH1 0x5 DUP5 MSTORE PUSH5 0x27A92222A9 PUSH1 0xD9 SHL SWAP1 DUP5 ADD MSTORE DUP2 MLOAD SWAP2 SWAP3 SWAP2 PUSH3 0x9E SWAP2 PUSH1 0x2 SWAP2 PUSH3 0x30E JUMP JUMPDEST POP DUP1 MLOAD PUSH3 0xB4 SWAP1 PUSH1 0x3 SWAP1 PUSH1 0x20 DUP5 ADD SWAP1 PUSH3 0x30E JUMP JUMPDEST POP POP POP PUSH3 0xD1 PUSH3 0xCB PUSH3 0x14A PUSH1 0x20 SHL PUSH1 0x20 SHR JUMP JUMPDEST PUSH3 0x14E JUMP JUMPDEST PUSH1 0xF DUP1 SLOAD PUSH1 0x1 PUSH1 0x1 PUSH1 0xA0 SHL SUB NOT AND PUSH1 0x1 PUSH1 0x1 PUSH1 0xA0 SHL SUB DUP4 AND OR SWAP1 SSTORE PUSH3 0x100 PUSH1 0x0 PUSH3 0xFA CALLER SWAP1 JUMP JUMPDEST PUSH3 0x1A0 JUMP JUMPDEST PUSH3 0x12C PUSH32 0x9F2DF0FED2C77648DE5860A4CC508CD0818C85B8B8A1AB4CEEEF8D981C8956A6 DUP3 PUSH3 0x1A0 JUMP JUMPDEST PUSH3 0x143 PUSH1 0xD PUSH3 0x1B0 PUSH1 0x20 SHL PUSH3 0x101D OR PUSH1 0x20 SHR JUMP JUMPDEST POP PUSH3 0x422 JUMP JUMPDEST CALLER SWAP1 JUMP JUMPDEST PUSH1 0xC DUP1 SLOAD PUSH1 0x1 PUSH1 0x1 PUSH1 0xA0 SHL SUB DUP4 DUP2 AND PUSH1 0x1 PUSH1 0x1 PUSH1 0xA0 SHL SUB NOT DUP4 AND DUP2 OR SWAP1 SWAP4 SSTORE PUSH1 0x40 MLOAD SWAP2 AND SWAP2 SWAP1 DUP3 SWAP1 PUSH32 0x8BE0079C531659141344CD1FD0A4F28419497F9722A3DAAFE3B4186F6B6457E0 SWAP1 PUSH1 0x0 SWAP1 LOG3 POP POP JUMP JUMPDEST PUSH3 0x1AC DUP3 DUP3 PUSH3 0x1B9 JUMP JUMPDEST POP POP JUMP JUMPDEST DUP1 SLOAD PUSH1 0x1 ADD SWAP1 SSTORE JUMP JUMPDEST PUSH3 0x1D0 DUP3 DUP3 PUSH3 0x1FC PUSH1 0x20 SHL PUSH3 0x1026 OR PUSH1 0x20 SHR JUMP JUMPDEST PUSH1 0x0 DUP3 DUP2 MSTORE PUSH1 0x1 PUSH1 0x20 SWAP1 DUP2 MSTORE PUSH1 0x40 SWAP1 SWAP2 KECCAK256 PUSH3 0x1F7 SWAP2 DUP4 SWAP1 PUSH3 0x10AA PUSH3 0x29C DUP3 SHL OR SWAP1 SHR JUMP JUMPDEST POP POP POP JUMP JUMPDEST PUSH1 0x0 DUP3 DUP2 MSTORE PUSH1 0x20 DUP2 DUP2 MSTORE PUSH1 0x40 DUP1 DUP4 KECCAK256 PUSH1 0x1 PUSH1 0x1 PUSH1 0xA0 SHL SUB DUP6 AND DUP5 MSTORE SWAP1 SWAP2 MSTORE SWAP1 KECCAK256 SLOAD PUSH1 0xFF AND PUSH3 0x1AC JUMPI PUSH1 0x0 DUP3 DUP2 MSTORE PUSH1 0x20 DUP2 DUP2 MSTORE PUSH1 0x40 DUP1 DUP4 KECCAK256 PUSH1 0x1 PUSH1 0x1 PUSH1 0xA0 SHL SUB DUP6 AND DUP5 MSTORE SWAP1 SWAP2 MSTORE SWAP1 KECCAK256 DUP1 SLOAD PUSH1 0xFF NOT AND PUSH1 0x1 OR SWAP1 SSTORE PUSH3 0x258 CALLER SWAP1 JUMP JUMPDEST PUSH1 0x1 PUSH1 0x1 PUSH1 0xA0 SHL SUB AND DUP2 PUSH1 0x1 PUSH1 0x1 PUSH1 0xA0 SHL SUB AND DUP4 PUSH32 0x2F8788117E7EFF1D82E926EC794901D17C78024A50270940304540A733656F0D PUSH1 0x40 MLOAD PUSH1 0x40 MLOAD DUP1 SWAP2 SUB SWAP1 LOG4 POP POP JUMP JUMPDEST PUSH1 0x0 PUSH3 0x2B3 DUP4 PUSH1 0x1 PUSH1 0x1 PUSH1 0xA0 SHL SUB DUP5 AND PUSH3 0x2BC JUMP JUMPDEST SWAP1 POP JUMPDEST SWAP3 SWAP2 POP POP JUMP JUMPDEST PUSH1 0x0 DUP2 DUP2 MSTORE PUSH1 0x1 DUP4 ADD PUSH1 0x20 MSTORE PUSH1 0x40 DUP2 KECCAK256 SLOAD PUSH3 0x305 JUMPI POP DUP2 SLOAD PUSH1 0x1 DUP2 DUP2 ADD DUP5 SSTORE PUSH1 0x0 DUP5 DUP2 MSTORE PUSH1 0x20 DUP1 DUP3 KECCAK256 SWAP1 SWAP4 ADD DUP5 SWAP1 SSTORE DUP5 SLOAD DUP5 DUP3 MSTORE DUP3 DUP7 ADD SWAP1 SWAP4 MSTORE PUSH1 0x40 SWAP1 KECCAK256 SWAP2 SWAP1 SWAP2 SSTORE PUSH3 0x2B6 JUMP JUMPDEST POP PUSH1 0x0 PUSH3 0x2B6 JUMP JUMPDEST DUP3 DUP1 SLOAD PUSH3 0x31C SWAP1 PUSH3 0x3E6 JUMP JUMPDEST SWAP1 PUSH1 0x0 MSTORE PUSH1 0x20 PUSH1 0x0 KECCAK256 SWAP1 PUSH1 0x1F ADD PUSH1 0x20 SWAP1 DIV DUP2 ADD SWAP3 DUP3 PUSH3 0x340 JUMPI PUSH1 0x0 DUP6 SSTORE PUSH3 0x38B JUMP JUMPDEST DUP3 PUSH1 0x1F LT PUSH3 0x35B JUMPI DUP1 MLOAD PUSH1 0xFF NOT AND DUP4 DUP1 ADD OR DUP6 SSTORE PUSH3 0x38B JUMP JUMPDEST DUP3 DUP1 ADD PUSH1 0x1 ADD DUP6 SSTORE DUP3 ISZERO PUSH3 0x38B JUMPI SWAP2 DUP3 ADD JUMPDEST DUP3 DUP2 GT ISZERO PUSH3 0x38B JUMPI DUP3 MLOAD DUP3 SSTORE SWAP2 PUSH1 0x20 ADD SWAP2 SWAP1 PUSH1 0x1 ADD SWAP1 PUSH3 0x36E JUMP JUMPDEST POP PUSH3 0x399 SWAP3 SWAP2 POP PUSH3 0x39D JUMP JUMPDEST POP SWAP1 JUMP JUMPDEST JUMPDEST DUP1 DUP3 GT ISZERO PUSH3 0x399 JUMPI PUSH1 0x0 DUP2 SSTORE PUSH1 0x1 ADD PUSH3 0x39E JUMP JUMPDEST PUSH1 0x0 PUSH1 0x20 DUP3 DUP5 SUB SLT ISZERO PUSH3 0x3C7 JUMPI PUSH1 0x0 DUP1 REVERT JUMPDEST DUP2 MLOAD PUSH1 0x1 PUSH1 0x1 PUSH1 0xA0 SHL SUB DUP2 AND DUP2 EQ PUSH3 0x3DF JUMPI PUSH1 0x0 DUP1 REVERT JUMPDEST SWAP4 SWAP3 POP POP POP JUMP JUMPDEST PUSH1 0x1 DUP2 DUP2 SHR SWAP1 DUP3 AND DUP1 PUSH3 0x3FB JUMPI PUSH1 0x7F DUP3 AND SWAP2 POP JUMPDEST PUSH1 0x20 DUP3 LT DUP2 SUB PUSH3 0x41C JUMPI PUSH4 0x4E487B71 PUSH1 0xE0 SHL PUSH1 0x0 MSTORE PUSH1 0x22 PUSH1 0x4 MSTORE PUSH1 0x24 PUSH1 0x0 REVERT JUMPDEST POP SWAP2 SWAP1 POP JUMP JUMPDEST PUSH2 0x28F6 DUP1 PUSH3 0x432 PUSH1 0x0 CODECOPY PUSH1 0x0 RETURN INVALID PUSH1 0x80 PUSH1 0x40 MSTORE CALLVALUE DUP1 ISZERO PUSH2 0x10 JUMPI PUSH1 0x0 DUP1 REVERT JUMPDEST POP PUSH1 0x4 CALLDATASIZE LT PUSH2 0x18B JUMPI PUSH1 0x0 CALLDATALOAD PUSH1 0xE0 SHR DUP1 PUSH4 0x1FFC9A7 EQ PUSH2 0x190 JUMPI DUP1 PUSH4 0x6FDDE03 EQ PUSH2 0x1B8 JUMPI DUP1 PUSH4 0x81812FC EQ PUSH2 0x1CD JUMPI DUP1 PUSH4 0x95EA7B3 EQ PUSH2 0x1F8 JUMPI DUP1 PUSH4 0x18160DDD EQ PUSH2 0x20D JUMPI DUP1 PUSH4 0x23B872DD EQ PUSH2 0x21F JUMPI DUP1 PUSH4 0x248A9CA3 EQ PUSH2 0x232 JUMPI DUP1 PUSH4 0x2F2FF15D EQ PUSH2 0x245 JUMPI DUP1 PUSH4 0x2F745C59 EQ PUSH2 0x258 JUMPI DUP1 PUSH4 0x36568ABE EQ PUSH2 0x26B JUMPI DUP1 PUSH4 0x42842E0E EQ PUSH2 0x27E JUMPI DUP1 PUSH4 0x42966C68 EQ PUSH2 0x291 JUMPI DUP1 PUSH4 0x4F6CCCE7 EQ PUSH2 0x2A4 JUMPI DUP1 PUSH4 0x6352211E EQ PUSH2 0x2B7 JUMPI DUP1 PUSH4 0x70A08231 EQ PUSH2 0x2CA JUMPI DUP1 PUSH4 0x715018A6 EQ PUSH2 0x2DD JUMPI DUP1 PUSH4 0x8DA5CB5B EQ PUSH2 0x2E5 JUMPI DUP1 PUSH4 0x9010D07C EQ PUSH2 0x2ED JUMPI DUP1 PUSH4 0x91D14854 EQ PUSH2 0x300 JUMPI DUP1 PUSH4 0x9507D39A EQ PUSH2 0x313 JUMPI DUP1 PUSH4 0x95D89B41 EQ PUSH2 0x35C JUMPI DUP1 PUSH4 0xA217FDDF EQ PUSH2 0x364 JUMPI DUP1 PUSH4 0xA22CB465 EQ PUSH2 0x36C JUMPI DUP1 PUSH4 0xB390C0AB EQ PUSH2 0x37F JUMPI DUP1 PUSH4 0xB88D4FDE EQ PUSH2 0x392 JUMPI DUP1 PUSH4 0xC18B1D5E EQ PUSH2 0x3A5 JUMPI DUP1 PUSH4 0xC87B56DD EQ PUSH2 0x3B8 JUMPI DUP1 PUSH4 0xCA15C873 EQ PUSH2 0x3CB JUMPI DUP1 PUSH4 0xD5391393 EQ PUSH2 0x3DE JUMPI DUP1 PUSH4 0xD547741F EQ PUSH2 0x3F3 JUMPI DUP1 PUSH4 0xE985E9C5 EQ PUSH2 0x406 JUMPI DUP1 PUSH4 0xECAAB6C6 EQ PUSH2 0x419 JUMPI DUP1 PUSH4 0xF2FDE38B EQ PUSH2 0x42C JUMPI JUMPDEST PUSH1 0x0 DUP1 REVERT JUMPDEST PUSH2 0x1A3 PUSH2 0x19E CALLDATASIZE PUSH1 0x4 PUSH2 0x219D JUMP JUMPDEST PUSH2 0x43F JUMP JUMPDEST PUSH1 0x40 MLOAD SWAP1 ISZERO ISZERO DUP2 MSTORE PUSH1 0x20 ADD JUMPDEST PUSH1 0x40 MLOAD DUP1 SWAP2 SUB SWAP1 RETURN JUMPDEST PUSH2 0x1C0 PUSH2 0x450 JUMP JUMPDEST PUSH1 0x40 MLOAD PUSH2 0x1AF SWAP2 SWAP1 PUSH2 0x2212 JUMP JUMPDEST PUSH2 0x1E0 PUSH2 0x1DB CALLDATASIZE PUSH1 0x4 PUSH2 0x2225 JUMP JUMPDEST PUSH2 0x4E2 JUMP JUMPDEST PUSH1 0x40 MLOAD PUSH1 0x1 PUSH1 0x1 PUSH1 0xA0 SHL SUB SWAP1 SWAP2 AND DUP2 MSTORE PUSH1 0x20 ADD PUSH2 0x1AF JUMP JUMPDEST PUSH2 0x20B PUSH2 0x206 CALLDATASIZE PUSH1 0x4 PUSH2 0x225A JUMP JUMPDEST PUSH2 0x56F JUMP JUMPDEST STOP JUMPDEST PUSH1 0xA SLOAD JUMPDEST PUSH1 0x40 MLOAD SWAP1 DUP2 MSTORE PUSH1 0x20 ADD PUSH2 0x1AF JUMP JUMPDEST PUSH2 0x20B PUSH2 0x22D CALLDATASIZE PUSH1 0x4 PUSH2 0x2284 JUMP JUMPDEST PUSH2 0x67F JUMP JUMPDEST PUSH2 0x211 PUSH2 0x240 CALLDATASIZE PUSH1 0x4 PUSH2 0x2225 JUMP JUMPDEST PUSH2 0x6B1 JUMP JUMPDEST PUSH2 0x20B PUSH2 0x253 CALLDATASIZE PUSH1 0x4 PUSH2 0x22C0 JUMP JUMPDEST PUSH2 0x6C6 JUMP JUMPDEST PUSH2 0x211 PUSH2 0x266 CALLDATASIZE PUSH1 0x4 PUSH2 0x225A JUMP JUMPDEST PUSH2 0x6E2 JUMP JUMPDEST PUSH2 0x20B PUSH2 0x279 CALLDATASIZE PUSH1 0x4 PUSH2 0x22C0 JUMP JUMPDEST PUSH2 0x778 JUMP JUMPDEST PUSH2 0x20B PUSH2 0x28C CALLDATASIZE PUSH1 0x4 PUSH2 0x2284 JUMP JUMPDEST PUSH2 0x7F6 JUMP JUMPDEST PUSH2 0x20B PUSH2 0x29F CALLDATASIZE PUSH1 0x4 PUSH2 0x2225 JUMP JUMPDEST PUSH2 0x811 JUMP JUMPDEST PUSH2 0x211 PUSH2 0x2B2 CALLDATASIZE PUSH1 0x4 PUSH2 0x2225 JUMP JUMPDEST PUSH2 0x88B JUMP JUMPDEST PUSH2 0x1E0 PUSH2 0x2C5 CALLDATASIZE PUSH1 0x4 PUSH2 0x2225 JUMP JUMPDEST PUSH2 0x91E JUMP JUMPDEST PUSH2 0x211 PUSH2 0x2D8 CALLDATASIZE PUSH1 0x4 PUSH2 0x22EC JUMP JUMPDEST PUSH2 0x995 JUMP JUMPDEST PUSH2 0x20B PUSH2 0xA1B JUMP JUMPDEST PUSH2 0x1E0 PUSH2 0xA56 JUMP JUMPDEST PUSH2 0x1E0 PUSH2 0x2FB CALLDATASIZE PUSH1 0x4 PUSH2 0x2307 JUMP JUMPDEST PUSH2 0xA65 JUMP JUMPDEST PUSH2 0x1A3 PUSH2 0x30E CALLDATASIZE PUSH1 0x4 PUSH2 0x22C0 JUMP JUMPDEST PUSH2 0xA84 JUMP JUMPDEST PUSH2 0x326 PUSH2 0x321 CALLDATASIZE PUSH1 0x4 PUSH2 0x2225 JUMP JUMPDEST PUSH2 0xAAD JUMP JUMPDEST PUSH1 0x40 MLOAD PUSH2 0x1AF SWAP2 SWAP1 DUP2 MLOAD DUP2 MSTORE PUSH1 0x20 DUP1 DUP4 ADD MLOAD SWAP1 DUP3 ADD MSTORE PUSH1 0x40 DUP1 DUP4 ADD MLOAD SWAP1 DUP3 ADD MSTORE PUSH1 0x60 SWAP2 DUP3 ADD MLOAD PUSH1 0xFF AND SWAP2 DUP2 ADD SWAP2 SWAP1 SWAP2 MSTORE PUSH1 0x80 ADD SWAP1 JUMP JUMPDEST PUSH2 0x1C0 PUSH2 0xB23 JUMP JUMPDEST PUSH2 0x211 PUSH1 0x0 DUP2 JUMP JUMPDEST PUSH2 0x20B PUSH2 0x37A CALLDATASIZE PUSH1 0x4 PUSH2 0x2329 JUMP JUMPDEST PUSH2 0xB32 JUMP JUMPDEST PUSH2 0x20B PUSH2 0x38D CALLDATASIZE PUSH1 0x4 PUSH2 0x2307 JUMP JUMPDEST PUSH2 0xB3D JUMP JUMPDEST PUSH2 0x20B PUSH2 0x3A0 CALLDATASIZE PUSH1 0x4 PUSH2 0x23AB JUMP JUMPDEST PUSH2 0xCFB JUMP JUMPDEST PUSH1 0xF SLOAD PUSH2 0x1E0 SWAP1 PUSH1 0x1 PUSH1 0x1 PUSH1 0xA0 SHL SUB AND DUP2 JUMP JUMPDEST PUSH2 0x1C0 PUSH2 0x3C6 CALLDATASIZE PUSH1 0x4 PUSH2 0x2225 JUMP JUMPDEST PUSH2 0xD33 JUMP JUMPDEST PUSH2 0x211 PUSH2 0x3D9 CALLDATASIZE PUSH1 0x4 PUSH2 0x2225 JUMP JUMPDEST PUSH2 0xDFD JUMP JUMPDEST PUSH2 0x211 PUSH1 0x0 DUP1 MLOAD PUSH1 0x20 PUSH2 0x2881 DUP4 CODECOPY DUP2 MLOAD SWAP2 MSTORE DUP2 JUMP JUMPDEST PUSH2 0x20B PUSH2 0x401 CALLDATASIZE PUSH1 0x4 PUSH2 0x22C0 JUMP JUMPDEST PUSH2 0xE14 JUMP JUMPDEST PUSH2 0x1A3 PUSH2 0x414 CALLDATASIZE PUSH1 0x4 PUSH2 0x246A JUMP JUMPDEST PUSH2 0xE30 JUMP JUMPDEST PUSH2 0x211 PUSH2 0x427 CALLDATASIZE PUSH1 0x4 PUSH2 0x2494 JUMP JUMPDEST PUSH2 0xE5E JUMP JUMPDEST PUSH2 0x20B PUSH2 0x43A CALLDATASIZE PUSH1 0x4 PUSH2 0x22EC JUMP JUMPDEST PUSH2 0xF80 JUMP JUMPDEST PUSH1 0x0 PUSH2 0x44A DUP3 PUSH2 0x10BF JUMP JUMPDEST SWAP3 SWAP2 POP POP JUMP JUMPDEST PUSH1 0x60 PUSH1 0x2 DUP1 SLOAD PUSH2 0x45F SWAP1 PUSH2 0x251D JUMP JUMPDEST DUP1 PUSH1 0x1F ADD PUSH1 0x20 DUP1 SWAP2 DIV MUL PUSH1 0x20 ADD PUSH1 0x40 MLOAD SWAP1 DUP2 ADD PUSH1 0x40 MSTORE DUP1 SWAP3 SWAP2 SWAP1 DUP2 DUP2 MSTORE PUSH1 0x20 ADD DUP3 DUP1 SLOAD PUSH2 0x48B SWAP1 PUSH2 0x251D JUMP JUMPDEST DUP1 ISZERO PUSH2 0x4D8 JUMPI DUP1 PUSH1 0x1F LT PUSH2 0x4AD JUMPI PUSH2 0x100 DUP1 DUP4 SLOAD DIV MUL DUP4 MSTORE SWAP2 PUSH1 0x20 ADD SWAP2 PUSH2 0x4D8 JUMP JUMPDEST DUP3 ADD SWAP2 SWAP1 PUSH1 0x0 MSTORE PUSH1 0x20 PUSH1 0x0 KECCAK256 SWAP1 JUMPDEST DUP2 SLOAD DUP2 MSTORE SWAP1 PUSH1 0x1 ADD SWAP1 PUSH1 0x20 ADD DUP1 DUP4 GT PUSH2 0x4BB JUMPI DUP3 SWAP1 SUB PUSH1 0x1F AND DUP3 ADD SWAP2 JUMPDEST POP POP POP POP POP SWAP1 POP SWAP1 JUMP JUMPDEST PUSH1 0x0 PUSH2 0x4ED DUP3 PUSH2 0x10E4 JUMP JUMPDEST PUSH2 0x553 JUMPI PUSH1 0x40 MLOAD PUSH3 0x461BCD PUSH1 0xE5 SHL DUP2 MSTORE PUSH1 0x20 PUSH1 0x4 DUP3 ADD MSTORE PUSH1 0x2C PUSH1 0x24 DUP3 ADD MSTORE PUSH32 0x4552433732313A20617070726F76656420717565727920666F72206E6F6E6578 PUSH1 0x44 DUP3 ADD MSTORE PUSH12 0x34B9BA32B73A103A37B5B2B7 PUSH1 0xA1 SHL PUSH1 0x64 DUP3 ADD MSTORE PUSH1 0x84 ADD JUMPDEST PUSH1 0x40 MLOAD DUP1 SWAP2 SUB SWAP1 REVERT JUMPDEST POP PUSH1 0x0 SWAP1 DUP2 MSTORE PUSH1 0x6 PUSH1 0x20 MSTORE PUSH1 0x40 SWAP1 KECCAK256 SLOAD PUSH1 0x1 PUSH1 0x1 PUSH1 0xA0 SHL SUB AND SWAP1 JUMP JUMPDEST PUSH1 0x0 PUSH2 0x57A DUP3 PUSH2 0x91E JUMP JUMPDEST SWAP1 POP DUP1 PUSH1 0x1 PUSH1 0x1 PUSH1 0xA0 SHL SUB AND DUP4 PUSH1 0x1 PUSH1 0x1 PUSH1 0xA0 SHL SUB AND SUB PUSH2 0x5E7 JUMPI PUSH1 0x40 MLOAD PUSH3 0x461BCD PUSH1 0xE5 SHL DUP2 MSTORE PUSH1 0x20 PUSH1 0x4 DUP3 ADD MSTORE PUSH1 0x21 PUSH1 0x24 DUP3 ADD MSTORE PUSH32 0x4552433732313A20617070726F76616C20746F2063757272656E74206F776E65 PUSH1 0x44 DUP3 ADD MSTORE PUSH1 0x39 PUSH1 0xF9 SHL PUSH1 0x64 DUP3 ADD MSTORE PUSH1 0x84 ADD PUSH2 0x54A JUMP JUMPDEST CALLER PUSH1 0x1 PUSH1 0x1 PUSH1 0xA0 SHL SUB DUP3 AND EQ DUP1 PUSH2 0x603 JUMPI POP PUSH2 0x603 DUP2 CALLER PUSH2 0xE30 JUMP JUMPDEST PUSH2 0x670 JUMPI PUSH1 0x40 MLOAD PUSH3 0x461BCD PUSH1 0xE5 SHL DUP2 MSTORE PUSH1 0x20 PUSH1 0x4 DUP3 ADD MSTORE PUSH1 0x38 PUSH1 0x24 DUP3 ADD MSTORE PUSH32 0x4552433732313A20617070726F76652063616C6C6572206973206E6F74206F77 PUSH1 0x44 DUP3 ADD MSTORE PUSH24 0x1B995C881B9BDC88185C1C1C9BDD995908199BDC88185B1B PUSH1 0x42 SHL PUSH1 0x64 DUP3 ADD MSTORE PUSH1 0x84 ADD PUSH2 0x54A JUMP JUMPDEST PUSH2 0x67A DUP4 DUP4 PUSH2 0x1101 JUMP JUMPDEST POP POP POP JUMP JUMPDEST PUSH2 0x68A CALLER JUMPDEST DUP3 PUSH2 0x116F JUMP JUMPDEST PUSH2 0x6A6 JUMPI PUSH1 0x40 MLOAD PUSH3 0x461BCD PUSH1 0xE5 SHL DUP2 MSTORE PUSH1 0x4 ADD PUSH2 0x54A SWAP1 PUSH2 0x2557 JUMP JUMPDEST PUSH2 0x67A DUP4 DUP4 DUP4 PUSH2 0x1239 JUMP JUMPDEST PUSH1 0x0 SWAP1 DUP2 MSTORE PUSH1 0x20 DUP2 SWAP1 MSTORE PUSH1 0x40 SWAP1 KECCAK256 PUSH1 0x1 ADD SLOAD SWAP1 JUMP JUMPDEST PUSH2 0x6CF DUP3 PUSH2 0x6B1 JUMP JUMPDEST PUSH2 0x6D8 DUP2 PUSH2 0x13CE JUMP JUMPDEST PUSH2 0x67A DUP4 DUP4 PUSH2 0x13D8 JUMP JUMPDEST PUSH1 0x0 PUSH2 0x6ED DUP4 PUSH2 0x995 JUMP JUMPDEST DUP3 LT PUSH2 0x74F JUMPI PUSH1 0x40 MLOAD PUSH3 0x461BCD PUSH1 0xE5 SHL DUP2 MSTORE PUSH1 0x20 PUSH1 0x4 DUP3 ADD MSTORE PUSH1 0x2B PUSH1 0x24 DUP3 ADD MSTORE PUSH32 0x455243373231456E756D657261626C653A206F776E657220696E646578206F75 PUSH1 0x44 DUP3 ADD MSTORE PUSH11 0x74206F6620626F756E6473 PUSH1 0xA8 SHL PUSH1 0x64 DUP3 ADD MSTORE PUSH1 0x84 ADD PUSH2 0x54A JUMP JUMPDEST POP PUSH1 0x1 PUSH1 0x1 PUSH1 0xA0 SHL SUB SWAP2 SWAP1 SWAP2 AND PUSH1 0x0 SWAP1 DUP2 MSTORE PUSH1 0x8 PUSH1 0x20 SWAP1 DUP2 MSTORE PUSH1 0x40 DUP1 DUP4 KECCAK256 SWAP4 DUP4 MSTORE SWAP3 SWAP1 MSTORE KECCAK256 SLOAD SWAP1 JUMP JUMPDEST PUSH1 0x1 PUSH1 0x1 PUSH1 0xA0 SHL SUB DUP2 AND CALLER EQ PUSH2 0x7E8 JUMPI PUSH1 0x40 MLOAD PUSH3 0x461BCD PUSH1 0xE5 SHL DUP2 MSTORE PUSH1 0x20 PUSH1 0x4 DUP3 ADD MSTORE PUSH1 0x2F PUSH1 0x24 DUP3 ADD MSTORE PUSH32 0x416363657373436F6E74726F6C3A2063616E206F6E6C792072656E6F756E6365 PUSH1 0x44 DUP3 ADD MSTORE PUSH15 0x103937B632B9903337B91039B2B633 PUSH1 0x89 SHL PUSH1 0x64 DUP3 ADD MSTORE PUSH1 0x84 ADD PUSH2 0x54A JUMP JUMPDEST PUSH2 0x7F2 DUP3 DUP3 PUSH2 0x13FA JUMP JUMPDEST POP POP JUMP JUMPDEST PUSH2 0x67A DUP4 DUP4 DUP4 PUSH1 0x40 MLOAD DUP1 PUSH1 0x20 ADD PUSH1 0x40 MSTORE DUP1 PUSH1 0x0 DUP2 MSTORE POP PUSH2 0xCFB JUMP JUMPDEST PUSH2 0x81A CALLER PUSH2 0x684 JUMP JUMPDEST PUSH2 0x87F JUMPI PUSH1 0x40 MLOAD PUSH3 0x461BCD PUSH1 0xE5 SHL DUP2 MSTORE PUSH1 0x20 PUSH1 0x4 DUP3 ADD MSTORE PUSH1 0x30 PUSH1 0x24 DUP3 ADD MSTORE PUSH32 0x4552433732314275726E61626C653A2063616C6C6572206973206E6F74206F77 PUSH1 0x44 DUP3 ADD MSTORE PUSH16 0x1B995C881B9BDC88185C1C1C9BDD9959 PUSH1 0x82 SHL PUSH1 0x64 DUP3 ADD MSTORE PUSH1 0x84 ADD PUSH2 0x54A JUMP JUMPDEST PUSH2 0x888 DUP2 PUSH2 0x141C JUMP JUMPDEST POP JUMP JUMPDEST PUSH1 0x0 PUSH2 0x896 PUSH1 0xA SLOAD SWAP1 JUMP JUMPDEST DUP3 LT PUSH2 0x8F9 JUMPI PUSH1 0x40 MLOAD PUSH3 0x461BCD PUSH1 0xE5 SHL DUP2 MSTORE PUSH1 0x20 PUSH1 0x4 DUP3 ADD MSTORE PUSH1 0x2C PUSH1 0x24 DUP3 ADD MSTORE PUSH32 0x455243373231456E756D657261626C653A20676C6F62616C20696E646578206F PUSH1 0x44 DUP3 ADD MSTORE PUSH12 0x7574206F6620626F756E6473 PUSH1 0xA0 SHL PUSH1 0x64 DUP3 ADD MSTORE PUSH1 0x84 ADD PUSH2 0x54A JUMP JUMPDEST PUSH1 0xA DUP3 DUP2 SLOAD DUP2 LT PUSH2 0x90C JUMPI PUSH2 0x90C PUSH2 0x25A8 JUMP JUMPDEST SWAP1 PUSH1 0x0 MSTORE PUSH1 0x20 PUSH1 0x0 KECCAK256 ADD SLOAD SWAP1 POP SWAP2 SWAP1 POP JUMP JUMPDEST PUSH1 0x0 DUP2 DUP2 MSTORE PUSH1 0x4 PUSH1 0x20 MSTORE PUSH1 0x40 DUP2 KECCAK256 SLOAD PUSH1 0x1 PUSH1 0x1 PUSH1 0xA0 SHL SUB AND DUP1 PUSH2 0x44A JUMPI PUSH1 0x40 MLOAD PUSH3 0x461BCD PUSH1 0xE5 SHL DUP2 MSTORE PUSH1 0x20 PUSH1 0x4 DUP3 ADD MSTORE PUSH1 0x29 PUSH1 0x24 DUP3 ADD MSTORE PUSH32 0x4552433732313A206F776E657220717565727920666F72206E6F6E6578697374 PUSH1 0x44 DUP3 ADD MSTORE PUSH9 0x32B73A103A37B5B2B7 PUSH1 0xB9 SHL PUSH1 0x64 DUP3 ADD MSTORE PUSH1 0x84 ADD PUSH2 0x54A JUMP JUMPDEST PUSH1 0x0 PUSH1 0x1 PUSH1 0x1 PUSH1 0xA0 SHL SUB DUP3 AND PUSH2 0x9FF JUMPI PUSH1 0x40 MLOAD PUSH3 0x461BCD PUSH1 0xE5 SHL DUP2 MSTORE PUSH1 0x20 PUSH1 0x4 DUP3 ADD MSTORE PUSH1 0x29 PUSH1 0x24 DUP3 ADD MSTORE PUSH32 0x4552433732313A2061646472657373207A65726F206973206E6F742061207661 PUSH1 0x44 DUP3 ADD MSTORE PUSH9 0x3634B21037BBB732B9 PUSH1 0xB9 SHL PUSH1 0x64 DUP3 ADD MSTORE PUSH1 0x84 ADD PUSH2 0x54A JUMP JUMPDEST POP PUSH1 0x1 PUSH1 0x1 PUSH1 0xA0 SHL SUB AND PUSH1 0x0 SWAP1 DUP2 MSTORE PUSH1 0x5 PUSH1 0x20 MSTORE PUSH1 0x40 SWAP1 KECCAK256 SLOAD SWAP1 JUMP JUMPDEST CALLER PUSH2 0xA24 PUSH2 0xA56 JUMP JUMPDEST PUSH1 0x1 PUSH1 0x1 PUSH1 0xA0 SHL SUB AND EQ PUSH2 0xA4A JUMPI PUSH1 0x40 MLOAD PUSH3 0x461BCD PUSH1 0xE5 SHL DUP2 MSTORE PUSH1 0x4 ADD PUSH2 0x54A SWAP1 PUSH2 0x25BE JUMP JUMPDEST PUSH2 0xA54 PUSH1 0x0 PUSH2 0x14B1 JUMP JUMPDEST JUMP JUMPDEST PUSH1 0xC SLOAD PUSH1 0x1 PUSH1 0x1 PUSH1 0xA0 SHL SUB AND SWAP1 JUMP JUMPDEST PUSH1 0x0 DUP3 DUP2 MSTORE PUSH1 0x1 PUSH1 0x20 MSTORE PUSH1 0x40 DUP2 KECCAK256 PUSH2 0xA7D SWAP1 DUP4 PUSH2 0x1503 JUMP JUMPDEST SWAP4 SWAP3 POP POP POP JUMP JUMPDEST PUSH1 0x0 SWAP2 DUP3 MSTORE PUSH1 0x20 DUP3 DUP2 MSTORE PUSH1 0x40 DUP1 DUP5 KECCAK256 PUSH1 0x1 PUSH1 0x1 PUSH1 0xA0 SHL SUB SWAP4 SWAP1 SWAP4 AND DUP5 MSTORE SWAP2 SWAP1 MSTORE SWAP1 KECCAK256 SLOAD PUSH1 0xFF AND SWAP1 JUMP JUMPDEST PUSH2 0xADB PUSH1 0x40 MLOAD DUP1 PUSH1 0x80 ADD PUSH1 0x40 MSTORE DUP1 PUSH1 0x0 DUP2 MSTORE PUSH1 0x20 ADD PUSH1 0x0 DUP2 MSTORE PUSH1 0x20 ADD PUSH1 0x0 DUP2 MSTORE PUSH1 0x20 ADD PUSH1 0x0 PUSH1 0xFF AND DUP2 MSTORE POP SWAP1 JUMP JUMPDEST POP PUSH1 0x0 SWAP1 DUP2 MSTORE PUSH1 0x10 PUSH1 0x20 SWAP1 DUP2 MSTORE PUSH1 0x40 SWAP2 DUP3 SWAP1 KECCAK256 DUP3 MLOAD PUSH1 0x80 DUP2 ADD DUP5 MSTORE DUP2 SLOAD DUP2 MSTORE PUSH1 0x1 DUP3 ADD SLOAD SWAP3 DUP2 ADD SWAP3 SWAP1 SWAP3 MSTORE PUSH1 0x2 DUP2 ADD SLOAD SWAP3 DUP3 ADD SWAP3 SWAP1 SWAP3 MSTORE PUSH1 0x3 SWAP1 SWAP2 ADD SLOAD PUSH1 0xFF AND PUSH1 0x60 DUP3 ADD MSTORE SWAP1 JUMP JUMPDEST PUSH1 0x60 PUSH1 0x3 DUP1 SLOAD PUSH2 0x45F SWAP1 PUSH2 0x251D JUMP JUMPDEST PUSH2 0x7F2 CALLER DUP4 DUP4 PUSH2 0x150F JUMP JUMPDEST PUSH2 0xB55 PUSH1 0x0 DUP1 MLOAD PUSH1 0x20 PUSH2 0x2881 DUP4 CODECOPY DUP2 MLOAD SWAP2 MSTORE CALLER PUSH2 0xA84 JUMP JUMPDEST PUSH2 0xB9B JUMPI PUSH1 0x40 MLOAD PUSH3 0x461BCD PUSH1 0xE5 SHL DUP2 MSTORE PUSH1 0x20 PUSH1 0x4 DUP3 ADD MSTORE PUSH1 0x24 DUP1 DUP3 ADD MSTORE PUSH1 0x0 DUP1 MLOAD PUSH1 0x20 PUSH2 0x2841 DUP4 CODECOPY DUP2 MLOAD SWAP2 MSTORE PUSH1 0x44 DUP3 ADD MSTORE PUSH4 0x313AB937 PUSH1 0xE1 SHL PUSH1 0x64 DUP3 ADD MSTORE PUSH1 0x84 ADD PUSH2 0x54A JUMP JUMPDEST PUSH1 0x0 DUP3 DUP2 MSTORE PUSH1 0x10 PUSH1 0x20 SWAP1 DUP2 MSTORE PUSH1 0x40 DUP1 DUP4 KECCAK256 DUP2 MLOAD PUSH1 0x80 DUP2 ADD DUP4 MSTORE DUP2 SLOAD DUP2 MSTORE PUSH1 0x1 DUP3 ADD SLOAD SWAP4 DUP2 ADD SWAP4 SWAP1 SWAP4 MSTORE PUSH1 0x2 DUP2 ADD SLOAD SWAP2 DUP4 ADD SWAP2 SWAP1 SWAP2 MSTORE PUSH1 0x3 ADD SLOAD PUSH1 0xFF AND PUSH1 0x60 DUP3 ADD MSTORE SWAP1 PUSH2 0xBE6 DUP5 PUSH2 0x91E JUMP JUMPDEST DUP3 MLOAD SWAP1 SWAP2 POP PUSH1 0x0 SUB PUSH2 0xC37 JUMPI PUSH1 0x40 MLOAD PUSH3 0x461BCD PUSH1 0xE5 SHL DUP2 MSTORE PUSH1 0x20 PUSH1 0x4 DUP3 ADD MSTORE PUSH1 0x1A PUSH1 0x24 DUP3 ADD MSTORE PUSH26 0x13D49111548E881BDC99195C881B5D5CDD08189948195E1A5CDD PUSH1 0x32 SHL PUSH1 0x44 DUP3 ADD MSTORE PUSH1 0x64 ADD PUSH2 0x54A JUMP JUMPDEST PUSH1 0x40 DUP3 ADD MLOAD PUSH1 0x0 SWAP1 PUSH2 0xC49 SWAP1 DUP6 PUSH2 0x15D9 JUMP JUMPDEST SWAP1 POP DUP1 PUSH1 0x0 SUB PUSH2 0xCAB JUMPI PUSH1 0x0 DUP6 DUP2 MSTORE PUSH1 0x10 PUSH1 0x20 SWAP1 DUP2 MSTORE PUSH1 0x40 DUP1 DUP4 KECCAK256 DUP4 DUP2 SSTORE PUSH1 0x1 DUP2 ADD DUP5 SWAP1 SSTORE PUSH1 0x2 DUP2 ADD DUP5 SWAP1 SSTORE PUSH1 0x3 ADD DUP1 SLOAD PUSH1 0xFF NOT AND SWAP1 SSTORE PUSH1 0x1 PUSH1 0x1 PUSH1 0xA0 SHL SUB DUP6 AND DUP4 MSTORE PUSH1 0x11 DUP3 MSTORE DUP1 DUP4 KECCAK256 DUP7 MLOAD DUP5 MSTORE SWAP1 SWAP2 MSTORE DUP2 KECCAK256 SSTORE PUSH2 0xCA6 DUP6 PUSH2 0x141C JUMP JUMPDEST PUSH2 0xCF4 JUMP JUMPDEST PUSH1 0x20 DUP4 ADD MLOAD PUSH1 0x40 DUP1 DUP6 ADD MLOAD SWAP1 MLOAD DUP8 SWAP3 PUSH1 0x0 DUP1 MLOAD PUSH1 0x20 PUSH2 0x2861 DUP4 CODECOPY DUP2 MLOAD SWAP2 MSTORE SWAP3 PUSH2 0xCD7 SWAP3 DUP3 SWAP1 DUP8 SWAP1 PUSH2 0x25F3 JUMP JUMPDEST PUSH1 0x40 MLOAD DUP1 SWAP2 SUB SWAP1 LOG2 PUSH1 0x0 DUP6 DUP2 MSTORE PUSH1 0x10 PUSH1 0x20 MSTORE PUSH1 0x40 SWAP1 KECCAK256 PUSH1 0x2 ADD DUP2 SWAP1 SSTORE JUMPDEST POP POP POP POP POP JUMP JUMPDEST PUSH2 0xD05 CALLER DUP4 PUSH2 0x116F JUMP JUMPDEST PUSH2 0xD21 JUMPI PUSH1 0x40 MLOAD PUSH3 0x461BCD PUSH1 0xE5 SHL DUP2 MSTORE PUSH1 0x4 ADD PUSH2 0x54A SWAP1 PUSH2 0x2557 JUMP JUMPDEST PUSH2 0xD2D DUP5 DUP5 DUP5 DUP5 PUSH2 0x162F JUMP JUMPDEST POP POP POP POP JUMP JUMPDEST PUSH1 0x60 PUSH2 0xD3E DUP3 PUSH2 0x10E4 JUMP JUMPDEST PUSH2 0xDA2 JUMPI PUSH1 0x40 MLOAD PUSH3 0x461BCD PUSH1 0xE5 SHL DUP2 MSTORE PUSH1 0x20 PUSH1 0x4 DUP3 ADD MSTORE PUSH1 0x2F PUSH1 0x24 DUP3 ADD MSTORE PUSH32 0x4552433732314D657461646174613A2055524920717565727920666F72206E6F PUSH1 0x44 DUP3 ADD MSTORE PUSH15 0x3732BC34B9BA32B73A103A37B5B2B7 PUSH1 0x89 SHL PUSH1 0x64 DUP3 ADD MSTORE PUSH1 0x84 ADD PUSH2 0x54A JUMP JUMPDEST PUSH1 0x0 PUSH2 0xDAC PUSH2 0x1662 JUMP JUMPDEST SWAP1 POP PUSH1 0x0 DUP2 MLOAD GT PUSH2 0xDCC JUMPI PUSH1 0x40 MLOAD DUP1 PUSH1 0x20 ADD PUSH1 0x40 MSTORE DUP1 PUSH1 0x0 DUP2 MSTORE POP PUSH2 0xA7D JUMP JUMPDEST DUP1 PUSH2 0xDD6 DUP5 PUSH2 0x1671 JUMP JUMPDEST PUSH1 0x40 MLOAD PUSH1 0x20 ADD PUSH2 0xDE7 SWAP3 SWAP2 SWAP1 PUSH2 0x260E JUMP JUMPDEST PUSH1 0x40 MLOAD PUSH1 0x20 DUP2 DUP4 SUB SUB DUP2 MSTORE SWAP1 PUSH1 0x40 MSTORE SWAP4 SWAP3 POP POP POP JUMP JUMPDEST PUSH1 0x0 DUP2 DUP2 MSTORE PUSH1 0x1 PUSH1 0x20 MSTORE PUSH1 0x40 DUP2 KECCAK256 PUSH2 0x44A SWAP1 PUSH2 0x1771 JUMP JUMPDEST PUSH2 0xE1D DUP3 PUSH2 0x6B1 JUMP JUMPDEST PUSH2 0xE26 DUP2 PUSH2 0x13CE JUMP JUMPDEST PUSH2 0x67A DUP4 DUP4 PUSH2 0x13FA JUMP JUMPDEST PUSH1 0x1 PUSH1 0x1 PUSH1 0xA0 SHL SUB SWAP2 DUP3 AND PUSH1 0x0 SWAP1 DUP2 MSTORE PUSH1 0x7 PUSH1 0x20 SWAP1 DUP2 MSTORE PUSH1 0x40 DUP1 DUP4 KECCAK256 SWAP4 SWAP1 SWAP5 AND DUP3 MSTORE SWAP2 SWAP1 SWAP2 MSTORE KECCAK256 SLOAD PUSH1 0xFF AND SWAP1 JUMP JUMPDEST PUSH1 0x0 PUSH2 0xE78 PUSH1 0x0 DUP1 MLOAD PUSH1 0x20 PUSH2 0x2881 DUP4 CODECOPY DUP2 MLOAD SWAP2 MSTORE CALLER PUSH2 0xA84 JUMP JUMPDEST PUSH2 0xEBE JUMPI PUSH1 0x40 MLOAD PUSH3 0x461BCD PUSH1 0xE5 SHL DUP2 MSTORE PUSH1 0x20 PUSH1 0x4 DUP3 ADD MSTORE PUSH1 0x24 DUP1 DUP3 ADD MSTORE PUSH1 0x0 DUP1 MLOAD PUSH1 0x20 PUSH2 0x2841 DUP4 CODECOPY DUP2 MLOAD SWAP2 MSTORE PUSH1 0x44 DUP3 ADD MSTORE PUSH4 0x1B5A5B9D PUSH1 0xE2 SHL PUSH1 0x64 DUP3 ADD MSTORE PUSH1 0x84 ADD PUSH2 0x54A JUMP JUMPDEST POP PUSH1 0x1 PUSH1 0x1 PUSH1 0xA0 SHL SUB DUP2 AND PUSH1 0x0 SWAP1 DUP2 MSTORE PUSH1 0x11 PUSH1 0x20 SWAP1 DUP2 MSTORE PUSH1 0x40 DUP1 DUP4 KECCAK256 DUP6 MLOAD DUP5 MSTORE SWAP1 SWAP2 MSTORE SWAP1 KECCAK256 SLOAD DUP1 ISZERO PUSH2 0xF02 JUMPI PUSH2 0xEFD DUP2 DUP5 PUSH1 0x20 ADD MLOAD DUP6 PUSH1 0x40 ADD MLOAD PUSH2 0x177B JUMP JUMPDEST PUSH2 0x44A JUMP JUMPDEST PUSH1 0xD SLOAD PUSH1 0x0 DUP2 DUP2 MSTORE PUSH1 0x10 PUSH1 0x20 SWAP1 DUP2 MSTORE PUSH1 0x40 DUP1 DUP4 KECCAK256 DUP8 MLOAD DUP2 SSTORE DUP8 DUP4 ADD MLOAD PUSH1 0x1 DUP3 ADD SSTORE DUP8 DUP3 ADD MLOAD PUSH1 0x2 DUP3 ADD SSTORE PUSH1 0x60 DUP9 ADD MLOAD PUSH1 0x3 SWAP1 SWAP2 ADD DUP1 SLOAD PUSH1 0xFF NOT AND PUSH1 0xFF SWAP1 SWAP3 AND SWAP2 SWAP1 SWAP2 OR SWAP1 SSTORE PUSH1 0x1 PUSH1 0x1 PUSH1 0xA0 SHL SUB DUP7 AND DUP4 MSTORE PUSH1 0x11 DUP3 MSTORE DUP1 DUP4 KECCAK256 DUP8 MLOAD DUP5 MSTORE SWAP1 SWAP2 MSTORE SWAP1 KECCAK256 DUP2 SWAP1 SSTORE SWAP1 POP PUSH2 0xF72 DUP3 DUP3 PUSH2 0x1833 JUMP JUMPDEST PUSH2 0x44A PUSH1 0xD DUP1 SLOAD PUSH1 0x1 ADD SWAP1 SSTORE JUMP JUMPDEST CALLER PUSH2 0xF89 PUSH2 0xA56 JUMP JUMPDEST PUSH1 0x1 PUSH1 0x1 PUSH1 0xA0 SHL SUB AND EQ PUSH2 0xFAF JUMPI PUSH1 0x40 MLOAD PUSH3 0x461BCD PUSH1 0xE5 SHL DUP2 MSTORE PUSH1 0x4 ADD PUSH2 0x54A SWAP1 PUSH2 0x25BE JUMP JUMPDEST PUSH1 0x1 PUSH1 0x1 PUSH1 0xA0 SHL SUB DUP2 AND PUSH2 0x1014 JUMPI PUSH1 0x40 MLOAD PUSH3 0x461BCD PUSH1 0xE5 SHL DUP2 MSTORE PUSH1 0x20 PUSH1 0x4 DUP3 ADD MSTORE PUSH1 0x26 PUSH1 0x24 DUP3 ADD MSTORE PUSH32 0x4F776E61626C653A206E6577206F776E657220697320746865207A65726F2061 PUSH1 0x44 DUP3 ADD MSTORE PUSH6 0x646472657373 PUSH1 0xD0 SHL PUSH1 0x64 DUP3 ADD MSTORE PUSH1 0x84 ADD PUSH2 0x54A JUMP JUMPDEST PUSH2 0x888 DUP2 PUSH2 0x14B1 JUMP JUMPDEST DUP1 SLOAD PUSH1 0x1 ADD SWAP1 SSTORE JUMP JUMPDEST PUSH2 0x1030 DUP3 DUP3 PUSH2 0xA84 JUMP JUMPDEST PUSH2 0x7F2 JUMPI PUSH1 0x0 DUP3 DUP2 MSTORE PUSH1 0x20 DUP2 DUP2 MSTORE PUSH1 0x40 DUP1 DUP4 KECCAK256 PUSH1 0x1 PUSH1 0x1 PUSH1 0xA0 SHL SUB DUP6 AND DUP5 MSTORE SWAP1 SWAP2 MSTORE SWAP1 KECCAK256 DUP1 SLOAD PUSH1 0xFF NOT AND PUSH1 0x1 OR SWAP1 SSTORE PUSH2 0x1066 CALLER SWAP1 JUMP JUMPDEST PUSH1 0x1 PUSH1 0x1 PUSH1 0xA0 SHL SUB AND DUP2 PUSH1 0x1 PUSH1 0x1 PUSH1 0xA0 SHL SUB AND DUP4 PUSH32 0x2F8788117E7EFF1D82E926EC794901D17C78024A50270940304540A733656F0D PUSH1 0x40 MLOAD PUSH1 0x40 MLOAD DUP1 SWAP2 SUB SWAP1 LOG4 POP POP JUMP JUMPDEST PUSH1 0x0 PUSH2 0xA7D DUP4 PUSH1 0x1 PUSH1 0x1 PUSH1 0xA0 SHL SUB DUP5 AND PUSH2 0x195F JUMP JUMPDEST PUSH1 0x0 PUSH1 0x1 PUSH1 0x1 PUSH1 0xE0 SHL SUB NOT DUP3 AND PUSH4 0x780E9D63 PUSH1 0xE0 SHL EQ DUP1 PUSH2 0x44A JUMPI POP PUSH2 0x44A DUP3 PUSH2 0x19AE JUMP JUMPDEST PUSH1 0x0 SWAP1 DUP2 MSTORE PUSH1 0x4 PUSH1 0x20 MSTORE PUSH1 0x40 SWAP1 KECCAK256 SLOAD PUSH1 0x1 PUSH1 0x1 PUSH1 0xA0 SHL SUB AND ISZERO ISZERO SWAP1 JUMP JUMPDEST PUSH1 0x0 DUP2 DUP2 MSTORE PUSH1 0x6 PUSH1 0x20 MSTORE PUSH1 0x40 SWAP1 KECCAK256 DUP1 SLOAD PUSH1 0x1 PUSH1 0x1 PUSH1 0xA0 SHL SUB NOT AND PUSH1 0x1 PUSH1 0x1 PUSH1 0xA0 SHL SUB DUP5 AND SWAP1 DUP2 OR SWAP1 SWAP2 SSTORE DUP2 SWAP1 PUSH2 0x1136 DUP3 PUSH2 0x91E JUMP JUMPDEST PUSH1 0x1 PUSH1 0x1 PUSH1 0xA0 SHL SUB AND PUSH32 0x8C5BE1E5EBEC7D5BD14F71427D1E84F3DD0314C0F7B2291E5B200AC8C7C3B925 PUSH1 0x40 MLOAD PUSH1 0x40 MLOAD DUP1 SWAP2 SUB SWAP1 LOG4 POP POP JUMP JUMPDEST PUSH1 0x0 PUSH2 0x117A DUP3 PUSH2 0x10E4 JUMP JUMPDEST PUSH2 0x11DB JUMPI PUSH1 0x40 MLOAD PUSH3 0x461BCD PUSH1 0xE5 SHL DUP2 MSTORE PUSH1 0x20 PUSH1 0x4 DUP3 ADD MSTORE PUSH1 0x2C PUSH1 0x24 DUP3 ADD MSTORE PUSH32 0x4552433732313A206F70657261746F7220717565727920666F72206E6F6E6578 PUSH1 0x44 DUP3 ADD MSTORE PUSH12 0x34B9BA32B73A103A37B5B2B7 PUSH1 0xA1 SHL PUSH1 0x64 DUP3 ADD MSTORE PUSH1 0x84 ADD PUSH2 0x54A JUMP JUMPDEST PUSH1 0x0 PUSH2 0x11E6 DUP4 PUSH2 0x91E JUMP JUMPDEST SWAP1 POP DUP1 PUSH1 0x1 PUSH1 0x1 PUSH1 0xA0 SHL SUB AND DUP5 PUSH1 0x1 PUSH1 0x1 PUSH1 0xA0 SHL SUB AND EQ DUP1 PUSH2 0x120D JUMPI POP PUSH2 0x120D DUP2 DUP6 PUSH2 0xE30 JUMP JUMPDEST DUP1 PUSH2 0x1231 JUMPI POP DUP4 PUSH1 0x1 PUSH1 0x1 PUSH1 0xA0 SHL SUB AND PUSH2 0x1226 DUP5 PUSH2 0x4E2 JUMP JUMPDEST PUSH1 0x1 PUSH1 0x1 PUSH1 0xA0 SHL SUB AND EQ JUMPDEST SWAP5 SWAP4 POP POP POP POP JUMP JUMPDEST DUP3 PUSH1 0x1 PUSH1 0x1 PUSH1 0xA0 SHL SUB AND PUSH2 0x124C DUP3 PUSH2 0x91E JUMP JUMPDEST PUSH1 0x1 PUSH1 0x1 PUSH1 0xA0 SHL SUB AND EQ PUSH2 0x12B0 JUMPI PUSH1 0x40 MLOAD PUSH3 0x461BCD PUSH1 0xE5 SHL DUP2 MSTORE PUSH1 0x20 PUSH1 0x4 DUP3 ADD MSTORE PUSH1 0x25 PUSH1 0x24 DUP3 ADD MSTORE PUSH32 0x4552433732313A207472616E736665722066726F6D20696E636F727265637420 PUSH1 0x44 DUP3 ADD MSTORE PUSH5 0x37BBB732B9 PUSH1 0xD9 SHL PUSH1 0x64 DUP3 ADD MSTORE PUSH1 0x84 ADD PUSH2 0x54A JUMP JUMPDEST PUSH1 0x1 PUSH1 0x1 PUSH1 0xA0 SHL SUB DUP3 AND PUSH2 0x1312 JUMPI PUSH1 0x40 MLOAD PUSH3 0x461BCD PUSH1 0xE5 SHL DUP2 MSTORE PUSH1 0x20 PUSH1 0x4 DUP3 ADD MSTORE PUSH1 0x24 DUP1 DUP3 ADD MSTORE PUSH32 0x4552433732313A207472616E7366657220746F20746865207A65726F20616464 PUSH1 0x44 DUP3 ADD MSTORE PUSH4 0x72657373 PUSH1 0xE0 SHL PUSH1 0x64 DUP3 ADD MSTORE PUSH1 0x84 ADD PUSH2 0x54A JUMP JUMPDEST PUSH2 0x131D DUP4 DUP4 DUP4 PUSH2 0x19EE JUMP JUMPDEST PUSH2 0x1328 PUSH1 0x0 DUP3 PUSH2 0x1101 JUMP JUMPDEST PUSH1 0x1 PUSH1 0x1 PUSH1 0xA0 SHL SUB DUP4 AND PUSH1 0x0 SWAP1 DUP2 MSTORE PUSH1 0x5 PUSH1 0x20 MSTORE PUSH1 0x40 DUP2 KECCAK256 DUP1 SLOAD PUSH1 0x1 SWAP3 SWAP1 PUSH2 0x1351 SWAP1 DUP5 SWAP1 PUSH2 0x2653 JUMP JUMPDEST SWAP1 SWAP2 SSTORE POP POP PUSH1 0x1 PUSH1 0x1 PUSH1 0xA0 SHL SUB DUP3 AND PUSH1 0x0 SWAP1 DUP2 MSTORE PUSH1 0x5 PUSH1 0x20 MSTORE PUSH1 0x40 DUP2 KECCAK256 DUP1 SLOAD PUSH1 0x1 SWAP3 SWAP1 PUSH2 0x137F SWAP1 DUP5 SWAP1 PUSH2 0x266A JUMP JUMPDEST SWAP1 SWAP2 SSTORE POP POP PUSH1 0x0 DUP2 DUP2 MSTORE PUSH1 0x4 PUSH1 0x20 MSTORE PUSH1 0x40 DUP1 DUP3 KECCAK256 DUP1 SLOAD PUSH1 0x1 PUSH1 0x1 PUSH1 0xA0 SHL SUB NOT AND PUSH1 0x1 PUSH1 0x1 PUSH1 0xA0 SHL SUB DUP7 DUP2 AND SWAP2 DUP3 OR SWAP1 SWAP3 SSTORE SWAP2 MLOAD DUP5 SWAP4 SWAP2 DUP8 AND SWAP2 PUSH1 0x0 DUP1 MLOAD PUSH1 0x20 PUSH2 0x28A1 DUP4 CODECOPY DUP2 MLOAD SWAP2 MSTORE SWAP2 LOG4 POP POP POP JUMP JUMPDEST PUSH2 0x888 DUP2 CALLER PUSH2 0x19F9 JUMP JUMPDEST PUSH2 0x13E2 DUP3 DUP3 PUSH2 0x1026 JUMP JUMPDEST PUSH1 0x0 DUP3 DUP2 MSTORE PUSH1 0x1 PUSH1 0x20 MSTORE PUSH1 0x40 SWAP1 KECCAK256 PUSH2 0x67A SWAP1 DUP3 PUSH2 0x10AA JUMP JUMPDEST PUSH2 0x1404 DUP3 DUP3 PUSH2 0x1A5D JUMP JUMPDEST PUSH1 0x0 DUP3 DUP2 MSTORE PUSH1 0x1 PUSH1 0x20 MSTORE PUSH1 0x40 SWAP1 KECCAK256 PUSH2 0x67A SWAP1 DUP3 PUSH2 0x1AC2 JUMP JUMPDEST PUSH1 0x0 PUSH2 0x1427 DUP3 PUSH2 0x91E JUMP JUMPDEST SWAP1 POP PUSH2 0x1435 DUP2 PUSH1 0x0 DUP5 PUSH2 0x19EE JUMP JUMPDEST PUSH2 0x1440 PUSH1 0x0 DUP4 PUSH2 0x1101 JUMP JUMPDEST PUSH1 0x1 PUSH1 0x1 PUSH1 0xA0 SHL SUB DUP2 AND PUSH1 0x0 SWAP1 DUP2 MSTORE PUSH1 0x5 PUSH1 0x20 MSTORE PUSH1 0x40 DUP2 KECCAK256 DUP1 SLOAD PUSH1 0x1 SWAP3 SWAP1 PUSH2 0x1469 SWAP1 DUP5 SWAP1 PUSH2 0x2653 JUMP JUMPDEST SWAP1 SWAP2 SSTORE POP POP PUSH1 0x0 DUP3 DUP2 MSTORE PUSH1 0x4 PUSH1 0x20 MSTORE PUSH1 0x40 DUP1 DUP3 KECCAK256 DUP1 SLOAD PUSH1 0x1 PUSH1 0x1 PUSH1 0xA0 SHL SUB NOT AND SWAP1 SSTORE MLOAD DUP4 SWAP2 SWAP1 PUSH1 0x1 PUSH1 0x1 PUSH1 0xA0 SHL SUB DUP5 AND SWAP1 PUSH1 0x0 DUP1 MLOAD PUSH1 0x20 PUSH2 0x28A1 DUP4 CODECOPY DUP2 MLOAD SWAP2 MSTORE SWAP1 DUP4 SWAP1 LOG4 POP POP JUMP JUMPDEST PUSH1 0xC DUP1 SLOAD PUSH1 0x1 PUSH1 0x1 PUSH1 0xA0 SHL SUB DUP4 DUP2 AND PUSH1 0x1 PUSH1 0x1 PUSH1 0xA0 SHL SUB NOT DUP4 AND DUP2 OR SWAP1 SWAP4 SSTORE PUSH1 0x40 MLOAD SWAP2 AND SWAP2 SWAP1 DUP3 SWAP1 PUSH32 0x8BE0079C531659141344CD1FD0A4F28419497F9722A3DAAFE3B4186F6B6457E0 SWAP1 PUSH1 0x0 SWAP1 LOG3 POP POP JUMP JUMPDEST PUSH1 0x0 PUSH2 0xA7D DUP4 DUP4 PUSH2 0x1AD7 JUMP JUMPDEST DUP2 PUSH1 0x1 PUSH1 0x1 PUSH1 0xA0 SHL SUB AND DUP4 PUSH1 0x1 PUSH1 0x1 PUSH1 0xA0 SHL SUB AND SUB PUSH2 0x156C JUMPI PUSH1 0x40 MLOAD PUSH3 0x461BCD PUSH1 0xE5 SHL DUP2 MSTORE PUSH1 0x20 PUSH1 0x4 DUP3 ADD MSTORE PUSH1 0x19 PUSH1 0x24 DUP3 ADD MSTORE PUSH25 0x22A9219B99189D1030B8383937BB32903A379031B0B63632B9 PUSH1 0x39 SHL PUSH1 0x44 DUP3 ADD MSTORE PUSH1 0x64 ADD PUSH2 0x54A JUMP JUMPDEST PUSH1 0x1 PUSH1 0x1 PUSH1 0xA0 SHL SUB DUP4 DUP2 AND PUSH1 0x0 DUP2 DUP2 MSTORE PUSH1 0x7 PUSH1 0x20 SWAP1 DUP2 MSTORE PUSH1 0x40 DUP1 DUP4 KECCAK256 SWAP5 DUP8 AND DUP1 DUP5 MSTORE SWAP5 DUP3 MSTORE SWAP2 DUP3 SWAP1 KECCAK256 DUP1 SLOAD PUSH1 0xFF NOT AND DUP7 ISZERO ISZERO SWAP1 DUP2 OR SWAP1 SWAP2 SSTORE SWAP2 MLOAD SWAP2 DUP3 MSTORE PUSH32 0x17307EAB39AB6107E8899845AD3D59BD9653F200F220920489CA2B5937696C31 SWAP2 ADD PUSH1 0x40 MLOAD DUP1 SWAP2 SUB SWAP1 LOG3 POP POP POP JUMP JUMPDEST PUSH1 0x0 DUP3 PUSH2 0x15E6 DUP4 DUP3 PUSH2 0x2653 JUMP JUMPDEST SWAP2 POP DUP2 GT ISZERO PUSH2 0x44A JUMPI PUSH1 0x40 MLOAD PUSH3 0x461BCD PUSH1 0xE5 SHL DUP2 MSTORE PUSH1 0x20 PUSH1 0x4 DUP3 ADD MSTORE PUSH1 0x15 PUSH1 0x24 DUP3 ADD MSTORE PUSH21 0x64732D6D6174682D7375622D756E646572666C6F77 PUSH1 0x58 SHL PUSH1 0x44 DUP3 ADD MSTORE PUSH1 0x64 ADD PUSH2 0x54A JUMP JUMPDEST PUSH2 0x163A DUP5 DUP5 DUP5 PUSH2 0x1239 JUMP JUMPDEST PUSH2 0x1646 DUP5 DUP5 DUP5 DUP5 PUSH2 0x1B01 JUMP JUMPDEST PUSH2 0xD2D JUMPI PUSH1 0x40 MLOAD PUSH3 0x461BCD PUSH1 0xE5 SHL DUP2 MSTORE PUSH1 0x4 ADD PUSH2 0x54A SWAP1 PUSH2 0x2682 JUMP JUMPDEST PUSH1 0x60 PUSH1 0xE DUP1 SLOAD PUSH2 0x45F SWAP1 PUSH2 0x251D JUMP JUMPDEST PUSH1 0x60 DUP2 PUSH1 0x0 SUB PUSH2 0x1698 JUMPI POP POP PUSH1 0x40 DUP1 MLOAD DUP1 DUP3 ADD SWAP1 SWAP2 MSTORE PUSH1 0x1 DUP2 MSTORE PUSH1 0x3 PUSH1 0xFC SHL PUSH1 0x20 DUP3 ADD MSTORE SWAP1 JUMP JUMPDEST DUP2 PUSH1 0x0 JUMPDEST DUP2 ISZERO PUSH2 0x16C2 JUMPI DUP1 PUSH2 0x16AC DUP2 PUSH2 0x26D4 JUMP JUMPDEST SWAP2 POP PUSH2 0x16BB SWAP1 POP PUSH1 0xA DUP4 PUSH2 0x2703 JUMP JUMPDEST SWAP2 POP PUSH2 0x169C JUMP JUMPDEST PUSH1 0x0 DUP2 PUSH1 0x1 PUSH1 0x1 PUSH1 0x40 SHL SUB DUP2 GT ISZERO PUSH2 0x16DC JUMPI PUSH2 0x16DC PUSH2 0x2365 JUMP JUMPDEST PUSH1 0x40 MLOAD SWAP1 DUP1 DUP3 MSTORE DUP1 PUSH1 0x1F ADD PUSH1 0x1F NOT AND PUSH1 0x20 ADD DUP3 ADD PUSH1 0x40 MSTORE DUP1 ISZERO PUSH2 0x1706 JUMPI PUSH1 0x20 DUP3 ADD DUP2 DUP1 CALLDATASIZE DUP4 CALLDATACOPY ADD SWAP1 POP JUMPDEST POP SWAP1 POP JUMPDEST DUP5 ISZERO PUSH2 0x1231 JUMPI PUSH2 0x171B PUSH1 0x1 DUP4 PUSH2 0x2653 JUMP JUMPDEST SWAP2 POP PUSH2 0x1728 PUSH1 0xA DUP7 PUSH2 0x2717 JUMP JUMPDEST PUSH2 0x1733 SWAP1 PUSH1 0x30 PUSH2 0x266A JUMP JUMPDEST PUSH1 0xF8 SHL DUP2 DUP4 DUP2 MLOAD DUP2 LT PUSH2 0x1748 JUMPI PUSH2 0x1748 PUSH2 0x25A8 JUMP JUMPDEST PUSH1 0x20 ADD ADD SWAP1 PUSH1 0x1 PUSH1 0x1 PUSH1 0xF8 SHL SUB NOT AND SWAP1 DUP2 PUSH1 0x0 BYTE SWAP1 MSTORE8 POP PUSH2 0x176A PUSH1 0xA DUP7 PUSH2 0x2703 JUMP JUMPDEST SWAP5 POP PUSH2 0x170A JUMP JUMPDEST PUSH1 0x0 PUSH2 0x44A DUP3 SLOAD SWAP1 JUMP JUMPDEST PUSH1 0x0 DUP4 DUP2 MSTORE PUSH1 0x10 PUSH1 0x20 SWAP1 DUP2 MSTORE PUSH1 0x40 DUP1 DUP4 KECCAK256 DUP2 MLOAD PUSH1 0x80 DUP2 ADD DUP4 MSTORE DUP2 SLOAD DUP2 MSTORE PUSH1 0x1 DUP3 ADD SLOAD SWAP4 DUP2 ADD DUP5 SWAP1 MSTORE PUSH1 0x2 DUP3 ADD SLOAD SWAP3 DUP2 ADD SWAP3 SWAP1 SWAP3 MSTORE PUSH1 0x3 ADD SLOAD PUSH1 0xFF AND PUSH1 0x60 DUP3 ADD MSTORE SWAP2 SWAP1 DUP2 SWAP1 PUSH2 0x17C9 SWAP1 DUP7 PUSH2 0x1C02 JUMP JUMPDEST PUSH1 0x40 DUP5 ADD MLOAD PUSH2 0x17D8 SWAP1 DUP7 PUSH2 0x1C02 JUMP JUMPDEST SWAP2 POP SWAP2 POP DUP6 PUSH1 0x0 DUP1 MLOAD PUSH1 0x20 PUSH2 0x2861 DUP4 CODECOPY DUP2 MLOAD SWAP2 MSTORE DUP5 PUSH1 0x20 ADD MLOAD DUP6 PUSH1 0x40 ADD MLOAD DUP6 DUP6 PUSH1 0x40 MLOAD PUSH2 0x1808 SWAP5 SWAP4 SWAP3 SWAP2 SWAP1 PUSH2 0x25F3 JUMP JUMPDEST PUSH1 0x40 MLOAD DUP1 SWAP2 SUB SWAP1 LOG2 PUSH1 0x0 SWAP6 DUP7 MSTORE PUSH1 0x10 PUSH1 0x20 MSTORE PUSH1 0x40 SWAP1 SWAP6 KECCAK256 PUSH1 0x1 DUP2 ADD SWAP2 SWAP1 SWAP2 SSTORE PUSH1 0x2 ADD SWAP4 SWAP1 SWAP4 SSTORE POP POP POP JUMP JUMPDEST PUSH1 0x1 PUSH1 0x1 PUSH1 0xA0 SHL SUB DUP3 AND PUSH2 0x1889 JUMPI PUSH1 0x40 MLOAD PUSH3 0x461BCD PUSH1 0xE5 SHL DUP2 MSTORE PUSH1 0x20 PUSH1 0x4 DUP3 ADD DUP2 SWAP1 MSTORE PUSH1 0x24 DUP3 ADD MSTORE PUSH32 0x4552433732313A206D696E7420746F20746865207A65726F2061646472657373 PUSH1 0x44 DUP3 ADD MSTORE PUSH1 0x64 ADD PUSH2 0x54A JUMP JUMPDEST PUSH2 0x1892 DUP2 PUSH2 0x10E4 JUMP JUMPDEST ISZERO PUSH2 0x18DE JUMPI PUSH1 0x40 MLOAD PUSH3 0x461BCD PUSH1 0xE5 SHL DUP2 MSTORE PUSH1 0x20 PUSH1 0x4 DUP3 ADD MSTORE PUSH1 0x1C PUSH1 0x24 DUP3 ADD MSTORE PUSH28 0x115490CDCC8C4E881D1BDAD95B88185B1C9958591E481B5A5B9D1959 PUSH1 0x22 SHL PUSH1 0x44 DUP3 ADD MSTORE PUSH1 0x64 ADD PUSH2 0x54A JUMP JUMPDEST PUSH2 0x18EA PUSH1 0x0 DUP4 DUP4 PUSH2 0x19EE JUMP JUMPDEST PUSH1 0x1 PUSH1 0x1 PUSH1 0xA0 SHL SUB DUP3 AND PUSH1 0x0 SWAP1 DUP2 MSTORE PUSH1 0x5 PUSH1 0x20 MSTORE PUSH1 0x40 DUP2 KECCAK256 DUP1 SLOAD PUSH1 0x1 SWAP3 SWAP1 PUSH2 0x1913 SWAP1 DUP5 SWAP1 PUSH2 0x266A JUMP JUMPDEST SWAP1 SWAP2 SSTORE POP POP PUSH1 0x0 DUP2 DUP2 MSTORE PUSH1 0x4 PUSH1 0x20 MSTORE PUSH1 0x40 DUP1 DUP3 KECCAK256 DUP1 SLOAD PUSH1 0x1 PUSH1 0x1 PUSH1 0xA0 SHL SUB NOT AND PUSH1 0x1 PUSH1 0x1 PUSH1 0xA0 SHL SUB DUP7 AND SWAP1 DUP2 OR SWAP1 SWAP2 SSTORE SWAP1 MLOAD DUP4 SWAP3 SWAP1 PUSH1 0x0 DUP1 MLOAD PUSH1 0x20 PUSH2 0x28A1 DUP4 CODECOPY DUP2 MLOAD SWAP2 MSTORE SWAP1 DUP3 SWAP1 LOG4 POP POP JUMP JUMPDEST PUSH1 0x0 DUP2 DUP2 MSTORE PUSH1 0x1 DUP4 ADD PUSH1 0x20 MSTORE PUSH1 0x40 DUP2 KECCAK256 SLOAD PUSH2 0x19A6 JUMPI POP DUP2 SLOAD PUSH1 0x1 DUP2 DUP2 ADD DUP5 SSTORE PUSH1 0x0 DUP5 DUP2 MSTORE PUSH1 0x20 DUP1 DUP3 KECCAK256 SWAP1 SWAP4 ADD DUP5 SWAP1 SSTORE DUP5 SLOAD DUP5 DUP3 MSTORE DUP3 DUP7 ADD SWAP1 SWAP4 MSTORE PUSH1 0x40 SWAP1 KECCAK256 SWAP2 SWAP1 SWAP2 SSTORE PUSH2 0x44A JUMP JUMPDEST POP PUSH1 0x0 PUSH2 0x44A JUMP JUMPDEST PUSH1 0x0 PUSH1 0x1 PUSH1 0x1 PUSH1 0xE0 SHL SUB NOT DUP3 AND PUSH4 0x80AC58CD PUSH1 0xE0 SHL EQ DUP1 PUSH2 0x19DF JUMPI POP PUSH1 0x1 PUSH1 0x1 PUSH1 0xE0 SHL SUB NOT DUP3 AND PUSH4 0x5B5E139F PUSH1 0xE0 SHL EQ JUMPDEST DUP1 PUSH2 0x44A JUMPI POP PUSH2 0x44A DUP3 PUSH2 0x1C57 JUMP JUMPDEST PUSH2 0x67A DUP4 DUP4 DUP4 PUSH2 0x1C7C JUMP JUMPDEST PUSH2 0x1A03 DUP3 DUP3 PUSH2 0xA84 JUMP JUMPDEST PUSH2 0x7F2 JUMPI PUSH2 0x1A1B DUP2 PUSH1 0x1 PUSH1 0x1 PUSH1 0xA0 SHL SUB AND PUSH1 0x14 PUSH2 0x1D34 JUMP JUMPDEST PUSH2 0x1A26 DUP4 PUSH1 0x20 PUSH2 0x1D34 JUMP JUMPDEST PUSH1 0x40 MLOAD PUSH1 0x20 ADD PUSH2 0x1A37 SWAP3 SWAP2 SWAP1 PUSH2 0x272B JUMP JUMPDEST PUSH1 0x40 DUP1 MLOAD PUSH1 0x1F NOT DUP2 DUP5 SUB ADD DUP2 MSTORE SWAP1 DUP3 SWAP1 MSTORE PUSH3 0x461BCD PUSH1 0xE5 SHL DUP3 MSTORE PUSH2 0x54A SWAP2 PUSH1 0x4 ADD PUSH2 0x2212 JUMP JUMPDEST PUSH2 0x1A67 DUP3 DUP3 PUSH2 0xA84 JUMP JUMPDEST ISZERO PUSH2 0x7F2 JUMPI PUSH1 0x0 DUP3 DUP2 MSTORE PUSH1 0x20 DUP2 DUP2 MSTORE PUSH1 0x40 DUP1 DUP4 KECCAK256 PUSH1 0x1 PUSH1 0x1 PUSH1 0xA0 SHL SUB DUP6 AND DUP1 DUP6 MSTORE SWAP3 MSTORE DUP1 DUP4 KECCAK256 DUP1 SLOAD PUSH1 0xFF NOT AND SWAP1 SSTORE MLOAD CALLER SWAP3 DUP6 SWAP2 PUSH32 0xF6391F5C32D9C69D2A47EA670B442974B53935D1EDC7FD64EB21E047A839171B SWAP2 SWAP1 LOG4 POP POP JUMP JUMPDEST PUSH1 0x0 PUSH2 0xA7D DUP4 PUSH1 0x1 PUSH1 0x1 PUSH1 0xA0 SHL SUB DUP5 AND PUSH2 0x1ECF JUMP JUMPDEST PUSH1 0x0 DUP3 PUSH1 0x0 ADD DUP3 DUP2 SLOAD DUP2 LT PUSH2 0x1AEE JUMPI PUSH2 0x1AEE PUSH2 0x25A8 JUMP JUMPDEST SWAP1 PUSH1 0x0 MSTORE PUSH1 0x20 PUSH1 0x0 KECCAK256 ADD SLOAD SWAP1 POP SWAP3 SWAP2 POP POP JUMP JUMPDEST PUSH1 0x0 PUSH1 0x1 PUSH1 0x1 PUSH1 0xA0 SHL SUB DUP5 AND EXTCODESIZE ISZERO PUSH2 0x1BF7 JUMPI PUSH1 0x40 MLOAD PUSH4 0xA85BD01 PUSH1 0xE1 SHL DUP2 MSTORE PUSH1 0x1 PUSH1 0x1 PUSH1 0xA0 SHL SUB DUP6 AND SWAP1 PUSH4 0x150B7A02 SWAP1 PUSH2 0x1B45 SWAP1 CALLER SWAP1 DUP10 SWAP1 DUP9 SWAP1 DUP9 SWAP1 PUSH1 0x4 ADD PUSH2 0x279A JUMP JUMPDEST PUSH1 0x20 PUSH1 0x40 MLOAD DUP1 DUP4 SUB DUP2 PUSH1 0x0 DUP8 GAS CALL SWAP3 POP POP POP DUP1 ISZERO PUSH2 0x1B80 JUMPI POP PUSH1 0x40 DUP1 MLOAD PUSH1 0x1F RETURNDATASIZE SWAP1 DUP2 ADD PUSH1 0x1F NOT AND DUP3 ADD SWAP1 SWAP3 MSTORE PUSH2 0x1B7D SWAP2 DUP2 ADD SWAP1 PUSH2 0x27D7 JUMP JUMPDEST PUSH1 0x1 JUMPDEST PUSH2 0x1BDD JUMPI RETURNDATASIZE DUP1 DUP1 ISZERO PUSH2 0x1BAE JUMPI PUSH1 0x40 MLOAD SWAP2 POP PUSH1 0x1F NOT PUSH1 0x3F RETURNDATASIZE ADD AND DUP3 ADD PUSH1 0x40 MSTORE RETURNDATASIZE DUP3 MSTORE RETURNDATASIZE PUSH1 0x0 PUSH1 0x20 DUP5 ADD RETURNDATACOPY PUSH2 0x1BB3 JUMP JUMPDEST PUSH1 0x60 SWAP2 POP JUMPDEST POP DUP1 MLOAD PUSH1 0x0 SUB PUSH2 0x1BD5 JUMPI PUSH1 0x40 MLOAD PUSH3 0x461BCD PUSH1 0xE5 SHL DUP2 MSTORE PUSH1 0x4 ADD PUSH2 0x54A SWAP1 PUSH2 0x2682 JUMP JUMPDEST DUP1 MLOAD DUP2 PUSH1 0x20 ADD REVERT JUMPDEST PUSH1 0x1 PUSH1 0x1 PUSH1 0xE0 SHL SUB NOT AND PUSH4 0xA85BD01 PUSH1 0xE1 SHL EQ SWAP1 POP PUSH2 0x1231 JUMP JUMPDEST POP PUSH1 0x1 SWAP5 SWAP4 POP POP POP POP JUMP JUMPDEST PUSH1 0x0 DUP3 PUSH2 0x1C0F DUP4 DUP3 PUSH2 0x266A JUMP JUMPDEST SWAP2 POP DUP2 LT ISZERO PUSH2 0x44A JUMPI PUSH1 0x40 MLOAD PUSH3 0x461BCD PUSH1 0xE5 SHL DUP2 MSTORE PUSH1 0x20 PUSH1 0x4 DUP3 ADD MSTORE PUSH1 0x14 PUSH1 0x24 DUP3 ADD MSTORE PUSH20 0x64732D6D6174682D6164642D6F766572666C6F77 PUSH1 0x60 SHL PUSH1 0x44 DUP3 ADD MSTORE PUSH1 0x64 ADD PUSH2 0x54A JUMP JUMPDEST PUSH1 0x0 PUSH1 0x1 PUSH1 0x1 PUSH1 0xE0 SHL SUB NOT DUP3 AND PUSH4 0x5A05180F PUSH1 0xE0 SHL EQ DUP1 PUSH2 0x44A JUMPI POP PUSH2 0x44A DUP3 PUSH2 0x1FC2 JUMP JUMPDEST PUSH1 0x1 PUSH1 0x1 PUSH1 0xA0 SHL SUB DUP4 AND PUSH2 0x1CD7 JUMPI PUSH2 0x1CD2 DUP2 PUSH1 0xA DUP1 SLOAD PUSH1 0x0 DUP4 DUP2 MSTORE PUSH1 0xB PUSH1 0x20 MSTORE PUSH1 0x40 DUP2 KECCAK256 DUP3 SWAP1 SSTORE PUSH1 0x1 DUP3 ADD DUP4 SSTORE SWAP2 SWAP1 SWAP2 MSTORE PUSH32 0xC65A7BB8D6351C1CF70C95A316CC6A92839C986682D98BC35F958F4883F9D2A8 ADD SSTORE JUMP JUMPDEST PUSH2 0x1CFA JUMP JUMPDEST DUP2 PUSH1 0x1 PUSH1 0x1 PUSH1 0xA0 SHL SUB AND DUP4 PUSH1 0x1 PUSH1 0x1 PUSH1 0xA0 SHL SUB AND EQ PUSH2 0x1CFA JUMPI PUSH2 0x1CFA DUP4 DUP3 PUSH2 0x1FF7 JUMP JUMPDEST PUSH1 0x1 PUSH1 0x1 PUSH1 0xA0 SHL SUB DUP3 AND PUSH2 0x1D11 JUMPI PUSH2 0x67A DUP2 PUSH2 0x2094 JUMP JUMPDEST DUP3 PUSH1 0x1 PUSH1 0x1 PUSH1 0xA0 SHL SUB AND DUP3 PUSH1 0x1 PUSH1 0x1 PUSH1 0xA0 SHL SUB AND EQ PUSH2 0x67A JUMPI PUSH2 0x67A DUP3 DUP3 PUSH2 0x2143 JUMP JUMPDEST PUSH1 0x60 PUSH1 0x0 PUSH2 0x1D43 DUP4 PUSH1 0x2 PUSH2 0x27F4 JUMP JUMPDEST PUSH2 0x1D4E SWAP1 PUSH1 0x2 PUSH2 0x266A JUMP JUMPDEST PUSH1 0x1 PUSH1 0x1 PUSH1 0x40 SHL SUB DUP2 GT ISZERO PUSH2 0x1D65 JUMPI PUSH2 0x1D65 PUSH2 0x2365 JUMP JUMPDEST PUSH1 0x40 MLOAD SWAP1 DUP1 DUP3 MSTORE DUP1 PUSH1 0x1F ADD PUSH1 0x1F NOT AND PUSH1 0x20 ADD DUP3 ADD PUSH1 0x40 MSTORE DUP1 ISZERO PUSH2 0x1D8F JUMPI PUSH1 0x20 DUP3 ADD DUP2 DUP1 CALLDATASIZE DUP4 CALLDATACOPY ADD SWAP1 POP JUMPDEST POP SWAP1 POP PUSH1 0x3 PUSH1 0xFC SHL DUP2 PUSH1 0x0 DUP2 MLOAD DUP2 LT PUSH2 0x1DAA JUMPI PUSH2 0x1DAA PUSH2 0x25A8 JUMP JUMPDEST PUSH1 0x20 ADD ADD SWAP1 PUSH1 0x1 PUSH1 0x1 PUSH1 0xF8 SHL SUB NOT AND SWAP1 DUP2 PUSH1 0x0 BYTE SWAP1 MSTORE8 POP PUSH1 0xF PUSH1 0xFB SHL DUP2 PUSH1 0x1 DUP2 MLOAD DUP2 LT PUSH2 0x1DD9 JUMPI PUSH2 0x1DD9 PUSH2 0x25A8 JUMP JUMPDEST PUSH1 0x20 ADD ADD SWAP1 PUSH1 0x1 PUSH1 0x1 PUSH1 0xF8 SHL SUB NOT AND SWAP1 DUP2 PUSH1 0x0 BYTE SWAP1 MSTORE8 POP PUSH1 0x0 PUSH2 0x1DFD DUP5 PUSH1 0x2 PUSH2 0x27F4 JUMP JUMPDEST PUSH2 0x1E08 SWAP1 PUSH1 0x1 PUSH2 0x266A JUMP JUMPDEST SWAP1 POP JUMPDEST PUSH1 0x1 DUP2 GT ISZERO PUSH2 0x1E80 JUMPI PUSH16 0x181899199A1A9B1B9C1CB0B131B232B3 PUSH1 0x81 SHL DUP6 PUSH1 0xF AND PUSH1 0x10 DUP2 LT PUSH2 0x1E3C JUMPI PUSH2 0x1E3C PUSH2 0x25A8 JUMP JUMPDEST BYTE PUSH1 0xF8 SHL DUP3 DUP3 DUP2 MLOAD DUP2 LT PUSH2 0x1E52 JUMPI PUSH2 0x1E52 PUSH2 0x25A8 JUMP JUMPDEST PUSH1 0x20 ADD ADD SWAP1 PUSH1 0x1 PUSH1 0x1 PUSH1 0xF8 SHL SUB NOT AND SWAP1 DUP2 PUSH1 0x0 BYTE SWAP1 MSTORE8 POP PUSH1 0x4 SWAP5 SWAP1 SWAP5 SHR SWAP4 PUSH2 0x1E79 DUP2 PUSH2 0x2813 JUMP JUMPDEST SWAP1 POP PUSH2 0x1E0B JUMP JUMPDEST POP DUP4 ISZERO PUSH2 0xA7D JUMPI PUSH1 0x40 MLOAD PUSH3 0x461BCD PUSH1 0xE5 SHL DUP2 MSTORE PUSH1 0x20 PUSH1 0x4 DUP3 ADD DUP2 SWAP1 MSTORE PUSH1 0x24 DUP3 ADD MSTORE PUSH32 0x537472696E67733A20686578206C656E67746820696E73756666696369656E74 PUSH1 0x44 DUP3 ADD MSTORE PUSH1 0x64 ADD PUSH2 0x54A JUMP JUMPDEST PUSH1 0x0 DUP2 DUP2 MSTORE PUSH1 0x1 DUP4 ADD PUSH1 0x20 MSTORE PUSH1 0x40 DUP2 KECCAK256 SLOAD DUP1 ISZERO PUSH2 0x1FB8 JUMPI PUSH1 0x0 PUSH2 0x1EF3 PUSH1 0x1 DUP4 PUSH2 0x2653 JUMP JUMPDEST DUP6 SLOAD SWAP1 SWAP2 POP PUSH1 0x0 SWAP1 PUSH2 0x1F07 SWAP1 PUSH1 0x1 SWAP1 PUSH2 0x2653 JUMP JUMPDEST SWAP1 POP DUP2 DUP2 EQ PUSH2 0x1F6C JUMPI PUSH1 0x0 DUP7 PUSH1 0x0 ADD DUP3 DUP2 SLOAD DUP2 LT PUSH2 0x1F27 JUMPI PUSH2 0x1F27 PUSH2 0x25A8 JUMP JUMPDEST SWAP1 PUSH1 0x0 MSTORE PUSH1 0x20 PUSH1 0x0 KECCAK256 ADD SLOAD SWAP1 POP DUP1 DUP8 PUSH1 0x0 ADD DUP5 DUP2 SLOAD DUP2 LT PUSH2 0x1F4A JUMPI PUSH2 0x1F4A PUSH2 0x25A8 JUMP JUMPDEST PUSH1 0x0 SWAP2 DUP3 MSTORE PUSH1 0x20 DUP1 DUP4 KECCAK256 SWAP1 SWAP2 ADD SWAP3 SWAP1 SWAP3 SSTORE SWAP2 DUP3 MSTORE PUSH1 0x1 DUP9 ADD SWAP1 MSTORE PUSH1 0x40 SWAP1 KECCAK256 DUP4 SWAP1 SSTORE JUMPDEST DUP6 SLOAD DUP7 SWAP1 DUP1 PUSH2 0x1F7D JUMPI PUSH2 0x1F7D PUSH2 0x282A JUMP JUMPDEST PUSH1 0x1 SWAP1 SUB DUP2 DUP2 SWAP1 PUSH1 0x0 MSTORE PUSH1 0x20 PUSH1 0x0 KECCAK256 ADD PUSH1 0x0 SWAP1 SSTORE SWAP1 SSTORE DUP6 PUSH1 0x1 ADD PUSH1 0x0 DUP7 DUP2 MSTORE PUSH1 0x20 ADD SWAP1 DUP2 MSTORE PUSH1 0x20 ADD PUSH1 0x0 KECCAK256 PUSH1 0x0 SWAP1 SSTORE PUSH1 0x1 SWAP4 POP POP POP POP PUSH2 0x44A JUMP JUMPDEST PUSH1 0x0 SWAP2 POP POP PUSH2 0x44A JUMP JUMPDEST PUSH1 0x0 PUSH1 0x1 PUSH1 0x1 PUSH1 0xE0 SHL SUB NOT DUP3 AND PUSH4 0x7965DB0B PUSH1 0xE0 SHL EQ DUP1 PUSH2 0x44A JUMPI POP PUSH4 0x1FFC9A7 PUSH1 0xE0 SHL PUSH1 0x1 PUSH1 0x1 PUSH1 0xE0 SHL SUB NOT DUP4 AND EQ PUSH2 0x44A JUMP JUMPDEST PUSH1 0x0 PUSH1 0x1 PUSH2 0x2004 DUP5 PUSH2 0x995 JUMP JUMPDEST PUSH2 0x200E SWAP2 SWAP1 PUSH2 0x2653 JUMP JUMPDEST PUSH1 0x0 DUP4 DUP2 MSTORE PUSH1 0x9 PUSH1 0x20 MSTORE PUSH1 0x40 SWAP1 KECCAK256 SLOAD SWAP1 SWAP2 POP DUP1 DUP3 EQ PUSH2 0x2061 JUMPI PUSH1 0x1 PUSH1 0x1 PUSH1 0xA0 SHL SUB DUP5 AND PUSH1 0x0 SWAP1 DUP2 MSTORE PUSH1 0x8 PUSH1 0x20 SWAP1 DUP2 MSTORE PUSH1 0x40 DUP1 DUP4 KECCAK256 DUP6 DUP5 MSTORE DUP3 MSTORE DUP1 DUP4 KECCAK256 SLOAD DUP5 DUP5 MSTORE DUP2 DUP5 KECCAK256 DUP2 SWAP1 SSTORE DUP4 MSTORE PUSH1 0x9 SWAP1 SWAP2 MSTORE SWAP1 KECCAK256 DUP2 SWAP1 SSTORE JUMPDEST POP PUSH1 0x0 SWAP2 DUP3 MSTORE PUSH1 0x9 PUSH1 0x20 SWAP1 DUP2 MSTORE PUSH1 0x40 DUP1 DUP5 KECCAK256 DUP5 SWAP1 SSTORE PUSH1 0x1 PUSH1 0x1 PUSH1 0xA0 SHL SUB SWAP1 SWAP5 AND DUP4 MSTORE PUSH1 0x8 DUP2 MSTORE DUP4 DUP4 KECCAK256 SWAP2 DUP4 MSTORE MSTORE SWAP1 DUP2 KECCAK256 SSTORE JUMP JUMPDEST PUSH1 0xA SLOAD PUSH1 0x0 SWAP1 PUSH2 0x20A6 SWAP1 PUSH1 0x1 SWAP1 PUSH2 0x2653 JUMP JUMPDEST PUSH1 0x0 DUP4 DUP2 MSTORE PUSH1 0xB PUSH1 0x20 MSTORE PUSH1 0x40 DUP2 KECCAK256 SLOAD PUSH1 0xA DUP1 SLOAD SWAP4 SWAP5 POP SWAP1 SWAP3 DUP5 SWAP1 DUP2 LT PUSH2 0x20CE JUMPI PUSH2 0x20CE PUSH2 0x25A8 JUMP JUMPDEST SWAP1 PUSH1 0x0 MSTORE PUSH1 0x20 PUSH1 0x0 KECCAK256 ADD SLOAD SWAP1 POP DUP1 PUSH1 0xA DUP4 DUP2 SLOAD DUP2 LT PUSH2 0x20EF JUMPI PUSH2 0x20EF PUSH2 0x25A8 JUMP JUMPDEST PUSH1 0x0 SWAP2 DUP3 MSTORE PUSH1 0x20 DUP1 DUP4 KECCAK256 SWAP1 SWAP2 ADD SWAP3 SWAP1 SWAP3 SSTORE DUP3 DUP2 MSTORE PUSH1 0xB SWAP1 SWAP2 MSTORE PUSH1 0x40 DUP1 DUP3 KECCAK256 DUP5 SWAP1 SSTORE DUP6 DUP3 MSTORE DUP2 KECCAK256 SSTORE PUSH1 0xA DUP1 SLOAD DUP1 PUSH2 0x2127 JUMPI PUSH2 0x2127 PUSH2 0x282A JUMP JUMPDEST PUSH1 0x1 SWAP1 SUB DUP2 DUP2 SWAP1 PUSH1 0x0 MSTORE PUSH1 0x20 PUSH1 0x0 KECCAK256 ADD PUSH1 0x0 SWAP1 SSTORE SWAP1 SSTORE POP POP POP POP JUMP JUMPDEST PUSH1 0x0 PUSH2 0x214E DUP4 PUSH2 0x995 JUMP JUMPDEST PUSH1 0x1 PUSH1 0x1 PUSH1 0xA0 SHL SUB SWAP1 SWAP4 AND PUSH1 0x0 SWAP1 DUP2 MSTORE PUSH1 0x8 PUSH1 0x20 SWAP1 DUP2 MSTORE PUSH1 0x40 DUP1 DUP4 KECCAK256 DUP7 DUP5 MSTORE DUP3 MSTORE DUP1 DUP4 KECCAK256 DUP6 SWAP1 SSTORE SWAP4 DUP3 MSTORE PUSH1 0x9 SWAP1 MSTORE SWAP2 SWAP1 SWAP2 KECCAK256 SWAP2 SWAP1 SWAP2 SSTORE POP JUMP JUMPDEST PUSH1 0x1 PUSH1 0x1 PUSH1 0xE0 SHL SUB NOT DUP2 AND DUP2 EQ PUSH2 0x888 JUMPI PUSH1 0x0 DUP1 REVERT JUMPDEST PUSH1 0x0 PUSH1 0x20 DUP3 DUP5 SUB SLT ISZERO PUSH2 0x21AF JUMPI PUSH1 0x0 DUP1 REVERT JUMPDEST DUP2 CALLDATALOAD PUSH2 0xA7D DUP2 PUSH2 0x2187 JUMP JUMPDEST PUSH1 0x0 JUMPDEST DUP4 DUP2 LT ISZERO PUSH2 0x21D5 JUMPI DUP2 DUP2 ADD MLOAD DUP4 DUP3 ADD MSTORE PUSH1 0x20 ADD PUSH2 0x21BD JUMP JUMPDEST DUP4 DUP2 GT ISZERO PUSH2 0xD2D JUMPI POP POP PUSH1 0x0 SWAP2 ADD MSTORE JUMP JUMPDEST PUSH1 0x0 DUP2 MLOAD DUP1 DUP5 MSTORE PUSH2 0x21FE DUP2 PUSH1 0x20 DUP7 ADD PUSH1 0x20 DUP7 ADD PUSH2 0x21BA JUMP JUMPDEST PUSH1 0x1F ADD PUSH1 0x1F NOT AND SWAP3 SWAP1 SWAP3 ADD PUSH1 0x20 ADD SWAP3 SWAP2 POP POP JUMP JUMPDEST PUSH1 0x20 DUP2 MSTORE PUSH1 0x0 PUSH2 0xA7D PUSH1 0x20 DUP4 ADD DUP5 PUSH2 0x21E6 JUMP JUMPDEST PUSH1 0x0 PUSH1 0x20 DUP3 DUP5 SUB SLT ISZERO PUSH2 0x2237 JUMPI PUSH1 0x0 DUP1 REVERT JUMPDEST POP CALLDATALOAD SWAP2 SWAP1 POP JUMP JUMPDEST DUP1 CALLDATALOAD PUSH1 0x1 PUSH1 0x1 PUSH1 0xA0 SHL SUB DUP2 AND DUP2 EQ PUSH2 0x2255 JUMPI PUSH1 0x0 DUP1 REVERT JUMPDEST SWAP2 SWAP1 POP JUMP JUMPDEST PUSH1 0x0 DUP1 PUSH1 0x40 DUP4 DUP6 SUB SLT ISZERO PUSH2 0x226D JUMPI PUSH1 0x0 DUP1 REVERT JUMPDEST PUSH2 0x2276 DUP4 PUSH2 0x223E JUMP JUMPDEST SWAP5 PUSH1 0x20 SWAP4 SWAP1 SWAP4 ADD CALLDATALOAD SWAP4 POP POP POP JUMP JUMPDEST PUSH1 0x0 DUP1 PUSH1 0x0 PUSH1 0x60 DUP5 DUP7 SUB SLT ISZERO PUSH2 0x2299 JUMPI PUSH1 0x0 DUP1 REVERT JUMPDEST PUSH2 0x22A2 DUP5 PUSH2 0x223E JUMP JUMPDEST SWAP3 POP PUSH2 0x22B0 PUSH1 0x20 DUP6 ADD PUSH2 0x223E JUMP JUMPDEST SWAP2 POP PUSH1 0x40 DUP5 ADD CALLDATALOAD SWAP1 POP SWAP3 POP SWAP3 POP SWAP3 JUMP JUMPDEST PUSH1 0x0 DUP1 PUSH1 0x40 DUP4 DUP6 SUB SLT ISZERO PUSH2 0x22D3 JUMPI PUSH1 0x0 DUP1 REVERT JUMPDEST DUP3 CALLDATALOAD SWAP2 POP PUSH2 0x22E3 PUSH1 0x20 DUP5 ADD PUSH2 0x223E JUMP JUMPDEST SWAP1 POP SWAP3 POP SWAP3 SWAP1 POP JUMP JUMPDEST PUSH1 0x0 PUSH1 0x20 DUP3 DUP5 SUB SLT ISZERO PUSH2 0x22FE JUMPI PUSH1 0x0 DUP1 REVERT JUMPDEST PUSH2 0xA7D DUP3 PUSH2 0x223E JUMP JUMPDEST PUSH1 0x0 DUP1 PUSH1 0x40 DUP4 DUP6 SUB SLT ISZERO PUSH2 0x231A JUMPI PUSH1 0x0 DUP1 REVERT JUMPDEST POP POP DUP1 CALLDATALOAD SWAP3 PUSH1 0x20 SWAP1 SWAP2 ADD CALLDATALOAD SWAP2 POP JUMP JUMPDEST PUSH1 0x0 DUP1 PUSH1 0x40 DUP4 DUP6 SUB SLT ISZERO PUSH2 0x233C JUMPI PUSH1 0x0 DUP1 REVERT JUMPDEST PUSH2 0x2345 DUP4 PUSH2 0x223E JUMP JUMPDEST SWAP2 POP PUSH1 0x20 DUP4 ADD CALLDATALOAD DUP1 ISZERO ISZERO DUP2 EQ PUSH2 0x235A JUMPI PUSH1 0x0 DUP1 REVERT JUMPDEST DUP1 SWAP2 POP POP SWAP3 POP SWAP3 SWAP1 POP JUMP JUMPDEST PUSH4 0x4E487B71 PUSH1 0xE0 SHL PUSH1 0x0 MSTORE PUSH1 0x41 PUSH1 0x4 MSTORE PUSH1 0x24 PUSH1 0x0 REVERT JUMPDEST PUSH1 0x40 MLOAD PUSH1 0x1F DUP3 ADD PUSH1 0x1F NOT AND DUP2 ADD PUSH1 0x1 PUSH1 0x1 PUSH1 0x40 SHL SUB DUP2 GT DUP3 DUP3 LT OR ISZERO PUSH2 0x23A3 JUMPI PUSH2 0x23A3 PUSH2 0x2365 JUMP JUMPDEST PUSH1 0x40 MSTORE SWAP2 SWAP1 POP JUMP JUMPDEST PUSH1 0x0 DUP1 PUSH1 0x0 DUP1 PUSH1 0x80 DUP6 DUP8 SUB SLT ISZERO PUSH2 0x23C1 JUMPI PUSH1 0x0 DUP1 REVERT JUMPDEST PUSH2 0x23CA DUP6 PUSH2 0x223E JUMP JUMPDEST SWAP4 POP PUSH1 0x20 PUSH2 0x23D9 DUP2 DUP8 ADD PUSH2 0x223E JUMP JUMPDEST SWAP4 POP PUSH1 0x40 DUP7 ADD CALLDATALOAD SWAP3 POP PUSH1 0x60 DUP7 ADD CALLDATALOAD PUSH1 0x1 PUSH1 0x1 PUSH1 0x40 SHL SUB DUP1 DUP3 GT ISZERO PUSH2 0x23FC JUMPI PUSH1 0x0 DUP1 REVERT JUMPDEST DUP2 DUP9 ADD SWAP2 POP DUP9 PUSH1 0x1F DUP4 ADD SLT PUSH2 0x2410 JUMPI PUSH1 0x0 DUP1 REVERT JUMPDEST DUP2 CALLDATALOAD DUP2 DUP2 GT ISZERO PUSH2 0x2422 JUMPI PUSH2 0x2422 PUSH2 0x2365 JUMP JUMPDEST PUSH2 0x2434 PUSH1 0x1F DUP3 ADD PUSH1 0x1F NOT AND DUP6 ADD PUSH2 0x237B JUMP JUMPDEST SWAP2 POP DUP1 DUP3 MSTORE DUP10 DUP5 DUP3 DUP6 ADD ADD GT ISZERO PUSH2 0x244A JUMPI PUSH1 0x0 DUP1 REVERT JUMPDEST DUP1 DUP5 DUP5 ADD DUP6 DUP5 ADD CALLDATACOPY PUSH1 0x0 DUP5 DUP3 DUP5 ADD ADD MSTORE POP DUP1 SWAP4 POP POP POP POP SWAP3 SWAP6 SWAP2 SWAP5 POP SWAP3 POP JUMP JUMPDEST PUSH1 0x0 DUP1 PUSH1 0x40 DUP4 DUP6 SUB SLT ISZERO PUSH2 0x247D JUMPI PUSH1 0x0 DUP1 REVERT JUMPDEST PUSH2 0x2486 DUP4 PUSH2 0x223E JUMP JUMPDEST SWAP2 POP PUSH2 0x22E3 PUSH1 0x20 DUP5 ADD PUSH2 0x223E JUMP JUMPDEST PUSH1 0x0 DUP1 DUP3 DUP5 SUB PUSH1 0xA0 DUP2 SLT ISZERO PUSH2 0x24A8 JUMPI PUSH1 0x0 DUP1 REVERT JUMPDEST PUSH1 0x80 DUP2 SLT ISZERO PUSH2 0x24B6 JUMPI PUSH1 0x0 DUP1 REVERT JUMPDEST POP PUSH1 0x40 MLOAD PUSH1 0x80 DUP2 ADD PUSH1 0x1 PUSH1 0x1 PUSH1 0x40 SHL SUB DUP2 GT DUP3 DUP3 LT OR ISZERO PUSH2 0x24D9 JUMPI PUSH2 0x24D9 PUSH2 0x2365 JUMP JUMPDEST DUP1 PUSH1 0x40 MSTORE POP DUP4 CALLDATALOAD DUP2 MSTORE PUSH1 0x20 DUP5 ADD CALLDATALOAD PUSH1 0x20 DUP3 ADD MSTORE PUSH1 0x40 DUP5 ADD CALLDATALOAD PUSH1 0x40 DUP3 ADD MSTORE PUSH1 0x60 DUP5 ADD CALLDATALOAD PUSH1 0xFF DUP2 AND DUP2 EQ PUSH2 0x250A JUMPI PUSH1 0x0 DUP1 REVERT JUMPDEST PUSH1 0x60 DUP3 ADD MSTORE SWAP2 POP PUSH2 0x22E3 PUSH1 0x80 DUP5 ADD PUSH2 0x223E JUMP JUMPDEST PUSH1 0x1 DUP2 DUP2 SHR SWAP1 DUP3 AND DUP1 PUSH2 0x2531 JUMPI PUSH1 0x7F DUP3 AND SWAP2 POP JUMPDEST PUSH1 0x20 DUP3 LT DUP2 SUB PUSH2 0x2551 JUMPI PUSH4 0x4E487B71 PUSH1 0xE0 SHL PUSH1 0x0 MSTORE PUSH1 0x22 PUSH1 0x4 MSTORE PUSH1 0x24 PUSH1 0x0 REVERT JUMPDEST POP SWAP2 SWAP1 POP JUMP JUMPDEST PUSH1 0x20 DUP1 DUP3 MSTORE PUSH1 0x31 SWAP1 DUP3 ADD MSTORE PUSH32 0x4552433732313A207472616E736665722063616C6C6572206973206E6F74206F PUSH1 0x40 DUP3 ADD MSTORE PUSH17 0x1DDB995C881B9BDC88185C1C1C9BDD9959 PUSH1 0x7A SHL PUSH1 0x60 DUP3 ADD MSTORE PUSH1 0x80 ADD SWAP1 JUMP JUMPDEST PUSH4 0x4E487B71 PUSH1 0xE0 SHL PUSH1 0x0 MSTORE PUSH1 0x32 PUSH1 0x4 MSTORE PUSH1 0x24 PUSH1 0x0 REVERT JUMPDEST PUSH1 0x20 DUP1 DUP3 MSTORE DUP2 DUP2 ADD MSTORE PUSH32 0x4F776E61626C653A2063616C6C6572206973206E6F7420746865206F776E6572 PUSH1 0x40 DUP3 ADD MSTORE PUSH1 0x60 ADD SWAP1 JUMP JUMPDEST SWAP4 DUP5 MSTORE PUSH1 0x20 DUP5 ADD SWAP3 SWAP1 SWAP3 MSTORE PUSH1 0x40 DUP4 ADD MSTORE PUSH1 0x60 DUP3 ADD MSTORE PUSH1 0x80 ADD SWAP1 JUMP JUMPDEST PUSH1 0x0 DUP4 MLOAD PUSH2 0x2620 DUP2 DUP5 PUSH1 0x20 DUP9 ADD PUSH2 0x21BA JUMP JUMPDEST DUP4 MLOAD SWAP1 DUP4 ADD SWAP1 PUSH2 0x2634 DUP2 DUP4 PUSH1 0x20 DUP9 ADD PUSH2 0x21BA JUMP JUMPDEST ADD SWAP5 SWAP4 POP POP POP POP JUMP JUMPDEST PUSH4 0x4E487B71 PUSH1 0xE0 SHL PUSH1 0x0 MSTORE PUSH1 0x11 PUSH1 0x4 MSTORE PUSH1 0x24 PUSH1 0x0 REVERT JUMPDEST PUSH1 0x0 DUP3 DUP3 LT ISZERO PUSH2 0x2665 JUMPI PUSH2 0x2665 PUSH2 0x263D JUMP JUMPDEST POP SUB SWAP1 JUMP JUMPDEST PUSH1 0x0 DUP3 NOT DUP3 GT ISZERO PUSH2 0x267D JUMPI PUSH2 0x267D PUSH2 0x263D JUMP JUMPDEST POP ADD SWAP1 JUMP JUMPDEST PUSH1 0x20 DUP1 DUP3 MSTORE PUSH1 0x32 SWAP1 DUP3 ADD MSTORE PUSH32 0x4552433732313A207472616E7366657220746F206E6F6E204552433732315265 PUSH1 0x40 DUP3 ADD MSTORE PUSH18 0x31B2B4BB32B91034B6B83632B6B2B73A32B9 PUSH1 0x71 SHL PUSH1 0x60 DUP3 ADD MSTORE PUSH1 0x80 ADD SWAP1 JUMP JUMPDEST PUSH1 0x0 PUSH1 0x1 DUP3 ADD PUSH2 0x26E6 JUMPI PUSH2 0x26E6 PUSH2 0x263D JUMP JUMPDEST POP PUSH1 0x1 ADD SWAP1 JUMP JUMPDEST PUSH4 0x4E487B71 PUSH1 0xE0 SHL PUSH1 0x0 MSTORE PUSH1 0x12 PUSH1 0x4 MSTORE PUSH1 0x24 PUSH1 0x0 REVERT JUMPDEST PUSH1 0x0 DUP3 PUSH2 0x2712 JUMPI PUSH2 0x2712 PUSH2 0x26ED JUMP JUMPDEST POP DIV SWAP1 JUMP JUMPDEST PUSH1 0x0 DUP3 PUSH2 0x2726 JUMPI PUSH2 0x2726 PUSH2 0x26ED JUMP JUMPDEST POP MOD SWAP1 JUMP JUMPDEST PUSH23 0x20B1B1B2B9B9A1B7B73A3937B61D1030B1B1B7BAB73A1 PUSH1 0x4D SHL DUP2 MSTORE PUSH1 0x0 DUP4 MLOAD PUSH2 0x275D DUP2 PUSH1 0x17 DUP6 ADD PUSH1 0x20 DUP9 ADD PUSH2 0x21BA JUMP JUMPDEST PUSH17 0x1034B99036B4B9B9B4B733903937B6329 PUSH1 0x7D SHL PUSH1 0x17 SWAP2 DUP5 ADD SWAP2 DUP3 ADD MSTORE DUP4 MLOAD PUSH2 0x278E DUP2 PUSH1 0x28 DUP5 ADD PUSH1 0x20 DUP9 ADD PUSH2 0x21BA JUMP JUMPDEST ADD PUSH1 0x28 ADD SWAP5 SWAP4 POP POP POP POP JUMP JUMPDEST PUSH1 0x1 PUSH1 0x1 PUSH1 0xA0 SHL SUB DUP6 DUP2 AND DUP3 MSTORE DUP5 AND PUSH1 0x20 DUP3 ADD MSTORE PUSH1 0x40 DUP2 ADD DUP4 SWAP1 MSTORE PUSH1 0x80 PUSH1 0x60 DUP3 ADD DUP2 SWAP1 MSTORE PUSH1 0x0 SWAP1 PUSH2 0x27CD SWAP1 DUP4 ADD DUP5 PUSH2 0x21E6 JUMP JUMPDEST SWAP7 SWAP6 POP POP POP POP POP POP JUMP JUMPDEST PUSH1 0x0 PUSH1 0x20 DUP3 DUP5 SUB SLT ISZERO PUSH2 0x27E9 JUMPI PUSH1 0x0 DUP1 REVERT JUMPDEST DUP2 MLOAD PUSH2 0xA7D DUP2 PUSH2 0x2187 JUMP JUMPDEST PUSH1 0x0 DUP2 PUSH1 0x0 NOT DIV DUP4 GT DUP3 ISZERO ISZERO AND ISZERO PUSH2 0x280E JUMPI PUSH2 0x280E PUSH2 0x263D JUMP JUMPDEST POP MUL SWAP1 JUMP JUMPDEST PUSH1 0x0 DUP2 PUSH2 0x2822 JUMPI PUSH2 0x2822 PUSH2 0x263D JUMP JUMPDEST POP PUSH1 0x0 NOT ADD SWAP1 JUMP JUMPDEST PUSH4 0x4E487B71 PUSH1 0xE0 SHL PUSH1 0x0 MSTORE PUSH1 0x31 PUSH1 0x4 MSTORE PUSH1 0x24 PUSH1 0x0 REVERT INVALID 0x4F MSTORE DIFFICULTY GASLIMIT MSTORE GASPRICE KECCAK256 PUSH14 0x7573742068617665206D696E7465 PUSH19 0x20726F6C6520746F20D7E47EE0030DC14F409C 0xD5 PUSH21 0x609AD568521A19BB09D8C27A721B44B4244EB7199F 0x2D CREATE INVALID 0xD2 0xC7 PUSH23 0x48DE5860A4CC508CD0818C85B8B8A1AB4CEEEF8D981C89 JUMP 0xA6 0xDD CALLCODE MSTORE 0xAD SHL 0xE2 0xC8 SWAP12 PUSH10 0xC2B068FC378DAA952BA7 CALL PUSH4 0xC4A11628 CREATE2 GAS 0x4D CREATE2 0x23 0xB3 0xEF LOG2 PUSH5 0x6970667358 0x22 SLT KECCAK256 RETURNDATACOPY 0xA5 LT 0x26 SSTORE CODECOPY 0xBC PUSH14 0xFC975EA44764BFDA629DED147E4F 0x24 0xDA 0xB1 0x2F 0xE8 REVERT 0xF7 0xDC 0xED DELEGATECALL PUSH5 0x736F6C6343 STOP ADDMOD 0xD STOP CALLER LOG2 PUSH5 0x6970667358 0x22 SLT KECCAK256 0xE9 ADD 0x23 RETURNDATACOPY BLOCKHASH GASPRICE 0xC6 0x2F KECCAK256 CALLDATALOAD 0xC7 0xB1 0x5F DUP11 0xB0 PUSH27 0x1C54273E07A24945091A59BB6769EA5F64736F6C634300080D0033 "
		},
		"gasEstimates": {
			"creation": {
				"codeDepositCost": "6728200",
				"executionCost": "infinite",
				"totalCost": "infinite"
			},
			"external": {
				"WETH()": "2471",
				"allOrderBookLength()": "2303",
				"allOrderBooks(uint256)": "4682",
				"config()": "2427",
				"createOrderBook(address,address)": "infinite",
				"getCodeHash()": "8880",
				"getOrderBook(address,address)": "infinite",
				"pairFactory()": "2493"
			}
		},
		"methodIdentifiers": {
			"WETH()": "ad5c4648",
			"allOrderBookLength()": "316cc2dd",
			"allOrderBooks(uint256)": "472c6670",
			"config()": "79502c55",
			"createOrderBook(address,address)": "064220f6",
			"getCodeHash()": "83dd41c6",
			"getOrderBook(address,address)": "203d39ff",
			"pairFactory()": "e14f870d"
		}
	},
	"abi": [
		{
			"inputs": [
				{
					"internalType": "address",
					"name": "_pairFactory",
					"type": "address"
				},
				{
					"internalType": "address",
					"name": "_WETH",
					"type": "address"
				},
				{
					"internalType": "address",
					"name": "_config",
					"type": "address"
				}
			],
			"stateMutability": "nonpayable",
			"type": "constructor"
		},
		{
			"anonymous": false,
			"inputs": [
				{
					"indexed": false,
					"internalType": "address",
					"name": "",
					"type": "address"
				},
				{
					"indexed": false,
					"internalType": "address",
					"name": "",
					"type": "address"
				},
				{
					"indexed": false,
					"internalType": "address",
					"name": "",
					"type": "address"
				},
				{
					"indexed": false,
					"internalType": "address",
					"name": "",
					"type": "address"
				}
			],
			"name": "OrderBookCreated",
			"type": "event"
		},
		{
			"inputs": [],
			"name": "WETH",
			"outputs": [
				{
					"internalType": "address",
					"name": "",
					"type": "address"
				}
			],
			"stateMutability": "view",
			"type": "function"
		},
		{
			"inputs": [],
			"name": "allOrderBookLength",
			"outputs": [
				{
					"internalType": "uint256",
					"name": "",
					"type": "uint256"
				}
			],
			"stateMutability": "view",
			"type": "function"
		},
		{
			"inputs": [
				{
					"internalType": "uint256",
					"name": "",
					"type": "uint256"
				}
			],
			"name": "allOrderBooks",
			"outputs": [
				{
					"internalType": "address",
					"name": "",
					"type": "address"
				}
			],
			"stateMutability": "view",
			"type": "function"
		},
		{
			"inputs": [],
			"name": "config",
			"outputs": [
				{
					"internalType": "address",
					"name": "",
					"type": "address"
				}
			],
			"stateMutability": "view",
			"type": "function"
		},
		{
			"inputs": [
				{
					"internalType": "address",
					"name": "baseToken",
					"type": "address"
				},
				{
					"internalType": "address",
					"name": "quoteToken",
					"type": "address"
				}
			],
			"name": "createOrderBook",
			"outputs": [],
			"stateMutability": "nonpayable",
			"type": "function"
		},
		{
			"inputs": [],
			"name": "getCodeHash",
			"outputs": [
				{
					"internalType": "bytes32",
					"name": "",
					"type": "bytes32"
				}
			],
			"stateMutability": "pure",
			"type": "function"
		},
		{
			"inputs": [
				{
					"internalType": "address",
					"name": "",
					"type": "address"
				},
				{
					"internalType": "address",
					"name": "",
					"type": "address"
				}
			],
			"name": "getOrderBook",
			"outputs": [
				{
					"internalType": "address",
					"name": "",
					"type": "address"
				}
			],
			"stateMutability": "view",
			"type": "function"
		},
		{
			"inputs": [],
			"name": "pairFactory",
			"outputs": [
				{
					"internalType": "address",
					"name": "",
					"type": "address"
				}
			],
			"stateMutability": "view",
			"type": "function"
		}
	]
}