{
  "_format": "hh-sol-artifact-1",
  "contractName": "OrderNFT",
  "sourceName": "contracts/core/orderbook/OrderNFT.sol",
  "abi": [
    {
      "inputs": [],
      "stateMutability": "nonpayable",
      "type": "constructor"
    },
    {
      "anonymous": false,
      "inputs": [
        {
          "indexed": true,
          "internalType": "address",
          "name": "owner",
          "type": "address"
        },
        {
          "indexed": true,
          "internalType": "address",
          "name": "approved",
          "type": "address"
        },
        {
          "indexed": true,
          "internalType": "uint256",
          "name": "tokenId",
          "type": "uint256"
        }
      ],
      "name": "Approval",
      "type": "event"
    },
    {
      "anonymous": false,
      "inputs": [
        {
          "indexed": true,
          "internalType": "address",
          "name": "owner",
          "type": "address"
        },
        {
          "indexed": true,
          "internalType": "address",
          "name": "operator",
          "type": "address"
        },
        {
          "indexed": false,
          "internalType": "bool",
          "name": "approved",
          "type": "bool"
        }
      ],
      "name": "ApprovalForAll",
      "type": "event"
    },
    {
      "anonymous": false,
      "inputs": [
        {
          "indexed": true,
          "internalType": "uint256",
          "name": "tokenId",
          "type": "uint256"
        },
        {
          "indexed": false,
          "internalType": "uint256",
          "name": "offer1",
          "type": "uint256"
        },
        {
          "indexed": false,
          "internalType": "uint256",
          "name": "remain1",
          "type": "uint256"
        },
        {
          "indexed": false,
          "internalType": "uint256",
          "name": "offer2",
          "type": "uint256"
        },
        {
          "indexed": false,
          "internalType": "uint256",
          "name": "remain2",
          "type": "uint256"
        }
      ],
      "name": "OrderUpdate",
      "type": "event"
    },
    {
      "anonymous": false,
      "inputs": [
        {
          "indexed": true,
          "internalType": "address",
          "name": "previousOwner",
          "type": "address"
        },
        {
          "indexed": true,
          "internalType": "address",
          "name": "newOwner",
          "type": "address"
        }
      ],
      "name": "OwnershipTransferred",
      "type": "event"
    },
    {
      "anonymous": false,
      "inputs": [
        {
          "indexed": true,
          "internalType": "bytes32",
          "name": "role",
          "type": "bytes32"
        },
        {
          "indexed": true,
          "internalType": "bytes32",
          "name": "previousAdminRole",
          "type": "bytes32"
        },
        {
          "indexed": true,
          "internalType": "bytes32",
          "name": "newAdminRole",
          "type": "bytes32"
        }
      ],
      "name": "RoleAdminChanged",
      "type": "event"
    },
    {
      "anonymous": false,
      "inputs": [
        {
          "indexed": true,
          "internalType": "bytes32",
          "name": "role",
          "type": "bytes32"
        },
        {
          "indexed": true,
          "internalType": "address",
          "name": "account",
          "type": "address"
        },
        {
          "indexed": true,
          "internalType": "address",
          "name": "sender",
          "type": "address"
        }
      ],
      "name": "RoleGranted",
      "type": "event"
    },
    {
      "anonymous": false,
      "inputs": [
        {
          "indexed": true,
          "internalType": "bytes32",
          "name": "role",
          "type": "bytes32"
        },
        {
          "indexed": true,
          "internalType": "address",
          "name": "account",
          "type": "address"
        },
        {
          "indexed": true,
          "internalType": "address",
          "name": "sender",
          "type": "address"
        }
      ],
      "name": "RoleRevoked",
      "type": "event"
    },
    {
      "anonymous": false,
      "inputs": [
        {
          "indexed": true,
          "internalType": "address",
          "name": "from",
          "type": "address"
        },
        {
          "indexed": true,
          "internalType": "address",
          "name": "to",
          "type": "address"
        },
        {
          "indexed": true,
          "internalType": "uint256",
          "name": "tokenId",
          "type": "uint256"
        }
      ],
      "name": "Transfer",
      "type": "event"
    },
    {
      "inputs": [],
      "name": "DEFAULT_ADMIN_ROLE",
      "outputs": [
        {
          "internalType": "bytes32",
          "name": "",
          "type": "bytes32"
        }
      ],
      "stateMutability": "view",
      "type": "function"
    },
    {
      "inputs": [],
      "name": "MINTER_ROLE",
      "outputs": [
        {
          "internalType": "bytes32",
          "name": "",
          "type": "bytes32"
        }
      ],
      "stateMutability": "view",
      "type": "function"
    },
    {
      "inputs": [
        {
          "internalType": "uint256",
          "name": "tokenId",
          "type": "uint256"
        },
        {
          "internalType": "uint256",
          "name": "amount",
          "type": "uint256"
        }
      ],
      "name": "add",
      "outputs": [],
      "stateMutability": "nonpayable",
      "type": "function"
    },
    {
      "inputs": [
        {
          "internalType": "address",
          "name": "to",
          "type": "address"
        },
        {
          "internalType": "uint256",
          "name": "tokenId",
          "type": "uint256"
        }
      ],
      "name": "approve",
      "outputs": [],
      "stateMutability": "nonpayable",
      "type": "function"
    },
    {
      "inputs": [
        {
          "internalType": "address",
          "name": "owner",
          "type": "address"
        }
      ],
      "name": "balanceOf",
      "outputs": [
        {
          "internalType": "uint256",
          "name": "",
          "type": "uint256"
        }
      ],
      "stateMutability": "view",
      "type": "function"
    },
    {
      "inputs": [
        {
          "internalType": "uint256",
          "name": "tokenId",
          "type": "uint256"
        }
      ],
      "name": "burn",
      "outputs": [],
      "stateMutability": "nonpayable",
      "type": "function"
    },
    {
      "inputs": [
        {
          "internalType": "uint256",
          "name": "_tokenId",
          "type": "uint256"
        }
      ],
      "name": "get",
      "outputs": [
        {
          "components": [
            {
              "internalType": "uint256",
              "name": "_price",
              "type": "uint256"
            },
            {
              "internalType": "uint256",
              "name": "_offer",
              "type": "uint256"
            },
            {
              "internalType": "uint256",
              "name": "_remain",
              "type": "uint256"
            },
            {
              "internalType": "uint8",
              "name": "_type",
              "type": "uint8"
            }
          ],
          "internalType": "struct IOrder.OrderDetail",
          "name": "order",
          "type": "tuple"
        }
      ],
      "stateMutability": "view",
      "type": "function"
    },
    {
      "inputs": [
        {
          "internalType": "uint256",
          "name": "tokenId",
          "type": "uint256"
        }
      ],
      "name": "getApproved",
      "outputs": [
        {
          "internalType": "address",
          "name": "",
          "type": "address"
        }
      ],
      "stateMutability": "view",
      "type": "function"
    },
    {
      "inputs": [
        {
          "internalType": "bytes32",
          "name": "role",
          "type": "bytes32"
        }
      ],
      "name": "getRoleAdmin",
      "outputs": [
        {
          "internalType": "bytes32",
          "name": "",
          "type": "bytes32"
        }
      ],
      "stateMutability": "view",
      "type": "function"
    },
    {
      "inputs": [
        {
          "internalType": "bytes32",
          "name": "role",
          "type": "bytes32"
        },
        {
          "internalType": "uint256",
          "name": "index",
          "type": "uint256"
        }
      ],
      "name": "getRoleMember",
      "outputs": [
        {
          "internalType": "address",
          "name": "",
          "type": "address"
        }
      ],
      "stateMutability": "view",
      "type": "function"
    },
    {
      "inputs": [
        {
          "internalType": "bytes32",
          "name": "role",
          "type": "bytes32"
        }
      ],
      "name": "getRoleMemberCount",
      "outputs": [
        {
          "internalType": "uint256",
          "name": "",
          "type": "uint256"
        }
      ],
      "stateMutability": "view",
      "type": "function"
    },
    {
      "inputs": [
        {
          "internalType": "address",
          "name": "user",
          "type": "address"
        }
      ],
      "name": "getUserOrders",
      "outputs": [
        {
          "internalType": "uint256[]",
          "name": "ids",
          "type": "uint256[]"
        },
        {
          "components": [
            {
              "internalType": "uint256",
              "name": "_price",
              "type": "uint256"
            },
            {
              "internalType": "uint256",
              "name": "_offer",
              "type": "uint256"
            },
            {
              "internalType": "uint256",
              "name": "_remain",
              "type": "uint256"
            },
            {
              "internalType": "uint8",
              "name": "_type",
              "type": "uint8"
            }
          ],
          "internalType": "struct IOrder.OrderDetail[]",
          "name": "orders",
          "type": "tuple[]"
        }
      ],
      "stateMutability": "view",
      "type": "function"
    },
    {
      "inputs": [
        {
          "internalType": "bytes32",
          "name": "role",
          "type": "bytes32"
        },
        {
          "internalType": "address",
          "name": "account",
          "type": "address"
        }
      ],
      "name": "grantRole",
      "outputs": [],
      "stateMutability": "nonpayable",
      "type": "function"
    },
    {
      "inputs": [
        {
          "internalType": "bytes32",
          "name": "role",
          "type": "bytes32"
        },
        {
          "internalType": "address",
          "name": "account",
          "type": "address"
        }
      ],
      "name": "hasRole",
      "outputs": [
        {
          "internalType": "bool",
          "name": "",
          "type": "bool"
        }
      ],
      "stateMutability": "view",
      "type": "function"
    },
    {
      "inputs": [],
      "name": "id",
      "outputs": [
        {
          "internalType": "uint256",
          "name": "",
          "type": "uint256"
        }
      ],
      "stateMutability": "view",
      "type": "function"
    },
    {
      "inputs": [
        {
          "internalType": "uint256",
          "name": "_id",
          "type": "uint256"
        },
        {
          "internalType": "address",
          "name": "_admin",
          "type": "address"
        },
        {
          "internalType": "address",
          "name": "_orderBook",
          "type": "address"
        }
      ],
      "name": "initialize",
      "outputs": [],
      "stateMutability": "nonpayable",
      "type": "function"
    },
    {
      "inputs": [
        {
          "internalType": "address",
          "name": "owner",
          "type": "address"
        },
        {
          "internalType": "address",
          "name": "operator",
          "type": "address"
        }
      ],
      "name": "isApprovedForAll",
      "outputs": [
        {
          "internalType": "bool",
          "name": "",
          "type": "bool"
        }
      ],
      "stateMutability": "view",
      "type": "function"
    },
    {
      "inputs": [
        {
          "components": [
            {
              "internalType": "uint256",
              "name": "_price",
              "type": "uint256"
            },
            {
              "internalType": "uint256",
              "name": "_offer",
              "type": "uint256"
            },
            {
              "internalType": "uint256",
              "name": "_remain",
              "type": "uint256"
            },
            {
              "internalType": "uint8",
              "name": "_type",
              "type": "uint8"
            }
          ],
          "internalType": "struct IOrder.OrderDetail",
          "name": "orderDetail",
          "type": "tuple"
        },
        {
          "internalType": "address",
          "name": "to",
          "type": "address"
        }
      ],
      "name": "mint",
      "outputs": [
        {
          "internalType": "uint256",
          "name": "tokenId",
          "type": "uint256"
        }
      ],
      "stateMutability": "nonpayable",
      "type": "function"
    },
    {
      "inputs": [],
      "name": "name",
      "outputs": [
        {
          "internalType": "string",
          "name": "",
          "type": "string"
        }
      ],
      "stateMutability": "view",
      "type": "function"
    },
    {
      "inputs": [],
      "name": "orderBook",
      "outputs": [
        {
          "internalType": "address",
          "name": "",
          "type": "address"
        }
      ],
      "stateMutability": "view",
      "type": "function"
    },
    {
      "inputs": [],
      "name": "orderBookFactory",
      "outputs": [
        {
          "internalType": "address",
          "name": "",
          "type": "address"
        }
      ],
      "stateMutability": "view",
      "type": "function"
    },
    {
      "inputs": [],
      "name": "owner",
      "outputs": [
        {
          "internalType": "address",
          "name": "",
          "type": "address"
        }
      ],
      "stateMutability": "view",
      "type": "function"
    },
    {
      "inputs": [
        {
          "internalType": "uint256",
          "name": "tokenId",
          "type": "uint256"
        }
      ],
      "name": "ownerOf",
      "outputs": [
        {
          "internalType": "address",
          "name": "",
          "type": "address"
        }
      ],
      "stateMutability": "view",
      "type": "function"
    },
    {
      "inputs": [],
      "name": "renounceOwnership",
      "outputs": [],
      "stateMutability": "nonpayable",
      "type": "function"
    },
    {
      "inputs": [
        {
          "internalType": "bytes32",
          "name": "role",
          "type": "bytes32"
        },
        {
          "internalType": "address",
          "name": "account",
          "type": "address"
        }
      ],
      "name": "renounceRole",
      "outputs": [],
      "stateMutability": "nonpayable",
      "type": "function"
    },
    {
      "inputs": [
        {
          "internalType": "bytes32",
          "name": "role",
          "type": "bytes32"
        },
        {
          "internalType": "address",
          "name": "account",
          "type": "address"
        }
      ],
      "name": "revokeRole",
      "outputs": [],
      "stateMutability": "nonpayable",
      "type": "function"
    },
    {
      "inputs": [
        {
          "internalType": "address",
          "name": "from",
          "type": "address"
        },
        {
          "internalType": "address",
          "name": "to",
          "type": "address"
        },
        {
          "internalType": "uint256",
          "name": "tokenId",
          "type": "uint256"
        }
      ],
      "name": "safeTransferFrom",
      "outputs": [],
      "stateMutability": "nonpayable",
      "type": "function"
    },
    {
      "inputs": [
        {
          "internalType": "address",
          "name": "from",
          "type": "address"
        },
        {
          "internalType": "address",
          "name": "to",
          "type": "address"
        },
        {
          "internalType": "uint256",
          "name": "tokenId",
          "type": "uint256"
        },
        {
          "internalType": "bytes",
          "name": "_data",
          "type": "bytes"
        }
      ],
      "name": "safeTransferFrom",
      "outputs": [],
      "stateMutability": "nonpayable",
      "type": "function"
    },
    {
      "inputs": [
        {
          "internalType": "address",
          "name": "operator",
          "type": "address"
        },
        {
          "internalType": "bool",
          "name": "approved",
          "type": "bool"
        }
      ],
      "name": "setApprovalForAll",
      "outputs": [],
      "stateMutability": "nonpayable",
      "type": "function"
    },
    {
      "inputs": [
        {
          "internalType": "uint256",
          "name": "tokenId",
          "type": "uint256"
        },
        {
          "internalType": "uint256",
          "name": "amount",
          "type": "uint256"
        }
      ],
      "name": "sub",
      "outputs": [],
      "stateMutability": "nonpayable",
      "type": "function"
    },
    {
      "inputs": [
        {
          "internalType": "bytes4",
          "name": "interfaceId",
          "type": "bytes4"
        }
      ],
      "name": "supportsInterface",
      "outputs": [
        {
          "internalType": "bool",
          "name": "",
          "type": "bool"
        }
      ],
      "stateMutability": "view",
      "type": "function"
    },
    {
      "inputs": [],
      "name": "symbol",
      "outputs": [
        {
          "internalType": "string",
          "name": "",
          "type": "string"
        }
      ],
      "stateMutability": "view",
      "type": "function"
    },
    {
      "inputs": [
        {
          "internalType": "uint256",
          "name": "index",
          "type": "uint256"
        }
      ],
      "name": "tokenByIndex",
      "outputs": [
        {
          "internalType": "uint256",
          "name": "",
          "type": "uint256"
        }
      ],
      "stateMutability": "view",
      "type": "function"
    },
    {
      "inputs": [
        {
          "internalType": "address",
          "name": "owner",
          "type": "address"
        },
        {
          "internalType": "uint256",
          "name": "index",
          "type": "uint256"
        }
      ],
      "name": "tokenOfOwnerByIndex",
      "outputs": [
        {
          "internalType": "uint256",
          "name": "",
          "type": "uint256"
        }
      ],
      "stateMutability": "view",
      "type": "function"
    },
    {
      "inputs": [
        {
          "internalType": "uint256",
          "name": "tokenId",
          "type": "uint256"
        }
      ],
      "name": "tokenURI",
      "outputs": [
        {
          "internalType": "string",
          "name": "",
          "type": "string"
        }
      ],
      "stateMutability": "view",
      "type": "function"
    },
    {
      "inputs": [],
      "name": "totalSupply",
      "outputs": [
        {
          "internalType": "uint256",
          "name": "",
          "type": "uint256"
        }
      ],
      "stateMutability": "view",
      "type": "function"
    },
    {
      "inputs": [
        {
          "internalType": "address",
          "name": "from",
          "type": "address"
        },
        {
          "internalType": "address",
          "name": "to",
          "type": "address"
        },
        {
          "internalType": "uint256",
          "name": "tokenId",
          "type": "uint256"
        }
      ],
      "name": "transferFrom",
      "outputs": [],
      "stateMutability": "nonpayable",
      "type": "function"
    },
    {
      "inputs": [
        {
          "internalType": "address",
          "name": "newOwner",
          "type": "address"
        }
      ],
      "name": "transferOwnership",
      "outputs": [],
      "stateMutability": "nonpayable",
      "type": "function"
    }
  ],
  "bytecode": "0x60a06040819052600060808190526200001b91600e91620002af565b503480156200002957600080fd5b50604080518082018252600d81526c243cb13934b22c1027b93232b960991b60208083019182528351808501909452600584526427a92222a960d91b9084015281519192916200007c91600291620002af565b50805162000092906003906020840190620002af565b505050620000af620000a9620000eb60201b60201c565b620000ef565b620000bc60003362000141565b620000d3600d6200015160201b620013531760201c565b601180546001600160a01b0319163317905562000392565b3390565b600c80546001600160a01b038381166001600160a01b0319831681179093556040519116919082907f8be0079c531659141344cd1fd0a4f28419497f9722a3daafe3b4186f6b6457e090600090a35050565b6200014d82826200015a565b5050565b80546001019055565b6200017182826200019d60201b6200135c1760201c565b600082815260016020908152604090912062000198918390620013e06200023d821b17901c565b505050565b6000828152602081815260408083206001600160a01b038516845290915290205460ff166200014d576000828152602081815260408083206001600160a01b03851684529091529020805460ff19166001179055620001f93390565b6001600160a01b0316816001600160a01b0316837f2f8788117e7eff1d82e926ec794901d17c78024a50270940304540a733656f0d60405160405180910390a45050565b600062000254836001600160a01b0384166200025d565b90505b92915050565b6000818152600183016020526040812054620002a65750815460018181018455600084815260208082209093018490558454848252828601909352604090209190915562000257565b50600062000257565b828054620002bd9062000355565b90600052602060002090601f016020900481019282620002e157600085556200032c565b82601f10620002fc57805160ff19168380011785556200032c565b828001600101855582156200032c579182015b828111156200032c5782518255916020019190600101906200030f565b506200033a9291506200033e565b5090565b5b808211156200033a57600081556001016200033f565b600181811c908216806200036a57607f821691505b602082108114156200038c57634e487b7160e01b600052602260045260246000fd5b50919050565b612f1180620003a26000396000f3fe608060405234801561001057600080fd5b50600436106101c25760003560e01c806301ffc9a7146101c757806306fdde03146101ef578063081812fc14610204578063095ea7b31461022f57806318160ddd1461024457806323b872dd14610256578063248a9ca3146102695780632f2ff15d1461027c5780632f745c591461028f57806336568abe146102a257806342842e0e1461025657806342966c68146102b55780634f6ccce7146102c85780636352211e146102db57806363c69f08146102ee57806370a082311461030f578063715018a614610322578063771602f71461032a578063776af5ba1461033d5780638364d95f146103505780638da5cb5b146103635780639010d07c1461036b57806391d148541461037e5780639507d39a1461039157806395d89b41146103b1578063a217fddf146103b9578063a22cb465146103c1578063af640d0f146103d4578063b4988fd0146103dd578063b67d77c5146103f0578063b88d4fde14610403578063c87b56dd14610416578063ca15c87314610429578063d53913931461043c578063d547741f14610451578063e985e9c514610464578063ecaab6c614610477578063f2fde38b1461048a575b600080fd5b6101da6101d53660046127d0565b61049d565b60405190151581526020015b60405180910390f35b6101f76104ae565b6040516101e69190612a84565b610217610212366004612772565b610540565b6040516001600160a01b0390911681526020016101e6565b61024261023d366004612748565b6105cd565b005b600a545b6040519081526020016101e6565b610242610264366004612611565b6106de565b610248610277366004612772565b6106f9565b61024261028a36600461278b565b61070e565b61024861029d366004612748565b61072a565b6102426102b036600461278b565b6107c0565b6102426102c3366004612772565b61083e565b6102486102d6366004612772565b61092f565b6102176102e9366004612772565b6109c2565b6103016102fc3660046125c3565b610a39565b6040516101e69291906129ff565b61024861031d3660046125c3565b610bb7565b610242610c3d565b6102426103383660046127ae565b610c78565b601054610217906001600160a01b031681565b601154610217906001600160a01b031681565b610217610d8e565b6102176103793660046127ae565b610d9d565b6101da61038c36600461278b565b610dbc565b6103a461039f366004612772565b610de5565b6040516101e69190612b84565b6101f7610e35565b610248600081565b6102426103cf36600461270c565b610e75565b610248600f5481565b6102426103eb366004612893565b610e80565b6102426103fe3660046127ae565b610f18565b61024261041136600461264d565b611076565b6101f7610424366004612772565b6110f2565b610248610437366004612772565b6111bc565b610248600080516020612e9c83398151915281565b61024261045f36600461278b565b6111d3565b6101da6104723660046125de565b6111ef565b61024861048536600461280a565b61121d565b6102426104983660046125c3565b6112b3565b60006104a8826113f5565b92915050565b6060600280546104bd90612d6d565b80601f01602080910402602001604051908101604052809291908181526020018280546104e990612d6d565b80156105365780601f1061050b57610100808354040283529160200191610536565b820191906000526020600020905b81548152906001019060200180831161051957829003601f168201915b5050505050905090565b600061054b8261141a565b6105b15760405162461bcd60e51b815260206004820152602c60248201527f4552433732313a20617070726f76656420717565727920666f72206e6f6e657860448201526b34b9ba32b73a103a37b5b2b760a11b60648201526084015b60405180910390fd5b506000908152600660205260409020546001600160a01b031690565b60006105d8826109c2565b9050806001600160a01b0316836001600160a01b031614156106465760405162461bcd60e51b815260206004820152602160248201527f4552433732313a20617070726f76616c20746f2063757272656e74206f776e656044820152603960f91b60648201526084016105a8565b336001600160a01b0382161480610662575061066281336111ef565b6106cf5760405162461bcd60e51b815260206004820152603860248201527f4552433732313a20617070726f76652063616c6c6572206973206e6f74206f776044820152771b995c881b9bdc88185c1c1c9bdd995908199bdc88185b1b60421b60648201526084016105a8565b6106d98383611437565b505050565b6106d983838360405180602001604052806000815250611076565b60009081526020819052604090206001015490565b610717826106f9565b610720816114a5565b6106d983836114af565b600061073583610bb7565b82106107975760405162461bcd60e51b815260206004820152602b60248201527f455243373231456e756d657261626c653a206f776e657220696e646578206f7560448201526a74206f6620626f756e647360a81b60648201526084016105a8565b506001600160a01b03919091166000908152600860209081526040808320938352929052205490565b6001600160a01b03811633146108305760405162461bcd60e51b815260206004820152602f60248201527f416363657373436f6e74726f6c3a2063616e206f6e6c792072656e6f756e636560448201526e103937b632b9903337b91039b2b63360891b60648201526084016105a8565b61083a82826114d1565b5050565b610856600080516020612e9c83398151915233610dbc565b61089c5760405162461bcd60e51b815260206004820152602480820152600080516020612e5c833981519152604482015263313ab93760e11b60648201526084016105a8565b600081815260126020908152604091829020825160808101845281548082526001830154938201939093526002820154938101939093526003015460ff1660608301526108fb5760405162461bcd60e51b81526004016105a890612b1b565b6000828152601260205260408120818155600181018290556002810191909155600301805460ff1916905561083a826114f3565b600061093a600a5490565b821061099d5760405162461bcd60e51b815260206004820152602c60248201527f455243373231456e756d657261626c653a20676c6f62616c20696e646578206f60448201526b7574206f6620626f756e647360a01b60648201526084016105a8565b600a82815481106109b0576109b0612e19565b90600052602060002001549050919050565b6000818152600460205260408120546001600160a01b0316806104a85760405162461bcd60e51b815260206004820152602960248201527f4552433732313a206f776e657220717565727920666f72206e6f6e657869737460448201526832b73a103a37b5b2b760b91b60648201526084016105a8565b6060806000610a4784610bb7565b90508015610bb157806001600160401b03811115610a6757610a67612e2f565b604051908082528060200260200182016040528015610aa057816020015b610a8d61257c565b815260200190600190039081610a855790505b509150806001600160401b03811115610abb57610abb612e2f565b604051908082528060200260200182016040528015610ae4578160200160208202803683370190505b50925060005b81811015610baf57610afc858261072a565b848281518110610b0e57610b0e612e19565b60200260200101818152505060126000858381518110610b3057610b30612e19565b60209081029190910181015182528181019290925260409081016000208151608081018352815481526001820154938101939093526002810154918301919091526003015460ff1660608201528351849083908110610b9157610b91612e19565b60200260200101819052508080610ba790612da8565b915050610aea565b505b50915091565b60006001600160a01b038216610c215760405162461bcd60e51b815260206004820152602960248201527f4552433732313a2061646472657373207a65726f206973206e6f7420612076616044820152683634b21037bbb732b960b91b60648201526084016105a8565b506001600160a01b031660009081526005602052604090205490565b33610c46610d8e565b6001600160a01b031614610c6c5760405162461bcd60e51b81526004016105a890612b4f565b610c766000611588565b565b610c90600080516020612e9c83398151915233610dbc565b610cac5760405162461bcd60e51b81526004016105a890612a97565b600082815260126020908152604091829020825160808101845281548082526001830154938201939093526002820154938101939093526003015460ff166060830152610d0b5760405162461bcd60e51b81526004016105a890612b1b565b600080610d258484602001516115da90919063ffffffff16565b6040840151610d3490866115da565b9150915084600080516020612e7c833981519152846020015185604001518585604051610d649493929190612b92565b60405180910390a26000948552601260205260409094206001810191909155600201929092555050565b600c546001600160a01b031690565b6000828152600160205260408120610db59083611624565b9392505050565b6000918252602082815260408084206001600160a01b0393909316845291905290205460ff1690565b610ded61257c565b5060009081526012602090815260409182902082516080810184528154815260018201549281019290925260028101549282019290925260039091015460ff16606082015290565b6060610e70610e45600f54611630565b610e6a604051806040016040528060018152602001602360f81b815250610e6a611735565b90611744565b905090565b61083a3383836117f7565b6011546001600160a01b03163314610ecd5760405162461bcd60e51b815260206004820152601060248201526f27b93232b91d102327a92124a22222a760811b60448201526064016105a8565b610ed86000836118c2565b610ef0600080516020612e9c833981519152826118c2565b600f9290925550601080546001600160a01b0319166001600160a01b03909216919091179055565b610f30600080516020612e9c83398151915233610dbc565b610f765760405162461bcd60e51b81526020600482015260236024820152600080516020612e5c83398151915260448201526239bab160e91b60648201526084016105a8565b600082815260126020908152604091829020825160808101845281548082526001830154938201939093526002820154938101939093526003015460ff166060830152610fd55760405162461bcd60e51b81526004016105a890612b1b565b6040810151600090610fe790846118cc565b905080611027576000848152601260205260408120818155600181018290556002810191909155600301805460ff19169055611022846114f3565b611070565b602082015160408084015190518692600080516020612e7c833981519152926110539282908790612b92565b60405180910390a260008481526012602052604090206002018190555b50505050565b6110803383611920565b6110e65760405162461bcd60e51b815260206004820152603160248201527f4552433732313a207472616e736665722063616c6c6572206973206e6f74206f6044820152701ddb995c881b9bdc88185c1c1c9bdd9959607a1b60648201526084016105a8565b611070848484846119e9565b60606110fd8261141a565b6111615760405162461bcd60e51b815260206004820152602f60248201527f4552433732314d657461646174613a2055524920717565727920666f72206e6f60448201526e3732bc34b9ba32b73a103a37b5b2b760891b60648201526084016105a8565b600061116b611a1c565b9050600081511161118b5760405180602001604052806000815250610db5565b8061119584611630565b6040516020016111a6929190612924565b6040516020818303038152906040529392505050565b60008181526001602052604081206104a890611a2b565b6111dc826106f9565b6111e5816114a5565b6106d983836114d1565b6001600160a01b03918216600090815260076020908152604080832093909416825291909152205460ff1690565b6000611237600080516020612e9c83398151915233610dbc565b6112535760405162461bcd60e51b81526004016105a890612a97565b600d546000818152601260209081526040918290208651815590860151600182015590850151600282015560608501516003909101805460ff191660ff90921691909117905590506112a58282611a35565b6104a8600d80546001019055565b336112bc610d8e565b6001600160a01b0316146112e25760405162461bcd60e51b81526004016105a890612b4f565b6001600160a01b0381166113475760405162461bcd60e51b815260206004820152602660248201527f4f776e61626c653a206e6577206f776e657220697320746865207a65726f206160448201526564647265737360d01b60648201526084016105a8565b61135081611588565b50565b80546001019055565b6113668282610dbc565b61083a576000828152602081815260408083206001600160a01b03851684529091529020805460ff1916600117905561139c3390565b6001600160a01b0316816001600160a01b0316837f2f8788117e7eff1d82e926ec794901d17c78024a50270940304540a733656f0d60405160405180910390a45050565b6000610db5836001600160a01b038416611b61565b60006001600160e01b0319821663780e9d6360e01b14806104a857506104a882611bb0565b6000908152600460205260409020546001600160a01b0316151590565b600081815260066020526040902080546001600160a01b0319166001600160a01b038416908117909155819061146c826109c2565b6001600160a01b03167f8c5be1e5ebec7d5bd14f71427d1e84f3dd0314c0f7b2291e5b200ac8c7c3b92560405160405180910390a45050565b6113508133611bf0565b6114b9828261135c565b60008281526001602052604090206106d990826113e0565b6114db8282611c54565b60008281526001602052604090206106d99082611cb9565b60006114fe826109c2565b905061150c81600084611cce565b611517600083611437565b6001600160a01b0381166000908152600560205260408120805460019290611540908490612d13565b909155505060008281526004602052604080822080546001600160a01b0319169055518391906001600160a01b03841690600080516020612ebc833981519152908390a45050565b600c80546001600160a01b038381166001600160a01b0319831681179093556040519116919082907f8be0079c531659141344cd1fd0a4f28419497f9722a3daafe3b4186f6b6457e090600090a35050565b818101828110156104a85760405162461bcd60e51b815260206004820152601460248201527364732d6d6174682d6164642d6f766572666c6f7760601b60448201526064016105a8565b6000610db58383611cd9565b6060816116545750506040805180820190915260018152600360fc1b602082015290565b8160005b811561167e578061166881612da8565b91506116779050600a83612bf5565b9150611658565b6000816001600160401b0381111561169857611698612e2f565b6040519080825280601f01601f1916602001820160405280156116c2576020820181803683370190505b5090505b841561172d576116d7600183612d13565b91506116e4600a86612dc3565b6116ef906030612bdd565b60f81b81838151811061170457611704612e19565b60200101906001600160f81b031916908160001a905350611726600a86612bf5565b94506116c6565b949350505050565b6060600380546104bd90612d6d565b6060600061175184611d03565b9050600061175e84611d03565b805183519192506000916117729190612bdd565b6001600160401b0381111561178957611789612e2f565b6040519080825280601f01601f1916602001820160405280156117b3576020820181803683370190505b50905060006020820190506117d18185602001518660000151611d30565b83516117ed906117e19083612bdd565b60208501518551611d30565b5095945050505050565b816001600160a01b0316836001600160a01b031614156118555760405162461bcd60e51b815260206004820152601960248201527822a9219b99189d1030b8383937bb32903a379031b0b63632b960391b60448201526064016105a8565b6001600160a01b03838116600081815260076020908152604080832094871680845294825291829020805460ff191686151590811790915591519182527f17307eab39ab6107e8899845ad3d59bd9653f200f220920489ca2b5937696c31910160405180910390a3505050565b61083a82826114af565b6000818310156119165760405162461bcd60e51b815260206004820152601560248201527464732d6d6174682d7375622d756e646572666c6f7760581b60448201526064016105a8565b610db58284612d13565b600061192b8261141a565b61198c5760405162461bcd60e51b815260206004820152602c60248201527f4552433732313a206f70657261746f7220717565727920666f72206e6f6e657860448201526b34b9ba32b73a103a37b5b2b760a11b60648201526084016105a8565b6000611997836109c2565b9050806001600160a01b0316846001600160a01b031614806119be57506119be81856111ef565b8061172d5750836001600160a01b03166119d784610540565b6001600160a01b031614949350505050565b6119f4848484611daa565b611a0084848484611f3f565b6110705760405162461bcd60e51b81526004016105a890612ac9565b6060600e80546104bd90612d6d565b60006104a8825490565b6001600160a01b038216611a8b5760405162461bcd60e51b815260206004820181905260248201527f4552433732313a206d696e7420746f20746865207a65726f206164647265737360448201526064016105a8565b611a948161141a565b15611ae05760405162461bcd60e51b815260206004820152601c60248201527b115490cdcc8c4e881d1bdad95b88185b1c9958591e481b5a5b9d195960221b60448201526064016105a8565b611aec60008383611cce565b6001600160a01b0382166000908152600560205260408120805460019290611b15908490612bdd565b909155505060008181526004602052604080822080546001600160a01b0319166001600160a01b0386169081179091559051839290600080516020612ebc833981519152908290a45050565b6000818152600183016020526040812054611ba8575081546001818101845560008481526020808220909301849055845484825282860190935260409020919091556104a8565b5060006104a8565b60006001600160e01b031982166380ac58cd60e01b1480611be157506001600160e01b03198216635b5e139f60e01b145b806104a857506104a88261204c565b611bfa8282610dbc565b61083a57611c12816001600160a01b03166014612071565b611c1d836020612071565b604051602001611c2e929190612953565b60408051601f198184030181529082905262461bcd60e51b82526105a891600401612a84565b611c5e8282610dbc565b1561083a576000828152602081815260408083206001600160a01b0385168085529252808320805460ff1916905551339285917ff6391f5c32d9c69d2a47ea670b442974b53935d1edc7fd64eb21e047a839171b9190a45050565b6000610db5836001600160a01b03841661220c565b6106d98383836122ff565b6000826000018281548110611cf057611cf0612e19565b9060005260206000200154905092915050565b60408051808201825260008082526020918201528151808301909252825182529182019181019190915290565b60208110611d685781518352611d47602084612bdd565b9250611d54602083612bdd565b9150611d61602082612d13565b9050611d30565b6000198115611d97576001611d7e836020612d13565b611d8a90610100612c4c565b611d949190612d13565b90505b9151835183169219169190911790915250565b826001600160a01b0316611dbd826109c2565b6001600160a01b031614611e215760405162461bcd60e51b815260206004820152602560248201527f4552433732313a207472616e736665722066726f6d20696e636f72726563742060448201526437bbb732b960d91b60648201526084016105a8565b6001600160a01b038216611e835760405162461bcd60e51b8152602060048201526024808201527f4552433732313a207472616e7366657220746f20746865207a65726f206164646044820152637265737360e01b60648201526084016105a8565b611e8e838383611cce565b611e99600082611437565b6001600160a01b0383166000908152600560205260408120805460019290611ec2908490612d13565b90915550506001600160a01b0382166000908152600560205260408120805460019290611ef0908490612bdd565b909155505060008181526004602052604080822080546001600160a01b0319166001600160a01b038681169182179092559151849391871691600080516020612ebc83398151915291a4505050565b60006001600160a01b0384163b1561204157604051630a85bd0160e11b81526001600160a01b0385169063150b7a0290611f839033908990889088906004016129c2565b602060405180830381600087803b158015611f9d57600080fd5b505af1925050508015611fcd575060408051601f3d908101601f19168201909252611fca918101906127ed565b60015b612027573d808015611ffb576040519150601f19603f3d011682016040523d82523d6000602084013e612000565b606091505b50805161201f5760405162461bcd60e51b81526004016105a890612ac9565b805181602001fd5b6001600160e01b031916630a85bd0160e11b14905061172d565b506001949350505050565b60006001600160e01b03198216635a05180f60e01b14806104a857506104a8826123b7565b60606000612080836002612cf4565b61208b906002612bdd565b6001600160401b038111156120a2576120a2612e2f565b6040519080825280601f01601f1916602001820160405280156120cc576020820181803683370190505b509050600360fc1b816000815181106120e7576120e7612e19565b60200101906001600160f81b031916908160001a905350600f60fb1b8160018151811061211657612116612e19565b60200101906001600160f81b031916908160001a905350600061213a846002612cf4565b612145906001612bdd565b90505b60018111156121bd576f181899199a1a9b1b9c1cb0b131b232b360811b85600f166010811061217957612179612e19565b1a60f81b82828151811061218f5761218f612e19565b60200101906001600160f81b031916908160001a90535060049490941c936121b681612d56565b9050612148565b508315610db55760405162461bcd60e51b815260206004820181905260248201527f537472696e67733a20686578206c656e67746820696e73756666696369656e7460448201526064016105a8565b600081815260018301602052604081205480156122f5576000612230600183612d13565b855490915060009061224490600190612d13565b90508181146122a957600086600001828154811061226457612264612e19565b906000526020600020015490508087600001848154811061228757612287612e19565b6000918252602080832090910192909255918252600188019052604090208390555b85548690806122ba576122ba612e03565b6001900381819060005260206000200160009055905585600101600086815260200190815260200160002060009055600193505050506104a8565b60009150506104a8565b6001600160a01b03831661235a5761235581600a80546000838152600b60205260408120829055600182018355919091527fc65a7bb8d6351c1cf70c95a316cc6a92839c986682d98bc35f958f4883f9d2a80155565b61237d565b816001600160a01b0316836001600160a01b03161461237d5761237d83826123ec565b6001600160a01b038216612394576106d981612489565b826001600160a01b0316826001600160a01b0316146106d9576106d98282612538565b60006001600160e01b03198216637965db0b60e01b14806104a857506301ffc9a760e01b6001600160e01b03198316146104a8565b600060016123f984610bb7565b6124039190612d13565b600083815260096020526040902054909150808214612456576001600160a01b03841660009081526008602090815260408083208584528252808320548484528184208190558352600990915290208190555b5060009182526009602090815260408084208490556001600160a01b039094168352600881528383209183525290812055565b600a5460009061249b90600190612d13565b6000838152600b6020526040812054600a80549394509092849081106124c3576124c3612e19565b9060005260206000200154905080600a83815481106124e4576124e4612e19565b6000918252602080832090910192909255828152600b9091526040808220849055858252812055600a80548061251c5761251c612e03565b6001900381819060005260206000200160009055905550505050565b600061254383610bb7565b6001600160a01b039093166000908152600860209081526040808320868452825280832085905593825260099052919091209190915550565b6040518060800160405280600081526020016000815260200160008152602001600060ff1681525090565b80356001600160a01b03811681146125be57600080fd5b919050565b6000602082840312156125d557600080fd5b610db5826125a7565b600080604083850312156125f157600080fd5b6125fa836125a7565b9150612608602084016125a7565b90509250929050565b60008060006060848603121561262657600080fd5b61262f846125a7565b925061263d602085016125a7565b9150604084013590509250925092565b6000806000806080858703121561266357600080fd5b61266c856125a7565b9350602061267b8187016125a7565b93506040860135925060608601356001600160401b038082111561269e57600080fd5b818801915088601f8301126126b257600080fd5b8135818111156126c4576126c4612e2f565b6126d6601f8201601f19168501612bad565b915080825289848285010111156126ec57600080fd5b808484018584013760008482840101525080935050505092959194509250565b6000806040838503121561271f57600080fd5b612728836125a7565b91506020830135801515811461273d57600080fd5b809150509250929050565b6000806040838503121561275b57600080fd5b612764836125a7565b946020939093013593505050565b60006020828403121561278457600080fd5b5035919050565b6000806040838503121561279e57600080fd5b82359150612608602084016125a7565b600080604083850312156127c157600080fd5b50508035926020909101359150565b6000602082840312156127e257600080fd5b8135610db581612e45565b6000602082840312156127ff57600080fd5b8151610db581612e45565b60008082840360a081121561281e57600080fd5b608081121561282c57600080fd5b50604051608081016001600160401b038111828210171561284f5761284f612e2f565b8060405250833581526020840135602082015260408401356040820152606084013560ff8116811461288057600080fd5b60608201529150612608608084016125a7565b6000806000606084860312156128a857600080fd5b833592506128b8602085016125a7565b91506128c6604085016125a7565b90509250925092565b600081518084526128e7816020860160208601612d2a565b601f01601f19169290920160200192915050565b80518252602081015160208301526040810151604083015260ff60608201511660608301525050565b60008351612936818460208801612d2a565b83519083019061294a818360208801612d2a565b01949350505050565b76020b1b1b2b9b9a1b7b73a3937b61d1030b1b1b7bab73a1604d1b815260008351612985816017850160208801612d2a565b7001034b99036b4b9b9b4b733903937b6329607d1b60179184019182015283516129b6816028840160208801612d2a565b01602801949350505050565b6001600160a01b03858116825284166020820152604081018390526080606082018190526000906129f5908301846128cf565b9695505050505050565b604080825283519082018190526000906020906060840190828701845b82811015612a3857815184529284019290840190600101612a1c565b5050508381038285015284518082528583019183019060005b81811015612a7757612a648385516128fb565b9284019260809290920191600101612a51565b5090979650505050505050565b602081526000610db560208301846128cf565b6020808252602490820152600080516020612e5c8339815191526040820152631b5a5b9d60e21b606082015260800190565b60208082526032908201527f4552433732313a207472616e7366657220746f206e6f6e20455243373231526560408201527131b2b4bb32b91034b6b83632b6b2b73a32b960711b606082015260800190565b6020808252601a908201527913d49111548e881bdc99195c881b5d5cdd08189948195e1a5cdd60321b604082015260600190565b6020808252818101527f4f776e61626c653a2063616c6c6572206973206e6f7420746865206f776e6572604082015260600190565b608081016104a882846128fb565b93845260208401929092526040830152606082015260800190565b604051601f8201601f191681016001600160401b0381118282101715612bd557612bd5612e2f565b604052919050565b60008219821115612bf057612bf0612dd7565b500190565b600082612c0457612c04612ded565b500490565b600181815b80851115612c44578160001904821115612c2a57612c2a612dd7565b80851615612c3757918102915b93841c9390800290612c0e565b509250929050565b6000610db58383600082612c62575060016104a8565b81612c6f575060006104a8565b8160018114612c855760028114612c8f57612cab565b60019150506104a8565b60ff841115612ca057612ca0612dd7565b50506001821b6104a8565b5060208310610133831016604e8410600b8410161715612cce575081810a6104a8565b612cd88383612c09565b8060001904821115612cec57612cec612dd7565b029392505050565b6000816000190483118215151615612d0e57612d0e612dd7565b500290565b600082821015612d2557612d25612dd7565b500390565b60005b83811015612d45578181015183820152602001612d2d565b838111156110705750506000910152565b600081612d6557612d65612dd7565b506000190190565b600181811c90821680612d8157607f821691505b60208210811415612da257634e487b7160e01b600052602260045260246000fd5b50919050565b6000600019821415612dbc57612dbc612dd7565b5060010190565b600082612dd257612dd2612ded565b500690565b634e487b7160e01b600052601160045260246000fd5b634e487b7160e01b600052601260045260246000fd5b634e487b7160e01b600052603160045260246000fd5b634e487b7160e01b600052603260045260246000fd5b634e487b7160e01b600052604160045260246000fd5b6001600160e01b03198116811461135057600080fdfe4f524445523a206d7573742068617665206d696e74657220726f6c6520746f20d7e47ee0030dc14f409cd574609ad568521a19bb09d8c27a721b44b4244eb7199f2df0fed2c77648de5860a4cc508cd0818c85b8b8a1ab4ceeef8d981c8956a6ddf252ad1be2c89b69c2b068fc378daa952ba7f163c4a11628f55a4df523b3efa2646970667358221220ccca7fb371cb91623156baa892043e0165a3197330f60f599e5c65dc36ca9d0d64736f6c63430008050033",
  "linkReferences": {},
  "deployedLinkReferences": {}
}