{
  "_format": "hh-sol-artifact-1",
  "contractName": "OrderBookFactory",
  "sourceName": "contracts/core/orderbook/OrderBookFactory.sol",
  "abi": [
    {
      "inputs": [
        {
          "internalType": "address",
          "name": "_config",
          "type": "address"
        }
      ],
      "stateMutability": "nonpayable",
      "type": "constructor"
    },
    {
      "anonymous": false,
      "inputs": [
        {
          "indexed": false,
          "internalType": "address",
          "name": "",
          "type": "address"
        },
        {
          "indexed": false,
          "internalType": "address",
          "name": "",
          "type": "address"
        },
        {
          "indexed": false,
          "internalType": "address",
          "name": "",
          "type": "address"
        },
        {
          "indexed": false,
          "internalType": "address",
          "name": "",
          "type": "address"
        }
      ],
      "name": "OrderBookCreated",
      "type": "event"
    },
    {
      "anonymous": false,
      "inputs": [
        {
          "indexed": false,
          "internalType": "address",
          "name": "",
          "type": "address"
        },
        {
          "indexed": false,
          "internalType": "address",
          "name": "",
          "type": "address"
        },
        {
          "indexed": false,
          "internalType": "address",
          "name": "",
          "type": "address"
        },
        {
          "indexed": false,
          "internalType": "address",
          "name": "",
          "type": "address"
        }
      ],
      "name": "OrderNFTCreated",
      "type": "event"
    },
    {
      "anonymous": false,
      "inputs": [
        {
          "indexed": false,
          "internalType": "address",
          "name": "",
          "type": "address"
        },
        {
          "indexed": false,
          "internalType": "address",
          "name": "",
          "type": "address"
        },
        {
          "indexed": false,
          "internalType": "address",
          "name": "",
          "type": "address"
        },
        {
          "indexed": false,
          "internalType": "address",
          "name": "",
          "type": "address"
        }
      ],
      "name": "OrderUtilCreated",
      "type": "event"
    },
    {
      "inputs": [],
      "name": "allOrderBookLength",
      "outputs": [
        {
          "internalType": "uint256",
          "name": "",
          "type": "uint256"
        }
      ],
      "stateMutability": "view",
      "type": "function"
    },
    {
      "inputs": [
        {
          "internalType": "uint256",
          "name": "",
          "type": "uint256"
        }
      ],
      "name": "allOrderBookQueries",
      "outputs": [
        {
          "internalType": "address",
          "name": "",
          "type": "address"
        }
      ],
      "stateMutability": "view",
      "type": "function"
    },
    {
      "inputs": [],
      "name": "allOrderBookQueryLength",
      "outputs": [
        {
          "internalType": "uint256",
          "name": "",
          "type": "uint256"
        }
      ],
      "stateMutability": "view",
      "type": "function"
    },
    {
      "inputs": [
        {
          "internalType": "uint256",
          "name": "",
          "type": "uint256"
        }
      ],
      "name": "allOrderBooks",
      "outputs": [
        {
          "internalType": "address",
          "name": "",
          "type": "address"
        }
      ],
      "stateMutability": "view",
      "type": "function"
    },
    {
      "inputs": [],
      "name": "allOrderNFTLength",
      "outputs": [
        {
          "internalType": "uint256",
          "name": "",
          "type": "uint256"
        }
      ],
      "stateMutability": "view",
      "type": "function"
    },
    {
      "inputs": [
        {
          "internalType": "uint256",
          "name": "",
          "type": "uint256"
        }
      ],
      "name": "allOrderNFTs",
      "outputs": [
        {
          "internalType": "address",
          "name": "",
          "type": "address"
        }
      ],
      "stateMutability": "view",
      "type": "function"
    },
    {
      "inputs": [],
      "name": "config",
      "outputs": [
        {
          "internalType": "address",
          "name": "",
          "type": "address"
        }
      ],
      "stateMutability": "view",
      "type": "function"
    },
    {
      "inputs": [
        {
          "internalType": "address",
          "name": "baseToken",
          "type": "address"
        },
        {
          "internalType": "address",
          "name": "quoteToken",
          "type": "address"
        }
      ],
      "name": "createOrderBook",
      "outputs": [
        {
          "internalType": "address",
          "name": "orderBook",
          "type": "address"
        }
      ],
      "stateMutability": "nonpayable",
      "type": "function"
    },
    {
      "inputs": [
        {
          "internalType": "address",
          "name": "",
          "type": "address"
        },
        {
          "internalType": "address",
          "name": "",
          "type": "address"
        }
      ],
      "name": "getOrderBook",
      "outputs": [
        {
          "internalType": "address",
          "name": "",
          "type": "address"
        }
      ],
      "stateMutability": "view",
      "type": "function"
    },
    {
      "inputs": [],
      "name": "getOrderBookCodeHash",
      "outputs": [
        {
          "internalType": "bytes32",
          "name": "",
          "type": "bytes32"
        }
      ],
      "stateMutability": "view",
      "type": "function"
    },
    {
      "inputs": [
        {
          "internalType": "address",
          "name": "",
          "type": "address"
        },
        {
          "internalType": "address",
          "name": "",
          "type": "address"
        }
      ],
      "name": "getOrderBookQuery",
      "outputs": [
        {
          "internalType": "address",
          "name": "",
          "type": "address"
        }
      ],
      "stateMutability": "view",
      "type": "function"
    },
    {
      "inputs": [
        {
          "internalType": "address",
          "name": "",
          "type": "address"
        },
        {
          "internalType": "address",
          "name": "",
          "type": "address"
        }
      ],
      "name": "getOrderNFT",
      "outputs": [
        {
          "internalType": "address",
          "name": "",
          "type": "address"
        }
      ],
      "stateMutability": "view",
      "type": "function"
    },
    {
      "inputs": [],
      "name": "getOrderNFTCodeHash",
      "outputs": [
        {
          "internalType": "bytes32",
          "name": "",
          "type": "bytes32"
        }
      ],
      "stateMutability": "view",
      "type": "function"
    }
  ],
  "bytecode": "0x608060405234801561001057600080fd5b50604051610ebb380380610ebb83398101604081905261002f91610054565b600680546001600160a01b0319166001600160a01b0392909216919091179055610084565b60006020828403121561006657600080fd5b81516001600160a01b038116811461007d57600080fd5b9392505050565b610e28806100936000396000f3fe608060405234801561001057600080fd5b50600436106100af5760003560e01c8063064220f6146100b4578063203d39ff146100e45780632f0ab78c14610118578063316cc2dd1461012b5780633ae0d02c1461013d5780634300577414610145578063472c66701461017957806379502c551461018c57806392e000181461019f57806397adc7a2146101a7578063b346ceb8146101d8578063bb531732146101e0578063f8fe2bf6146101e8575b600080fd5b6100c76100c2366004610c78565b6101fb565b6040516001600160a01b0390911681526020015b60405180910390f35b6100c76100f2366004610c78565b60016020908152600092835260408084209091529082529020546001600160a01b031681565b6100c7610126366004610d80565b610b3a565b6004545b6040519081526020016100db565b61012f610b64565b6100c7610153366004610c78565b60026020908152600092835260408084209091529082529020546001600160a01b031681565b6100c7610187366004610d80565b610bf0565b6006546100c7906001600160a01b031681565b60055461012f565b6100c76101b5366004610c78565b60006020818152928152604080822090935290815220546001600160a01b031681565b61012f610c00565b60035461012f565b6100c76101f6366004610d80565b610c44565b6000816001600160a01b0316836001600160a01b031614156102725760405162461bcd60e51b815260206004820152602560248201527f4f72646572426f6f6b466163746f72793a204944454e544943414c5f41444452604482015264455353455360d81b60648201526084015b60405180910390fd5b600080836001600160a01b0316856001600160a01b031610610295578385610298565b84845b90925090506001600160a01b0382166102f35760405162461bcd60e51b815260206004820152601e60248201527f4f72646572426f6f6b466163746f72793a205a45524f5f4144445245535300006044820152606401610269565b6001600160a01b038281166000908152600160209081526040808320858516845290915290205416156103745760405162461bcd60e51b815260206004820152602360248201527f4f72646572426f6f6b466163746f72793a204f524445525f424f4f4b5f45584960448201526253545360e81b6064820152608401610269565b600654604080516323dbf90760e01b815290516000926001600160a01b0316916323dbf9079160048083019286929190829003018186803b1580156103b857600080fd5b505afa1580156103cc573d6000803e3d6000fd5b505050506040513d6000823e601f3d908101601f191682016040526103f49190810190610cb1565b905080516000141561045a5760405162461bcd60e51b815260206004820152602960248201527f4f72646572426f6f6b466163746f72793a204e4f5f4f524445525f424f4f4b5f604482015268425954455f434f444560b81b6064820152608401610269565b60065460408051636a6e4ce560e11b815290516000926001600160a01b03169163d4dc99ca9160048083019286929190829003018186803b15801561049e57600080fd5b505afa1580156104b2573d6000803e3d6000fd5b505050506040513d6000823e601f3d908101601f191682016040526104da9190810190610cb1565b905080516000141561053f5760405162461bcd60e51b815260206004820152602860248201527f4f72646572426f6f6b466163746f72793a204e4f5f4f524445525f4e46545f426044820152675954455f434f444560c01b6064820152608401610269565b600654604080516345cfa53160e11b815290516000926001600160a01b031691638b9f4a62916004808301926020929190829003018186803b15801561058457600080fd5b505afa158015610598573d6000803e3d6000fd5b505050506040513d601f19601f820116820180604052508101906105bc9190610c54565b60405163e6a4390560e01b81526001600160a01b0387811660048301528681166024830152919091169063e6a439059060440160206040518083038186803b15801561060757600080fd5b505afa15801561061b573d6000803e3d6000fd5b505050506040513d601f19601f8201168201806040525081019061063f9190610c54565b90506001600160a01b0381166106a75760405162461bcd60e51b815260206004820152602760248201527f4f72646572426f6f6b466163746f72793a20544f4b454e5f504149525f4e4f546044820152665f45584953545360c81b6064820152608401610269565b6040516001600160601b0319606087811b8216602084015286901b166034820152600090604801604051602081830303815290604052805190602001209050808451602086016000f596506001600160a01b03871661075b5760405162461bcd60e51b815260206004820152602a60248201527f4f72646572426f6f6b466163746f72793a204352454154455f4f524445525f4260448201526913d3d2d7d1905253115160b21b6064820152608401610269565b6040516001600160601b0319606089811b8216602084015288811b8216603484015287901b166048820152605c016040516020818303038152906040528051906020012090506000818451602086016000f590506001600160a01b0381166108175760405162461bcd60e51b815260206004820152602960248201527f4f72646572426f6f6b466163746f72793a204352454154455f4f524445525f4e604482015268119517d1905253115160ba1b6064820152608401610269565b806001600160a01b031663b4988fd0600380549050600660009054906101000a90046001600160a01b03166001600160a01b0316638da5cb5b6040518163ffffffff1660e01b815260040160206040518083038186803b15801561087a57600080fd5b505afa15801561088e573d6000803e3d6000fd5b505050506040513d601f19601f820116820180604052508101906108b29190610c54565b6040516001600160e01b031960e085901b16815260048101929092526001600160a01b0390811660248301528b166044820152606401600060405180830381600087803b15801561090257600080fd5b505af1158015610916573d6000803e3d6000fd5b5050506001600160a01b038089166000818152602081815260408083208c8616845282528083208383528184209484529390915280822080549487166001600160a01b031995861681179091558354851681179093556003805460018101825592527fc2575a0e9e593c00f959f8c92f12db2869c3395a3b0502d05e2516446f71f85b9091018054909316909117909155517f74129a43e9a6bcc2df4d3aad0a9d75460f9559d92704a75e70cfedf38f94bc1f91506109dc908a908d908d908690610d99565b60405180910390a1600654604051630a2ca2bd60e11b81526001600160a01b0385811660048301528c811660248301528b811660448301528381166064830152918216608482015290891690631459457a9060a401600060405180830381600087803b158015610a4b57600080fd5b505af1158015610a5f573d6000803e3d6000fd5b5050506001600160a01b0380891660008181526001602081815260408084208d871685528252808420838352818520958552949091528083208054958f166001600160a01b031996871681179091558454861681179094556004805492830181559092527f8a35acfbc15ff81a39ae7d344fd709f28e8600b4aa8c65c6b64bfe7fe36bd19b018054909316909117909155517f267321d338ea43666c6df03413112ca765618ba630a099f14954f6d04e6d79cc9150610b259085908d908d908d90610d99565b60405180910390a15050505050505092915050565b60038181548110610b4a57600080fd5b6000918252602090912001546001600160a01b0316905081565b600654604080516323dbf90760e01b815290516000926001600160a01b0316916323dbf9079160048083019286929190829003018186803b158015610ba857600080fd5b505afa158015610bbc573d6000803e3d6000fd5b505050506040513d6000823e601f3d908101601f19168201604052610be49190810190610cb1565b80519060200120905090565b60048181548110610b4a57600080fd5b60065460408051636a6e4ce560e11b815290516000926001600160a01b03169163d4dc99ca9160048083019286929190829003018186803b158015610ba857600080fd5b60058181548110610b4a57600080fd5b600060208284031215610c6657600080fd5b8151610c7181610dda565b9392505050565b60008060408385031215610c8b57600080fd5b8235610c9681610dda565b91506020830135610ca681610dda565b809150509250929050565b60006020808385031215610cc457600080fd5b82516001600160401b0380821115610cdb57600080fd5b818501915085601f830112610cef57600080fd5b815181811115610d0157610d01610dc4565b604051601f8201601f19908116603f01168101908382118183101715610d2957610d29610dc4565b816040528281528886848701011115610d4157600080fd5b600093505b82841015610d635784840186015181850187015292850192610d46565b82841115610d745760008684830101525b98975050505050505050565b600060208284031215610d9257600080fd5b5035919050565b6001600160a01b03948516815292841660208401529083166040830152909116606082015260800190565b634e487b7160e01b600052604160045260246000fd5b6001600160a01b0381168114610def57600080fd5b5056fea26469706673582212202380681334deb8c662bacc687414a7b2cc9326de826bc2419b64b0948a4c359064736f6c63430008050033",
  "linkReferences": {},
  "deployedLinkReferences": {}
}