{
  "_format": "hh-sol-artifact-1",
  "contractName": "Config",
  "sourceName": "contracts/config/Config.sol",
  "abi": [
    {
      "inputs": [
        {
          "internalType": "address",
          "name": "_wETH",
          "type": "address"
        }
      ],
      "stateMutability": "nonpayable",
      "type": "constructor"
    },
    {
      "anonymous": false,
      "inputs": [
        {
          "indexed": true,
          "internalType": "address",
          "name": "previousOwner",
          "type": "address"
        },
        {
          "indexed": true,
          "internalType": "address",
          "name": "newOwner",
          "type": "address"
        }
      ],
      "name": "OwnershipTransferred",
      "type": "event"
    },
    {
      "inputs": [
        {
          "internalType": "bytes",
          "name": "byteCode",
          "type": "bytes"
        },
        {
          "internalType": "uint256",
          "name": "flag",
          "type": "uint256"
        }
      ],
      "name": "appendOrderBookByteCode",
      "outputs": [],
      "stateMutability": "nonpayable",
      "type": "function"
    },
    {
      "inputs": [
        {
          "internalType": "bytes",
          "name": "byteCode",
          "type": "bytes"
        },
        {
          "internalType": "uint256",
          "name": "flag",
          "type": "uint256"
        }
      ],
      "name": "appendOrderNFTByteCode",
      "outputs": [],
      "stateMutability": "nonpayable",
      "type": "function"
    },
    {
      "inputs": [
        {
          "internalType": "address",
          "name": "orderBook",
          "type": "address"
        }
      ],
      "name": "baseSignificantDigits",
      "outputs": [
        {
          "internalType": "uint256",
          "name": "",
          "type": "uint256"
        }
      ],
      "stateMutability": "view",
      "type": "function"
    },
    {
      "inputs": [
        {
          "internalType": "address",
          "name": "",
          "type": "address"
        }
      ],
      "name": "baseSignificantDigitsMap",
      "outputs": [
        {
          "internalType": "uint256",
          "name": "",
          "type": "uint256"
        }
      ],
      "stateMutability": "view",
      "type": "function"
    },
    {
      "inputs": [
        {
          "internalType": "address",
          "name": "orderBook",
          "type": "address"
        },
        {
          "internalType": "uint256",
          "name": "newBaseSignificantDigits",
          "type": "uint256"
        }
      ],
      "name": "baseSignificantDigitsUpdate",
      "outputs": [],
      "stateMutability": "nonpayable",
      "type": "function"
    },
    {
      "inputs": [],
      "name": "defaultProtocolFeeRate",
      "outputs": [
        {
          "internalType": "uint256",
          "name": "",
          "type": "uint256"
        }
      ],
      "stateMutability": "view",
      "type": "function"
    },
    {
      "inputs": [],
      "name": "defaultSubsidyFeeRate",
      "outputs": [
        {
          "internalType": "uint256",
          "name": "",
          "type": "uint256"
        }
      ],
      "stateMutability": "view",
      "type": "function"
    },
    {
      "inputs": [],
      "name": "getOrderBookByteCode",
      "outputs": [
        {
          "internalType": "bytes",
          "name": "bytecode",
          "type": "bytes"
        }
      ],
      "stateMutability": "view",
      "type": "function"
    },
    {
      "inputs": [],
      "name": "getOrderBookFactory",
      "outputs": [
        {
          "internalType": "address",
          "name": "",
          "type": "address"
        }
      ],
      "stateMutability": "view",
      "type": "function"
    },
    {
      "inputs": [],
      "name": "getOrderBookQuery",
      "outputs": [
        {
          "internalType": "address",
          "name": "",
          "type": "address"
        }
      ],
      "stateMutability": "view",
      "type": "function"
    },
    {
      "inputs": [],
      "name": "getOrderNFTByteCode",
      "outputs": [
        {
          "internalType": "bytes",
          "name": "bytecode",
          "type": "bytes"
        }
      ],
      "stateMutability": "view",
      "type": "function"
    },
    {
      "inputs": [],
      "name": "getPairFactory",
      "outputs": [
        {
          "internalType": "address",
          "name": "",
          "type": "address"
        }
      ],
      "stateMutability": "view",
      "type": "function"
    },
    {
      "inputs": [],
      "name": "owner",
      "outputs": [
        {
          "internalType": "address",
          "name": "",
          "type": "address"
        }
      ],
      "stateMutability": "view",
      "type": "function"
    },
    {
      "inputs": [
        {
          "internalType": "address",
          "name": "orderBook",
          "type": "address"
        },
        {
          "internalType": "uint256",
          "name": "price",
          "type": "uint256"
        }
      ],
      "name": "priceStep",
      "outputs": [
        {
          "internalType": "uint256",
          "name": "",
          "type": "uint256"
        }
      ],
      "stateMutability": "view",
      "type": "function"
    },
    {
      "inputs": [],
      "name": "priceStepFactor",
      "outputs": [
        {
          "internalType": "uint256",
          "name": "",
          "type": "uint256"
        }
      ],
      "stateMutability": "view",
      "type": "function"
    },
    {
      "inputs": [
        {
          "internalType": "uint256",
          "name": "newPriceStepFactor",
          "type": "uint256"
        }
      ],
      "name": "priceStepFactorUpdate",
      "outputs": [],
      "stateMutability": "nonpayable",
      "type": "function"
    },
    {
      "inputs": [
        {
          "internalType": "address",
          "name": "",
          "type": "address"
        }
      ],
      "name": "priceStepMap",
      "outputs": [
        {
          "internalType": "uint256",
          "name": "",
          "type": "uint256"
        }
      ],
      "stateMutability": "view",
      "type": "function"
    },
    {
      "inputs": [
        {
          "internalType": "address",
          "name": "orderBook",
          "type": "address"
        },
        {
          "internalType": "uint256",
          "name": "newPriceStep",
          "type": "uint256"
        }
      ],
      "name": "priceStepUpdate",
      "outputs": [],
      "stateMutability": "nonpayable",
      "type": "function"
    },
    {
      "inputs": [
        {
          "internalType": "address",
          "name": "orderBook",
          "type": "address"
        }
      ],
      "name": "protocolFeeRate",
      "outputs": [
        {
          "internalType": "uint256",
          "name": "",
          "type": "uint256"
        }
      ],
      "stateMutability": "view",
      "type": "function"
    },
    {
      "inputs": [
        {
          "internalType": "address",
          "name": "",
          "type": "address"
        }
      ],
      "name": "protocolFeeRateMap",
      "outputs": [
        {
          "internalType": "uint256",
          "name": "",
          "type": "uint256"
        }
      ],
      "stateMutability": "view",
      "type": "function"
    },
    {
      "inputs": [
        {
          "internalType": "address",
          "name": "orderBook",
          "type": "address"
        },
        {
          "internalType": "uint256",
          "name": "newProtocolFeeRate",
          "type": "uint256"
        }
      ],
      "name": "protocolFeeRateUpdate",
      "outputs": [],
      "stateMutability": "nonpayable",
      "type": "function"
    },
    {
      "inputs": [
        {
          "internalType": "address",
          "name": "orderBook",
          "type": "address"
        }
      ],
      "name": "quoteSignificantDigits",
      "outputs": [
        {
          "internalType": "uint256",
          "name": "",
          "type": "uint256"
        }
      ],
      "stateMutability": "view",
      "type": "function"
    },
    {
      "inputs": [
        {
          "internalType": "address",
          "name": "",
          "type": "address"
        }
      ],
      "name": "quoteSignificantDigitsMap",
      "outputs": [
        {
          "internalType": "uint256",
          "name": "",
          "type": "uint256"
        }
      ],
      "stateMutability": "view",
      "type": "function"
    },
    {
      "inputs": [
        {
          "internalType": "address",
          "name": "orderBook",
          "type": "address"
        },
        {
          "internalType": "uint256",
          "name": "newQuoteSignificantDigits",
          "type": "uint256"
        }
      ],
      "name": "quoteSignificantDigitsUpdate",
      "outputs": [],
      "stateMutability": "nonpayable",
      "type": "function"
    },
    {
      "inputs": [],
      "name": "renounceOwnership",
      "outputs": [],
      "stateMutability": "nonpayable",
      "type": "function"
    },
    {
      "inputs": [
        {
          "internalType": "bytes",
          "name": "byteCode",
          "type": "bytes"
        }
      ],
      "name": "setOrderBookByteCode",
      "outputs": [],
      "stateMutability": "nonpayable",
      "type": "function"
    },
    {
      "inputs": [
        {
          "internalType": "address",
          "name": "newOrderBookFactory",
          "type": "address"
        }
      ],
      "name": "setOrderBookFactory",
      "outputs": [],
      "stateMutability": "nonpayable",
      "type": "function"
    },
    {
      "inputs": [
        {
          "internalType": "address",
          "name": "newOrderBookQuery",
          "type": "address"
        }
      ],
      "name": "setOrderBookQuery",
      "outputs": [],
      "stateMutability": "nonpayable",
      "type": "function"
    },
    {
      "inputs": [
        {
          "internalType": "bytes",
          "name": "byteCode",
          "type": "bytes"
        }
      ],
      "name": "setOrderNFTByteCode",
      "outputs": [],
      "stateMutability": "nonpayable",
      "type": "function"
    },
    {
      "inputs": [
        {
          "internalType": "address",
          "name": "newPairFactory",
          "type": "address"
        }
      ],
      "name": "setPairFactory",
      "outputs": [],
      "stateMutability": "nonpayable",
      "type": "function"
    },
    {
      "inputs": [
        {
          "internalType": "address",
          "name": "orderBook",
          "type": "address"
        }
      ],
      "name": "subsidyFeeRate",
      "outputs": [
        {
          "internalType": "uint256",
          "name": "",
          "type": "uint256"
        }
      ],
      "stateMutability": "view",
      "type": "function"
    },
    {
      "inputs": [
        {
          "internalType": "address",
          "name": "",
          "type": "address"
        }
      ],
      "name": "subsidyFeeRateMap",
      "outputs": [
        {
          "internalType": "uint256",
          "name": "",
          "type": "uint256"
        }
      ],
      "stateMutability": "view",
      "type": "function"
    },
    {
      "inputs": [
        {
          "internalType": "address",
          "name": "orderBook",
          "type": "address"
        },
        {
          "internalType": "uint256",
          "name": "newSubsidyFeeRate",
          "type": "uint256"
        }
      ],
      "name": "subsidyFeeRateUpdate",
      "outputs": [],
      "stateMutability": "nonpayable",
      "type": "function"
    },
    {
      "inputs": [
        {
          "internalType": "address",
          "name": "newOwner",
          "type": "address"
        }
      ],
      "name": "transferOwnership",
      "outputs": [],
      "stateMutability": "nonpayable",
      "type": "function"
    },
    {
      "inputs": [],
      "name": "wETH",
      "outputs": [
        {
          "internalType": "address",
          "name": "",
          "type": "address"
        }
      ],
      "stateMutability": "view",
      "type": "function"
    }
  ],
  "bytecode": "0x6080604052601e6001556032600255600160075534801561001f57600080fd5b5060405161159438038061159483398101604081905261003e916100bc565b6100473361006c565b600980546001600160a01b0319166001600160a01b03929092169190911790556100ec565b600080546001600160a01b038381166001600160a01b0319831681178455604051919092169283917f8be0079c531659141344cd1fd0a4f28419497f9722a3daafe3b4186f6b6457e09190a35050565b6000602082840312156100ce57600080fd5b81516001600160a01b03811681146100e557600080fd5b9392505050565b611499806100fb6000396000f3fe608060405234801561001057600080fd5b50600436106101a15760003560e01c80630c52e0ac146101a657806313afc3e4146101d95780631450d2a1146101ec5780631d5279771461020c57806323dbf90714610215578063322d94571461022a5780633ea8b1681461023d5780633f364153146102525780634010f8291461026557806349fb36b6146102785780635c4e4c121461028b5780636573c2311461029e57806365c3e8b5146102be5780636b01815a146102d15780636eb5ef46146102e4578063715018a6146102f7578063754423f1146102ff5780637964bac914610308578063850e74d61461031b57806387c67fcd1461032e5780638b9f4a62146103415780638da5cb5b146103615780639971aebc146103695780639ea9a6e814610372578063d47a4bcf14610385578063d4dc99ca14610398578063d52744f4146103a0578063def0d2cb146103b3578063f2428621146103c4578063f24b1f56146103d7578063f2fde38b146103ea578063f66d3b1f146103fd578063f724802514610410578063f8638a9a14610430578063fd7f5cc714610450575b600080fd5b6101c66101b4366004611160565b60046020526000908152604090205481565b6040519081526020015b60405180910390f35b6101c66101e7366004611160565b610461565b6101c66101fa366004611160565b60056020526000908152604090205481565b6101c660015481565b61021d6104a3565b6040516101d09190611301565b6101c661023836600461117b565b61059b565b61025061024b36600461117b565b61060d565b005b61025061026036600461117b565b610679565b6101c6610273366004611160565b6106e5565b6101c6610286366004611160565b610727565b6102506102993660046111e1565b610761565b6101c66102ac366004611160565b60086020526000908152604090205481565b6102506102cc3660046111e1565b610835565b6102506102df3660046111a5565b61090a565b6102506102f23660046111a5565b6109b1565b610250610a58565b6101c660075481565b610250610316366004611160565b610a93565b610250610329366004611160565b610b0e565b61025061033c366004611160565b610b98565b610349610c1f565b6040516001600160a01b0390911681526020016101d0565b610349610c89565b6101c660025481565b61025061038036600461117b565b610c98565b61025061039336600461117b565b610d28565b61021d610d8d565b6101c66103ae366004611160565b610dfb565b600f546001600160a01b0316610349565b600954610349906001600160a01b031681565b6102506103e5366004611225565b610e3d565b6102506103f8366004611160565b610eca565b61025061040b36600461117b565b610f6a565b6101c661041e366004611160565b60036020526000908152604090205481565b6101c661043e366004611160565b60066020526000908152604090205481565b6010546001600160a01b0316610349565b6001600160a01b0381166000908152600360205260408120541561049b57506001600160a01b031660009081526003602052604090205490565b505060015490565b6060600d546000141561050b5760405162461bcd60e51b815260206004820152602560248201527f4f7264657220426f6f6b2042797465636f6465206e6f742073657420636f6d706044820152643632ba329760d91b60648201526084015b60405180910390fd5b600c805461051890611412565b80601f016020809104026020016040519081016040528092919081815260200182805461054490611412565b80156105915780601f1061056657610100808354040283529160200191610591565b820191906000526020600020905b81548152906001019060200180831161057457829003601f168201915b5050505050905090565b6001600160a01b038216600090815260086020526040812054156105d857506001600160a01b038216600090815260086020526040902054610607565b612710821115610600576007546105f161271084611393565b6105fb91906113b5565b610604565b6127105b90505b92915050565b33610616610c89565b6001600160a01b03161461063c5760405162461bcd60e51b81526004016105029061135e565b601e81111561065d5760405162461bcd60e51b815260040161050290611334565b6001600160a01b03909116600090815260036020526040902055565b33610682610c89565b6001600160a01b0316146106a85760405162461bcd60e51b81526004016105029061135e565b60648111156106c95760405162461bcd60e51b815260040161050290611334565b6001600160a01b03909116600090815260046020526040902055565b6001600160a01b0381166000908152600660205260408120541561071f57506001600160a01b031660009081526006602052604090205490565b506006919050565b6001600160a01b0381166000908152600560205260408120541561071f57506001600160a01b031660009081526005602052604090205490565b3361076a610c89565b6001600160a01b0316146107905760405162461bcd60e51b81526004016105029061135e565b600b54156107f05760405162461bcd60e51b815260206004820152602760248201527f4f72646572204e46542042797465636f64652073657420636f6d706c65746520604482015266616c726561647960c81b6064820152608401610502565b600a8260405160200161080492919061125a565b604051602081830303815290604052600a908051906020019061082892919061101f565b50600b8054909117905550565b3361083e610c89565b6001600160a01b0316146108645760405162461bcd60e51b81526004016105029061135e565b600d54156108c55760405162461bcd60e51b815260206004820152602860248201527f4f7264657220426f6f6b2042797465636f64652073657420636f6d706c65746560448201526720616c726561647960c01b6064820152608401610502565b600c826040516020016108d992919061125a565b604051602081830303815290604052600c90805190602001906108fd92919061101f565b50600d8054909117905550565b33610913610c89565b6001600160a01b0316146109395760405162461bcd60e51b81526004016105029061135e565b600a805461094690611412565b1590506109955760405162461bcd60e51b815260206004820152601e60248201527f4f72646572204e46542042797465636f64652073657420616c726561647900006044820152606401610502565b80516109a890600a90602084019061101f565b50506001600b55565b336109ba610c89565b6001600160a01b0316146109e05760405162461bcd60e51b81526004016105029061135e565b600c80546109ed90611412565b159050610a3c5760405162461bcd60e51b815260206004820152601f60248201527f4f7264657220426f6f6b2042797465636f64652073657420616c7265616479006044820152606401610502565b8051610a4f90600c90602084019061101f565b50506001600d55565b33610a61610c89565b6001600160a01b031614610a875760405162461bcd60e51b81526004016105029061135e565b610a916000610fcf565b565b600e546001600160a01b031615610aec5760405162461bcd60e51b815260206004820181905260248201527f5061697220466163746f727920416464726573732073657420616c72656164796044820152606401610502565b600e80546001600160a01b0319166001600160a01b0392909216919091179055565b600f546001600160a01b031615610b765760405162461bcd60e51b815260206004820152602660248201527f4f7264657220426f6f6b20466163746f727920416464726573732073657420616044820152656c726561647960d01b6064820152608401610502565b600f80546001600160a01b0319166001600160a01b0392909216919091179055565b6010546001600160a01b031615610bfd5760405162461bcd60e51b8152602060048201526024808201527f4f7264657220426f6f6b20517565727920416464726573732073657420616c726044820152636561647960e01b6064820152608401610502565b601080546001600160a01b0319166001600160a01b0392909216919091179055565b600e546000906001600160a01b0316610c795760405162461bcd60e51b815260206004820152601c60248201527b14185a5c88119858dd1bdc9e481059191c995cdcc81b9bdd081cd95d60221b6044820152606401610502565b50600e546001600160a01b031690565b6000546001600160a01b031690565b33610ca1610c89565b6001600160a01b031614610cc75760405162461bcd60e51b81526004016105029061135e565b60008111610d0c5760405162461bcd60e51b81526020600482015260126024820152710496e76616c696420507269636520537465760741b6044820152606401610502565b6001600160a01b03909116600090815260086020526040902055565b33610d31610c89565b6001600160a01b031614610d575760405162461bcd60e51b81526004016105029061135e565b600081118015610d68575060128111155b610d7157600080fd5b6001600160a01b03909116600090815260056020526040902055565b6060600b5460001415610dee5760405162461bcd60e51b8152602060048201526024808201527f4f72646572204e46542042797465636f6465206e6f742073657420636f6d706c60448201526332ba329760e11b6064820152608401610502565b600a805461051890611412565b6001600160a01b03811660009081526004602052604081205415610e3557506001600160a01b031660009081526004602052604090205490565b505060025490565b33610e46610c89565b6001600160a01b031614610e6c5760405162461bcd60e51b81526004016105029061135e565b600081118015610e7d575060648111155b610ec55760405162461bcd60e51b815260206004820152601960248201527824b73b30b634b210283934b1b29029ba32b8102330b1ba37b960391b6044820152606401610502565b600755565b33610ed3610c89565b6001600160a01b031614610ef95760405162461bcd60e51b81526004016105029061135e565b6001600160a01b038116610f5e5760405162461bcd60e51b815260206004820152602660248201527f4f776e61626c653a206e6577206f776e657220697320746865207a65726f206160448201526564647265737360d01b6064820152608401610502565b610f6781610fcf565b50565b33610f73610c89565b6001600160a01b031614610f995760405162461bcd60e51b81526004016105029061135e565b600081118015610faa575060128111155b610fb357600080fd5b6001600160a01b03909116600090815260066020526040902055565b600080546001600160a01b038381166001600160a01b0319831681178455604051919092169283917f8be0079c531659141344cd1fd0a4f28419497f9722a3daafe3b4186f6b6457e09190a35050565b82805461102b90611412565b90600052602060002090601f01602090048101928261104d5760008555611093565b82601f1061106657805160ff1916838001178555611093565b82800160010185558215611093579182015b82811115611093578251825591602001919060010190611078565b5061109f9291506110a3565b5090565b5b8082111561109f57600081556001016110a4565b80356001600160a01b03811681146110cf57600080fd5b919050565b600082601f8301126110e557600080fd5b81356001600160401b03808211156110ff576110ff61144d565b604051601f8301601f19908116603f011681019082821181831017156111275761112761144d565b8160405283815286602085880101111561114057600080fd5b836020870160208301376000602085830101528094505050505092915050565b60006020828403121561117257600080fd5b610604826110b8565b6000806040838503121561118e57600080fd5b611197836110b8565b946020939093013593505050565b6000602082840312156111b757600080fd5b81356001600160401b038111156111cd57600080fd5b6111d9848285016110d4565b949350505050565b600080604083850312156111f457600080fd5b82356001600160401b0381111561120a57600080fd5b611216858286016110d4565b95602094909401359450505050565b60006020828403121561123757600080fd5b5035919050565b600081516112508185602086016113e2565b9290920192915050565b600080845481600182811c91508083168061127657607f831692505b602080841082141561129657634e487b7160e01b86526022600452602486fd5b8180156112aa57600181146112bb576112e8565b60ff198616895284890196506112e8565b60008b81526020902060005b868110156112e05781548b8201529085019083016112c7565b505084890196505b5050505050506112f8818561123e565b95945050505050565b60208152600082518060208401526113208160408501602087016113e2565b601f01601f19169190910160400192915050565b60208082526010908201526f496e76616c696420466565205261746560801b604082015260600190565b6020808252818101527f4f776e61626c653a2063616c6c6572206973206e6f7420746865206f776e6572604082015260600190565b6000826113b057634e487b7160e01b600052601260045260246000fd5b500490565b60008160001904831182151516156113dd57634e487b7160e01b600052601160045260246000fd5b500290565b60005b838110156113fd5781810151838201526020016113e5565b8381111561140c576000848401525b50505050565b600181811c9082168061142657607f821691505b6020821081141561144757634e487b7160e01b600052602260045260246000fd5b50919050565b634e487b7160e01b600052604160045260246000fdfea2646970667358221220fd5a8e407abd02018bae3eec199f4f5026a4882c13ac553f238c4ec0effc355264736f6c63430008050033",
  "linkReferences": {},
  "deployedLinkReferences": {}
}