{
  "_format": "hh-sol-artifact-1",
  "contractName": "PairUtils",
  "sourceName": "contracts/periphery/pair/PairUtils.sol",
  "abi": [
    {
      "inputs": [
        {
          "internalType": "address",
          "name": "_config",
          "type": "address"
        }
      ],
      "stateMutability": "nonpayable",
      "type": "constructor"
    },
    {
      "inputs": [],
      "name": "config",
      "outputs": [
        {
          "internalType": "address",
          "name": "",
          "type": "address"
        }
      ],
      "stateMutability": "view",
      "type": "function"
    },
    {
      "inputs": [
        {
          "internalType": "uint256",
          "name": "amountOut",
          "type": "uint256"
        },
        {
          "internalType": "uint256",
          "name": "reserveIn",
          "type": "uint256"
        },
        {
          "internalType": "uint256",
          "name": "reserveOut",
          "type": "uint256"
        }
      ],
      "name": "getAmountIn",
      "outputs": [
        {
          "internalType": "uint256",
          "name": "amountIn",
          "type": "uint256"
        }
      ],
      "stateMutability": "pure",
      "type": "function"
    },
    {
      "inputs": [
        {
          "internalType": "uint256",
          "name": "amountIn",
          "type": "uint256"
        },
        {
          "internalType": "uint256",
          "name": "reserveIn",
          "type": "uint256"
        },
        {
          "internalType": "uint256",
          "name": "reserveOut",
          "type": "uint256"
        }
      ],
      "name": "getAmountOut",
      "outputs": [
        {
          "internalType": "uint256",
          "name": "amountOut",
          "type": "uint256"
        }
      ],
      "stateMutability": "pure",
      "type": "function"
    },
    {
      "inputs": [
        {
          "internalType": "uint256",
          "name": "amountOut",
          "type": "uint256"
        },
        {
          "internalType": "address[]",
          "name": "path",
          "type": "address[]"
        }
      ],
      "name": "getAmountsIn",
      "outputs": [
        {
          "internalType": "uint256[]",
          "name": "amounts",
          "type": "uint256[]"
        },
        {
          "internalType": "uint256[]",
          "name": "extra",
          "type": "uint256[]"
        }
      ],
      "stateMutability": "view",
      "type": "function"
    },
    {
      "inputs": [
        {
          "internalType": "uint256",
          "name": "amountIn",
          "type": "uint256"
        },
        {
          "internalType": "address[]",
          "name": "path",
          "type": "address[]"
        }
      ],
      "name": "getAmountsOut",
      "outputs": [
        {
          "internalType": "uint256[]",
          "name": "amounts",
          "type": "uint256[]"
        },
        {
          "internalType": "uint256[]",
          "name": "extra",
          "type": "uint256[]"
        }
      ],
      "stateMutability": "view",
      "type": "function"
    },
    {
      "inputs": [
        {
          "internalType": "uint256",
          "name": "amountOut",
          "type": "uint256"
        },
        {
          "internalType": "address[]",
          "name": "paths",
          "type": "address[]"
        },
        {
          "internalType": "uint256[]",
          "name": "lens",
          "type": "uint256[]"
        }
      ],
      "name": "getBestAmountsIn",
      "outputs": [
        {
          "internalType": "address[]",
          "name": "path",
          "type": "address[]"
        },
        {
          "internalType": "uint256[]",
          "name": "amounts",
          "type": "uint256[]"
        },
        {
          "internalType": "uint256[]",
          "name": "extra",
          "type": "uint256[]"
        }
      ],
      "stateMutability": "view",
      "type": "function"
    },
    {
      "inputs": [
        {
          "internalType": "uint256",
          "name": "amountIn",
          "type": "uint256"
        },
        {
          "internalType": "address[]",
          "name": "paths",
          "type": "address[]"
        },
        {
          "internalType": "uint256[]",
          "name": "lens",
          "type": "uint256[]"
        }
      ],
      "name": "getBestAmountsOut",
      "outputs": [
        {
          "internalType": "address[]",
          "name": "path",
          "type": "address[]"
        },
        {
          "internalType": "uint256[]",
          "name": "amounts",
          "type": "uint256[]"
        },
        {
          "internalType": "uint256[]",
          "name": "extra",
          "type": "uint256[]"
        }
      ],
      "stateMutability": "view",
      "type": "function"
    },
    {
      "inputs": [
        {
          "internalType": "address",
          "name": "tokenA",
          "type": "address"
        },
        {
          "internalType": "address",
          "name": "tokenB",
          "type": "address"
        }
      ],
      "name": "getReserves",
      "outputs": [
        {
          "internalType": "uint256",
          "name": "reserveA",
          "type": "uint256"
        },
        {
          "internalType": "uint256",
          "name": "reserveB",
          "type": "uint256"
        }
      ],
      "stateMutability": "view",
      "type": "function"
    },
    {
      "inputs": [
        {
          "internalType": "uint256",
          "name": "amountA",
          "type": "uint256"
        },
        {
          "internalType": "uint256",
          "name": "reserveA",
          "type": "uint256"
        },
        {
          "internalType": "uint256",
          "name": "reserveB",
          "type": "uint256"
        }
      ],
      "name": "quote",
      "outputs": [
        {
          "internalType": "uint256",
          "name": "amountB",
          "type": "uint256"
        }
      ],
      "stateMutability": "pure",
      "type": "function"
    }
  ],
  "bytecode": "0x60806040523480156200001157600080fd5b506040516200259c3803806200259c83398101604081905262000034916200005a565b600080546001600160a01b0319166001600160a01b03929092169190911790556200008c565b6000602082840312156200006d57600080fd5b81516001600160a01b03811681146200008557600080fd5b9392505050565b612500806200009c6000396000f3fe608060405234801561001057600080fd5b50600436106100835760003560e01c8063054d50d4146100885780630dd5aa5b146100ae5780631f00ca74146100d0578063403cbfc0146100f157806379502c551461010457806385f8c2591461012f578063ad615dec14610142578063d06ca61f14610155578063d52bb6f414610168575b600080fd5b61009b610096366004612136565b610190565b6040519081526020015b60405180910390f35b6100c16100bc366004611fc8565b6101a7565b6040516100a5939291906121db565b6100e36100de366004611f82565b6103f4565b6040516100a5929190612246565b6100c16100ff366004611fc8565b610491565b600054610117906001600160a01b031681565b6040516001600160a01b0390911681526020016100a5565b61009b61013d366004612136565b6106c4565b61009b610150366004612136565b6106d1565b6100e3610163366004611f82565b6106de565b61017b610176366004611ef9565b61076f565b604080519283526020830191909152016100a5565b600061019d84848461080c565b90505b9392505050565b6060806060600084516001600160401b038111156101c7576101c761249c565b6040519080825280602002602001820160405280156101fa57816020015b60608152602001906001900390816101e55790505b5090506000805b86518110156103345786818151811061021c5761021c612486565b60200260200101516001600160401b0381111561023b5761023b61249c565b604051908082528060200260200182016040528015610264578160200160208202803683370190505b5083828151811061027757610277612486565b602002602001018190525060005b83828151811061029757610297612486565b6020026020010151518110156103215788836102b28161243f565b9450815181106102c4576102c4612486565b60200260200101518483815181106102de576102de612486565b602002602001015182815181106102f7576102f7612486565b6001600160a01b0390921660209283029190910190910152806103198161243f565b915050610285565b508061032c8161243f565b915050610201565b508087511461035e5760405162461bcd60e51b815260040161035590612333565b60405180910390fd5b600054604080516345cfa53160e11b815290516103e3926001600160a01b031691638b9f4a62916004808301926020929190829003018186803b1580156103a457600080fd5b505afa1580156103b8573d6000803e3d6000fd5b505050506040513d601f19601f820116820180604052508101906103dc9190611edc565b89846108d6565b945094509450505093509350939050565b60608061048560008054906101000a90046001600160a01b03166001600160a01b0316638b9f4a626040518163ffffffff1660e01b815260040160206040518083038186803b15801561044657600080fd5b505afa15801561045a573d6000803e3d6000fd5b505050506040513d601f19601f8201168201806040525081019061047e9190611edc565b85856109da565b915091505b9250929050565b6060806060600084516001600160401b038111156104b1576104b161249c565b6040519080825280602002602001820160405280156104e457816020015b60608152602001906001900390816104cf5790505b5090506000805b865181101561061e5786818151811061050657610506612486565b60200260200101516001600160401b038111156105255761052561249c565b60405190808252806020026020018201604052801561054e578160200160208202803683370190505b5083828151811061056157610561612486565b602002602001018190525060005b83828151811061058157610581612486565b60200260200101515181101561060b57888361059c8161243f565b9450815181106105ae576105ae612486565b60200260200101518483815181106105c8576105c8612486565b602002602001015182815181106105e1576105e1612486565b6001600160a01b0390921660209283029190910190910152806106038161243f565b91505061056f565b50806106168161243f565b9150506104eb565b508087511461063f5760405162461bcd60e51b815260040161035590612333565b600054604080516345cfa53160e11b815290516103e3926001600160a01b031691638b9f4a62916004808301926020929190829003018186803b15801561068557600080fd5b505afa158015610699573d6000803e3d6000fd5b505050506040513d601f19601f820116820180604052508101906106bd9190611edc565b8984611119565b600061019d8484846111de565b600061019d8484846112a2565b60608061048560008054906101000a90046001600160a01b03166001600160a01b0316638b9f4a626040518163ffffffff1660e01b815260040160206040518083038186803b15801561073057600080fd5b505afa158015610744573d6000803e3d6000fd5b505050506040513d601f19601f820116820180604052508101906107689190611edc565b858561132e565b60008061080060008054906101000a90046001600160a01b03166001600160a01b0316638b9f4a626040518163ffffffff1660e01b815260040160206040518083038186803b1580156107c157600080fd5b505afa1580156107d5573d6000803e3d6000fd5b505050506040513d601f19601f820116820180604052508101906107f99190611edc565b85856119fa565b50909590945092505050565b600080841161085d5760405162461bcd60e51b815260206004820152601d60248201527f504c3a20494e53554646494349454e545f494e5055545f414d4f554e540000006044820152606401610355565b60008311801561086d5750600082115b6108895760405162461bcd60e51b815260040161035590612274565b6000610897856103e5611b5d565b905060006108a58285611b5d565b905060006108bf836108b9886103e8611b5d565b90611bc4565b90506108cb81836123d0565b979650505050505050565b60608060606001845110156108fd5760405162461bcd60e51b815260040161035590612308565b60008060005b86518110156109b2576000806109338b8b8b868151811061092657610926612486565b602002602001015161132e565b9150915081600183516109469190612411565b8151811061095657610956612486565b602002602001015184101561099d578282600184516109759190612411565b8151811061098557610985612486565b60209081029190910101519297509095509350915084845b505080806109aa9061243f565b915050610903565b508582815181106109c5576109c5612486565b60200260200101519450505093509350939050565b6060806002835110156109ff5760405162461bcd60e51b8152600401610355906122de565b82516001600160401b03811115610a1857610a1861249c565b604051908082528060200260200182016040528015610a41578160200160208202803683370190505b50915060018351610a529190612411565b610a5d9060066123f2565b6001600160401b03811115610a7457610a7461249c565b604051908082528060200260200182016040528015610a9d578160200160208202803683370190505b509050838260018451610ab09190612411565b81518110610ac057610ac0612486565b6020026020010181815250506000856001600160a01b03166379502c556040518163ffffffff1660e01b815260040160206040518083038186803b158015610b0757600080fd5b505afa158015610b1b573d6000803e3d6000fd5b505050506040513d601f19601f82011682018060405250810190610b3f9190611edc565b90506000816001600160a01b031663fd7f5cc76040518163ffffffff1660e01b815260040160206040518083038186803b158015610b7c57600080fd5b505afa158015610b90573d6000803e3d6000fd5b505050506040513d601f19601f82011682018060405250810190610bb49190611edc565b9050600060018651610bc69190612411565b90505b801561110e576000610c188488610be1600186612411565b81518110610bf157610bf1612486565b6020026020010151898581518110610c0b57610c0b612486565b6020026020010151611c0e565b90506000610c27600184612411565b610c329060066123f2565b90506001600160a01b03821615610ee0576001600160a01b038416610c695760405162461bcd60e51b8152600401610355906122a8565b6060846001600160a01b031663d766ae72848b8781518110610c8d57610c8d612486565b60200260200101518b8881518110610ca757610ca7612486565b60200260200101516040518463ffffffff1660e01b8152600401610ccd939291906121b7565b60006040518083038186803b158015610ce557600080fd5b505afa158015610cf9573d6000803e3d6000fd5b505050506040513d6000823e601f3d908101601f19168201604052610d219190810190612091565b89610d2d600188612411565b81518110610d3d57610d3d612486565b6020026020010181935082815250505080600081518110610d6057610d60612486565b602002602001015181600181518110610d7b57610d7b612486565b6020026020010151888481518110610d9557610d95612486565b6020026020010189856001610daa91906123b8565b81518110610dba57610dba612486565b602002602001018281525082815250505080600281518110610dde57610dde612486565b602002602001015181600381518110610df957610df9612486565b602002602001015182600481518110610e1457610e14612486565b602002602001015183600581518110610e2f57610e2f612486565b60200260200101518a866002610e4591906123b8565b81518110610e5557610e55612486565b602002602001018b876003610e6a91906123b8565b81518110610e7a57610e7a612486565b602002602001018c886004610e8f91906123b8565b81518110610e9f57610e9f612486565b602002602001018d896005610eb491906123b8565b81518110610ec457610ec4612486565b60209081029190910101939093529290915291905252506110f9565b600080610f2a8c8b610ef3600189612411565b81518110610f0357610f03612486565b60200260200101518c8881518110610f1d57610f1d612486565b60200260200101516119fa565b5091509150600082118015610f575750888581518110610f4c57610f4c612486565b602002602001015181115b8015610f7c57506000898681518110610f7257610f72612486565b6020026020010151115b156110f657610fa5898681518110610f9657610f96612486565b602002602001015183836111de565b89610fb1600188612411565b81518110610fc157610fc1612486565b602090810291909101015288610fd8600187612411565b81518110610fe857610fe8612486565b602002602001015182610ffb91906123b8565b89868151811061100d5761100d612486565b6020026020010151826110209190612411565b8a61102c600189612411565b8151811061103c5761103c612486565b60200260200101518b888151811061105657611056612486565b60200260200101518b878151811061107057611070612486565b602002602001018c88600161108591906123b8565b8151811061109557611095612486565b602002602001018d8960026110aa91906123b8565b815181106110ba576110ba612486565b602002602001018e8a60036110cf91906123b8565b815181106110df576110df612486565b602090810291909101019390935292909152919052525b50505b5050808061110690612428565b915050610bc9565b505050935093915050565b60608060606001845110156111405760405162461bcd60e51b815260040161035590612308565b6000600019815b86518110156109b2576000806111778b8b8b868151811061116a5761116a612486565b60200260200101516109da565b915091508160008151811061118e5761118e612486565b60200260200101518411156111c95782826000815181106111b1576111b1612486565b60209081029190910101519297509095509350915084845b505080806111d69061243f565b915050611147565b600080841161122f5760405162461bcd60e51b815260206004820152601e60248201527f504c3a20494e53554646494349454e545f4f55545055545f414d4f554e5400006044820152606401610355565b60008311801561123f5750600082115b61125b5760405162461bcd60e51b815260040161035590612274565b60006112736103e861126d8688611b5d565b90611b5d565b905060006112876103e561126d8689611d21565b905061129860016108b983856123d0565b9695505050505050565b60008084116112ed5760405162461bcd60e51b815260206004820152601760248201527614130e88125394d551919250d251539517d05353d55395604a1b6044820152606401610355565b6000831180156112fd5750600082115b6113195760405162461bcd60e51b815260040161035590612274565b826113248584611b5d565b61019d91906123d0565b6060806002835110156113535760405162461bcd60e51b8152600401610355906122de565b82516001600160401b0381111561136c5761136c61249c565b604051908082528060200260200182016040528015611395578160200160208202803683370190505b50915083826000815181106113ac576113ac612486565b602002602001018181525050600183516113c69190612411565b6113d19060066123f2565b6001600160401b038111156113e8576113e861249c565b604051908082528060200260200182016040528015611411578160200160208202803683370190505b5090506000856001600160a01b03166379502c556040518163ffffffff1660e01b815260040160206040518083038186803b15801561144f57600080fd5b505afa158015611463573d6000803e3d6000fd5b505050506040513d601f19601f820116820180604052508101906114879190611edc565b90506000816001600160a01b031663fd7f5cc76040518163ffffffff1660e01b815260040160206040518083038186803b1580156114c457600080fd5b505afa1580156114d8573d6000803e3d6000fd5b505050506040513d601f19601f820116820180604052508101906114fc9190611edc565b905060005b6001865161150f9190612411565b81101561110e5760006115238260066123f2565b905060006115638589858151811061153d5761153d612486565b60200260200101518a86600161155391906123b8565b81518110610c0b57610c0b612486565b90506001600160a01b03811615611811576001600160a01b03841661159a5760405162461bcd60e51b8152600401610355906122a8565b6060846001600160a01b031663a51926b7838b87815181106115be576115be612486565b60200260200101518b88815181106115d8576115d8612486565b60200260200101516040518463ffffffff1660e01b81526004016115fe939291906121b7565b60006040518083038186803b15801561161657600080fd5b505afa15801561162a573d6000803e3d6000fd5b505050506040513d6000823e601f3d908101601f191682016040526116529190810190612091565b8961165e8760016123b8565b8151811061166e5761166e612486565b602002602001018193508281525050508060008151811061169157611691612486565b6020026020010151816001815181106116ac576116ac612486565b60200260200101518885815181106116c6576116c6612486565b60200260200101898660016116db91906123b8565b815181106116eb576116eb612486565b60200260200101828152508281525050508060028151811061170f5761170f612486565b60200260200101518160038151811061172a5761172a612486565b60200260200101518260048151811061174557611745612486565b60200260200101518360058151811061176057611760612486565b60200260200101518a87600261177691906123b8565b8151811061178657611786612486565b602002602001018b88600361179b91906123b8565b815181106117ab576117ab612486565b602002602001018c8960046117c091906123b8565b815181106117d0576117d0612486565b602002602001018d8a60056117e591906123b8565b815181106117f5576117f5612486565b60209081029190910101939093529290915291905252506119e5565b6000806118508c8b878151811061182a5761182a612486565b60200260200101518c88600161184091906123b8565b81518110610f1d57610f1d612486565b50915091506000821180156118655750600081115b156119e25761188e89868151811061187f5761187f612486565b6020026020010151838361080c565b8961189a8760016123b8565b815181106118aa576118aa612486565b6020026020010181815250508885815181106118c8576118c8612486565b6020026020010151826118db91906123b8565b896118e78760016123b8565b815181106118f7576118f7612486565b60200260200101518261190a9190612411565b8a878151811061191c5761191c612486565b60200260200101518b88600161193291906123b8565b8151811061194257611942612486565b60200260200101518b888151811061195c5761195c612486565b602002602001018c89600161197191906123b8565b8151811061198157611981612486565b602002602001018d8a600261199691906123b8565b815181106119a6576119a6612486565b602002602001018e8b60036119bb91906123b8565b815181106119cb576119cb612486565b602090810291909101019390935292909152919052525b50505b505080806119f29061243f565b915050611501565b600080600080611a0a8686611d75565b5060405163e6a4390560e01b81529091506001600160a01b0388169063e6a4390590611a3c908990899060040161219d565b60206040518083038186803b158015611a5457600080fd5b505afa158015611a68573d6000803e3d6000fd5b505050506040513d601f19601f82011682018060405250810190611a8c9190611edc565b91506001600160a01b03821615611b5357600080836001600160a01b0316630902f1ac6040518163ffffffff1660e01b815260040160606040518083038186803b158015611ad957600080fd5b505afa158015611aed573d6000803e3d6000fd5b505050506040513d601f19601f82011682018060405250810190611b119190611f32565b506001600160701b031691506001600160701b03169150826001600160a01b0316886001600160a01b031614611b48578082611b4b565b81815b909650945050505b5093509350939050565b818102811580611b7b575082828281611b7857611b78612470565b04145b611bbe5760405162461bcd60e51b815260206004820152601460248201527364732d6d6174682d6d756c2d6f766572666c6f7760601b6044820152606401610355565b92915050565b81810182811015611bbe5760405162461bcd60e51b815260206004820152601460248201527364732d6d6174682d6164642d6f766572666c6f7760601b6044820152606401610355565b600080846001600160a01b031663def0d2cb6040518163ffffffff1660e01b815260040160206040518083038186803b158015611c4a57600080fd5b505afa158015611c5e573d6000803e3d6000fd5b505050506040513d601f19601f82011682018060405250810190611c829190611edc565b90506001600160a01b03811615611d195760405163203d39ff60e01b81526001600160a01b0382169063203d39ff90611cc1908790879060040161219d565b60206040518083038186803b158015611cd957600080fd5b505afa158015611ced573d6000803e3d6000fd5b505050506040513d601f19601f82011682018060405250810190611d119190611edc565b9150506101a0565b509392505050565b600081831015611d6b5760405162461bcd60e51b815260206004820152601560248201527464732d6d6174682d7375622d756e646572666c6f7760581b6044820152606401610355565b6101a08284612411565b600080826001600160a01b0316846001600160a01b03161415611dd45760405162461bcd60e51b8152602060048201526017602482015276504c3a204944454e544943414c5f41444452455353455360481b6044820152606401610355565b826001600160a01b0316846001600160a01b031610611df4578284611df7565b83835b90925090506001600160a01b03821661048a5760405162461bcd60e51b815260206004820152601060248201526f504c3a205a45524f5f4144445245535360801b6044820152606401610355565b600082601f830112611e5657600080fd5b81356020611e6b611e6683612395565b612365565b80838252828201915082860187848660051b8901011115611e8b57600080fd5b60005b85811015611eb3578135611ea1816124b2565b84529284019290840190600101611e8e565b5090979650505050505050565b80516001600160701b0381168114611ed757600080fd5b919050565b600060208284031215611eee57600080fd5b81516101a0816124b2565b60008060408385031215611f0c57600080fd5b8235611f17816124b2565b91506020830135611f27816124b2565b809150509250929050565b600080600060608486031215611f4757600080fd5b611f5084611ec0565b9250611f5e60208501611ec0565b9150604084015163ffffffff81168114611f7757600080fd5b809150509250925092565b60008060408385031215611f9557600080fd5b8235915060208301356001600160401b03811115611fb257600080fd5b611fbe85828601611e45565b9150509250929050565b600080600060608486031215611fdd57600080fd5b833592506020808501356001600160401b0380821115611ffc57600080fd5b61200888838901611e45565b9450604087013591508082111561201e57600080fd5b508501601f8101871361203057600080fd5b803561203e611e6682612395565b8082825284820191508484018a868560051b870101111561205e57600080fd5b600094505b83851015612081578035835260019490940193918501918501612063565b5080955050505050509250925092565b600080604083850312156120a457600080fd5b8251602080850151919350906001600160401b038111156120c457600080fd5b8401601f810186136120d557600080fd5b80516120e3611e6682612395565b80828252848201915084840189868560051b870101111561210357600080fd5b600094505b83851015612126578051835260019490940193918501918501612108565b5080955050505050509250929050565b60008060006060848603121561214b57600080fd5b505081359360208301359350604090920135919050565b600081518084526020808501945080840160005b8381101561219257815187529582019590820190600101612176565b509495945050505050565b6001600160a01b0392831681529116602082015260400190565b6001600160a01b039384168152919092166020820152604081019190915260600190565b606080825284519082018190526000906020906080840190828801845b8281101561221d5781516001600160a01b0316845292840192908401906001016121f8565b505050838103828501526122318187612162565b91505082810360408401526112988185612162565b6040815260006122596040830185612162565b828103602084015261226b8185612162565b95945050505050565b6020808252601a9082015279504c3a20494e53554646494349454e545f4c495155494449545960301b604082015260600190565b6020808252601c908201527b14130e8813d491115497d093d3d2d7d45551549657d393d517d4d15560221b604082015260600190565b60208082526010908201526f0a0987440929cac82989288bea082a8960831b604082015260600190565b602080825260119082015270504c3a20494e56414c49445f504154485360781b604082015260600190565b602080825260189082015277506169725574696c733a20494e56414c49445f504154485360401b604082015260600190565b604051601f8201601f191681016001600160401b038111828210171561238d5761238d61249c565b604052919050565b60006001600160401b038211156123ae576123ae61249c565b5060051b60200190565b600082198211156123cb576123cb61245a565b500190565b6000826123ed57634e487b7160e01b600052601260045260246000fd5b500490565b600081600019048311821515161561240c5761240c61245a565b500290565b6000828210156124235761242361245a565b500390565b6000816124375761243761245a565b506000190190565b60006000198214156124535761245361245a565b5060010190565b634e487b7160e01b600052601160045260246000fd5b634e487b7160e01b600052601260045260246000fd5b634e487b7160e01b600052603260045260246000fd5b634e487b7160e01b600052604160045260246000fd5b6001600160a01b03811681146124c757600080fd5b5056fea2646970667358221220f7151cf4071964f754c0c3ab0ef49a52ab488bd863e85a2d0106c6e939909ed364736f6c63430008050033",
  "linkReferences": {},
  "deployedLinkReferences": {}
}