{
  "_format": "hh-sol-artifact-1",
  "contractName": "OrderBook",
  "sourceName": "contracts/core/orderbook/OrderBook.sol",
  "abi": [
    {
      "inputs": [],
      "stateMutability": "nonpayable",
      "type": "constructor"
    },
    {
      "inputs": [],
      "name": "baseBalance",
      "outputs": [
        {
          "internalType": "uint256",
          "name": "",
          "type": "uint256"
        }
      ],
      "stateMutability": "view",
      "type": "function"
    },
    {
      "inputs": [],
      "name": "baseDecimal",
      "outputs": [
        {
          "internalType": "uint256",
          "name": "decimal",
          "type": "uint256"
        }
      ],
      "stateMutability": "view",
      "type": "function"
    },
    {
      "inputs": [],
      "name": "baseToken",
      "outputs": [
        {
          "internalType": "address",
          "name": "",
          "type": "address"
        }
      ],
      "stateMutability": "view",
      "type": "function"
    },
    {
      "inputs": [
        {
          "internalType": "address",
          "name": "to",
          "type": "address"
        },
        {
          "internalType": "uint256",
          "name": "orderId",
          "type": "uint256"
        },
        {
          "internalType": "uint256",
          "name": "amount",
          "type": "uint256"
        }
      ],
      "name": "cancelLimitOrder",
      "outputs": [],
      "stateMutability": "nonpayable",
      "type": "function"
    },
    {
      "inputs": [],
      "name": "config",
      "outputs": [
        {
          "internalType": "address",
          "name": "",
          "type": "address"
        }
      ],
      "stateMutability": "view",
      "type": "function"
    },
    {
      "inputs": [
        {
          "internalType": "address",
          "name": "user",
          "type": "address"
        },
        {
          "internalType": "uint256",
          "name": "price",
          "type": "uint256"
        },
        {
          "internalType": "address",
          "name": "to",
          "type": "address"
        }
      ],
      "name": "createBuyLimitOrder",
      "outputs": [
        {
          "internalType": "uint256",
          "name": "orderId",
          "type": "uint256"
        }
      ],
      "stateMutability": "nonpayable",
      "type": "function"
    },
    {
      "inputs": [
        {
          "internalType": "address",
          "name": "user",
          "type": "address"
        },
        {
          "internalType": "uint256",
          "name": "price",
          "type": "uint256"
        },
        {
          "internalType": "address",
          "name": "to",
          "type": "address"
        }
      ],
      "name": "createSellLimitOrder",
      "outputs": [
        {
          "internalType": "uint256",
          "name": "orderId",
          "type": "uint256"
        }
      ],
      "stateMutability": "nonpayable",
      "type": "function"
    },
    {
      "inputs": [],
      "name": "getFeeRate",
      "outputs": [
        {
          "internalType": "uint256",
          "name": "protocolFeeRate",
          "type": "uint256"
        },
        {
          "internalType": "uint256",
          "name": "subsidyFeeRate",
          "type": "uint256"
        }
      ],
      "stateMutability": "view",
      "type": "function"
    },
    {
      "inputs": [],
      "name": "getPrice",
      "outputs": [
        {
          "internalType": "uint256",
          "name": "price",
          "type": "uint256"
        }
      ],
      "stateMutability": "view",
      "type": "function"
    },
    {
      "inputs": [],
      "name": "getReserves",
      "outputs": [
        {
          "internalType": "uint112",
          "name": "reserveBase",
          "type": "uint112"
        },
        {
          "internalType": "uint112",
          "name": "reserveQuote",
          "type": "uint112"
        }
      ],
      "stateMutability": "view",
      "type": "function"
    },
    {
      "inputs": [
        {
          "internalType": "address",
          "name": "_pair",
          "type": "address"
        },
        {
          "internalType": "address",
          "name": "_baseToken",
          "type": "address"
        },
        {
          "internalType": "address",
          "name": "_quoteToken",
          "type": "address"
        },
        {
          "internalType": "address",
          "name": "_orderNFT",
          "type": "address"
        },
        {
          "internalType": "address",
          "name": "_config",
          "type": "address"
        }
      ],
      "name": "initialize",
      "outputs": [],
      "stateMutability": "nonpayable",
      "type": "function"
    },
    {
      "inputs": [
        {
          "internalType": "uint256",
          "name": "direction",
          "type": "uint256"
        },
        {
          "internalType": "uint32",
          "name": "maxSize",
          "type": "uint32"
        }
      ],
      "name": "marketBook",
      "outputs": [
        {
          "internalType": "uint256[]",
          "name": "prices",
          "type": "uint256[]"
        },
        {
          "internalType": "uint256[]",
          "name": "amounts",
          "type": "uint256[]"
        }
      ],
      "stateMutability": "view",
      "type": "function"
    },
    {
      "inputs": [
        {
          "internalType": "uint256",
          "name": "direction",
          "type": "uint256"
        },
        {
          "internalType": "uint256",
          "name": "cur",
          "type": "uint256"
        }
      ],
      "name": "nextBook",
      "outputs": [
        {
          "internalType": "uint256",
          "name": "next",
          "type": "uint256"
        },
        {
          "internalType": "uint256",
          "name": "amount",
          "type": "uint256"
        }
      ],
      "stateMutability": "view",
      "type": "function"
    },
    {
      "inputs": [
        {
          "internalType": "address",
          "name": "",
          "type": "address"
        },
        {
          "internalType": "address",
          "name": "to",
          "type": "address"
        },
        {
          "internalType": "uint256",
          "name": "tokenId",
          "type": "uint256"
        },
        {
          "internalType": "bytes",
          "name": "",
          "type": "bytes"
        }
      ],
      "name": "onERC721Received",
      "outputs": [
        {
          "internalType": "bytes4",
          "name": "",
          "type": "bytes4"
        }
      ],
      "stateMutability": "nonpayable",
      "type": "function"
    },
    {
      "inputs": [],
      "name": "orderBookFactory",
      "outputs": [
        {
          "internalType": "address",
          "name": "",
          "type": "address"
        }
      ],
      "stateMutability": "view",
      "type": "function"
    },
    {
      "inputs": [],
      "name": "orderNFT",
      "outputs": [
        {
          "internalType": "address",
          "name": "",
          "type": "address"
        }
      ],
      "stateMutability": "view",
      "type": "function"
    },
    {
      "inputs": [],
      "name": "pair",
      "outputs": [
        {
          "internalType": "address",
          "name": "",
          "type": "address"
        }
      ],
      "stateMutability": "view",
      "type": "function"
    },
    {
      "inputs": [],
      "name": "priceDecimal",
      "outputs": [
        {
          "internalType": "uint256",
          "name": "decimal",
          "type": "uint256"
        }
      ],
      "stateMutability": "view",
      "type": "function"
    },
    {
      "inputs": [
        {
          "internalType": "uint256",
          "name": "price",
          "type": "uint256"
        }
      ],
      "name": "priceStep",
      "outputs": [
        {
          "internalType": "uint256",
          "name": "step",
          "type": "uint256"
        }
      ],
      "stateMutability": "view",
      "type": "function"
    },
    {
      "inputs": [],
      "name": "quoteBalance",
      "outputs": [
        {
          "internalType": "uint256",
          "name": "",
          "type": "uint256"
        }
      ],
      "stateMutability": "view",
      "type": "function"
    },
    {
      "inputs": [],
      "name": "quoteToken",
      "outputs": [
        {
          "internalType": "address",
          "name": "",
          "type": "address"
        }
      ],
      "stateMutability": "view",
      "type": "function"
    },
    {
      "inputs": [
        {
          "internalType": "uint256",
          "name": "direction",
          "type": "uint256"
        },
        {
          "internalType": "uint256",
          "name": "price",
          "type": "uint256"
        }
      ],
      "name": "rangeBook",
      "outputs": [
        {
          "internalType": "uint256[]",
          "name": "prices",
          "type": "uint256[]"
        },
        {
          "internalType": "uint256[]",
          "name": "amounts",
          "type": "uint256[]"
        }
      ],
      "stateMutability": "view",
      "type": "function"
    },
    {
      "inputs": [],
      "name": "reverse",
      "outputs": [],
      "stateMutability": "nonpayable",
      "type": "function"
    },
    {
      "inputs": [
        {
          "internalType": "address",
          "name": "token",
          "type": "address"
        },
        {
          "internalType": "address payable",
          "name": "to",
          "type": "address"
        }
      ],
      "name": "safeRefund",
      "outputs": [],
      "stateMutability": "nonpayable",
      "type": "function"
    },
    {
      "inputs": [
        {
          "internalType": "address",
          "name": "tokenIn",
          "type": "address"
        },
        {
          "internalType": "uint256",
          "name": "amountIn",
          "type": "uint256"
        },
        {
          "internalType": "address",
          "name": "to",
          "type": "address"
        }
      ],
      "name": "takeOrderWhenMovePrice",
      "outputs": [
        {
          "internalType": "uint256",
          "name": "amountOutLeft",
          "type": "uint256"
        },
        {
          "internalType": "address[]",
          "name": "accounts",
          "type": "address[]"
        },
        {
          "internalType": "uint256[]",
          "name": "amounts",
          "type": "uint256[]"
        }
      ],
      "stateMutability": "nonpayable",
      "type": "function"
    },
    {
      "stateMutability": "payable",
      "type": "receive"
    }
  ],
  "bytecode": "0x60806040526001600d5534801561001557600080fd5b50600580546001600160a01b0319163317905561522d806100376000396000f3fe60806040526004361061012a5760003560e01c8063053b4b9d146101ce5780630902f1ac146102065780631459457a1461023b578063150b7a021461025d578063217a4b701461029657806338bde791146102c357806379502c55146102e75780637de81d8b146103075780638364d95f1461033557806384e5eed01461035557806392399c041461037f578063950f59b21461039457806398d5fdca146103b45780639ff46cb8146103c9578063a5eeced5146103e9578063a8aa1b3114610409578063bc9113f014610429578063c55dae631461043e578063cb1608661461045e578063cf7acecf1461047e578063d4d728da1461049e578063db7b373e146104be578063e52fa98b146104d3578063f12dbb9f146104f3578063f1a2e8491461051357600080fd5b366101c9576008546040805163f242862160e01b815290516000926001600160a01b03169163f2428621916004808301926020929190829003018186803b15801561017457600080fd5b505afa158015610188573d6000803e3d6000fd5b505050506040513d601f19601f820116820180604052508101906101ac91906149c7565b90506001600160a01b03811633146101c6576101c661515f565b50005b600080fd5b3480156101da57600080fd5b506101ee6101e9366004614b51565b610529565b6040516101fd93929190614eb1565b60405180910390f35b34801561021257600080fd5b5061021b6107d9565b604080516001600160701b039384168152929091166020830152016101fd565b34801561024757600080fd5b5061025b610256366004614a1d565b61080a565b005b34801561026957600080fd5b5061027d610278366004614a8e565b610a5b565b6040516001600160e01b031990911681526020016101fd565b3480156102a257600080fd5b50600a546102b6906001600160a01b031681565b6040516101fd9190614d9e565b3480156102cf57600080fd5b506102d9600b5481565b6040519081526020016101fd565b3480156102f357600080fd5b506008546102b6906001600160a01b031681565b34801561031357600080fd5b50610327610322366004614cc1565b610ad7565b6040516101fd929190614dcb565b34801561034157600080fd5b506005546102b6906001600160a01b031681565b34801561036157600080fd5b5061036a610c7e565b604080519283526020830191909152016101fd565b34801561038b57600080fd5b5061025b610d8b565b3480156103a057600080fd5b506102d96103af366004614b51565b610e2e565b3480156103c057600080fd5b506102d9611007565b3480156103d557600080fd5b5061036a6103e4366004614cc1565b61105f565b3480156103f557600080fd5b5061025b610404366004614b93565b611081565b34801561041557600080fd5b506006546102b6906001600160a01b031681565b34801561043557600080fd5b506102d96113f1565b34801561044a57600080fd5b506009546102b6906001600160a01b031681565b34801561046a57600080fd5b5061025b6104793660046149e4565b611476565b34801561048a57600080fd5b506102d9610499366004614c8f565b611681565b3480156104aa57600080fd5b506007546102b6906001600160a01b031681565b3480156104ca57600080fd5b506102d961170a565b3480156104df57600080fd5b506103276104ee366004614d07565b61174f565b3480156104ff57600080fd5b506102d961050e366004614b51565b6118a0565b34801561051f57600080fd5b506102d9600c5481565b6000606080600d546001146105595760405162461bcd60e51b815260040161055090614e1d565b60405180910390fd5b6000600d556006546001600160a01b031633146105b45760405162461bcd60e51b815260206004820152601960248201527827b93232b92137b7b59d1034b73b30b634b21039b2b73232b960391b6044820152606401610550565b6040805160028082526060820183526000926020830190803683375050600654600954600a549394506105f8936001600160a01b0392831693509082169116611a5f565b816001600160701b03169150806001600160701b0316905082600081518110610623576106236151a1565b602002602001018360018151811061063d5761063d6151a1565b602090810291909101019190915252600a546000908190610667906001600160a01b03168a611bf1565b9150915060008061067783611c43565b91509150600061068561170a565b90505b82156107335760006106d2868d896000815181106106a8576106a86151a1565b60200260200101518a6001815181106106c3576106c36151a1565b60200260200101518887611c62565b50505050905080600014156106e75750610733565b60006106f88c888488888f8f611dbc565b909c509a5090915061070c90508d82611e47565b9c508181141561071d575050610733565b61072686611c43565b9095509350610688915050565b61073b611ea2565b8a156107c2576001851461078d576107888b87600081518110610760576107606151a1565b60200260200101518860018151811061077b5761077b6151a1565b6020026020010151611faa565b6107bf565b6107bf8b876001815181106107a4576107a46151a1565b60200260200101518860008151811061077b5761077b6151a1565b98505b5050505050506001600d8190555093509350939050565b600654600954600a546000928392610801926001600160a01b03928316929182169116611a5f565b90939092509050565b6005546001600160a01b0316331461085b5760405162461bcd60e51b815260206004820152601460248201527327b93232b92137b7b59d102327a92124a22222a760611b6044820152606401610550565b600080866001600160a01b0316630dfe16816040518163ffffffff1660e01b815260040160206040518083038186803b15801561089757600080fd5b505afa1580156108ab573d6000803e3d6000fd5b505050506040513d601f19601f820116820180604052508101906108cf91906149c7565b876001600160a01b031663d21220a76040518163ffffffff1660e01b815260040160206040518083038186803b15801561090857600080fd5b505afa15801561091c573d6000803e3d6000fd5b505050506040513d601f19601f8201168201806040525081019061094091906149c7565b91509150856001600160a01b0316826001600160a01b03161480156109765750846001600160a01b0316816001600160a01b0316145b806109ae5750856001600160a01b0316816001600160a01b03161480156109ae5750846001600160a01b0316826001600160a01b0316145b6109fa5760405162461bcd60e51b815260206004820152601d60248201527f4f72646572426f6f6b3a20546f6b656e205061697220496e76616c69640000006044820152606401610550565b5050600680546001600160a01b03199081166001600160a01b03978816179091556007805482169387169390931790925560088054831691861691909117905560098054821693851693909317909255600a80549092169216919091179055565b60405163a5eeced560e01b81526001600160a01b0384166004820152602481018390526000196044820152600090309063a5eeced590606401600060405180830381600087803b158015610aae57600080fd5b505af1158015610ac2573d6000803e3d6000fd5b50630a85bd0160e11b98975050505050505050565b6060806000610ae78560006120a2565b905060006001861415610b2c575b8115801590610b045750848210155b15610b2757610b1386836120a2565b915080610b1f8161510c565b915050610af5565b610b68565b6002861415610b68575b8115801590610b455750848211155b15610b6857610b5486836120a2565b915080610b608161510c565b915050610b36565b8015610c7557806001600160401b03811115610b8657610b866151b7565b604051908082528060200260200182016040528015610baf578160200160208202803683370190505b509350806001600160401b03811115610bca57610bca6151b7565b604051908082528060200260200182016040528015610bf3578160200160208202803683370190505b509250610c018660006120a2565b915060005b81811015610c735782858281518110610c2157610c216151a1565b602002602001018181525050610c3787846120bf565b848281518110610c4957610c496151a1565b602002602001018181525050610c5f87846120a2565b925080610c6b8161510c565b915050610c06565b505b50509250929050565b6008546040516304ebf0f960e21b815260009182916001600160a01b03909116906313afc3e490610cb3903090600401614d9e565b60206040518083038186803b158015610ccb57600080fd5b505afa158015610cdf573d6000803e3d6000fd5b505050506040513d601f19601f82011682018060405250810190610d039190614ca8565b600854604051633549d13d60e21b81526001600160a01b039091169063d52744f490610d33903090600401614d9e565b60206040518083038186803b158015610d4b57600080fd5b505afa158015610d5f573d6000803e3d6000fd5b505050506040513d601f19601f82011682018060405250810190610d839190614ca8565b915091509091565b610d9560016121c4565b158015610da95750610da760026121c4565b155b610dee5760405162461bcd60e51b815260206004820152601660248201527513dc99195c909bdbdace8813dc99195c88115e1a5cdd60521b6044820152606401610550565b600a8054600980546001600160a01b03198084166001600160a01b03838116919091179095551692909116919091179055600c8054600b80549092559055565b6000600d54600114610e525760405162461bcd60e51b815260040161055090614e1d565b6000600d558215801590610e765750610e6a83611681565b610e74908461514b565b155b610e925760405162461bcd60e51b815260040161055090614e48565b6005546008546040805163def0d2cb60e01b815290516001600160a01b03938416939092169163def0d2cb91600480820192602092909190829003018186803b158015610ede57600080fd5b505afa158015610ef2573d6000803e3d6000fd5b505050506040513d601f19601f82011682018060405250810190610f1691906149c7565b6001600160a01b031614610f3c5760405162461bcd60e51b815260040161055090614e7a565b6000610f466121d6565b90506000600c548211610f5a576000610f67565b600c54610f6790836150b2565b60065460405163bc25cf7760e01b81529192506001600160a01b03169063bc25cf7790610f98908990600401614d9e565b600060405180830381600087803b158015610fb257600080fd5b505af1158015610fc6573d6000803e3d6000fd5b505050506000610fd782878761225c565b90508015610ff057610fed858383896001612790565b93505b610ff8611ea2565b50506001600d55509392505050565b600654600954600a5460009283928392611030926001600160a01b039081169281169116611a5f565b91509150611058826001600160701b0316826001600160701b031661105361170a565b612881565b9250505090565b60008061106c84846120a2565b915061107884836120bf565b90509250929050565b600d546001146110a35760405162461bcd60e51b815260040161055090614e1d565b6000600d819055600754604051634a83e9cd60e11b8152600481018590526001600160a01b0390911690639507d39a9060240160806040518083038186803b1580156110ee57600080fd5b505afa158015611102573d6000803e3d6000fd5b505050506040513d601f19601f820116820180604052508101906111269190614bea565b6007546040516331a9108f60e11b8152600481018690529192506001600160a01b031690636352211e9060240160206040518083038186803b15801561116b57600080fd5b505afa15801561117f573d6000803e3d6000fd5b505050506040513d601f19601f820116820180604052508101906111a391906149c7565b6001600160a01b0316336001600160a01b0316146111fa5760405162461bcd60e51b815260206004820152601460248201527327b93232b92137b7b59d102737ba1027bbb732b960611b6044820152606401610550565b8060400151821061121b578060400151915061121683826128b1565b611281565b60075460405163b67d77c560e01b815260048101859052602481018490526001600160a01b039091169063b67d77c590604401600060405180830381600087803b15801561126857600080fd5b505af115801561127c573d6000803e3d6000fd5b505050505b60006001826060015160ff16146112a3576009546001600160a01b03166112b0565b600a546001600160a01b03165b9050611343600860009054906101000a90046001600160a01b03166001600160a01b031663f24286216040518163ffffffff1660e01b815260040160206040518083038186803b15801561130357600080fd5b505afa158015611317573d6000803e3d6000fd5b505050506040513d601f19601f8201168201806040525081019061133b91906149c7565b828786612957565b6040516370a0823160e01b81526000906001600160a01b038316906370a0823190611372903090600401614d9e565b60206040518083038186803b15801561138a57600080fd5b505afa15801561139e573d6000803e3d6000fd5b505050506040513d601f19601f820116820180604052508101906113c29190614ca8565b90506001836060015160ff1614156113de57600c8190556113e4565b600b8190555b50506001600d5550505050565b600a546040805163313ce56760e01b815290516000926001600160a01b03169163313ce567916004808301926020929190829003018186803b15801561143657600080fd5b505afa15801561144a573d6000803e3d6000fd5b505050506040513d601f19601f8201168201806040525081019061146e9190614d2c565b60ff16905090565b600d546001146114985760405162461bcd60e51b815260040161055090614e1d565b6000600d556005546114b2906001600160a01b03166129eb565b6001600160a01b0316336001600160a01b0316146115095760405162461bcd60e51b815260206004820152601460248201527327b93232b92137b7b59d102337b93134b23232b760611b6044820152606401610550565b6001600160a01b03821661155c57478015611556576040516001600160a01b0383169082156108fc029083906000818181858888f19350505050158015611554573d6000803e3d6000fd5b505b50611678565b6040516370a0823160e01b81526000906001600160a01b038416906370a082319061158b903090600401614d9e565b60206040518083038186803b1580156115a357600080fd5b505afa1580156115b7573d6000803e3d6000fd5b505050506040513d601f19601f820116820180604052508101906115db9190614ca8565b60095490915081906001600160a01b03858116911614156116245760006116026002612ace565b905080831161161257600061161c565b61161c81846150b2565b915050611664565b600a546001600160a01b03858116911614156116645760006116466001612ace565b9050808311611656576000611660565b61166081846150b2565b9150505b801561167557611675848483612b12565b50505b50506001600d55565b60085460405163322d945760e01b81526000916001600160a01b03169063322d9457906116b49030908690600401614db2565b60206040518083038186803b1580156116cc57600080fd5b505afa1580156116e0573d6000803e3d6000fd5b505050506040513d601f19601f820116820180604052508101906117049190614ca8565b92915050565b6009546040805163313ce56760e01b815290516000926001600160a01b03169163313ce567916004808301926020929190829003018186803b15801561143657600080fd5b606080600061175d856121c4565b90508363ffffffff168111611772578061177a565b8363ffffffff165b9050806001600160401b03811115611794576117946151b7565b6040519080825280602002602001820160405280156117bd578160200160208202803683370190505b509250806001600160401b038111156117d8576117d86151b7565b604051908082528060200260200182016040528015611801578160200160208202803683370190505b50915060006118118660006120a2565b905060005b811580159061182a5750828163ffffffff16105b15610c735781858263ffffffff1681518110611848576118486151a1565b60200260200101818152505061185e87836120bf565b848263ffffffff1681518110611876576118766151a1565b60200260200101818152505061188c87836120a2565b91508061189881615127565b915050611816565b6000600d546001146118c45760405162461bcd60e51b815260040161055090614e1d565b6000600d5582158015906118e857506118dc83611681565b6118e6908461514b565b155b6119045760405162461bcd60e51b815260040161055090614e48565b6005546008546040805163def0d2cb60e01b815290516001600160a01b03938416939092169163def0d2cb91600480820192602092909190829003018186803b15801561195057600080fd5b505afa158015611964573d6000803e3d6000fd5b505050506040513d601f19601f8201168201806040525081019061198891906149c7565b6001600160a01b0316146119ae5760405162461bcd60e51b815260040161055090614e7a565b60006119b8612c7f565b90506000600b5482116119cc5760006119d9565b600b546119d990836150b2565b60065460405163bc25cf7760e01b81529192506001600160a01b03169063bc25cf7790611a0a908990600401614d9e565b600060405180830381600087803b158015611a2457600080fd5b505af1158015611a38573d6000803e3d6000fd5b505050506000611a49828787612cb0565b90508015610ff057610fed858383896002612790565b600080826001600160a01b0316846001600160a01b03161415611abf5760405162461bcd60e51b81526020600482015260186024820152774f424c3a204944454e544943414c5f41444452455353455360401b6044820152606401610550565b6000836001600160a01b0316856001600160a01b031610611ae05783611ae2565b845b90506001600160a01b038116611b2e5760405162461bcd60e51b81526020600482015260116024820152704f424c3a205a45524f5f4144445245535360781b6044820152606401610550565b6000806001600160a01b038816611b49576000806000611bba565b876001600160a01b0316630902f1ac6040518163ffffffff1660e01b815260040160606040518083038186803b158015611b8257600080fd5b505afa158015611b96573d6000803e3d6000fd5b505050506040513d601f19601f82011682018060405250810190611bba9190614c53565b5091509150826001600160a01b0316876001600160a01b031614611bdf578082611be2565b81815b90999098509650505050505050565b600080826001600160a01b0316846001600160a01b031614611c14576002611c17565b60015b9150826001600160a01b0316846001600160a01b031614611c39576001611078565b5092600292509050565b600080611c4f83613183565b9150611c5b83836120bf565b9050915091565b600080600080600060018b1415611d12576000611c818a8a8a8a6131a0565b90506000611c918a6107cd6131ec565b9050808211611ca1576000611cb7565b611cb76107ca611cb183856150b2565b9061324d565b94508b8511611cc65784611cc8565b8b5b94508415611ce057611cdb858b8d611faa565b611ce3565b60005b9550611cef858d6150b2565b611cf9878d6150b2565b611d03878d614f9b565b91985094509250611dae915050565b60028b1415611da5576000611d298a8a8a8a61329d565b90506000611d398b6107cd6131ec565b9050808211611d49576000611d59565b611d596107ca611cb183856150b2565b95508b8611611d685785611d6a565b8b5b95508515611d8257611d7d868c8c611faa565b611d85565b60005b9450611d91868d6150b2565b611d9b878d614f9b565b611d03878d6150b2565b50889350879050865b965096509650965096915050565b600080606080600080611dd18c8c8c8c6132d5565b939950965091945092509050611de7838861339a565b9250611df384896134ab565b9350611dff8282611e47565b9450600060018d14611e1c57600a546001600160a01b0316611e29565b6009546001600160a01b03165b9050611e36818f88612b12565b505050975097509750979350505050565b600081831015611e915760405162461bcd60e51b815260206004820152601560248201527464732d6d6174682d7375622d756e646572666c6f7760581b6044820152606401610550565b611e9b82846150b2565b9392505050565b6009546040516370a0823160e01b81526001600160a01b03909116906370a0823190611ed2903090600401614d9e565b60206040518083038186803b158015611eea57600080fd5b505afa158015611efe573d6000803e3d6000fd5b505050506040513d601f19601f82011682018060405250810190611f229190614ca8565b600b55600a546040516370a0823160e01b81526001600160a01b03909116906370a0823190611f55903090600401614d9e565b60206040518083038186803b158015611f6d57600080fd5b505afa158015611f81573d6000803e3d6000fd5b505050506040513d601f19601f82011682018060405250810190611fa59190614ca8565b600c55565b6000808411611ffb5760405162461bcd60e51b815260206004820152601e60248201527f4f424c3a20494e53554646494349454e545f494e5055545f414d4f554e5400006044820152606401610550565b60008311801561200b5750600082115b6120555760405162461bcd60e51b815260206004820152601b60248201527a4f424c3a20494e53554646494349454e545f4c495155494449545960281b6044820152606401610550565b6000612063856103e56131ec565b9050600061207182856131ec565b9050600061208b83612085886103e86131ec565b906135cf565b90506120978183614fb3565b979650505050505050565b600091825260036020908152604080842092845291905290205490565b600082815260016020908152604080832084845282528083205485845260028352818420858552909252822054815b818110156121bb57600754600087815260208181526040808320898452825280832085845290915290819020549051634a83e9cd60e11b81526001600160a01b0390921691639507d39a916121499160040190815260200190565b60806040518083038186803b15801561216157600080fd5b505afa158015612175573d6000803e3d6000fd5b505050506040513d601f19601f820116820180604052508101906121999190614bea565b604001516121a79085614f9b565b9350806121b38161510c565b9150506120ee565b50505092915050565b60009081526004602052604090205490565b600a546040516370a0823160e01b81526000916001600160a01b0316906370a0823190612207903090600401614d9e565b60206040518083038186803b15801561221f57600080fd5b505afa158015612233573d6000803e3d6000fd5b505050506040513d601f19601f820116820180604052508101906122579190614ca8565b905090565b60408051600480825260a08201909252600091829190602082016080803683375050600654600954600a549394506122a5936001600160a01b0392831693509082169116611a5f565b816001600160701b03169150806001600160701b03169050826000815181106122d0576122d06151a1565b60200260200101836001815181106122ea576122ea6151a1565b60200260200101828152508281525050508060008151811061230e5761230e6151a1565b602002602001015181600181518110612329576123296151a1565b602002602001015182600281518110612344576123446151a1565b602002602001018360038151811061235e5761235e6151a1565b602090810291909101019190915252600061237761170a565b90506000806000889550600061238d6002613183565b90505b801580159061239f5750888111155b156125215760008790506000876000815181106123be576123be6151a1565b60200260200101511180156123ed57506000876001815181106123e3576123e36151a1565b6020026020010151115b15612487576124356001898960008151811061240b5761240b6151a1565b60200260200101518a600181518110612426576124266151a1565b6020026020010151868b611c62565b8b600281518110612448576124486151a1565b602002602001018c600381518110612462576124626151a1565b6020908102919091010191909152529096509450905080612487576000975050612521565b60006124946002846120bf565b905060008060008060006124ab6001888a896132d5565b9398509196509450925090506124c18484611e47565b6124cb908a614f9b565b600a549099506124e5906001600160a01b03168383613619565b868514156124fd5760009d5050505050505050612521565b6125078e86611e47565b9d506125136002613183565b975050505050505050612390565b81156125b8576008546040805163f242862160e01b815290516125b8926001600160a01b03169163f2428621916004808301926020929190829003018186803b15801561256d57600080fd5b505afa158015612581573d6000803e3d6000fd5b505050506040513d601f19601f820116820180604052508101906125a591906149c7565b6009546001600160a01b03168a85612957565b6000866000815181106125cd576125cd6151a1565b60200260200101511180156125fc57506000866001815181106125f2576125f26151a1565b6020026020010151115b80156126085750600087115b80156126145750888114155b156126a05761265c60018888600081518110612632576126326151a1565b60200260200101518960018151811061264d5761264d6151a1565b60200260200101518d8a611c62565b8a60028151811061266f5761266f6151a1565b602002602001018b600381518110612689576126896151a1565b602090810291909101019190915252919850945092505b82156127835786156126f5576126ee8784886002815181106126c4576126c46151a1565b6020026020010151896003815181106126df576126df6151a1565b60200260200101518d8a6136f4565b5090975092505b600a54600954612715918a916001600160a01b03918216911686886137df565b861580612729575088612726611007565b10155b6127835760405162461bcd60e51b815260206004820152602560248201527f4f72646572426f6f6b3a2062757920746f207461726765742070726963652066604482015264185a5b195960da1b6064820152608401610550565b5050505050509392505050565b604080516080810182528381526020810186815281830186815260ff8581166060850190815260075495516376555b6360e11b815285516004820152935160248501529151604484015290511660648201526001600160a01b038881166084830152600093169063ecaab6c69060a401602060405180830381600087803b15801561281a57600080fd5b505af115801561282e573d6000803e3d6000fd5b505050506040513d601f19601f820116820180604052508101906128529190614ca8565b915061285e8385613b4c565b61286c5761286c8385613b83565b612877838584613c18565b5095945050505050565b60008315611e9b578361289f61289884600a61500a565b85906131ec565b6128a99190614fb3565b949350505050565b6128c7816060015160ff16826000015184613c70565b600754604051630852cd8d60e31b8152600481018490526001600160a01b03909116906342966c6890602401600060405180830381600087803b15801561290d57600080fd5b505af1158015612921573d6000803e3d6000fd5b5050505061293a816060015160ff168260000151613b4c565b61295357612953816060015160ff168260000151613df0565b5050565b836001600160a01b0316836001600160a01b031614156129da57604051632e1a7d4d60e01b8152600481018290526001600160a01b03851690632e1a7d4d90602401600060405180830381600087803b1580156129b357600080fd5b505af11580156129c7573d6000803e3d6000fd5b505050506129d58282613e5b565b6129e5565b6129e5838383612b12565b50505050565b6000816001600160a01b03166379502c556040518163ffffffff1660e01b815260040160206040518083038186803b158015612a2657600080fd5b505afa158015612a3a573d6000803e3d6000fd5b505050506040513d601f19601f82011682018060405250810190612a5e91906149c7565b6001600160a01b0316638da5cb5b6040518163ffffffff1660e01b815260040160206040518083038186803b158015612a9657600080fd5b505afa158015612aaa573d6000803e3d6000fd5b505050506040513d601f19601f8201168201806040525081019061170491906149c7565b600080612adc8360006120a2565b90505b8015612b0c57612aef83826120bf565b612af99083614f9b565b9150612b0583826120a2565b9050612adf565b50919050565b60408051808201825260198152787472616e7366657228616464726573732c75696e743235362960381b6020909101525160009081906001600160a01b038616907fa9059cbb2ab09eb219583f4a59a5d0623ade346d962bcd4e46b11da047c9049b90612b859087908790602401614db2565b60408051601f198184030181529181526020820180516001600160e01b03166001600160e01b0319909416939093179092529051612bc39190614d82565b6000604051808303816000865af19150503d8060008114612c00576040519150601f19603f3d011682016040523d82523d6000602084013e612c05565b606091505b5091509150818015612c2f575080511580612c2f575080806020019051810190612c2f9190614bc8565b612c785760405162461bcd60e51b815260206004820152601a60248201527913dc99195c909bdbdace881514905394d1915497d1905253115160321b6044820152606401610550565b5050505050565b6009546040516370a0823160e01b81526000916001600160a01b0316906370a0823190612207903090600401614d9e565b60408051600480825260a08201909252600091829190602082016080803683375050600654600954600a54939450612cf9936001600160a01b0392831693509082169116611a5f565b816001600160701b03169150806001600160701b0316905082600081518110612d2457612d246151a1565b6020026020010183600181518110612d3e57612d3e6151a1565b602002602001018281525082815250505080600081518110612d6257612d626151a1565b602002602001015181600181518110612d7d57612d7d6151a1565b602002602001015182600281518110612d9857612d986151a1565b6020026020010183600381518110612db257612db26151a1565b6020908102919091010191909152526000612dcb61170a565b9050859250600080600080612de06001613183565b90505b8015801590612df25750888110155b15612f4a576000879050600087600081518110612e1157612e116151a1565b6020026020010151118015612e405750600087600181518110612e3657612e366151a1565b6020026020010151115b15612eb057612e5e6002898960008151811061240b5761240b6151a1565b8b600281518110612e7157612e716151a1565b602002602001018c600381518110612e8b57612e8b6151a1565b6020908102919091010191909152529096509450905080612eb0576000975050612f4a565b6000612ebd6001846120bf565b90506000806000806000612ed46002888a896132d5565b939850919650945092509050612eea8484611e47565b612ef4908a614f9b565b600954909950612f0e906001600160a01b03168383613619565b86851415612f265760009d5050505050505050612f4a565b612f308e86611e47565b9d50612f3c6001613183565b975050505050505050612de3565b8115612fe1576008546040805163f242862160e01b81529051612fe1926001600160a01b03169163f2428621916004808301926020929190829003018186803b158015612f9657600080fd5b505afa158015612faa573d6000803e3d6000fd5b505050506040513d601f19601f82011682018060405250810190612fce91906149c7565b600a546001600160a01b03168a85612957565b600086600081518110612ff657612ff66151a1565b6020026020010151118015613025575060008660018151811061301b5761301b6151a1565b6020026020010151115b80156130315750600087115b801561303d5750888114155b1561309f5761305b60028888600081518110612632576126326151a1565b8a60028151811061306e5761306e6151a1565b602002602001018b600381518110613088576130886151a1565b602090810291909101019190915252919850945092505b83156127835786156130f4576130ed8785886002815181106130c3576130c36151a1565b6020026020010151896003815181106130de576130de6151a1565b60200260200101518d8a613f3a565b5090975093505b600954600a54613114918a916001600160a01b03918216911687876137df565b861580613128575088613125611007565b11155b6127835760405162461bcd60e51b815260206004820152602660248201527f4f72646572426f6f6b3a2073656c6c20746f207461726765742070726963652060448201526519985a5b195960d21b6064820152608401610550565b600090815260036020908152604080832083805290915290205490565b60006131e36131de6131cf6131b685600a61500a565b611cb1876131c9623cda20818d8d6131ec565b906131ec565b61208560096131c989806131ec565b613fee565b95945050505050565b81810281158061320a5750828282816132075761320761518b565b04145b6117045760405162461bcd60e51b815260206004820152601460248201527364732d6d6174682d6d756c2d6f766572666c6f7760601b6044820152606401610550565b6000816132935760405162461bcd60e51b815260206004820152601460248201527364732d6d6174682d6469762d6f766572666c6f7760601b6044820152606401610550565b611e9b8284614fb3565b60006131e36131de6132c685611cb16132b787600a61500a565b6131c9623cda20818d8d6131ec565b61208560096131c98a806131ec565b6000806000606080600080306001600160a01b03166384e5eed06040518163ffffffff1660e01b8152600401604080518083038186803b15801561331857600080fd5b505afa15801561332c573d6000803e3d6000fd5b505050506040513d601f19601f820116820180604052508101906133509190614ce3565b9150915061336a8b8b8b61336261170a565b86868e614058565b9198509650945061338561337d8c6141c1565b88888c6141e9565b80945081955050505050945094509450945094565b6060815183516133aa9190614f9b565b6001600160401b038111156133c1576133c16151b7565b6040519080825280602002602001820160405280156133ea578160200160208202803683370190505b50905060005b83518110156134425783818151811061340b5761340b6151a1565b6020026020010151828281518110613425576134256151a1565b60209081029190910101528061343a8161510c565b9150506133f0565b5060005b82518110156134a457828181518110613461576134616151a1565b6020026020010151828286516134779190614f9b565b81518110613487576134876151a1565b60209081029190910101528061349c8161510c565b915050613446565b5092915050565b6060815183516134bb9190614f9b565b6001600160401b038111156134d2576134d26151b7565b6040519080825280602002602001820160405280156134fb578160200160208202803683370190505b50905060005b83518110156135605783818151811061351c5761351c6151a1565b6020026020010151828281518110613536576135366151a1565b6001600160a01b0390921660209283029190910190910152806135588161510c565b915050613501565b5060005b82518110156134a45782818151811061357f5761357f6151a1565b6020026020010151828286516135959190614f9b565b815181106135a5576135a56151a1565b6001600160a01b0390921660209283029190910190910152806135c78161510c565b915050613564565b818101828110156117045760405162461bcd60e51b815260206004820152601460248201527364732d6d6174682d6164642d6f766572666c6f7760601b6044820152606401610550565b6008546040805163f242862160e01b815290516000926001600160a01b03169163f2428621916004808301926020929190829003018186803b15801561365e57600080fd5b505afa158015613672573d6000803e3d6000fd5b505050506040513d601f19601f8201168201806040525081019061369691906149c7565b905060005b8351811015612c78576136e282868684815181106136bb576136bb6151a1565b60200260200101518685815181106136d5576136d56151a1565b6020026020010151612957565b806136ec8161510c565b91505061369b565b600080600080613705888887612881565b9050858110156137cb5761374861372a61372087600a61500a565b611cb18b856131ec565b61374261373888600a61500a565b611cb18c8b6131ec565b90611e47565b91506000821161375957600161375b565b815b9150818a10156137ad5760405162461bcd60e51b815260206004820152601d60248201527f4f424c3a204e6f7420456e6f756768204f757470757420416d6f756e740000006044820152606401610550565b6137b78a83611e47565b6137c1838b614f9b565b90945092506137d2565b8993508892505b5096509650969350505050565b6006546137f79085906001600160a01b031684612b12565b600080600660009054906101000a90046001600160a01b03166001600160a01b031663d21220a76040518163ffffffff1660e01b815260040160206040518083038186803b15801561384857600080fd5b505afa15801561385c573d6000803e3d6000fd5b505050506040513d601f19601f8201168201806040525081019061388091906149c7565b6001600160a01b0316856001600160a01b0316146138a0578260006138a4565b6000835b915091506000600860009054906101000a90046001600160a01b03166001600160a01b031663f24286216040518163ffffffff1660e01b815260040160206040518083038186803b1580156138f857600080fd5b505afa15801561390c573d6000803e3d6000fd5b505050506040513d601f19601f8201168201806040525081019061393091906149c7565b9050856001600160a01b0316816001600160a01b03161415613a47576006546001600160a01b0316637eb13dec84843060006040519080825280601f01601f19166020018201604052801561398c576020820181803683370190505b506040518563ffffffff1660e01b81526004016139ac9493929190614f1b565b600060405180830381600087803b1580156139c657600080fd5b505af11580156139da573d6000803e3d6000fd5b5050604051632e1a7d4d60e01b8152600481018790526001600160a01b0384169250632e1a7d4d9150602401600060405180830381600087803b158015613a2057600080fd5b505af1158015613a34573d6000803e3d6000fd5b50505050613a428885613e5b565b613ada565b6006546001600160a01b0316637eb13dec84848b60006040519080825280601f01601f191660200182016040528015613a87576020820181803683370190505b506040518563ffffffff1660e01b8152600401613aa79493929190614f1b565b600060405180830381600087803b158015613ac157600080fd5b505af1158015613ad5573d6000803e3d6000fd5b505050505b600660009054906101000a90046001600160a01b03166001600160a01b031663fff6cae96040518163ffffffff1660e01b8152600401600060405180830381600087803b158015613b2a57600080fd5b505af1158015613b3e573d6000803e3d6000fd5b505050505050505050505050565b600082815260016020908152604080832084845282528083205485845260028352818420858552909252822054611e9b91906150b2565b60008281526004602052604090205480613bbf576000838152600360209081526040808320838052909152808220849055838252812055613bf4565b600080613bcc85856145d9565b6000878152600360209081526040808320948352939052828120879055868152919091205550505b6000838152600460205260408120805491613c0e8361510c565b9190505550505050565b6000838152600260209081526040808320858452808352818420805488865285855283862088875285528386208187528552928520869055868552925281549092909190613c658361510c565b919050555050505050565b60008381526001602090815260408083208584528252808320548684526002835281842086855290925290912054808210613ce45760405162461bcd60e51b815260206004820152601460248201527351756575653a20496e76616c696420717565756560601b6044820152606401610550565b6000858152602081815260408083208784528252808320858452909152812054908190613d12856001614f9b565b90505b83811015613d635785831415613d2a57613d63565b6000888152602081815260408083208a845282528083208484529091529020805493905582915080613d5b8161510c565b915050613d15565b50808514613da25760405162461bcd60e51b815260206004820152600c60248201526b496e76616c6964206461746160a01b6044820152606401610550565b60008781526020818152604080832089845282528083208784528252808320839055898352600182528083208984529091528120805491613de28361510c565b919050555050505050505050565b600080613dfd84846145d9565b91509150808314613e205760405162461bcd60e51b815260040161055090614df0565b6000848152600360209081526040808320848452825280832080548685528285205583905586835260049091528120805491613c65836150f5565b604080516000808252602082019092526001600160a01b038416908390604051613e859190614d82565b60006040518083038185875af1925050503d8060008114613ec2576040519150601f19603f3d011682016040523d82523d6000602084013e613ec7565b606091505b5050905080613f355760405162461bcd60e51b815260206004820152603460248201527f5472616e7366657248656c7065723a3a736166655472616e736665724554483a60448201527308115512081d1c985b9cd9995c8819985a5b195960621b6064820152608401610550565b505050565b600080600080613f4b888887612881565b9050858111156137cb57613f8a613f7182611cb1613f6a89600a61500a565b8b906131ec565b61374288611cb1613f838a600a61500a565b8c906131ec565b915060008211613f9b576001613f9d565b815b9150818a10156137ad5760405162461bcd60e51b815260206004820152601c60248201527b13d0930e88139bdd08115b9bdd59da08125b9c1d5d08105b5bdd5b9d60221b6044820152606401610550565b600060038211156140495750806000614008600283614fb3565b614013906001614f9b565b90505b81811015612b0c5790508060028161402e8186614fb3565b6140389190614f9b565b6140429190614fb3565b9050614016565b8115614053575060015b919050565b60008060008060018b14156141025760006140748b8b8b61467b565b905061408c614085896127106150b2565b87906131ec565b614098826127106131ec565b116140c3578a94506140b0612710611cb1838b6131ec565b91506140bc8282614f9b565b93506140fc565b6140dd612710611cb16140d68b836150b2565b89906131ec565b90506140ea818b8b61468f565b94508593506140f98482611e47565b91505b50614194565b60028b14156141945760006141188b8b8b61468f565b9050614129614085896127106150b2565b614135826127106131ec565b11614160578a945061414d612710611cb1838b6131ec565b91506141598282614f9b565b9350614192565b614173612710611cb16140d68b836150b2565b9050614180818b8b61467b565b945085935061418f81856150b2565b91505b505b6141b16064611cb16141a6848a6131ec565b6137428560646131ec565b9150509750975097945050505050565b6000600182146141e157600282146141da576000611704565b6001611704565b600292915050565b606080836000806141fa8987613b4c565b90506000816001600160401b03811115614216576142166151b7565b60405190808252806020026020018201604052801561423f578160200160208202803683370190505b5090506000826001600160401b0381111561425c5761425c6151b7565b604051908082528060200260200182016040528015614285578160200160208202803683370190505b5090505b82841080156142985750600085115b156144bc5760006142a98c8a6146a9565b9050806142b657506144bc565b600754604051634a83e9cd60e11b8152600481018390526000916001600160a01b031690639507d39a9060240160806040518083038186803b1580156142fb57600080fd5b505afa15801561430f573d6000803e3d6000fd5b505050506040513d601f19601f820116820180604052508101906143339190614bea565b6007546040516331a9108f60e11b8152600481018590529192506001600160a01b031690636352211e9060240160206040518083038186803b15801561437857600080fd5b505afa15801561438c573d6000803e3d6000fd5b505050506040513d601f19601f820116820180604052508101906143b091906149c7565b8487815181106143c2576143c26151a1565b60200260200101906001600160a01b031690816001600160a01b0316815250506000816040015188116143f557876143fb565b81604001515b90508084886144098161510c565b99508151811061441b5761441b6151a1565b602090810291909101015261443081896150b2565b9750816040015181146144aa5760075460405163b67d77c560e01b815260048101859052602481018390526001600160a01b039091169063b67d77c590604401600060405180830381600087803b15801561448a57600080fd5b505af115801561449e573d6000803e3d6000fd5b505050505050506144bc565b6144b48383614708565b505050614289565b83156145cb576144cc82856147aa565b9650836001600160401b038111156144e6576144e66151b7565b60405190808252806020026020018201604052801561450f578160200160208202803683370190505b50955080518651111561455f5760405162461bcd60e51b815260206004820152601860248201527713dc99195c909bdbdace88125b99195e08125b9d985b1a5960421b6044820152606401610550565b60005b848110156145c95761459a8a611cb1848481518110614583576145836151a1565b60200260200101518e6131ec90919063ffffffff16565b8782815181106145ac576145ac6151a1565b6020908102919091010152806145c18161510c565b915050614562565b505b505050505094509492505050565b60008281526003602090815260408083208380529091528120546001841415614636575b828111156146315760008481526003602090815260408083208484529091529020549091508061462c57614674565b6145fd565b614674565b6002841415614674575b828110156146745760008481526003602090815260408083208484529091529020549091508061466f57614674565b614640565b9250929050565b60006128a983611cb161408585600a61500a565b60006128a961469f83600a61500a565b611cb186866131ec565b60008281526001602090815260408083208484528252808320548584526002835281842085855290925282205480821461470057600085815260208181526040808320878452825280832085845290915290205492505b505092915050565b61471d816060015160ff1682600001516148a3565b50600754604051630852cd8d60e31b8152600481018490526001600160a01b03909116906342966c6890602401600060405180830381600087803b15801561476457600080fd5b505af1158015614778573d6000803e3d6000fd5b50505050614791816060015160ff168260000151613b4c565b61295357612953816060015160ff16826000015161492b565b606082518211156147ee5760405162461bcd60e51b815260206004820152600e60248201526d092dcecc2d8d2c840d8cadccee8d60931b6044820152606401610550565b82518214156147fe575081611704565b816001600160401b03811115614816576148166151b7565b60405190808252806020026020018201604052801561483f578160200160208202803683370190505b50905060005b828110156134a45783818151811061485f5761485f6151a1565b6020026020010151828281518110614879576148796151a1565b6001600160a01b03909216602092830291909101909101528061489b8161510c565b915050614845565b60008281526001602090815260408083208484528252808320548584526002835281842085855290925282205480821461470057600085815260208181526040808320878452825280832085845282528083208054908490558884526001835281842088855290925282208054919550909161491e8361510c565b9190505550505092915050565b60008281526003602090815260408083208380529091529020548181146149645760405162461bcd60e51b815260040161055090614df0565b6000838152600360209081526040808320848452825280832080548480528285205583905585835260049091528120805491613c0e836150f5565b80516001600160701b038116811461405357600080fd5b805160ff8116811461405357600080fd5b6000602082840312156149d957600080fd5b8151611e9b816151cd565b600080604083850312156149f757600080fd5b8235614a02816151cd565b91506020830135614a12816151cd565b809150509250929050565b600080600080600060a08688031215614a3557600080fd5b8535614a40816151cd565b94506020860135614a50816151cd565b93506040860135614a60816151cd565b92506060860135614a70816151cd565b91506080860135614a80816151cd565b809150509295509295909350565b60008060008060808587031215614aa457600080fd5b8435614aaf816151cd565b9350602085810135614ac0816151cd565b93506040860135925060608601356001600160401b0380821115614ae357600080fd5b818801915088601f830112614af757600080fd5b813581811115614b0957614b096151b7565b614b1b601f8201601f19168501614f6b565b91508082528984828501011115614b3157600080fd5b808484018584013760008482840101525080935050505092959194509250565b600080600060608486031215614b6657600080fd5b8335614b71816151cd565b9250602084013591506040840135614b88816151cd565b809150509250925092565b600080600060608486031215614ba857600080fd5b8335614bb3816151cd565b95602085013595506040909401359392505050565b600060208284031215614bda57600080fd5b81518015158114611e9b57600080fd5b600060808284031215614bfc57600080fd5b604051608081016001600160401b0381118282101715614c1e57614c1e6151b7565b8060405250825181526020830151602082015260408301516040820152614c47606084016149b6565b60608201529392505050565b600080600060608486031215614c6857600080fd5b614c718461499f565b9250614c7f6020850161499f565b91506040840151614b88816151e5565b600060208284031215614ca157600080fd5b5035919050565b600060208284031215614cba57600080fd5b5051919050565b60008060408385031215614cd457600080fd5b50508035926020909101359150565b60008060408385031215614cf657600080fd5b505080516020909101519092909150565b60008060408385031215614d1a57600080fd5b823591506020830135614a12816151e5565b600060208284031215614d3e57600080fd5b611e9b826149b6565b600081518084526020808501945080840160005b83811015614d7757815187529582019590820190600101614d5b565b509495945050505050565b60008251614d948184602087016150c9565b9190910192915050565b6001600160a01b0391909116815260200190565b6001600160a01b03929092168252602082015260400190565b604081526000614dde6040830185614d47565b82810360208401526131e38185614d47565b6020808252601390820152724c6973743a20496e76616c696420707269636560681b604082015260600190565b60208082526011908201527013dc99195c909bdbdace881313d0d2d151607a1b604082015260600190565b60208082526018908201527713dc99195c909bdbdace88141c9a58d948125b9d985b1a5960421b604082015260600190565b6020808252601d908201527f4f72646572426f6f6b3a2050616972204e6f7420436f6e6e6563746564000000604082015260600190565b6000606082018583526020606081850152818651808452608086019150828801935060005b81811015614efb5784516001600160a01b031683529383019391830191600101614ed6565b50508481036040860152614f0f8187614d47565b98975050505050505050565b84815283602082015260018060a01b03831660408201526080606082015260008251806080840152614f548160a08501602087016150c9565b601f01601f19169190910160a00195945050505050565b604051601f8201601f191681016001600160401b0381118282101715614f9357614f936151b7565b604052919050565b60008219821115614fae57614fae615175565b500190565b600082614fc257614fc261518b565b500490565b600181815b80851115615002578160001904821115614fe857614fe8615175565b80851615614ff557918102915b93841c9390800290614fcc565b509250929050565b6000611e9b838360008261502057506001611704565b8161502d57506000611704565b8160018114615043576002811461504d57615069565b6001915050611704565b60ff84111561505e5761505e615175565b50506001821b611704565b5060208310610133831016604e8410600b841016171561508c575081810a611704565b6150968383614fc7565b80600019048211156150aa576150aa615175565b029392505050565b6000828210156150c4576150c4615175565b500390565b60005b838110156150e45781810151838201526020016150cc565b838111156129e55750506000910152565b60008161510457615104615175565b506000190190565b600060001982141561512057615120615175565b5060010190565b600063ffffffff8083168181141561514157615141615175565b6001019392505050565b60008261515a5761515a61518b565b500690565b634e487b7160e01b600052600160045260246000fd5b634e487b7160e01b600052601160045260246000fd5b634e487b7160e01b600052601260045260246000fd5b634e487b7160e01b600052603260045260246000fd5b634e487b7160e01b600052604160045260246000fd5b6001600160a01b03811681146151e257600080fd5b50565b63ffffffff811681146151e257600080fdfea2646970667358221220257a3d95888c7ac49fcf905f89b0f783c307ace65ca7d8b2280094e334493b3a64736f6c63430008050033",
  "linkReferences": {},
  "deployedLinkReferences": {}
}