{
	"data": {
		"bytecode": {
			"linkReferences": {},
			"object": "608060405234801561001057600080fd5b506108ac806100206000396000f3fe608060405234801561001057600080fd5b506004361061008e5760003560e01c80630f28c97d14610093578063252dba42146100a857806327e86d6e146100c95780634d2301cc146100d1578063535e4724146100ec57806372425d9d146100ff57806386d516e814610105578063a8b0574e1461010b578063b41abf9b14610119578063ee82ac5e1461012c575b600080fd5b425b6040519081526020015b60405180910390f35b6100bb6100b63660046105b4565b61013e565b60405161009f929190610741565b61009561027d565b6100956100df3660046107c3565b6001600160a01b03163190565b6100bb6100fa3660046105b4565b610290565b44610095565b45610095565b60405141815260200161009f565b6100bb6101273660046105b4565b6103bc565b61009561013a3660046107e5565b4090565b805143906060906001600160401b0381111561015c5761015c61052a565b60405190808252806020026020018201604052801561018f57816020015b606081526020019060019003908161017a5790505b50905060005b8351811015610277576000808583815181106101b3576101b36107fe565b6020026020010151600001516001600160a01b03168684815181106101da576101da6107fe565b6020026020010151602001516040516101f39190610814565b6000604051808303816000865af19150503d8060008114610230576040519150601f19603f3d011682016040523d82523d6000602084013e610235565b606091505b50915091508161024457600080fd5b80848481518110610257576102576107fe565b60200260200101819052505050808061026f90610846565b915050610195565b50915091565b600061028a60014361085f565b40905090565b805143906060906001600160401b038111156102ae576102ae61052a565b6040519080825280602002602001820160405280156102e157816020015b60608152602001906001900390816102cc5790505b50905060005b8351811015610277576000848281518110610304576103046107fe565b6020026020010151600001516001600160a01b031685838151811061032b5761032b6107fe565b6020026020010151602001516040516103449190610814565b6000604051808303816000865af19150503d8060008114610381576040519150601f19603f3d011682016040523d82523d6000602084013e610386565b606091505b509150508083838151811061039d5761039d6107fe565b60200260200101819052505080806103b490610846565b9150506102e7565b805143906060906001600160401b038111156103da576103da61052a565b60405190808252806020026020018201604052801561040d57816020015b60608152602001906001900390816103f85790505b50905060005b83518110156102775761044c848281518110610431576104316107fe565b6020026020010151600001516001600160a01b03163b151590565b1561051857600080858381518110610466576104666107fe565b6020026020010151600001516001600160a01b031686848151811061048d5761048d6107fe565b6020026020010151602001516040516104a69190610814565b6000604051808303816000865af19150503d80600081146104e3576040519150601f19603f3d011682016040523d82523d6000602084013e6104e8565b606091505b5091509150816104f757600080fd5b8084848151811061050a5761050a6107fe565b602002602001018190525050505b8061052281610846565b915050610413565b634e487b7160e01b600052604160045260246000fd5b604080519081016001600160401b03811182821017156105625761056261052a565b60405290565b604051601f8201601f191681016001600160401b03811182821017156105905761059061052a565b604052919050565b80356001600160a01b03811681146105af57600080fd5b919050565b600060208083850312156105c757600080fd5b82356001600160401b03808211156105de57600080fd5b818501915085601f8301126105f257600080fd5b8135818111156106045761060461052a565b8060051b610613858201610568565b918252838101850191858101908984111561062d57600080fd5b86860192505b838310156107045782358581111561064b5760008081fd5b86016040601f19828d0381018213156106645760008081fd5b61066c610540565b6106778b8501610598565b8152828401358981111561068b5760008081fd5b8085019450508d603f8501126106a15760008081fd5b8a840135898111156106b5576106b561052a565b6106c58c84601f84011601610568565b92508083528e848287010111156106dc5760008081fd5b808486018d85013760009083018c0152808b0191909152845250509186019190860190610633565b9998505050505050505050565b60005b8381101561072c578181015183820152602001610714565b8381111561073b576000848401525b50505050565b600060408201848352602060408185015281855180845260608601915060608160051b870101935082870160005b828110156107b557878603605f190184528151805180885261079681888a01898501610711565b601f01601f19169690960185019550928401929084019060010161076f565b509398975050505050505050565b6000602082840312156107d557600080fd5b6107de82610598565b9392505050565b6000602082840312156107f757600080fd5b5035919050565b634e487b7160e01b600052603260045260246000fd5b60008251610826818460208701610711565b9190910192915050565b634e487b7160e01b600052601160045260246000fd5b60006001820161085857610858610830565b5060010190565b60008282101561087157610871610830565b50039056fea26469706673582212209a1982334840a570b82be4c2ce96d3e27ca441c4337922bfa8c85ea47ea423f564736f6c634300080e0033",
			"opcodes": "PUSH1 0x80 PUSH1 0x40 MSTORE CALLVALUE DUP1 ISZERO PUSH2 0x10 JUMPI PUSH1 0x0 DUP1 REVERT JUMPDEST POP PUSH2 0x8AC DUP1 PUSH2 0x20 PUSH1 0x0 CODECOPY PUSH1 0x0 RETURN INVALID PUSH1 0x80 PUSH1 0x40 MSTORE CALLVALUE DUP1 ISZERO PUSH2 0x10 JUMPI PUSH1 0x0 DUP1 REVERT JUMPDEST POP PUSH1 0x4 CALLDATASIZE LT PUSH2 0x8E JUMPI PUSH1 0x0 CALLDATALOAD PUSH1 0xE0 SHR DUP1 PUSH4 0xF28C97D EQ PUSH2 0x93 JUMPI DUP1 PUSH4 0x252DBA42 EQ PUSH2 0xA8 JUMPI DUP1 PUSH4 0x27E86D6E EQ PUSH2 0xC9 JUMPI DUP1 PUSH4 0x4D2301CC EQ PUSH2 0xD1 JUMPI DUP1 PUSH4 0x535E4724 EQ PUSH2 0xEC JUMPI DUP1 PUSH4 0x72425D9D EQ PUSH2 0xFF JUMPI DUP1 PUSH4 0x86D516E8 EQ PUSH2 0x105 JUMPI DUP1 PUSH4 0xA8B0574E EQ PUSH2 0x10B JUMPI DUP1 PUSH4 0xB41ABF9B EQ PUSH2 0x119 JUMPI DUP1 PUSH4 0xEE82AC5E EQ PUSH2 0x12C JUMPI JUMPDEST PUSH1 0x0 DUP1 REVERT JUMPDEST TIMESTAMP JUMPDEST PUSH1 0x40 MLOAD SWAP1 DUP2 MSTORE PUSH1 0x20 ADD JUMPDEST PUSH1 0x40 MLOAD DUP1 SWAP2 SUB SWAP1 RETURN JUMPDEST PUSH2 0xBB PUSH2 0xB6 CALLDATASIZE PUSH1 0x4 PUSH2 0x5B4 JUMP JUMPDEST PUSH2 0x13E JUMP JUMPDEST PUSH1 0x40 MLOAD PUSH2 0x9F SWAP3 SWAP2 SWAP1 PUSH2 0x741 JUMP JUMPDEST PUSH2 0x95 PUSH2 0x27D JUMP JUMPDEST PUSH2 0x95 PUSH2 0xDF CALLDATASIZE PUSH1 0x4 PUSH2 0x7C3 JUMP JUMPDEST PUSH1 0x1 PUSH1 0x1 PUSH1 0xA0 SHL SUB AND BALANCE SWAP1 JUMP JUMPDEST PUSH2 0xBB PUSH2 0xFA CALLDATASIZE PUSH1 0x4 PUSH2 0x5B4 JUMP JUMPDEST PUSH2 0x290 JUMP JUMPDEST DIFFICULTY PUSH2 0x95 JUMP JUMPDEST GASLIMIT PUSH2 0x95 JUMP JUMPDEST PUSH1 0x40 MLOAD COINBASE DUP2 MSTORE PUSH1 0x20 ADD PUSH2 0x9F JUMP JUMPDEST PUSH2 0xBB PUSH2 0x127 CALLDATASIZE PUSH1 0x4 PUSH2 0x5B4 JUMP JUMPDEST PUSH2 0x3BC JUMP JUMPDEST PUSH2 0x95 PUSH2 0x13A CALLDATASIZE PUSH1 0x4 PUSH2 0x7E5 JUMP JUMPDEST BLOCKHASH SWAP1 JUMP JUMPDEST DUP1 MLOAD NUMBER SWAP1 PUSH1 0x60 SWAP1 PUSH1 0x1 PUSH1 0x1 PUSH1 0x40 SHL SUB DUP2 GT ISZERO PUSH2 0x15C JUMPI PUSH2 0x15C PUSH2 0x52A JUMP JUMPDEST PUSH1 0x40 MLOAD SWAP1 DUP1 DUP3 MSTORE DUP1 PUSH1 0x20 MUL PUSH1 0x20 ADD DUP3 ADD PUSH1 0x40 MSTORE DUP1 ISZERO PUSH2 0x18F JUMPI DUP2 PUSH1 0x20 ADD JUMPDEST PUSH1 0x60 DUP2 MSTORE PUSH1 0x20 ADD SWAP1 PUSH1 0x1 SWAP1 SUB SWAP1 DUP2 PUSH2 0x17A JUMPI SWAP1 POP JUMPDEST POP SWAP1 POP PUSH1 0x0 JUMPDEST DUP4 MLOAD DUP2 LT ISZERO PUSH2 0x277 JUMPI PUSH1 0x0 DUP1 DUP6 DUP4 DUP2 MLOAD DUP2 LT PUSH2 0x1B3 JUMPI PUSH2 0x1B3 PUSH2 0x7FE JUMP JUMPDEST PUSH1 0x20 MUL PUSH1 0x20 ADD ADD MLOAD PUSH1 0x0 ADD MLOAD PUSH1 0x1 PUSH1 0x1 PUSH1 0xA0 SHL SUB AND DUP7 DUP5 DUP2 MLOAD DUP2 LT PUSH2 0x1DA JUMPI PUSH2 0x1DA PUSH2 0x7FE JUMP JUMPDEST PUSH1 0x20 MUL PUSH1 0x20 ADD ADD MLOAD PUSH1 0x20 ADD MLOAD PUSH1 0x40 MLOAD PUSH2 0x1F3 SWAP2 SWAP1 PUSH2 0x814 JUMP JUMPDEST PUSH1 0x0 PUSH1 0x40 MLOAD DUP1 DUP4 SUB DUP2 PUSH1 0x0 DUP7 GAS CALL SWAP2 POP POP RETURNDATASIZE DUP1 PUSH1 0x0 DUP2 EQ PUSH2 0x230 JUMPI PUSH1 0x40 MLOAD SWAP2 POP PUSH1 0x1F NOT PUSH1 0x3F RETURNDATASIZE ADD AND DUP3 ADD PUSH1 0x40 MSTORE RETURNDATASIZE DUP3 MSTORE RETURNDATASIZE PUSH1 0x0 PUSH1 0x20 DUP5 ADD RETURNDATACOPY PUSH2 0x235 JUMP JUMPDEST PUSH1 0x60 SWAP2 POP JUMPDEST POP SWAP2 POP SWAP2 POP DUP2 PUSH2 0x244 JUMPI PUSH1 0x0 DUP1 REVERT JUMPDEST DUP1 DUP5 DUP5 DUP2 MLOAD DUP2 LT PUSH2 0x257 JUMPI PUSH2 0x257 PUSH2 0x7FE JUMP JUMPDEST PUSH1 0x20 MUL PUSH1 0x20 ADD ADD DUP2 SWAP1 MSTORE POP POP POP DUP1 DUP1 PUSH2 0x26F SWAP1 PUSH2 0x846 JUMP JUMPDEST SWAP2 POP POP PUSH2 0x195 JUMP JUMPDEST POP SWAP2 POP SWAP2 JUMP JUMPDEST PUSH1 0x0 PUSH2 0x28A PUSH1 0x1 NUMBER PUSH2 0x85F JUMP JUMPDEST BLOCKHASH SWAP1 POP SWAP1 JUMP JUMPDEST DUP1 MLOAD NUMBER SWAP1 PUSH1 0x60 SWAP1 PUSH1 0x1 PUSH1 0x1 PUSH1 0x40 SHL SUB DUP2 GT ISZERO PUSH2 0x2AE JUMPI PUSH2 0x2AE PUSH2 0x52A JUMP JUMPDEST PUSH1 0x40 MLOAD SWAP1 DUP1 DUP3 MSTORE DUP1 PUSH1 0x20 MUL PUSH1 0x20 ADD DUP3 ADD PUSH1 0x40 MSTORE DUP1 ISZERO PUSH2 0x2E1 JUMPI DUP2 PUSH1 0x20 ADD JUMPDEST PUSH1 0x60 DUP2 MSTORE PUSH1 0x20 ADD SWAP1 PUSH1 0x1 SWAP1 SUB SWAP1 DUP2 PUSH2 0x2CC JUMPI SWAP1 POP JUMPDEST POP SWAP1 POP PUSH1 0x0 JUMPDEST DUP4 MLOAD DUP2 LT ISZERO PUSH2 0x277 JUMPI PUSH1 0x0 DUP5 DUP3 DUP2 MLOAD DUP2 LT PUSH2 0x304 JUMPI PUSH2 0x304 PUSH2 0x7FE JUMP JUMPDEST PUSH1 0x20 MUL PUSH1 0x20 ADD ADD MLOAD PUSH1 0x0 ADD MLOAD PUSH1 0x1 PUSH1 0x1 PUSH1 0xA0 SHL SUB AND DUP6 DUP4 DUP2 MLOAD DUP2 LT PUSH2 0x32B JUMPI PUSH2 0x32B PUSH2 0x7FE JUMP JUMPDEST PUSH1 0x20 MUL PUSH1 0x20 ADD ADD MLOAD PUSH1 0x20 ADD MLOAD PUSH1 0x40 MLOAD PUSH2 0x344 SWAP2 SWAP1 PUSH2 0x814 JUMP JUMPDEST PUSH1 0x0 PUSH1 0x40 MLOAD DUP1 DUP4 SUB DUP2 PUSH1 0x0 DUP7 GAS CALL SWAP2 POP POP RETURNDATASIZE DUP1 PUSH1 0x0 DUP2 EQ PUSH2 0x381 JUMPI PUSH1 0x40 MLOAD SWAP2 POP PUSH1 0x1F NOT PUSH1 0x3F RETURNDATASIZE ADD AND DUP3 ADD PUSH1 0x40 MSTORE RETURNDATASIZE DUP3 MSTORE RETURNDATASIZE PUSH1 0x0 PUSH1 0x20 DUP5 ADD RETURNDATACOPY PUSH2 0x386 JUMP JUMPDEST PUSH1 0x60 SWAP2 POP JUMPDEST POP SWAP2 POP POP DUP1 DUP4 DUP4 DUP2 MLOAD DUP2 LT PUSH2 0x39D JUMPI PUSH2 0x39D PUSH2 0x7FE JUMP JUMPDEST PUSH1 0x20 MUL PUSH1 0x20 ADD ADD DUP2 SWAP1 MSTORE POP POP DUP1 DUP1 PUSH2 0x3B4 SWAP1 PUSH2 0x846 JUMP JUMPDEST SWAP2 POP POP PUSH2 0x2E7 JUMP JUMPDEST DUP1 MLOAD NUMBER SWAP1 PUSH1 0x60 SWAP1 PUSH1 0x1 PUSH1 0x1 PUSH1 0x40 SHL SUB DUP2 GT ISZERO PUSH2 0x3DA JUMPI PUSH2 0x3DA PUSH2 0x52A JUMP JUMPDEST PUSH1 0x40 MLOAD SWAP1 DUP1 DUP3 MSTORE DUP1 PUSH1 0x20 MUL PUSH1 0x20 ADD DUP3 ADD PUSH1 0x40 MSTORE DUP1 ISZERO PUSH2 0x40D JUMPI DUP2 PUSH1 0x20 ADD JUMPDEST PUSH1 0x60 DUP2 MSTORE PUSH1 0x20 ADD SWAP1 PUSH1 0x1 SWAP1 SUB SWAP1 DUP2 PUSH2 0x3F8 JUMPI SWAP1 POP JUMPDEST POP SWAP1 POP PUSH1 0x0 JUMPDEST DUP4 MLOAD DUP2 LT ISZERO PUSH2 0x277 JUMPI PUSH2 0x44C DUP5 DUP3 DUP2 MLOAD DUP2 LT PUSH2 0x431 JUMPI PUSH2 0x431 PUSH2 0x7FE JUMP JUMPDEST PUSH1 0x20 MUL PUSH1 0x20 ADD ADD MLOAD PUSH1 0x0 ADD MLOAD PUSH1 0x1 PUSH1 0x1 PUSH1 0xA0 SHL SUB AND EXTCODESIZE ISZERO ISZERO SWAP1 JUMP JUMPDEST ISZERO PUSH2 0x518 JUMPI PUSH1 0x0 DUP1 DUP6 DUP4 DUP2 MLOAD DUP2 LT PUSH2 0x466 JUMPI PUSH2 0x466 PUSH2 0x7FE JUMP JUMPDEST PUSH1 0x20 MUL PUSH1 0x20 ADD ADD MLOAD PUSH1 0x0 ADD MLOAD PUSH1 0x1 PUSH1 0x1 PUSH1 0xA0 SHL SUB AND DUP7 DUP5 DUP2 MLOAD DUP2 LT PUSH2 0x48D JUMPI PUSH2 0x48D PUSH2 0x7FE JUMP JUMPDEST PUSH1 0x20 MUL PUSH1 0x20 ADD ADD MLOAD PUSH1 0x20 ADD MLOAD PUSH1 0x40 MLOAD PUSH2 0x4A6 SWAP2 SWAP1 PUSH2 0x814 JUMP JUMPDEST PUSH1 0x0 PUSH1 0x40 MLOAD DUP1 DUP4 SUB DUP2 PUSH1 0x0 DUP7 GAS CALL SWAP2 POP POP RETURNDATASIZE DUP1 PUSH1 0x0 DUP2 EQ PUSH2 0x4E3 JUMPI PUSH1 0x40 MLOAD SWAP2 POP PUSH1 0x1F NOT PUSH1 0x3F RETURNDATASIZE ADD AND DUP3 ADD PUSH1 0x40 MSTORE RETURNDATASIZE DUP3 MSTORE RETURNDATASIZE PUSH1 0x0 PUSH1 0x20 DUP5 ADD RETURNDATACOPY PUSH2 0x4E8 JUMP JUMPDEST PUSH1 0x60 SWAP2 POP JUMPDEST POP SWAP2 POP SWAP2 POP DUP2 PUSH2 0x4F7 JUMPI PUSH1 0x0 DUP1 REVERT JUMPDEST DUP1 DUP5 DUP5 DUP2 MLOAD DUP2 LT PUSH2 0x50A JUMPI PUSH2 0x50A PUSH2 0x7FE JUMP JUMPDEST PUSH1 0x20 MUL PUSH1 0x20 ADD ADD DUP2 SWAP1 MSTORE POP POP POP JUMPDEST DUP1 PUSH2 0x522 DUP2 PUSH2 0x846 JUMP JUMPDEST SWAP2 POP POP PUSH2 0x413 JUMP JUMPDEST PUSH4 0x4E487B71 PUSH1 0xE0 SHL PUSH1 0x0 MSTORE PUSH1 0x41 PUSH1 0x4 MSTORE PUSH1 0x24 PUSH1 0x0 REVERT JUMPDEST PUSH1 0x40 DUP1 MLOAD SWAP1 DUP2 ADD PUSH1 0x1 PUSH1 0x1 PUSH1 0x40 SHL SUB DUP2 GT DUP3 DUP3 LT OR ISZERO PUSH2 0x562 JUMPI PUSH2 0x562 PUSH2 0x52A JUMP JUMPDEST PUSH1 0x40 MSTORE SWAP1 JUMP JUMPDEST PUSH1 0x40 MLOAD PUSH1 0x1F DUP3 ADD PUSH1 0x1F NOT AND DUP2 ADD PUSH1 0x1 PUSH1 0x1 PUSH1 0x40 SHL SUB DUP2 GT DUP3 DUP3 LT OR ISZERO PUSH2 0x590 JUMPI PUSH2 0x590 PUSH2 0x52A JUMP JUMPDEST PUSH1 0x40 MSTORE SWAP2 SWAP1 POP JUMP JUMPDEST DUP1 CALLDATALOAD PUSH1 0x1 PUSH1 0x1 PUSH1 0xA0 SHL SUB DUP2 AND DUP2 EQ PUSH2 0x5AF JUMPI PUSH1 0x0 DUP1 REVERT JUMPDEST SWAP2 SWAP1 POP JUMP JUMPDEST PUSH1 0x0 PUSH1 0x20 DUP1 DUP4 DUP6 SUB SLT ISZERO PUSH2 0x5C7 JUMPI PUSH1 0x0 DUP1 REVERT JUMPDEST DUP3 CALLDATALOAD PUSH1 0x1 PUSH1 0x1 PUSH1 0x40 SHL SUB DUP1 DUP3 GT ISZERO PUSH2 0x5DE JUMPI PUSH1 0x0 DUP1 REVERT JUMPDEST DUP2 DUP6 ADD SWAP2 POP DUP6 PUSH1 0x1F DUP4 ADD SLT PUSH2 0x5F2 JUMPI PUSH1 0x0 DUP1 REVERT JUMPDEST DUP2 CALLDATALOAD DUP2 DUP2 GT ISZERO PUSH2 0x604 JUMPI PUSH2 0x604 PUSH2 0x52A JUMP JUMPDEST DUP1 PUSH1 0x5 SHL PUSH2 0x613 DUP6 DUP3 ADD PUSH2 0x568 JUMP JUMPDEST SWAP2 DUP3 MSTORE DUP4 DUP2 ADD DUP6 ADD SWAP2 DUP6 DUP2 ADD SWAP1 DUP10 DUP5 GT ISZERO PUSH2 0x62D JUMPI PUSH1 0x0 DUP1 REVERT JUMPDEST DUP7 DUP7 ADD SWAP3 POP JUMPDEST DUP4 DUP4 LT ISZERO PUSH2 0x704 JUMPI DUP3 CALLDATALOAD DUP6 DUP2 GT ISZERO PUSH2 0x64B JUMPI PUSH1 0x0 DUP1 DUP2 REVERT JUMPDEST DUP7 ADD PUSH1 0x40 PUSH1 0x1F NOT DUP3 DUP14 SUB DUP2 ADD DUP3 SGT ISZERO PUSH2 0x664 JUMPI PUSH1 0x0 DUP1 DUP2 REVERT JUMPDEST PUSH2 0x66C PUSH2 0x540 JUMP JUMPDEST PUSH2 0x677 DUP12 DUP6 ADD PUSH2 0x598 JUMP JUMPDEST DUP2 MSTORE DUP3 DUP5 ADD CALLDATALOAD DUP10 DUP2 GT ISZERO PUSH2 0x68B JUMPI PUSH1 0x0 DUP1 DUP2 REVERT JUMPDEST DUP1 DUP6 ADD SWAP5 POP POP DUP14 PUSH1 0x3F DUP6 ADD SLT PUSH2 0x6A1 JUMPI PUSH1 0x0 DUP1 DUP2 REVERT JUMPDEST DUP11 DUP5 ADD CALLDATALOAD DUP10 DUP2 GT ISZERO PUSH2 0x6B5 JUMPI PUSH2 0x6B5 PUSH2 0x52A JUMP JUMPDEST PUSH2 0x6C5 DUP13 DUP5 PUSH1 0x1F DUP5 ADD AND ADD PUSH2 0x568 JUMP JUMPDEST SWAP3 POP DUP1 DUP4 MSTORE DUP15 DUP5 DUP3 DUP8 ADD ADD GT ISZERO PUSH2 0x6DC JUMPI PUSH1 0x0 DUP1 DUP2 REVERT JUMPDEST DUP1 DUP5 DUP7 ADD DUP14 DUP6 ADD CALLDATACOPY PUSH1 0x0 SWAP1 DUP4 ADD DUP13 ADD MSTORE DUP1 DUP12 ADD SWAP2 SWAP1 SWAP2 MSTORE DUP5 MSTORE POP POP SWAP2 DUP7 ADD SWAP2 SWAP1 DUP7 ADD SWAP1 PUSH2 0x633 JUMP JUMPDEST SWAP10 SWAP9 POP POP POP POP POP POP POP POP POP JUMP JUMPDEST PUSH1 0x0 JUMPDEST DUP4 DUP2 LT ISZERO PUSH2 0x72C JUMPI DUP2 DUP2 ADD MLOAD DUP4 DUP3 ADD MSTORE PUSH1 0x20 ADD PUSH2 0x714 JUMP JUMPDEST DUP4 DUP2 GT ISZERO PUSH2 0x73B JUMPI PUSH1 0x0 DUP5 DUP5 ADD MSTORE JUMPDEST POP POP POP POP JUMP JUMPDEST PUSH1 0x0 PUSH1 0x40 DUP3 ADD DUP5 DUP4 MSTORE PUSH1 0x20 PUSH1 0x40 DUP2 DUP6 ADD MSTORE DUP2 DUP6 MLOAD DUP1 DUP5 MSTORE PUSH1 0x60 DUP7 ADD SWAP2 POP PUSH1 0x60 DUP2 PUSH1 0x5 SHL DUP8 ADD ADD SWAP4 POP DUP3 DUP8 ADD PUSH1 0x0 JUMPDEST DUP3 DUP2 LT ISZERO PUSH2 0x7B5 JUMPI DUP8 DUP7 SUB PUSH1 0x5F NOT ADD DUP5 MSTORE DUP2 MLOAD DUP1 MLOAD DUP1 DUP9 MSTORE PUSH2 0x796 DUP2 DUP9 DUP11 ADD DUP10 DUP6 ADD PUSH2 0x711 JUMP JUMPDEST PUSH1 0x1F ADD PUSH1 0x1F NOT AND SWAP7 SWAP1 SWAP7 ADD DUP6 ADD SWAP6 POP SWAP3 DUP5 ADD SWAP3 SWAP1 DUP5 ADD SWAP1 PUSH1 0x1 ADD PUSH2 0x76F JUMP JUMPDEST POP SWAP4 SWAP9 SWAP8 POP POP POP POP POP POP POP POP JUMP JUMPDEST PUSH1 0x0 PUSH1 0x20 DUP3 DUP5 SUB SLT ISZERO PUSH2 0x7D5 JUMPI PUSH1 0x0 DUP1 REVERT JUMPDEST PUSH2 0x7DE DUP3 PUSH2 0x598 JUMP JUMPDEST SWAP4 SWAP3 POP POP POP JUMP JUMPDEST PUSH1 0x0 PUSH1 0x20 DUP3 DUP5 SUB SLT ISZERO PUSH2 0x7F7 JUMPI PUSH1 0x0 DUP1 REVERT JUMPDEST POP CALLDATALOAD SWAP2 SWAP1 POP JUMP JUMPDEST PUSH4 0x4E487B71 PUSH1 0xE0 SHL PUSH1 0x0 MSTORE PUSH1 0x32 PUSH1 0x4 MSTORE PUSH1 0x24 PUSH1 0x0 REVERT JUMPDEST PUSH1 0x0 DUP3 MLOAD PUSH2 0x826 DUP2 DUP5 PUSH1 0x20 DUP8 ADD PUSH2 0x711 JUMP JUMPDEST SWAP2 SWAP1 SWAP2 ADD SWAP3 SWAP2 POP POP JUMP JUMPDEST PUSH4 0x4E487B71 PUSH1 0xE0 SHL PUSH1 0x0 MSTORE PUSH1 0x11 PUSH1 0x4 MSTORE PUSH1 0x24 PUSH1 0x0 REVERT JUMPDEST PUSH1 0x0 PUSH1 0x1 DUP3 ADD PUSH2 0x858 JUMPI PUSH2 0x858 PUSH2 0x830 JUMP JUMPDEST POP PUSH1 0x1 ADD SWAP1 JUMP JUMPDEST PUSH1 0x0 DUP3 DUP3 LT ISZERO PUSH2 0x871 JUMPI PUSH2 0x871 PUSH2 0x830 JUMP JUMPDEST POP SUB SWAP1 JUMP INVALID LOG2 PUSH5 0x6970667358 0x22 SLT KECCAK256 SWAP11 NOT DUP3 CALLER BASEFEE BLOCKHASH 0xA5 PUSH17 0xB82BE4C2CE96D3E27CA441C4337922BFA8 0xC8 0x5E LOG4 PUSH31 0xA423F564736F6C634300080E00330000000000000000000000000000000000 "
		},
		"gasEstimates": {
			"creation": {
				"codeDepositCost": "444000",
				"executionCost": "480",
				"totalCost": "444480"
			},
			"external": {
				"aggregate((address,bytes)[])": "infinite",
				"aggregateIgnoreFailed((address,bytes)[])": "infinite",
				"aggregateOnlyContract((address,bytes)[])": "infinite",
				"getBlockHash(uint256)": "454",
				"getCurrentBlockCoinbase()": "308",
				"getCurrentBlockDifficulty()": "268",
				"getCurrentBlockGasLimit()": "290",
				"getCurrentBlockTimestamp()": "147",
				"getEthBalance(address)": "801",
				"getLastBlockHash()": "309"
			}
		},
		"methodIdentifiers": {
			"aggregate((address,bytes)[])": "252dba42",
			"aggregateIgnoreFailed((address,bytes)[])": "535e4724",
			"aggregateOnlyContract((address,bytes)[])": "b41abf9b",
			"getBlockHash(uint256)": "ee82ac5e",
			"getCurrentBlockCoinbase()": "a8b0574e",
			"getCurrentBlockDifficulty()": "72425d9d",
			"getCurrentBlockGasLimit()": "86d516e8",
			"getCurrentBlockTimestamp()": "0f28c97d",
			"getEthBalance(address)": "4d2301cc",
			"getLastBlockHash()": "27e86d6e"
		}
	},
	"abi": [
		{
			"inputs": [
				{
					"components": [
						{
							"internalType": "address",
							"name": "target",
							"type": "address"
						},
						{
							"internalType": "bytes",
							"name": "callData",
							"type": "bytes"
						}
					],
					"internalType": "struct MultiCall.Call[]",
					"name": "calls",
					"type": "tuple[]"
				}
			],
			"name": "aggregate",
			"outputs": [
				{
					"internalType": "uint256",
					"name": "blockNumber",
					"type": "uint256"
				},
				{
					"internalType": "bytes[]",
					"name": "returnData",
					"type": "bytes[]"
				}
			],
			"stateMutability": "nonpayable",
			"type": "function"
		},
		{
			"inputs": [
				{
					"components": [
						{
							"internalType": "address",
							"name": "target",
							"type": "address"
						},
						{
							"internalType": "bytes",
							"name": "callData",
							"type": "bytes"
						}
					],
					"internalType": "struct MultiCall.Call[]",
					"name": "calls",
					"type": "tuple[]"
				}
			],
			"name": "aggregateIgnoreFailed",
			"outputs": [
				{
					"internalType": "uint256",
					"name": "blockNumber",
					"type": "uint256"
				},
				{
					"internalType": "bytes[]",
					"name": "returnData",
					"type": "bytes[]"
				}
			],
			"stateMutability": "nonpayable",
			"type": "function"
		},
		{
			"inputs": [
				{
					"components": [
						{
							"internalType": "address",
							"name": "target",
							"type": "address"
						},
						{
							"internalType": "bytes",
							"name": "callData",
							"type": "bytes"
						}
					],
					"internalType": "struct MultiCall.Call[]",
					"name": "calls",
					"type": "tuple[]"
				}
			],
			"name": "aggregateOnlyContract",
			"outputs": [
				{
					"internalType": "uint256",
					"name": "blockNumber",
					"type": "uint256"
				},
				{
					"internalType": "bytes[]",
					"name": "returnData",
					"type": "bytes[]"
				}
			],
			"stateMutability": "nonpayable",
			"type": "function"
		},
		{
			"inputs": [
				{
					"internalType": "uint256",
					"name": "blockNumber",
					"type": "uint256"
				}
			],
			"name": "getBlockHash",
			"outputs": [
				{
					"internalType": "bytes32",
					"name": "blockHash",
					"type": "bytes32"
				}
			],
			"stateMutability": "view",
			"type": "function"
		},
		{
			"inputs": [],
			"name": "getCurrentBlockCoinbase",
			"outputs": [
				{
					"internalType": "address",
					"name": "coinbase",
					"type": "address"
				}
			],
			"stateMutability": "view",
			"type": "function"
		},
		{
			"inputs": [],
			"name": "getCurrentBlockDifficulty",
			"outputs": [
				{
					"internalType": "uint256",
					"name": "difficulty",
					"type": "uint256"
				}
			],
			"stateMutability": "view",
			"type": "function"
		},
		{
			"inputs": [],
			"name": "getCurrentBlockGasLimit",
			"outputs": [
				{
					"internalType": "uint256",
					"name": "gaslimit",
					"type": "uint256"
				}
			],
			"stateMutability": "view",
			"type": "function"
		},
		{
			"inputs": [],
			"name": "getCurrentBlockTimestamp",
			"outputs": [
				{
					"internalType": "uint256",
					"name": "timestamp",
					"type": "uint256"
				}
			],
			"stateMutability": "view",
			"type": "function"
		},
		{
			"inputs": [
				{
					"internalType": "address",
					"name": "addr",
					"type": "address"
				}
			],
			"name": "getEthBalance",
			"outputs": [
				{
					"internalType": "uint256",
					"name": "balance",
					"type": "uint256"
				}
			],
			"stateMutability": "view",
			"type": "function"
		},
		{
			"inputs": [],
			"name": "getLastBlockHash",
			"outputs": [
				{
					"internalType": "bytes32",
					"name": "blockHash",
					"type": "bytes32"
				}
			],
			"stateMutability": "view",
			"type": "function"
		}
	]
}